:100000000C9435010C947C010C947C010C947C01C3
:100010000C947C010C947C010C947C010C947C016C
:100020000C947C010C947C010C945E1B0C94321C8F
:100030000C9464160C947C010C947C010C947C014F
:100040000C947C010C947C010C947C010C947C013C
:100050000C947C010C94BB160C947C010C947C01D8
:100060000C947C010C947C010C947C010C947C011C
:100070000C947C010C947C010C947C010C947C010C
:100080000C947C010C947C010C947C010C947C01FC
:100090000C947C010C947C010C947C010C947C01EC
:1000A0000C947C010C947C010C947C01075A095A35
:1000B0000B5A0D5A115A165A1A5A1C5A1E5A205ABD
:1000C000225A085A0A5A0C5A0E5A125A175A1B5ACE
:1000D0001D5A1F5A215A295A00000000015A0F5A6E
:1000E000105A185A195A025A00000000000000D095
:1000F000D0D0D0D0D00101020408102041424448A1
:1001000048000000484850608182848890A0C1C2A5
:10011000C4D0D0D0D0D0D0C8000000000000000073
:1001200000000000000000000000000000001003BC
:10013000540068006500200055006E006900000052
:100140001E037300740065006E006F006B00650095
:10015000790062006F0061007200640073000000AB
:100160000403090409027800040100A0FA0904004C
:1001700000010301010009211101000122400007D3
:1001800005810308000A09040100010300000009B9
:100190002111010001223B000705820320000A080B
:1001A0000B02020202010009040200010202010026
:1001B0000524001001042402020524060203070599
:1001C00083030800FF09040300020A00000007057A
:1001D0000502100005070584021000051201000247
:1001E000EF02010800900100010001020001050179
:1001F0000906A1018506050719E029E71500250173
:100200009508750181020507190029EF15002501E0
:1002100095F07501810205081901290595057501FB
:100220009102950175039101C005010906A101051F
:100230000719E029E7150025019508750181029548
:1002400001750881010507190029FF150026FF0027
:1002500095067508810005081901290595057501A0
:100260009102950175039101C00011241FBECFEFCB
:10027000DAE0DEBFCDBF04B603FE27C080913102B5
:1002800090913202A0913302B09134028730904BAA
:10029000A740B04BD1F4109231021092320210926A
:1002A00033021092340214BE84B7877F84BF0FB626
:1002B000F894A89580916000886180936000109206
:1002C00060000FBEE0E0F8E3099511E0A0E0B1E0C6
:1002D000E0E1F0E402C005900D92A234B107D9F735
:1002E00022E0A2E4B1E001C01D92A133B207E1F720
:1002F0000E9483110C94DE1F0C94000081E00C948A
:10030000CA1181E0089581E008950C948301089555
:100310000C9487011F93CF93DF9300D000D00F92EE
:10032000CDB7DEB749835A836B833091440189810D
:100330009A8131111DC06623B9F02223A9F00E94D1
:100340009107182F682F89819A810E943D07698142
:100350007A81812F0F900F900F900F900F90DF9167
:10036000CF911F910C94FD0D0E946907182FEFCFBC
:100370000E94910769817A81EDCFFC01262F40818F
:1003800051816281738184810C948A0181E0089596
:10039000CF93DF93EC0160E00E94BD01BE01DF91CD
:1003A000CF910C9488010E9402100E9456020C9476
:1003B00026100C94291080E00C945702089508959B
:1003C0000E94E6050E94DF012FEF84E39CE02150AC
:1003D00080409040E1F700C000000C94DF160F93BE
:1003E0001F93CF93DF938C0161E00E94BD01EC016C
:1003F000B8010E9485018823D9F1B801CE010E947D
:10040000DC118823A9F1B801CE010E949914882338
:1004100079F1B801CE010E94D912882349F1B801BF
:10042000CE010E940314882319F1F80182818823E8
:1004300061F0CB35FDE5DF0721F170F4C115ECE586
:10044000DE07A1F0CF3DDC45C9F0C801DF91CF91B7
:100450001F910F910C948101CC358DE5D807A1F047
:10046000CD35DD4591F70E943E0CEFCF0E94E001B3
:1004700080E0DF91CF911F910F9108950E94F80CB9
:10048000F7CF0E94470CE1CF0E944A0CDECF0C94BC
:10049000DE010E94F5140E9457020C944702089551
:1004A0000C944F0281E008950C9452020895CF936A
:1004B000C82F0E9450028C2FCF910C945402CF93DE
:1004C000DF93CDB7DEB72B970FB6F894DEBF0FBE24
:1004D000CDBF4F83588769877A878B8761110E94C8
:1004E0008C0B1E821D8285E0FE013796DE0111967F
:1004F00001900D928A95E1F78C819D81892B89F479
:1005000049815A816B817C818D819E810E94AD0AD7
:100510002B960FB6F894DEBF0FBECDBFDF91CF9103
:10052000089589819A8189238F3F51F3CE010196E5
:100530000E94C6018111E4CFEBCFFC018081918143
:100540000C94D307CF93C82F882309F469C082384D
:10055000C1F40E94F51481FD63C089E30E94470B3A
:100560000E94BC0B2FEF81EE94E021508040904020
:10057000E1F700C0000089E30E944E0BCF910C947C
:10058000BC0B8338A1F40E94F51480FD49C083E5BB
:100590000E94470B0E94BC0B2FEF81EE94E021508C
:1005A00080409040E1F700C0000083E5E5CF84384B
:1005B000A1F40E94F51482FD33C087E40E94470B2A
:1005C0000E94BC0B2FEF81EE94E0215080409040C0
:1005D000E1F700C0000087E4CFCF8CEF8C0F813AA9
:1005E00090F46C2F80910201909103010E945B15A1
:1005F000882329F08C2F0E944E0B0E94BC0B8C2F5D
:100600000E94470BBBCF80E28C0F883048F4C77044
:1006100081E001C0880FCA95EAF70E946F0BAECF48
:10062000CF910895882309F44BC0823871F40E9459
:10063000F51481FF45C089E30E94470B0E94BC0B63
:1006400089E30E944E0B0C94BC0B833859F40E9432
:10065000F51480FF35C083E50E94470B0E94BC0B58
:1006600083E5EFCF843859F40E94F51482FF28C047
:1006700087E40E94470B0E94BC0B87E4E2CF9CEF0B
:10068000980F913AF0F290E2980F983050F48770FA
:1006900091E001C0990F8A95EAF7892F0E94750BA6
:1006A000D2CF9BE5980F933020F490E080E00C943B
:1006B0001B15885A873120F490E080E00C943115A6
:1006C00008951F93CF93DF93182FEB010E94A2028E
:1006D000209731F4812FDF91CF911F910C94120359
:1006E0008FE99FE00197F1F700C000002197F0CF5C
:1006F00070E060E0893311F460E570E00C94610310
:10070000882321F00E946F0B0C94BC0B0895882362
:1007100021F00E94750B0C94BC0B0895BF92CF92F0
:10072000DF92EF92FF920F931F93CF93DF936C01B1
:10073000D62FC72FFC011281F580F2949FE0F92299
:100740000E94650BE82E8823B9F0E12E1123A1F059
:100750008C2F807F803421F080E28D0F8830B0F0C4
:100760008091130282FD12C082E00E940D0C0E9453
:10077000650B91E0E82EE926BC2EB2948FE0B822FA
:10078000EB2DF0E0E052F04E0C94891FE12CF4CFF9
:100790000C2F0F70C07F11F00295007F112399F08C
:1007A000002359F080E28D0F883010F0D11107C07E
:1007B000802F0E946F0B0E94BC0B8D2F41C0802F99
:1007C0000E947F0BF8CF8D2F0E941203002309F4A3
:1007D0003FC080E28D0F883010F0D11104C0802F0F
:1007E0000E94750B03C0802F0E94850B0E94BC0BDA
:1007F0002FC00C2F0F70C07FC03211F00295007F08
:10080000DD2381F0D13009F469C0112309F473C0EC
:10081000FF2009F469C0F601858180FFCECF8F707B
:10082000858362C08091130282FF38C0112359F082
:10083000002329F0802F0E946F0B0E94BC0B80E0E8
:100840000E94A20205C080E00E9412030111C7CFDE
:10085000EB2DE850FF0B349720F40E94F5140E9412
:100860005702EE2009F45BC10E94610B80FD57C165
:10087000F60112820E945B0B0E94A106C6010E9433
:10088000B0050E945B0BDF91CF911F910F91FF90FC
:10089000EF90DF90CF90BF900C94C206112389F0A7
:1008A000F11006C00E949F0B802B0E948003D0CFC6
:1008B000F1E0FF12F7CF0E949F0B802B0E94A50B47
:1008C000C7CFF11006C00E94B20B802F0E94870391
:1008D000BFCF21E0F21609F4BBCFF5CF112331F0E1
:1008E00035E03F1508F4B4CF802FDFCF84E08F15BB
:1008F00008F4AECFEACFFF2041F3D93349F4FFEF3C
:1009000027EE33E0F15020403040E1F700C0000016
:100910008D2F0E9412039CCF8C2F837009F041C051
:10092000111196CF4D2F429546954770440F440FB5
:100930000D2F0F7010E030E020E0042E04C0000FF7
:10094000111F221F331F0A94D2F760E070E0CB0121
:10095000D4FF0FC06FE070E080E090E004C0660F4D
:10096000771F881F991F4A95D2F7609570958095DB
:100970009095C695C695C370602B712B822B932BD7
:10098000C23049F058F4C13019F00E94530660CFCC
:100990000E9441065DCF0E9465065ACF0E943F0625
:1009A00057CF8695112311F08C2F8170882309F47D
:1009B0004FCF4D2F429546954770440F440F0D2F52
:1009C0000F7010E030E020E0042E04C0000F111F73
:1009D000221F331F0A94D2F760E070E0CB01D4FFEE
:1009E0000FC06FE070E080E090E004C0660F771FFA
:1009F000881F991F4A95D2F76095709580959095BC
:100A0000C695C695C370602B712B822B932BC23079
:100A100049F058F4C13019F00E94180719CF0E940C
:100A2000060716CF0E942A0713CF0E947B0610CF1D
:100A3000CF70112329F08C2F0E94A1068D2F35CF66
:100A40008D2F0E9487038C2F0E94C20601CFD23FB8
:100A500051F160F4D03FB9F0D13F81F0112309F496
:100A600049C0F110AACE8C2F8F7121C0D33F11F154
:100A7000D43FA1F78091130282FF26C08C2F8F7183
:100A8000112311F314C0112349F084E08F1508F4E9
:100A9000DFCE8C2F8F710E94E506DACE95E09F1590
:100AA00008F4D6CEF6CF8C2F8F711111CDCF0E94C6
:100AB000A106CECE112329F08C2F8F710E948C06B7
:100AC000C7CE0E948706C4CE112349F0CF718C2F68
:100AD0000E94A10663E08C2F0E94F20BB9CE81E048
:100AE0000E940D0CE1E0EF1508F0B2CE82E00E940A
:100AF0000D0CAECEF11001CF8C2F8F71A5CF4C2FE6
:100B00004F706D2FC6010E94F90D0E940108A0CE02
:100B10004C2F4F706D2FC6010E94FC0D99CEDF91B6
:100B2000CF911F910F91FF90EF90DF90CF90BF90EA
:100B300008950F931F93CF93DF93EC016881798120
:100B40008A810E94DD078C010E943C070E943E06BC
:100B5000B801CE01DF91CF911F910F910C948E03BC
:100B6000CF93DF93EC018B819C81892B29F08881C5
:100B7000998189238F3F59F4DF91CF910895CE0158
:100B80000E949905CE01DF91CF910C94C801CE014E
:100B90000E94EF018111F3CF0E94650B882361F35E
:100BA0008A81882349F38091130282FDE5CF82E098
:100BB000DF91CF910C940D0C0E948C0B0E949C0B2A
:100BC0000C94BC0B0E94550B0C94DC050E947C0B12
:100BD0000C94E205E92FE295EF70E250EE3070F4EC
:100BE000F0E0E051F04E0C94891F803F19F020F4A2
:100BF000883E20F481E00895843FE1F380E0089589
:100C0000883EC0F3813FD1F7F5CF93FB882780F969
:100C10000895FC01808191810E94D3070C94EA051C
:100C2000CF93DF9300D000D00F92CDB7DEB70F90F7
:100C30000F900F900F900F90DF91CF910895CF9369
:100C4000DF9300D000D000D0CDB7DEB726960FB628
:100C5000F894DEBF0FBECDBFDF91CF910895089508
:100C60000C942F060E94300660936201709363011A
:100C700080936401909365010C94DC0508950C94B5
:100C800032060F931F93009162011091630120912E
:100C9000640130916501602B712B822B932B1F9186
:100CA0000F910C9432060F931F93009162011091E3
:100CB00063012091640130916501602371238223D7
:100CC00093231F910F910C9432060F931F93009161
:100CD00062011091630120916401309165016027E8
:100CE0007127822793271F910F910C9432060C9441
:100CF0002F060C9477060E94790660935E0170932C
:100D00005F0180936001909361010C94DC0560E0C9
:100D100070E0CB010C947B060F931F9341E050E0F1
:100D200060E070E08A019B0104C0000F111F221FC8
:100D3000331F8A95D2F7C901B8011F910F910C9406
:100D40007B060F931F9341E050E060E070E004C029
:100D5000440F551F661F771F8A95D2F780915E0159
:100D600090915F01A0916001B09161018A019B01A6
:100D7000082B192B2A2B3B2BC901B8011F910F916E
:100D80000C947B060F931F9341E050E060E070E00D
:100D900004C0440F551F661F771F8A95D2F7CB01F9
:100DA000BA01609570958095909500915E011091C3
:100DB0005F012091600130916101602371238223E2
:100DC00093231F910F910C947B060F931F9341E087
:100DD00050E060E070E004C0440F551F661F771FAD
:100DE0008A95D2F780915E0190915F01A091600198
:100DF000B09161018A019B01082719272A273B2707
:100E0000C901B8011F910F910C947B060F931F939A
:100E100000915E0110915F012091600130916101AC
:100E2000602B712B822B932B1F910F910C947B06BF
:100E30000F931F9300915E0110915F01209160015B
:100E40003091610160237123822393231F910F91BD
:100E50000C947B060F931F9300915E0110915F012C
:100E600020916001309161016027712782279327CB
:100E70001F910F910C947B0608952BE0929F800D9B
:100E80001124982F977041E001C0440F9A95EAF71A
:100E900086958695869595E0899FF0011124EB5BF8
:100EA000FE4F90E080E070E05191DF0111979B01CF
:100EB000082E02C0369527950A94E2F721702195F5
:100EC0002527242325272C9301968530910561F74A
:100ED00008952BE0929F800D1124982F977086958E
:100EE0008695869525E0829FF0011124EB5BFE4FED
:100EF00050E040E080E0219130E0092E02C03695BC
:100F000027950A94E2F721703327042E01C0220F9F
:100F10000A94EAF7822B4F5F5F4F4530510559F72E
:100F20000895BF92CF92DF92EF92FF920F931F939B
:100F3000CF93DF938C01C0905E01D0905F01E09071
:100F40006001F09061018091620190916301A09134
:100F50006401B0916501C82AD92AEA2AFB2ACFE1A7
:100F6000D0E0BC2ED701C6010C2E04C0B695A795C3
:100F7000979587950A94D2F780FD0EC0219788F740
:100F8000B12C8B2DDF91CF911F910F91FF90EF909E
:100F9000DF90CF90BF900895B8018C2F0E940A0F68
:100FA000019761F3EECFCF93DF93EC010E9491079D
:100FB000BE01DF91CF910C940A0F1F93CF93DF9363
:100FC000EB0190914401992331F0CB01DF91CF9156
:100FD0001F910C94D307882379F0CB010E949107CD
:100FE000182F682FCE010E943D07BE01812FDF918F
:100FF000CF911F910C940A0FCB010E946907182F03
:10100000F4CFEF92FF920F931F93CF93DF938C0156
:10101000892B81F0F12CEE24E394E8012196F8016C
:101020008491843770F4843008F05FC08130B1F06F
:101030008230A1F1DF91CF911F910F91FF90EF903E
:101040000895853709F44CC008F43DC09CE7980F1B
:10105000903780F78F770E94120349C00E5F1F4FB1
:10106000FE01849190E2980F983060F48770FE2D15
:1010700001C0FF0F8A95EAF78F2F0E948F0B0E9405
:10108000BC0B02C00E94A2028F2D815030F2EFE90A
:10109000FFE03197F1F700C00000F7CF0E5F1F4F60
:1010A000FE01849190E2980F983050F48770FE2DE5
:1010B00001C0FF0F8A95EAF78F2F0E94950BDFCFB3
:1010C0000E941203E1CF0E5F1F4FFE01C491C15079
:1010D000D8F28FE99FE00197F1F700C00000F7CF49
:1010E0000E5F1F4FFE01F490CFCF0E94A2028E012F
:1010F000CBCF1F93CF93DF93C091660116E0809111
:1011000067018C1304C0DF91CF911F910895D0E047
:101110001C9FF0011D9FF00D1124E859FE4F4081E6
:10112000518162817381848195810E941F0621967D
:10113000C770E5CF409198015091990160919A0153
:1011400070919B0180919C0190919D010C941F06D0
:10115000FF920F931F93CF93DF9380919D01807F28
:10116000D1F480919A018823B1F0809166011091A9
:1011700067016091980170919901A0919B01B091D4
:101180009C01062F0723C0910001D091010196E038
:10119000F92E181306C0DF91CF911F910F91FF9088
:1011A000089590E0109711F00F3F19F401968770A1
:1011B000F0CFF89E9001F99E300D1124F901E85905
:1011C000FE4F41814713F2CF40814613EFCF42815A
:1011D0004111ECCF438154814A1B5B0B4C175D07D7
:1011E00028F780919D018F70806180939D01F901A6
:1011F000E359FE4F80818F708061808388E991E0A0
:101200000E94B005DF91CF911F910F91FF900C9438
:101210007908AF92BF92CF92DF92EF92FF920F9335
:101220001F93CF93DF93CDB7DEB761970FB6F894D6
:10123000DEBF0FBECDBF8C0185E0F801DE011D963B
:1012400001900D928A95E1F7F801E28088E9C82EB5
:1012500081E0D82E60919B0170919C016115710510
:1012600009F45FC19091980120919901892F8223FF
:101270008F3F09F456C140815181A380B480F09022
:101280009A01F501E61BF70BBF01E0910001F09117
:101290000101FF2009F4F6C080919D01382F307FB5
:1012A0006E177F0708F0AFC0311179C0FE2C2513EF
:1012B00023C0941321C0E1101FC08F708061809300
:1012C0009D010E949A08C6010E94B00580919D016F
:1012D000F80185838F2D61960FB6F894DEBF0FBE9F
:1012E000CDBFDF91CF911F910F91FF90EF90DF90D5
:1012F000CF90BF90AF900895AB2829F0842F85231D
:101300008F3F09F027C180E0F82FF170DF2E80FFBA
:101310003CC0809166012091670136E0821315C0C0
:101320004D875E878D859E850E94D307292F229544
:101330002F702230F0F0243018F59F70F1F0F80192
:101340009581907FD1F4D12C1EC090E0389FF001A0
:10135000399FF00D1124E859FE4F6181651306C0D5
:101360006081641303C062816E110FC001968770A3
:10137000D5CF9F7011F0882331F3805E883018F349
:10138000C8010E94B005FD2CA5CFEE2009F4A2CF24
:1013900080919D01816080939D01F12C9BCF25134D
:1013A00006C0941304C0F801EE2009F487C0C801F8
:1013B0000E940906882319F1EE2009F180919D0110
:1013C000803270F0209198013091990138872F83F5
:1013D0001986BB86AA868C87CE0107960E94B00527
:1013E00086E0F801A8E9B1E001900D928A95E1F755
:1013F0000E94A8080E949A08FF24F3946BCFC801AA
:101400000E94B005F9CF311113C07A2DB98AA88A8C
:101410006E2D89890E94100688E991E00E94B0052E
:1014200086E0F60111928A95E9F70E949A08B5CFF5
:1014300025130FC094130DC0E1100BC0F801858374
:10144000C8010E94B00586E0F60111928A95E9F77D
:1014500041CFC8010E940906882389F2EE2079F263
:1014600080919D01803208F4BBCF2091980130918A
:1014700099013A8329831B82BD82AC828E83CE017F
:101480000196ACCF6E177F0708F03EC0FE2CEE2011
:1014900009F4B5CF25132AC0941328C080919D016B
:1014A00080FD1BC0982F907FC1F0F8018583903F8D
:1014B00031F0982F907F905F8F70892B8583C801C2
:1014C0000E94B00586E0F801A8E9B1E001900D9214
:1014D0008A95E1F70E949A08FDCE86E0F801A8E916
:1014E000B1E001900D928A95E1F7F4CEC8010E9417
:1014F0000906811175CF80919D01816080939D01C6
:10150000C8010E94B005E6CE7A2DB98AA88A6E2D50
:1015100089890E94100686E0F60111928A95E9F702
:10152000D9CFEE2009F46BCFC8010E940906F82E2E
:10153000882309F464CF86E0F801A8E9B1E00190BE
:101540000D928A95E1F788E991E00E949D020E9440
:10155000A808C0CF81E08E25D7CE1F93CF93DF930D
:10156000CDB7DEB72C970FB6F894DEBF0FBECDBF58
:101570004F83588769877A878B879C87CE01079628
:101580000E940909882369F08A859B85892B39F097
:101590004F815885842F85238F3F09F071C016E055
:1015A0005FC086E0FE013796DE01119601900D9234
:1015B0008A95E1F78A859B85892B89F38F819885A8
:1015C00089238F3F61F32091670130E0C9010196C3
:1015D00087709927409166014817190671F40E9497
:1015E000E605109267011092660186E0E8E9F1E0F5
:1015F000DF011D928A95E9F7D2CF96E0929FD00144
:10160000939FB00D1124A859BE4FFE013196019051
:101610000D929A95E1F7809367010E947908BFCFF8
:10162000819FC001112488599E4F0E940909882377
:10163000E9F0E09166011E9FF0011124E859FE4F88
:101640004081518162817381848195810E941F064E
:101650008091660190E001968770992780936601DA
:1016600080916601909167018913DACF2C960FB6AD
:10167000F894DEBF0FBECDBFDF91CF911F910895CB
:1016800069857A858B859C850E941F0688CF682F87
:1016900080910201909103010C94DB15682F8091D9
:1016A0000201909103010C94E61580910201909142
:1016B00003010C94F11580919E0185958595859582
:1016C000089580919E018770089590919E01977072
:1016D00081E009F480E008958091C201089590911D
:1016E000C201892B8093C201089580959091C20117
:1016F00098239093C20108951092C2010895909189
:10170000C101892B8093C101089580959091C101F9
:1017100098239093C10108951092C101089590916A
:10172000C001892B8093C001089580959091C001DC
:1017300098239093C00108951092C001089580915C
:101740009F01089508950C94A20B9091130292FDAD
:1017500008C090919F01981721F080939F010C94ED
:10176000A30B089580919F01882329F010929F0177
:1017700080E00C94A30B0895E0910201F091030125
:101780008091C2018083E0910201F0910301808188
:101790009091C101892B8083E0910201F0910301B6
:1017A00080819091C001892B808390919F01992322
:1017B00081F0E0910201F09103018081892B808307
:1017C00080910201909103010E94471581110E94AE
:1017D000B20B80910201909103010C9401150895C0
:1017E0000C94EF0B9091130292FD10C098E0899F2A
:1017F00090011124622B60939E010E94A1068091AA
:101800009E018595859585950C94F00B0C94A10609
:1018100010929E0180E00C94F00B90919E018095B7
:10182000892380939E01282F277091F4282F082E5A
:10183000000C330B9217130659F09091130292FD8E
:1018400007C08595859585950E94C2060C94080C65
:1018500008959091130292FB222720F9281769F02E
:1018600080FB92F9909313028091120290911302DF
:101870000E94740C82E00C940D0C08958091130268
:1018800082FB882780F991E089270C94290C81E05C
:101890000C94290C80E00C94290C6FEF7FEF90E002
:1018A00080E00C94C81F90E080E00E94A41F21E01B
:1018B000893E9E4F09F020E0822F089582E090E05B
:1018C0000C949C1F83E090E00C949C1FCF9384E0C9
:1018D00090E00E949C1FC82F82E290E00E949C1F13
:1018E000982F8C2FCF910895CF93C92F682F84E024
:1018F00090E00E94AA1F6C2F82E290E0CF910C949E
:10190000AA1FAB01BC018FE090E00C94BC1FAB019F
:10191000BC0183E190E00C94BC1F60E070E0CB015F
:101920000C94870C60E070E0CB010E94810C0C9459
:101930008D0C69EE7EEF90E080E00E94C81F60E0B1
:1019400082E090E00E94AA1F60E083E090E00E94A5
:10195000AA1F10926201109263011092640110920A
:10196000650160E084E090E00E94AA1F60E082E2EE
:1019700090E00E94AA1F60E085E090E00E94AA1F0C
:1019800060E086E090E00E94AA1F6FEF87E090E0A1
:101990000E94AA1F40E050E0BA0188E090E00E9457
:1019A000BC1F60E08DE090E00E94AA1F40E050E084
:1019B000BA0188E190E00E94BC1F60E087E190E0FE
:1019C0000E94AA1F40E050E0BA018CE190E00E9422
:1019D000BC1F70E060E080E290E00E94C81F40E021
:1019E00050E0BA0188E190E00E94BC1F0C94920C78
:1019F0000C94990C682F8EE090E00C94AA1F0E9422
:101A0000A0166093CE017093CF018093D001909384
:101A1000D1016093CA017093CB018093CC01909364
:101A2000CD01089585B7806885BF85B7806885BF7B
:101A30000895089508950C94190D08950C941D0DA2
:101A40000E94120D88EE9FE00E94EB140E941A0D76
:101A50000C941B0D81E008950C942A0D08950895AF
:101A60000E942E0D0C942F0D0E948B160E94DD10EB
:101A70000E94BD11E2E1F2E0808180688083809164
:101A80001202909113020E94740C0E943E180C9452
:101A90001E0D8F929F92AF92BF92CF92DF92EF92E4
:101AA000FF920F931F93CF93DF93CDB7DEB72A97A3
:101AB0000FB6F894DEBF0FBECDBF0E94F2108111A9
:101AC0000E94FF0C54EC852E51E0952E10E000E0B2
:101AD000A02E802F0E942B106C01F401E190F19058
:101AE0004F01E816F90609F45AC08091D20181FD30
:101AF0000E943410C7018C259D25B12CEE24E3945F
:101B0000F12C9C012E213F21232B09F442C00E947D
:101B10002C0D8823A9F0BE82AF82CE20DF2081E089
:101B2000CD2809F480E088870E9494168160782F80
:101B30009A8789874E815F8168858A850E945F02C6
:101B4000000F111FF801EC53FE4F80819181E826B0
:101B5000F926F182E0820E94F5149091C301891761
:101B6000A9F10E94F5148093C3012A960FB6F89448
:101B7000DEBF0FBECDBFDF91CF911F910F91FF90C0
:101B8000EF90DF90CF90BF90AF909F908F900C948C
:101B90005702B394EE0CFF1CFBE0BF12B2CF0F5FF5
:101BA0001F4F0330110509F093CF8FEF89838A838C
:101BB0001B820E9494168160782F9D838C834981BB
:101BC0005A816B818D810E945F02C5CF2A960FB624
:101BD000F894DEBF0FBECDBFDF91CF911F910F9163
:101BE000FF90EF90DF90CF90BF90AF909F908F903D
:101BF000089590E080E008950895972F70E02BE01D
:101C0000929F600D711D1124FB0191E2899FE00DEF
:101C1000F11D1124EE0FFF1FE455FF4F85919491A4
:101C20000895FC01EE0FFF1FE251FF4F8591949143
:101C30000895CF93DF930E940E0FEC01811521E5EB
:101C40009207D0F5811530E5930708F096C081150D
:101C50009042F8F4C11581E0D807B8F4C03ED10530
:101C600088F4C03CD10508F07BC0C130D10569F0D3
:101C7000209759F0CE010497813A910530F0D0E0D9
:101C8000C0E003C0C83ED105D0F7CE01DF91CF91AF
:101C90000895C11590E4D90708F06CC0CE019F707B
:101CA000C11520E3D20708F45EC0CE019927D3FF07
:101CB0005EC0EC01D86CE9CF811535E5930700F5DE
:101CC000811544E5940708F08DC0C11583E5D80758
:101CD00008F074C0C11592E5D90708F46AC0CE01B6
:101CE0008370992721E030E002C0220F331F8A95CC
:101CF000E2F7C695C69580E2C89FE001112455C061
:101D0000811529E59207A0F4811538E5930708F0BD
:101D10006EC0811546E5940708F0B1CF0E94A50F6B
:101D2000C82FD0E0DC2FCC27CC27DF71D062ADCF1D
:101D3000C1158AE5D80708F45FC0CE019056811519
:101D4000904208F09CCF8D2F8F710E94A50F90E0DC
:101D5000982F882788279F719C012C2BE901E6CFBB
:101D6000CE01805C91090E94110EEC018ECFEC0136
:101D7000D06C8BCFDF70D06A88CFE4E096958795E2
:101D8000EA95E1F783702C2F26952695237040E283
:101D9000249F90011124382B8C2F8370C1E0D0E058
:101DA00002C0CC0FDD1F8A95E2F7C22BD32BDC6873
:101DB0006CCFDC2FCC27C16FD06A67CFCE01837088
:101DC000992721E030E002C0220F331F8A95E2F705
:101DD000C695C69590E2C99FE0011124C22BD32B72
:101DE000DA6853CFD82FCC27C46FD06A4ECFD82F04
:101DF000CC27C06FD06A49CF8C2F8F700E94A50F5F
:101E000034E0D695C7953A95E1F7CF709C2FEC0159
:101E1000D0693BCF0E94FD0D0C94190E82389105BC
:101E2000B1F1B0F48133910509F475C048F48932F9
:101E3000910509F469C08A32910509F473C00895C7
:101E40008533910509F459C08933910501F108954D
:101E5000833E9105A9F138F4803E9105F9F0823E68
:101E6000910549F10895863E9105A9F1873E9105B6
:101E7000C9F1843E910519F52091130221FF1FC07D
:101E80008091120284FD14C087EE90E008952091A5
:101E900012022370A1F080EE90E0089520911202CA
:101EA00020FD47C03091130230FF09C024FF44C019
:101EB00090E080E004C02091120222FDF7CF089547
:101EC0002091120222FD3BC03091130230FDE3CF7E
:101ED00024FFF5CFEDCF2091120223FFF0CF24FD98
:101EE000E7CFD2CF2091120223FD2CC030911302F4
:101EF00031FFEECF84EE90E008952091120225FF8D
:101F0000DECF89E290E008952091120225FFD7CF1D
:101F100085E390E008952091120226FFD0CF8AE257
:101F200090E008952091120226FFC9CF81E390E04E
:101F3000089589E390E0089583EE90E0089582EE9D
:101F400090E0089586EE90E008959091120292FF3D
:101F500006C0282F28712830F9F4877F846093FF0A
:101F600006C0282F28712831F1F4877E84612091E2
:101F7000130220FF06C0382F38713830D9F4877F1C
:101F8000816021FF06C0282F28712831D1F4877E77
:101F9000816194FD877E0895282F24712430F9F6FD
:101FA0008B7F8860DCCF282F2471243101F78B7E52
:101FB0008861DDCF382F3171313019F78E7F88601D
:101FC000E0CF282F2171213121F78E7E8861E1CF6A
:101FD00080E008950C944D0C0E94F2108FE39CE970
:101FE0000197F1F700C000000E94F21080E00E940B
:101FF0002B1080FF04C00E94EA0F0C94DF16089596
:102000000C94EC0F0E94530C811102C00E94F80C3A
:102010000E945E0C8093D2010E94660C9093130282
:10202000809312020E9400100E94620C682F70E0E0
:1020300090E080E00E943F0660915E0170915F0138
:1020400080916001909161010C9479060C947E015D
:1020500008950C942810E82FF0E0EE0FFF1FE65EC5
:10206000FD4F808191810895089580EA8A95F1F766
:10207000089500C008950C943510F894E82FE29567
:10208000EF70F0E031A1282F2F7081E090E001C0C7
:10209000880F2A95EAF7982F9095932391A392A100
:1020A000892B82A378940895CF93DF9384EF0E94C5
:1020B0003D1082E30E943D1086E30E943D10C4E380
:1020C000D1E089918F3F11F00E943D1081E0CF3324
:1020D000D807B9F7DF91CF910895AF92BF92DF9201
:1020E000EF92FF920F931F93CF93DF938C01D62E25
:1020F000C62FD0E0CE01815C9E4F7C01FC01208187
:102100002F3F09F44DC0F894E22FE295EF70F0E014
:1021100031A12F7081E090E001C0880F2A95EAF785
:10212000932F982B91A392A18095892382A37894D1
:102130000E943910E4E3F1E04FE351E021E030E0A8
:10214000B12CA12C61916F3FA9F1A62FA295AF7080
:10215000B0E090968C9190E06F7002C09595879555
:102160006A95E2F780FD26C0C901A82AB92A220F84
:10217000331F4E175F0731F7F70180818F3F11F052
:102180000E943D1061E0A114B10409F460E08D2DBE
:102190000E943B10CC0FDD1FC00FD11FB982A88257
:1021A000DF91CF911F910F91FF90EF90DF90BF9043
:1021B000AF90089590E080E0D8CF0E94541086E060
:1021C000EAE1F2E0DF01982F1D929A95E9F7E4E148
:1021D000F2E0DF011D928A95E9F783E00E943D114C
:1021E0000C94D301FF920F931F93CF93DF9300D0F2
:1021F00000D000D0CDB7DEB78E010F5F1F4F86E055
:10220000F80111928A95E9F760E0C8010E946D100B
:1022100061E0C8010E946D1062E0C8010E946D106B
:1022200046E050E0B80184E192E00E948F1FFF2455
:10223000F394009709F4F12C892B41F086E0F80122
:10224000A4E1B2E001900D928A95E1F72F2D43E0D1
:102250006AE172E084E192E00E943E110E94D9019D
:102260008F2D26960FB6F894DEBF0FBECDBFDF913F
:10227000CF911F910F91FF9008950895FF920F93B2
:102280001F93CF93DF93F82E092F162FD72FC42F2C
:10229000222349F081E08093D5010E949416909307
:1022A000D4018093D3018091D5018823A1F080913E
:1022B000D3019091D4010E94AC16059760F0EF2DE8
:1022C000F02FA12FBD2F90E080E0D0E08C179D076C
:1022D00044F01092D501DF91CF911F910F91FF90A3
:1022E0000895219131912D933D930196EFCF0E9456
:1022F000B3180E94340D0C94BF180E94C3180E949A
:10230000490D0C94DD180E941D160E949A180E9417
:10231000200D0E9477110E947D110E94300DFBCF8D
:1023200086E0EEEDF1E0DF01982F1D929A95E9F736
:10233000E8EDF1E0DF011D928A95E9F70895CF936A
:10234000DF9300D000D00F92CDB7DEB76B837C83D4
:102350008D838C819D81892B21F0CA0189238F3F38
:1023600051F480E081700F900F900F900F900F90BC
:10237000DF91CF9108958B81F5CF0E94530C81118D
:1023800002C00E94F80C8DE090E00E949C1F809398
:10239000D6010895CF93C82F0E949011C093D60103
:1023A0006C2F8DE090E0CF910C94AA1F81E00895EE
:1023B00081E0089581E00895EF92FF920F931F93BB
:1023C000CF93DF937C01EB0180E3E8168AE5F80602
:1023D000E9F030F4C7019A558A97A0F1C1E01DC019
:1023E000F1E3EF16FAE5FF06C9F781E39AE50E94EB
:1023F000DA11882389F0488159816A817B818C8137
:102400000E949F11882341F081E019C080E39AE582
:102410000E94DA11811109C0C0E08C2FDF91CF91A9
:102420001F910F91FF90EF900895488159816A8123
:102430007B818C810E949F11882371F380E00E9430
:10244000CA11EACFC7010E94DA11882329F310913B
:10245000D6011123F9F0113009F445C00091D701DC
:1024600028ED31E0412FBE01C7010E94D811882319
:1024700099F2488159816A817B818C810E949F11E8
:10248000C82F8091D701CC2309F458C08F5F809367
:10249000D701C2CF488159816A817B818C810E949A
:1024A0009F11F701FF27E251FF4F9491A92FA295A9
:1024B000A695A695A370B0E0882371F09D012252E5
:1024C0003E4FF9018081892B8083A852BE4F8C91A9
:1024D000E92FE82BEC93C2CFA252BE4FE92FE09533
:1024E0008C91E823F7CF488159816A817B818C8167
:1024F0000E949F11482F8E2D67E00E947D1F292F7B
:10250000E82FF0E086E090E0821B910921E030E0C6
:1025100001C0220F8A95EAF7DF01A252BE4F8C91CB
:10252000442341F0822B8C93E852FE4F8081282B6C
:10253000208394CF209528232C9390CF8150181678
:102540000CF4A5CF1092D70168ED71E08091D6010F
:102550000E94D611882331F08091D601882329F07A
:10256000813099F00E94901158CF08ED11E0F801E8
:1025700081918F0181110E945D18F1E00C3D1F07D0
:10258000B1F780E00E945D18EDCF8091D80180689E
:102590008093D80108ED11E08EEDE82E81E0F82E51
:1025A000F80181918F010E945D18E016F106C1F7D4
:1025B000D9CFCF93DF93EC01FB018281882309F40B
:1025C00020C1C430FDE5DF07C8F5CB3F9CE5D90746
:1025D00030F49E0122503C452431310598F50E948B
:1025E000660C9093130280931202C031FCE5DF0762
:1025F00009F4E0C008F061C0C8309CE5D90709F4CF
:10260000CBC088F5C430FCE5DF0709F4B3C0E8F4BB
:10261000C2309CE5D90709F4A7C0809112028260FC
:10262000C330DC4509F4A3C08091120290911302DB
:102630000E94740C0E94E60580E004C0C236EDE5FD
:10264000DE0769F2DF91CF910895809112028061D7
:10265000C630FCE5DF0709F48AC008F48FC080911A
:102660001202806284C0809112028D7FCC309CE582
:10267000D90709F47CC070F4809112028C60CA30D2
:10268000FCE5DF0709F473C008F48AC080911202E8
:102690008E7F6DC080911202877FCE309CE5D90776
:1026A00009F465C0809112028B7FCF30DC4508F4BD
:1026B0005EC0809112028F7E5AC0CD3FFCE5DF07DD
:1026C00009F474C040F5C4319CE5D90709F48AC007
:1026D00058F4C231FCE5DF0709F474C008F46EC099
:1026E00080911202837F43C0CB3F9CE5D90709F458
:1026F00049C008F04DC0C531DC4509F095CF809147
:10270000120282FB992790F921E0922790FB82F92F
:1027100090FB83F92CC0C1308DE5D80709F458C06F
:1027200088F4809113028360CF3FECE5DE0769F106
:10273000809113028D7FC115DD4538F18091130220
:102740008C7F23C0C3308DE5D80709F458C008F446
:1027500052C0C236DD4509F067CF90911202892F31
:102760008F7E94FF806103C080911202816080930C
:1027700012025ACF809112028460F9CF8091120226
:102780008860F5CF809113028160809313024CCF53
:10279000809113028260F9CF809112028064E7CFAA
:1027A0000E94E605809112028068E1CF80911302B9
:1027B0008E7FEBCF809112028F7DD9CF8091120254
:1027C0008F7BD5CF0E94E605809112028F77CFCF05
:1027D00080911302982F909591708E7F892B90FB9A
:1027E00081F9D3CF0E94E60590911202892F97FBC1
:1027F00087F98058BCCF81E00E94FA0C15CF80E0A9
:10280000FBCF81E01FCFCF93DF93EB0186319C4557
:1028100011F50E946C0B9A81992399F08A7A91E0C4
:1028200009F490E09093E401811109C089E20E94CB
:10283000470B0E94BC0B80E0DF91CF91089585E3A8
:10284000F6CF8091E401811104C089E20E944E0B11
:10285000F0CF85E3FBCF81E0EFCF0F931F93CF93B2
:10286000DF93C42FD22FFC0182818823C9F04093CB
:10287000E7010E9494169093E6018093E50180E2BF
:102880008C0F883008F050C0C77081E001C0880FFD
:10289000CA95EAF7DF91CF911F910F910C948003B5
:1028A0001091E701141335C08091E5019091E60184
:1028B0000E94AC16883C910560F5C0E2CD0F1D1753
:1028C000B9F080E2810F883040F4177081E001C0D8
:1028D000880F1A95EAF70E948703C83048F481E010
:1028E0009D2F977001C0880F9A95EAF70E94800388
:1028F000802F0E947803C830B8F4D77081E001C0FF
:10290000880FDA95EAF7DF91CF911F910F910C9420
:10291000870380E28C0F883038F4C77081E001C0F3
:10292000880FCA95EAF7EFCFDF91CF911F910F91F2
:1029300008950F939C01CB01243F4CE5340759F1D6
:10294000A8F4293DFCE53F0701F12A3D4CE5340799
:10295000D1F1283D3C4591F406E221EE41EE68EDCF
:102960007CE50E942D1480E00F910895263FFCE540
:102970003F07E9F0B0F0273F3C45F9F0FC018281C8
:10298000882339F11092E701EFCF07E225EE45EEFB
:1029900069ED7CE5E6CF06E221EE40EE64EF7CE5F2
:1029A000E0CF07E225EE44EE65EF7CE5DACF06E204
:1029B00021EE42EE66EF7CE5D4CF07E225EE46EE4F
:1029C00067EF7CE5CECF08E221E045EE6AED7CE5DD
:1029D000C8CF81E0C9CF909343018093420108950D
:1029E0009093ED018093EC010895E091EC01F0915A
:1029F000ED01309721F00190F081E02D099480E005
:102A00000895E091EC01F091ED01309799F020915B
:102A10002B01222359F02091120227FF07C0DC016D
:102A20002C9111962C93119726E02C930280F38120
:102A3000E02D099408952091EA013091EB012817C7
:102A4000390771F09093EB018093EA01E091EC017A
:102A5000F091ED01309721F00680F781E02D099487
:102A600008952091E8013091E9012817390771F0A4
:102A70009093E9018093E801E091EC01F091ED0180
:102A8000309721F00084F185E02D09940895FC0130
:102A9000329680912B01882321F0809112029EE1D1
:102AA00087FF96E080E0915008F408952191222359
:102AB000D1F38F5FF8CF662301F120912B01222300
:102AC000F1F02091120227FF1AC0462F4695469535
:102AD00046954E3190F4677021E030E002C0220F3D
:102AE000331F6A95E2F7840F911DFC01828190E00B
:102AF0002823392381E0232B69F480E00895FC0129
:102B0000329608962191261721F0E817F907D1F798
:102B1000F4CF81E008959C01FC0132969FEF80E0A4
:102B20004191461751F09F3F19F4411101C0982F70
:102B30008F5F8630A9F79F3F09F40895290F311D53
:102B400097FD3A95F90162830895FC013296089643
:102B50002191261303C0DF0111971C92E817F90792
:102B6000B9F70895E62FE695E695E695EE3168F417
:102B7000E80FF92FF11D677021E030E001C0220F4E
:102B80006A95EAF78281822B82830895E62FE69583
:102B9000E695E695EE3170F4E80FF92FF11D6770B8
:102BA00021E030E001C0220F6A95EAF7209582818A
:102BB00028232283089520912B01222329F020919C
:102BC000120227FD0C94B2150C948B1520912B0149
:102BD000222329F02091120227FD0C94C6150C9493
:102BE000A515FC01329680912B01882351F080912C
:102BF000120287FF06C08EE1DF011D928A95E9F778
:102C0000089586E0F9CF08950C940316811105C04C
:102C100081E08093EE010C94041682E0FACF83E009
:102C20008093EE010C9404160C94061681E08093B8
:102C3000EE010C9404160C94161608958091280247
:102C4000843031F10E94DB011092EF0188E190E0C5
:102C500020E40FB6F894A895809360000FBE2093EF
:102C6000600083B7817F846083BF83B7816083BF47
:102C70007894889583B78E7F83BF0FB6F894A89514
:102C800080916000886180936000109260000FBEA8
:102C9000089508950895CF930E9449160E94F21056
:102CA0000E944A16C0E08C2F0E942B10892B31F411
:102CB000CF5FC330C1F780E0CF91089581E0FCCFB2
:102CC0000E94E6050C9449021F921FB61F92112420
:102CD0008F939F93AF93BF938091EF01811113C0A6
:102CE0008091200290912102A0912202B0912302B2
:102CF0004196A11DB11D8093200290932102A093C3
:102D00002202B0932302BF91AF919F918F911F90A8
:102D10001FBE1F90189582E084BD93E095BD9AEF89
:102D200097BD80936E0008952FB7F894809120028C
:102D300090912102A0912202B09123022FBF089509
:102D40002FB7F894609120027091210280912202A5
:102D5000909123022FBF08959C014FB7F894809162
:102D6000200290912102A0912202B09123024FBF34
:102D7000821B930B089578941F921FB61F92112403
:102D80008F939F93AF93BF938091200290912102E4
:102D9000A0912202B09123020196A11DB11D809342
:102DA000200290932102A0932202B0932302BF91AC
:102DB000AF919F918F911F901FBE1F90189587E72D
:102DC00097E7909301088093000888E19AE00FB696
:102DD000F894A895809360000FBE90936000FFCF99
:102DE00080911002089508950895CF93DF93EC0128
:102DF00080912B018823B1F18091120287FF32C0AC
:102E000060E282E08093E9008FEF9091E8008150CA
:102E100095FD06C095ED9A95F1F700008111F5CF6B
:102E20008091E80085FF1BC080912B0170E050E08D
:102E300040E0811104C050E040E068E070E0CE0165
:102E40000E9453198091E8008E778093E80080E219
:102E5000FE01A0EFB1E001900D928A95E1F7DF91BC
:102E6000CF91089568E081E0CDCF089508958091D5
:102E70002702811109C00E94E31A0E94401B809121
:102E8000E20084608093E200089510922702089582
:102E90000C9416166091240281E0611101C080E05B
:102EA0000C940F169091280281E0943009F080E094
:102EB000609124020C94141642E061EC81E00E94BF
:102EC0005F1A42E261EC82E00E945F1A42E061EC2C
:102ED00083E00E945F1A42E160E885E00E945F1A89
:102EE00042E161E884E00E945F1A9091280281E04B
:102EF000943009F080E0609124020C9406168091D1
:102F00002A02833009F461C048F48130D1F1823063
:102F100009F4A3C084E091E00C94CB1E8A3009F43C
:102F20008BC08B3009F46EC08930A1F780912902E3
:102F3000813281F780912D0290912E02029750F7F5
:102F40008091E800877F8093E8008091E80082FF0D
:102F500037C09091F3008091F200029731F4809194
:102F6000F100813011F0863021F48091F1008093DE
:102F700010028091E8008B778093E8000E94931AFA
:102F8000C9CF80912902813A29F68091E800877F94
:102F90008093E80080912D0290912E02892B61F49C
:102FA00060E280EF91E070E00E94A2198091E80059
:102FB0008B778093E800AECF60E090E080E0F3CFC5
:102FC000809128028111C1CF089580912902813A10
:102FD00009F0A0CF80912D0290912E02892B09F04B
:102FE00099CF8091E800877F8093E8008091E80086
:102FF00080FFFCCF80912B018093F1008091E8004D
:103000008E77BACF80912902813209F083CF8091E7
:103010002D0290912E02892B09F07CCF8091E8003F
:10302000877F8093E8000E94931A80912B028093FF
:103030002B010E94E6056ECF80912902813209F0B2
:1030400069CF8091E800877F8093E8000E94931AFF
:1030500080912C02809311025DCF80912902813AE8
:1030600009F058CF8091E800877F8093E800809135
:10307000E80080FFFCCF80911102BECF82E090E09B
:10308000909317018093160184E091E00C94821EC6
:103090000895CF93DF9384E091E00E94291EEC0114
:1030A000209719F4DF91CF91089584E091E00E9478
:1030B000521E0E9448182197F3CFCF93C091E90088
:1030C0002091EC00922F917020FD90E82091140146
:1030D00020FF12C0CF70C92B909105019F70909373
:1030E000E9009091EB0090FF04C09091EE0097FDF5
:1030F00005C0CF70C093E900CF9108959FEF209154
:10310000E800915025FD06C025ED2A95F1F7000055
:103110009111F5CF8093F10084E091E00E94E41DCD
:103120008091E80080FFE5CF8091E8008E77809362
:10313000E800DFCF84B7877F84BF0FB6F894A895E7
:1031400080916000886180936000109260000FBEE3
:1031500080E890E00FB6F89480936100909361004E
:103160000FBE0C941B160E94E31A0E94401BE2EE55
:10317000F0E080818460808378940C94C91D8FE195
:1031800091E00C94F014809128028530A9F480918C
:103190002802853011F00C9460160E941E16809152
:1031A00026028823A1F30E944B16882381F30E94F4
:1031B0003D190E94E605EBCF08950E94491884E06E
:1031C00091E00C94121E0C94E518292F332723301C
:1031D000310519F168F42130310509F444C0223079
:1031E000310509F445C090E080E030E020E025C0E2
:1031F0002132310549F122323105A9F780E490E00E
:1032000029E232E061157105C1F08BE390E02EEE0A
:1032100031E06130710589F0E6CF99278130910561
:1032200081F0009729F00297F1F6EEE2F1E002C09A
:10323000E0E6F1E0849190E09F01FA013183208380
:103240000895E0E4F1E0F6CF89E090E026E731E090
:103250006115710591F389E090E02FE831E061306C
:10326000710559F3C0CF82E190E02CED31E0E5CF5C
:1032700088E790E024E631E0E0CF80E189BD82E19B
:1032800089BD09B400FEFDCF8091D8008F7D809369
:10329000D8008091E00082608093E0008091E0009F
:1032A00081FDFCCF0895AF92BF92CF92DF92FF9243
:1032B0000F931F93CF93DF936C01EB018A010E9460
:1032C000B21AF82E811123C00115110539F0F80149
:1032D00080819181C81BD90BC80ED91EB12CA12C9D
:1032E0002097A9F08091E80085FD22C08091E80038
:1032F0008E778093E80001151105A1F0F801808117
:103300009181A80EB91EB182A08285E0F82E8F2D82
:10331000DF91CF911F910F91FF90DF90CF90BF90E1
:10332000AF9008950E94B21A8823D1F2F82EEFCF01
:10333000F60181916F018093F1002197FFEFAF1AA1
:10334000BF0ACECFFC0180912F02909130028617E8
:103350009707A0F06115710529F49091E8009E7718
:103360009093E80090E06115710551F4911108C047
:103370008091E80082FF34C080E00895BC01F2CF64
:10338000809128028823C1F18530C1F18091E80045
:1033900083FD30C08091E80082FDEACF8091E80093
:1033A00080FFE1CF8091F3002091F200382F61156A
:1033B000710519F02830310558F091E028303105B9
:1033C00009F090E02091E8002E772093E800CBCF21
:1033D00081918093F100615071092F5F3F4FE7CFDA
:1033E00080912802882341F0853041F08091E800E7
:1033F00083FFBECF81E0089582E0089583E00895C1
:10340000FC0180912F029091300286179707A0F05F
:103410006115710529F48091E8008E778093E800AA
:1034200090E06115710551F4911108C08091E80098
:1034300082FF35C080E00895BC01F2CF8091280260
:103440008823C9F18530C9F18091E80083FD31C03E
:103450008091E80082FDEACF8091E80080FFE1CF13
:103460008091F3002091F200382F6115710519F059
:103470002830310558F091E02830310509F090E00E
:103480008091E8008E778093E800CBCF8491809381
:10349000F1003196615071092F5F3F4FE6CF809167
:1034A0002802882341F0853041F08091E80083FFB5
:1034B000BDCF81E0089582E0089583E00895982FBC
:1034C000973028F08F708093E90081E00895909301
:1034D000E900242F762F50E0981731F07091EC001E
:1034E0002091ED005091F00021FD02C09F5FE8CFD8
:1034F0003091EB003E7F3093EB003091ED003D7F4B
:103500003093ED003091EB0031603093EB0070931D
:10351000EC002093ED005093F0002091EE0027FD89
:10352000E5CF80E008958091290287FF13C0809144
:10353000E80082FF06C08091E8008B778093E80066
:1035400004C0809128028111F2CF08958091280251
:103550008823D9F38091E80080FFF8CF8091E800BC
:103560008E77ECCF2091E4003091E50095E6A9013B
:103570002091EC00822F817020FF06C08091E8002E
:1035800080FF06C080E008952091E80022FD1AC067
:1035900080912802882389F0853089F08091EB00A2
:1035A00085FD0FC02091E4003091E50042175307DC
:1035B000F9F29150E1F684E0089582E0089583E005
:1035C000089581E008950E94511B0E94591BE0EE6E
:1035D000F0E0808181608083E8EDF0E080818F778A
:1035E000808319BCA7EDB0E08C918E7F8C93808195
:1035F0008F7E80831092270208950F931F93CF939D
:10360000DF930E94511B0E94591BC8EDD0E08881B6
:103610008F77888388818068888388818F7D88837D
:1036200019BC1092280210922402109226021092C5
:10363000250200EE10E0F80180818B7F8083888175
:103640008160888342E060E080E00E945F1AE1EEE2
:10365000F0E080818E7F8083E2EEF0E08081816007
:103660008083808188608083F80180818E7F808361
:10367000888180618883DF91CF911F910F91089598
:10368000E8EDF0E080818F7E8083E7EDF0E08081DF
:103690008160808384E082BF81E0809327020C9464
:1036A000FD1AE8EDF0E080818E7F80831092E200C9
:1036B00008951092DA001092E10008951F920F927F
:1036C0000FB60F9211242F933F934F935F936F93F5
:1036D0007F938F939F93AF93BF93EF93FF938091CB
:1036E000E10082FF0BC08091E20082FF07C0809161
:1036F000E1008B7F8093E1000E94C81D8091DA0079
:1037000080FF19C08091D80080FF15C08091DA0039
:103710008E7F8093DA008091D90080FF96C080E18F
:1037200089BD82E189BD09B400FEFDCF81E08093AF
:1037300028020E9437178091E10080FF19C0809114
:10374000E20080FF15C08091E2008E7F8093E2004E
:103750008091E20080618093E2008091D8008062D5
:103760008093D80019BC85E0809328020E944A17F4
:103770008091E10084FF2BC08091E20084FF27C08C
:1037800080E189BD82E189BD89B5982F917080FF64
:10379000FBCF8091D8008F7D8093D8008091E1008D
:1037A0008F7E8093E1008091E2008F7E8093E20023
:1037B0008091E20081608093E2008091240288235E
:1037C00009F449C084E0809328020E945217809136
:1037D000E10083FF29C08091E20083FF25C0809132
:1037E000E100877F8093E10082E0809328021092BD
:1037F00024028091E1008E7F8093E1008091E200BD
:103800008E7F8093E2008091E20080618093E200ED
:1038100042E060E080E00E945F1A8091F0008860E2
:103820008093F0000E944817FF91EF91BF91AF91F4
:103830009F918F917F916F915F914F913F912F91C8
:103840000F900FBE0F901F90189519BC1092280270
:103850000E94451770CF8091E30087FD93E090931D
:103860002802B3CF1F920F920FB60F9211242F93FD
:103870003F934F935F936F937F938F939F93AF93F8
:10388000BF93CF93DF93EF93FF93D091E900DF7065
:103890008091EC00C82FC17080FDC0E81092E90053
:1038A0008091F000877F8093F00078940E94761CCE
:1038B0001092E9008091F00088608093F000CD2B99
:1038C000CF70C093E900FF91EF91DF91CF91BF914D
:1038D000AF919F918F917F916F915F914F913F91A8
:1038E0002F910F900FBE0F901F9018951F93CF939D
:1038F000DF93CDB7DEB7AA970FB6F894DEBF0FBE41
:10390000CDBF89E292E02091F100FC012193CF012B
:10391000F2E081339F07B9F70E947F178091E8009A
:1039200083FF1EC18091290290912A029A3008F0EB
:1039300017C1E92FF0E0E250F04E0C94891F803857
:1039400099F0823809F00CC180912D028F70873078
:1039500008F006C18093E9008091EB0085FB882781
:1039600080F91092E90006C080912502909126020C
:10397000911182609091E800977F9093E800809386
:10398000F1001092F1008091E8008E77E5C0882365
:1039900009F4D3C0823009F0E3C080912B02811179
:1039A000D6C080912D028F702FEF280F263008F09F
:1039B000D7C08093E9002091EB0020FFC8C093306E
:1039C00031F48091EB0080628093EB00C0C0909155
:1039D000EB0090619093EB0021E030E001C0220FFA
:1039E0008A95EAF72093EA001092EA008091EB00B2
:1039F0008860EACF8111B4C010912B021F778091AB
:103A0000E3008078812B8093E3008091E800877F3A
:103A10008093E8000E94931A8091E80080FFFCCF19
:103A20008091E30080688093E30082E0111183E0DD
:103A30008093280295C08058823008F091C0809110
:103A40002B0290912C028C3D23E09207A1F583E09C
:103A50008A838AE289834FB7F894DE01139620E0C7
:103A60003EE051E2E32FF0E050935700E49120FF55
:103A700003C0E295EF703F5FEF708E2F90E0EA3069
:103A8000C0F0C7968D939D932F5F243159F74FBF98
:103A90008091E800877F8093E8006AE270E0CE01C1
:103AA00001960E94A2198091E8008B778093E8002C
:103AB00057C0C096E7CF60912D0270912E02AE01E3
:103AC0004F5F5F4F0E94E318BC01892B09F448C087
:103AD0009091E800977F9093E80089819A810E94F5
:103AE000001AE1CF8038E1F58091E800877F80936C
:103AF000E800809124028093F10045CF811130C00D
:103B000090912B02923060F58091E800877F80933E
:103B1000E800909324020E94931A80912402882343
:103B200011F084E005C08091E30087FDFACF81E0C9
:103B3000809328020E945C1713C080912B02813071
:103B400079F481E0933009F080E0809326021092AE
:103B5000E9008091E800877F8093E8000E94931A33
:103B60008091E80083FF0AC08091E800877F8093FE
:103B7000E8008091EB0080628093EB00AA960FB67C
:103B8000F894DEBF0FBECDBFDF91CF911F91089596
:103B90000895CF93809128028823A1F0C091E90075
:103BA000CF709091EC00892F817090FD80E8C82B38
:103BB0001092E9008091E80083FD0E94761CCF708E
:103BC000C093E900CF91089520912802243041F557
:103BD000FC014489558966897789452B462B472BFB
:103BE000F9F081818F708093E9009091F3008091CA
:103BF000F200892B11F480E008959091E800809103
:103C0000E8008E778093E80095FDF5CF0E94B21A08
:103C1000811107C09091E8009E779093E800089585
:103C200082E0089520912802243091F4FC01448917
:103C3000558966897789452B462B472B49F0218189
:103C40002F702093E9002091E80020FD0C94E41DE2
:103C5000089520912802243019F090E080E0089522
:103C6000FC014489558966897789452B462B472B6A
:103C7000A1F386818F708093E9008091E80082FF34
:103C8000ECCF9091F3008091F200009731F42091F5
:103C9000E8002B772093E80008959091F30080913D
:103CA000F200089520912802243019F08FEF9FEF41
:103CB0000895FC014489558966897789452B462BEF
:103CC000472BA1F386818F708093E9008091E800F3
:103CD00082FFECCF9091F3008091F200892B79F074
:103CE0008091F10090E03091F3002091F200232BBD
:103CF00029F42091E8002B772093E80008958FEFB6
:103D00009FEFF1CF0F931F93CF93DF93CDB7DEB724
:103D100028970FB6F894DEBF0FBECDBF8C018091FF
:103D20002802843059F5F80184899589A689B789D4
:103D3000892B8A2B8B2B11F183858F708093E9005F
:103D400088E0ECE2F1E0DE01119601900D928A9597
:103D5000E1F750E040E068E070E0CE0101960E949B
:103D6000531950E040E062E070E0C80142960E94C2
:103D700053198091E8008E778093E80028960FB65B
:103D8000F894DEBF0FBECDBFDF91CF911F910F9191
:103D9000089508950895CF93DF93EC018091E80092
:103DA00083FF10C0288180912D0290912E02281748
:103DB000190641F480912A028132F1F030F4803208
:103DC00009F450C0DF91CF910895823209F47EC08A
:103DD0008332C1F7809129028132A1F78091E800F6
:103DE000877F8093E8000E94931A60912B02CE0196
:103DF000DF91CF910C94CA1E80912902813A11F76C
:103E00008091E800877F8093E8008091E80080FF40
:103E1000FCCF8C899D89AE89BF898093F100492FA1
:103E20005A2F6B2F77274093F100AD016627772734
:103E30004093F1008B2F9927AA27BB278093F1008D
:103E4000888D8093F100898D8093F1008A8D809315
:103E5000F1008091E8008E778093E800DF91CF91A8
:103E60000C94931A80912902813209F0ABCF809192
:103E7000E800877F8093E8008091E80082FF21C0FE
:103E80003091F1002091F1009091F1008091F100CA
:103E90003C8B2D8B9E8B8F8B8091F100888F809136
:103EA000F100898F8091F1008A8F8091E8008B77F3
:103EB0008093E8000E94931ACE01DF91CF910C9479
:103EC000C91E809128028111D7CF7CCF8091290211
:103ED000813209F077CF8091E800877F8093E800F6
:103EE0000E94931A80912B0290912C02998B888BBF
:103EF000CE01DF91CF910C94C91E991B79E004C0CB
:103F0000991F961708F0961B881F7A95C9F7809518
:103F10000895EE0FFF1F0590F491E02D0994FB0129
:103F2000DC0104C08D910190801921F44150504072
:103F3000C8F7881B990B0895F999FECF92BD81BDF2
:103F4000F89A992780B50895A8E1B0E042E050E0E2
:103F50000C94D01F262FF999FECF92BD81BDF89AFF
:103F6000019700B4021639F01FBA20BD0FB6F894BD
:103F7000FA9AF99A0FBE08950396272F0E94AB1F55
:103F80000E94AA1F252F0E94AB1F242F0C94AB1F49
:103F90000196272F0E94AB1F0C94AA1FDC01CB01B6
:103FA000FC01F999FECF06C0F2BDE1BDF89A319649
:103FB00000B40D9241505040B8F70895F894FFCFE7
:103FC000C803C803F903F9032804280428042804B3
:103FD0008C041805270527057F0528042804880573
:103FE000F505F505FE05FE050006FE05FE05FE05C8
:103FF000F505F5050506FE05FE0505069F1CC71C13
:10400000B01DC71CB01DFA1C1B1DB01D721D7E1DEE
:10401000C800A00102841000000105100000018307
:10402000080000010000000000000000000000F097
:1040300016F5163517F3163617F41601A1200000F1
:1040400000000200F5F6F731333534C6976694F474
:02405000323606
:00000001FF
