:100000000C9435010C947C010C947C010C947C01C3
:100010000C947C010C947C010C947C010C947C016C
:100020000C947C010C947C010C945C1B0C94301C93
:100030000C9462160C947C010C947C010C947C0151
:100040000C947C010C947C010C947C010C947C013C
:100050000C947C010C94B9160C947C010C947C01DA
:100060000C947C010C947C010C947C010C947C011C
:100070000C947C010C947C010C947C010C947C010C
:100080000C947C010C947C010C947C010C947C01FC
:100090000C947C010C947C010C947C010C947C01EC
:1000A0000C947C010C947C010C947C0114001A00CB
:1000B0000800150017001C0018000C0012001300A7
:1000C0002F0004001600070009000A000B000D00B5
:1000D0000E000F0033003400000000001E00060078
:1000E0001900110010001F0000000000000000D0E7
:1000F000D0D0D0D0D00101020408102041424448A1
:1001000048000000484850608182848890A0C1C2A5
:10011000C4D0D0D0D0D0D0C8000000000000000073
:1001200000000000000000000000000000001003BC
:10013000540068006500200055006E006900000052
:100140001E037300740065006E006F006B00650095
:10015000790062006F0061007200640073000000AB
:100160000403090409027800040100A0FA0904004C
:1001700000010301010009211101000122400007D3
:1001800005810308000A09040100010300000009B9
:100190002111010001223B000705820320000A080B
:1001A0000B02020202010009040200010202010026
:1001B0000524001001042402020524060203070599
:1001C00083030800FF09040300020A00000007057A
:1001D0000502100005070584021000051201000247
:1001E000EF02010800900100010001020001050179
:1001F0000906A1018506050719E029E71500250173
:100200009508750181020507190029EF15002501E0
:1002100095F07501810205081901290595057501FB
:100220009102950175039101C005010906A101051F
:100230000719E029E7150025019508750181029548
:1002400001750881010507190029FF150026FF0027
:1002500095067508810005081901290595057501A0
:100260009102950175039101C00011241FBECFEFCB
:10027000DAE0DEBFCDBF04B603FE27C080913102B5
:1002800090913202A0913302B09134028730904BAA
:10029000A740B04BD1F4109231021092320210926A
:1002A00033021092340214BE84B7877F84BF0FB626
:1002B000F894A89580916000886180936000109206
:1002C00060000FBEE0E0F8E3099511E0A0E0B1E0C6
:1002D000ECE0F0E402C005900D92A234B107D9F72A
:1002E00022E0A2E4B1E001C01D92A133B207E1F720
:1002F0000E9481110C94DC1F0C94000081E0089591
:1003000081E008950C94800108950C9484011F935A
:10031000CF93DF9300D000D00F92CDB7DEB74983E3
:100320005A836B833091440189819A8131111DC0B8
:100330006623B9F02223A9F00E948E07182F682F98
:1003400089819A810E943A0769817A81812F0F9071
:100350000F900F900F900F90DF91CF911F910C9401
:10036000FA0D0E946607182FEFCF0E948E07698151
:100370007A81EDCFFC01262F40815181628173810A
:1003800084810C94870181E00895CF93DF93EC0181
:1003900060E00E94BA01BE01DF91CF910C9485010B
:1003A0000E94FF0F0E9453020C9424100C942710FB
:1003B00080E00C945402089508950E94E3050E9481
:1003C000DC012FEF84E39CE0215080409040E1F776
:1003D00000C000000C94DD160F931F93CF93DF93A2
:1003E0008C0161E00E94BA01EC01B8010E94820117
:1003F0008823D9F1B801CE010E94DA118823A9F12E
:10040000B801CE010E949714882379F1B801CE017A
:100410000E94D712882349F1B801CE010E9401142D
:10042000882319F1F8018281882361F0CB35FDE53D
:10043000DF0721F170F4C115ECE5DE07A1F0CF3D37
:10044000DC45C9F0C801DF91CF911F910F910C9449
:100450007E01CC358DE5D807A1F0CD35DD4591F78E
:100460000E943B0CEFCF0E94DD0180E0DF91CF9135
:100470001F910F9108950E94F50CF7CF0E94440C34
:10048000E1CF0E94470CDECF0C94DB010E94F314F5
:100490000E9454020C94440208950C944C0281E092
:1004A00008950C944F020895CF93C82F0E944D02D7
:1004B0008C2FCF910C945102CF93DF93CDB7DEB741
:1004C0002B970FB6F894DEBF0FBECDBF4F83588772
:1004D00069877A878B8761110E94890B1E821D8232
:1004E00085E0FE013796DE01119601900D928A9506
:1004F000E1F78C819D81892B89F449815A816B8137
:100500007C818D819E810E94AA0A2B960FB6F89459
:10051000DEBF0FBECDBFDF91CF91089589819A8153
:1005200089238F3F51F3CE0101960E94C3018111AF
:10053000E4CFEBCFFC01808191810C94D007CF9365
:10054000C82F882309F469C08238C1F40E94F314CB
:1005500081FD63C089E30E94440B0E94B90B2FEF19
:1005600081EE94E0215080409040E1F700C000000F
:1005700089E30E944B0BCF910C94B90B8338A1F403
:100580000E94F31480FD49C083E50E94440B0E9441
:10059000B90B2FEF81EE94E0215080409040E1F7BD
:1005A00000C0000083E5E5CF8438A1F40E94F31475
:1005B00082FD33C087E40E94440B0E94B90B2FEFE9
:1005C00081EE94E0215080409040E1F700C00000AF
:1005D00087E4CFCF8CEF8C0F813A90F46C2F809111
:1005E0000201909103010E945915882329F08C2F54
:1005F0000E944B0B0E94B90B8C2F0E94440BBBCF67
:1006000080E28C0F883048F4C77081E001C0880F09
:10061000CA95EAF70E946C0BAECFCF91089588235C
:1006200009F44BC0823871F40E94F31481FF45C075
:1006300089E30E94440B0E94B90B89E30E944B0B93
:100640000C94B90B833859F40E94F31480FF35C021
:1006500083E50E94440B0E94B90B83E5EFCF8438F9
:1006600059F40E94F31482FF28C087E40E94440BCF
:100670000E94B90B87E4E2CF9CEF980F913AF0F219
:1006800090E2980F983050F4877091E001C0990F74
:100690008A95EAF7892F0E94720BD2CF9BE5980FBB
:1006A000933020F490E080E00C941915885A87313B
:1006B00020F490E080E00C942F1508951F93CF93C1
:1006C000DF93182FEB010E949F02209731F4812FB6
:1006D000DF91CF911F910C940F038FE99FE0019759
:1006E000F1F700C000002197F0CF70E060E089339F
:1006F00011F460E570E00C945E03882321F00E9401
:100700006C0B0C94B90B0895882321F00E94720B96
:100710000C94B90B0895BF92CF92DF92EF92FF92A3
:100720000F931F93CF93DF936C01D62FC72FFC013C
:100730001281F580F2949FE0F9220E94620BE82E6C
:100740008823B9F0E12E1123A1F08C2F807F803413
:1007500021F080E28D0F8830B0F08091130282FD8D
:1007600012C082E00E940A0C0E94620B91E0E82E07
:10077000E926BC2EB2948FE0B822EB2DF0E0E252D5
:10078000F04E0C94871FE12CF4CF0C2F0F70C07F1C
:1007900011F00295007F112399F0002359F080E2B7
:1007A0008D0F883010F0D11107C0802F0E946C0B84
:1007B0000E94B90B8D2F41C0802F0E947C0BF8CF77
:1007C0008D2F0E940F03002309F43FC080E28D0F9C
:1007D000883010F0D11104C0802F0E94720B03C02A
:1007E000802F0E94820B0E94B90B2FC00C2F0F701C
:1007F000C07FC03211F00295007FDD2381F0D1303F
:1008000009F469C0112309F473C0FF2009F469C019
:10081000F601858180FFCECF8F70858362C0809185
:10082000130282FF38C0112359F0002329F0802FD2
:100830000E946C0B0E94B90B80E00E949F0205C0D1
:1008400080E00E940F030111C7CFEB2DE850FF0B92
:10085000349720F40E94F3140E945402EE2009F40D
:100860005BC10E945E0B80FD57C1F60112820E949F
:10087000580B0E949E06C6010E94AD050E94580BAF
:10088000DF91CF911F910F91FF90EF90DF90CF906C
:10089000BF900C94BF06112389F0F11006C00E948E
:1008A0009C0B802B0E947D03D0CFF1E0FF12F7CF8D
:1008B0000E949C0B802B0E94A20BC7CFF11006C098
:1008C0000E94AF0B802F0E948403BFCF21E0F2165D
:1008D00009F4BBCFF5CF112331F035E03F1508F413
:1008E000B4CF802FDFCF84E08F1508F4AECFEACFEE
:1008F000FF2041F3D93349F4FFEF27EE33E0F15005
:1009000020403040E1F700C000008D2F0E940F030F
:100910009CCF8C2F837009F041C0111196CF4D2FC1
:10092000429546954770440F440F0D2F0F7010E00D
:1009300030E020E0042E04C0000F111F221F331FDF
:100940000A94D2F760E070E0CB01D4FF0FC06FE0F3
:1009500070E080E090E004C0660F771F881F991F49
:100960004A95D2F76095709580959095C695C695F5
:10097000C370602B712B822B932BC23049F058F43B
:10098000C13019F00E94500660CF0E943E065DCF34
:100990000E9462065ACF0E943C0657CF86951123CB
:1009A00011F08C2F8170882309F44FCF4D2F429581
:1009B00046954770440F440F0D2F0F7010E030E044
:1009C00020E0042E04C0000F111F221F331F0A94C1
:1009D000D2F760E070E0CB01D4FF0FC06FE070E0B1
:1009E00080E090E004C0660F771F881F991F4A952A
:1009F000D2F76095709580959095C695C695C37011
:100A0000602B712B822B932BC23049F058F4C130EC
:100A100019F00E94150719CF0E94030716CF0E94F4
:100A2000270713CF0E94780610CFCF70112329F02B
:100A30008C2F0E949E068D2F35CF8D2F0E94840310
:100A40008C2F0E94BF0601CFD23F51F160F4D03FFE
:100A5000B9F0D13F81F0112309F449C0F110AACEB9
:100A60008C2F8F7121C0D33F11F1D43FA1F780911A
:100A7000130282FF26C08C2F8F71112311F314C033
:100A8000112349F084E08F1508F4DFCE8C2F8F718D
:100A90000E94E206DACE95E09F1508F4D6CEF6CF96
:100AA0008C2F8F711111CDCF0E949E06CECE1123B7
:100AB00029F08C2F8F710E948906C7CE0E94840670
:100AC000C4CE112349F0CF718C2F0E949E0663E0A3
:100AD0008C2F0E94EF0BB9CE81E00E940A0CE1E05E
:100AE000EF1508F0B2CE82E00E940A0CAECEF110F3
:100AF00001CF8C2F8F71A5CF4C2F4F706D2FC6015A
:100B00000E94F60D0E94FE07A0CE4C2F4F706D2F55
:100B1000C6010E94F90D99CEDF91CF911F910F91DF
:100B2000FF90EF90DF90CF90BF9008950F931F93A9
:100B3000CF93DF93EC01688179818A810E94DA0783
:100B40008C010E9439070E943B06B801CE01DF915B
:100B5000CF911F910F910C948B03CF93DF93EC01F6
:100B60008B819C81892B29F08881998189238F3FF2
:100B700059F4DF91CF910895CE010E949605CE01E0
:100B8000DF91CF910C94C501CE010E94EC0181113F
:100B9000F3CF0E94620B882361F38A81882349F393
:100BA0008091130282FDE5CF82E0DF91CF910C941A
:100BB0000A0C0E94890B0E94990B0C94B90B0E949D
:100BC000520B0C94D9050E94790B0C94DF05E92F88
:100BD000E295EF70E250EE3070F4F0E0E251F04E4A
:100BE0000C94871F803F19F020F4883E20F481E0A8
:100BF0000895843FE1F380E00895883EC0F3813F8B
:100C0000D1F7F5CF93FB882780F90895FC01808107
:100C100091810E94D0070C94E705CF93DF9300D019
:100C200000D00F92CDB7DEB70F900F900F900F90BE
:100C30000F90DF91CF910895CF93DF9300D000D034
:100C400000D0CDB7DEB726960FB6F894DEBF0FBE44
:100C5000CDBFDF91CF91089508950C942C060E948A
:100C60002D066093620170936301809364019093F9
:100C700065010C94D90508950C942F060F931F93CA
:100C8000009162011091630120916401309165012E
:100C9000602B712B822B932B1F910F910C942F069D
:100CA0000F931F93009162011091630120916401E1
:100CB0003091650160237123822393231F910F914B
:100CC0000C942F060F931F93009162011091630102
:100CD0002091640130916501602771278227932755
:100CE0001F910F910C942F060C942C060C947406F3
:100CF0000E94760660935E0170935F0180936001AD
:100D0000909361010C94D90560E070E0CB010C94E4
:100D100078060F931F9341E050E060E070E08A0195
:100D20009B0104C0000F111F221F331F8A95D2F7A9
:100D3000C901B8011F910F910C9478060F931F936E
:100D400041E050E060E070E004C0440F551F661FB2
:100D5000771F8A95D2F780915E0190915F01A091F3
:100D60006001B09161018A019B01082B192B2A2B8C
:100D70003B2BC901B8011F910F910C9478060F937A
:100D80001F9341E050E060E070E004C0440F551F45
:100D9000661F771F8A95D2F7CB01BA0160957095CF
:100DA0008095909500915E0110915F012091600106
:100DB0003091610160237123822393231F910F914E
:100DC0000C9478060F931F9341E050E060E070E0D0
:100DD00004C0440F551F661F771F8A95D2F7809174
:100DE0005E0190915F01A0916001B09161018A0163
:100DF0009B01082719272A273B27C901B8011F9102
:100E00000F910C9478060F931F9300915E0110913F
:100E10005F012091600130916101602B712B822B69
:100E2000932B1F910F910C9478060F931F930091B1
:100E30005E0110915F01209160013091610160239A
:100E40007123822393231F910F910C9478060F93A3
:100E50001F9300915E0110915F012091600130911C
:100E6000610160277127822793271F910F910C94AE
:100E7000780608952BE0929F800D1124982F97708B
:100E800041E001C0440F9A95EAF7869586958695CC
:100E900095E0899FF0011124EB5BFE4F90E080E02C
:100EA00070E05191DF0111979B01082E02C0369529
:100EB00027950A94E2F721702195252724232527D9
:100EC0002C9301968530910561F708952BE0929F50
:100ED000800D1124982F977086958695869525E02C
:100EE000829FF0011124EB5BFE4F50E040E080E078
:100EF000219130E0092E02C0369527950A94E2F739
:100F000021703327042E01C0220F0A94EAF7822BA6
:100F10004F5F5F4F4530510559F70895BF92CF920B
:100F2000DF92EF92FF920F931F93CF93DF938C0189
:100F3000C0905E01D0905F01E0906001F09061018F
:100F40008091620190916301A0916401B09165016B
:100F5000C82AD92AEA2AFB2ACFE1D0E0BC2ED70141
:100F6000C6010C2E04C0B695A795979587950A944F
:100F7000D2F780FD0EC0219788F7B12C8B2DDF9121
:100F8000CF911F910F91FF90EF90DF90CF90BF9086
:100F90000895B8018C2F0E94070F019761F3EECFDF
:100FA000CF93DF93EC010E948E07BE01DF91CF91BA
:100FB0000C94070F1F93CF93DF93EB0190914401A3
:100FC000992331F0CB01DF91CF911F910C94D00781
:100FD000882379F0CB010E948E07182F682FCE014D
:100FE0000E943A07BE01812FDF91CF911F910C948F
:100FF000070FCB010E946607182FF4CFEF92FF92E4
:101000000F931F93CF93DF938C01892B81F0F12CE9
:10101000EE24E394E8012196F8018491843770F47A
:10102000843008F05FC08130B1F08230A1F1DF91EF
:10103000CF911F910F91FF90EF900895853709F49C
:101040004CC008F43DC09CE7980F903780F78F772D
:101050000E940F0349C00E5F1F4FFE01849190E272
:10106000980F983060F48770FE2D01C0FF0F8A95AD
:10107000EAF78F2F0E948C0B0E94B90B02C00E94CE
:101080009F028F2D815030F2EFE9FFE03197F1F7A9
:1010900000C00000F7CF0E5F1F4FFE01849190E269
:1010A000980F983050F48770FE2D01C0FF0F8A957D
:1010B000EAF78F2F0E94920BDFCF0E940F03E1CF40
:1010C0000E5F1F4FFE01C491C150D8F28FE99FE01F
:1010D0000197F1F700C00000F7CF0E5F1F4FFE0130
:1010E000F490CFCF0E949F028E01CBCF1F93CF935E
:1010F000DF93C091660116E0809167018C1304C0F4
:10110000DF91CF911F910895D0E01C9FF0011D9FAA
:10111000F00D1124E859FE4F4081518162817381A5
:10112000848195810E941C062196C770E5CF40916D
:1011300098015091990160919A0170919B01809161
:101140009C0190919D010C941C06FF920F931F939C
:10115000CF93DF9380919D01807FD1F480919A019C
:101160008823B1F080916601109167016091980128
:1011700070919901A0919B01B0919C01062F0723CA
:10118000C0910001D091010196E0F92E181306C01C
:10119000DF91CF911F910F91FF90089590E01097EC
:1011A00011F00F3F19F401968770F0CFF89E90016F
:1011B000F99E300D1124F901E859FE4F4181471382
:1011C000F2CF40814613EFCF42814111ECCF4381F2
:1011D00054814A1B5B0B4C175D0728F780919D01DA
:1011E0008F70806180939D01F901E359FE4F8081EA
:1011F0008F708061808388E991E00E94AD05DF9166
:10120000CF911F910F91FF900C947608AF92BF92EF
:10121000CF92DF92EF92FF920F931F93CF93DF93C2
:10122000CDB7DEB761970FB6F894DEBF0FBECDBF66
:101230008C0185E0F801DE011D9601900D928A95E2
:10124000E1F7F801E28088E9C82E81E0D82E6091AC
:101250009B0170919C016115710509F45FC190912A
:10126000980120919901892F82238F3F09F456C15B
:1012700040815181A380B480F0909A01F501E61B72
:10128000F70BBF01E0910001F0910101FF2009F48B
:10129000F6C080919D01382F307F6E177F0708F0D0
:1012A000AFC0311179C0FE2C251323C0941321C087
:1012B000E1101FC08F70806180939D010E9497088C
:1012C000C6010E94AD0580919D01F80185838F2D97
:1012D00061960FB6F894DEBF0FBECDBFDF91CF9100
:1012E0001F910F91FF90EF90DF90CF90BF90AF9044
:1012F0000895AB2829F0842F85238F3F09F027C15B
:1013000080E0F82FF170DF2E80FF3CC080916601F5
:101310002091670136E0821315C04D875E878D8569
:101320009E850E94D007292F22952F702230F0F041
:10133000243018F59F70F1F0F8019581907FD1F479
:10134000D12C1EC090E0389FF001399FF00D112480
:10135000E859FE4F6181651306C06081641303C0C4
:1013600062816E110FC001968770D5CF9F7011F00A
:10137000882331F3805E883018F3C8010E94AD05E0
:10138000FD2CA5CFEE2009F4A2CF80919D018160B4
:1013900080939D01F12C9BCF251306C0941304C0AC
:1013A000F801EE2009F487C0C8010E9406068823D0
:1013B00019F1EE2009F180919D01803270F02091A9
:1013C00098013091990138872F831986BB86AA86A8
:1013D0008C87CE0107960E94AD0586E0F801A8E94A
:1013E000B1E001900D928A95E1F70E94A5080E9454
:1013F0009708FF24F3946BCFC8010E94AD05F9CF85
:10140000311113C07A2DB98AA88A6E2D89890E945C
:101410000D0688E991E00E94AD0586E0F601119283
:101420008A95E9F70E949708B5CF25130FC094134A
:101430000DC0E1100BC0F8018583C8010E94AD0505
:1014400086E0F60111928A95E9F741CFC8010E9422
:101450000606882389F2EE2079F280919D01803280
:1014600008F4BBCF20919801309199013A832983E8
:101470001B82BD82AC828E83CE010196ACCF6E17EB
:101480007F0708F03EC0FE2CEE2009F4B5CF2513EF
:101490002AC0941328C080919D0180FD1BC0982F05
:1014A000907FC1F0F8018583903F31F0982F907FB5
:1014B000905F8F70892B8583C8010E94AD0586E0FF
:1014C000F801A8E9B1E001900D928A95E1F70E9438
:1014D0009708FDCE86E0F801A8E9B1E001900D92F1
:1014E0008A95E1F7F4CEC8010E940606811175CFF6
:1014F00080919D01816080939D01C8010E94AD058E
:10150000E6CE7A2DB98AA88A6E2D89890E940D06A9
:1015100086E0F60111928A95E9F7D9CFEE2009F419
:101520006BCFC8010E940606F82E882309F464CF09
:1015300086E0F801A8E9B1E001900D928A95E1F703
:1015400088E991E00E949A020E94A508C0CF81E03C
:101550008E25D7CE1F93CF93DF93CDB7DEB72C97D1
:101560000FB6F894DEBF0FBECDBF4F835887698793
:101570007A878B879C87CE0107960E94060988236D
:1015800069F08A859B85892B39F04F815885842F96
:1015900085238F3F09F071C016E05FC086E0FE0131
:1015A0003796DE01119601900D928A95E1F78A85B2
:1015B0009B85892B89F38F81988589238F3F61F3E0
:1015C0002091670130E0C901019687709927409109
:1015D00066014817190671F40E94E305109267012D
:1015E0001092660186E0E8E9F1E0DF011D928A953C
:1015F000E9F7D2CF96E0929FD001939FB00D1124CE
:10160000A859BE4FFE01319601900D929A95E1F7CF
:10161000809367010E947608BFCF819FC00111248B
:1016200088599E4F0E9406098823E9F0E0916601DF
:101630001E9FF0011124E859FE4F408151816281C3
:101640007381848195810E941C068091660190E0DF
:101650000196877099278093660180916601909129
:1016600067018913DACF2C960FB6F894DEBF0FBE50
:10167000CDBFDF91CF911F91089569857A858B85C4
:101680009C850E941C0688CF682F80910201909152
:1016900003010C94D915682F8091020190910301E8
:1016A0000C94E41580910201909103010C94EF15C4
:1016B00080919E01859585958595089580919E01DF
:1016C0008770089590919E01977081E009F480E001
:1016D00008958091C20108959091C201892B809351
:1016E000C201089580959091C20198239093C20100
:1016F00008951092C20108959091C101892B8093A1
:10170000C101089580959091C10198239093C101E2
:1017100008951092C10108959091C001892B809382
:10172000C001089580959091C00198239093C001C5
:1017300008951092C001089580919F010895089521
:101740000C949F0B9091130292FD08C090919F0101
:10175000981721F080939F010C94A00B089580911D
:101760009F01882329F010929F0180E00C94A00B28
:101770000895E0910201F09103018091C2018083FC
:10178000E0910201F091030180819091C101892BC8
:101790008083E0910201F091030180819091C0016A
:1017A000892B808390919F01992381F0E091020120
:1017B000F09103018081892B8083809102019091B7
:1017C00003010E94451581110E94AF0B8091020117
:1017D000909103010C94FF1408950C94EC0B9091DC
:1017E000130292FD10C098E0899F90011124622B92
:1017F00060939E010E949E0680919E01859585952D
:1018000085950C94ED0B0C949E0610929E0180E041
:101810000C94ED0B90919E018095892380939E01FD
:10182000282F277091F4282F082E000C330B9217C5
:10183000130659F09091130292FD07C08595859586
:1018400085950E94BF060C94050C08959091130293
:1018500092FB222720F9281769F080FB92F99093D8
:10186000130280911202909113020E94710C82E087
:101870000C940A0C08958091130282FB882780F94A
:1018800091E089270C94260C81E00C94260C80E0D2
:101890000C94260C6FEF7FEF90E080E00C94C61F55
:1018A00090E080E00E94A21F21E0893E9E4F09F057
:1018B00020E0822F089582E090E00C949A1F83E04C
:1018C00090E00C949A1FCF9384E090E00E949A1FBE
:1018D000C82F82E290E00E949A1F982F8C2FCF9100
:1018E0000895CF93C92F682F84E090E00E94A81F2D
:1018F0006C2F82E290E0CF910C94A81FAB01BC0149
:101900008FE090E00C94BA1FAB01BC0183E190E042
:101910000C94BA1F60E070E0CB010C94840C60E082
:1019200070E0CB010E947E0C0C948A0C69EE7EEF75
:1019300090E080E00E94C61F60E082E090E00E949C
:10194000A81F60E083E090E00E94A81F109262014F
:1019500010926301109264011092650160E084E0CE
:1019600090E00E94A81F60E082E290E00E94A81F21
:1019700060E085E090E00E94A81F60E086E090E0D3
:101980000E94A81F6FEF87E090E00E94A81F40E030
:1019900050E0BA0188E090E00E94BA1F60E08DE05C
:1019A00090E00E94A81F40E050E0BA0188E190E07A
:1019B0000E94BA1F60E087E190E00E94A81F40E00B
:1019C00050E0BA018CE190E00E94BA1F70E060E044
:1019D00080E290E00E94C61F40E050E0BA0188E13A
:1019E00090E00E94BA1F0C948F0C0C94960C682FF8
:1019F0008EE090E00C94A81F0E949E166093CE018A
:101A00007093CF018093D0019093D1016093CA016C
:101A10007093CB018093CC019093CD01089585B74D
:101A2000806885BF85B7806885BF0895089508954B
:101A30000C94160D08950C941A0D0E940F0D85EE4E
:101A40009FE00E94E9140E94170D0C94180D81E08C
:101A500008950C94270D089508950E942B0D0C9461
:101A60002C0D0E9489160E94DB100E94BB11E2E13E
:101A7000F2E080818068808380911202909113024D
:101A80000E94710C0E943C180C941B0D8F929F9227
:101A9000AF92BF92CF92DF92EF92FF920F931F937C
:101AA000CF93DF93CDB7DEB72A970FB6F894DEBF9A
:101AB0000FBECDBF0E94F01081110E94FC0C54ECAF
:101AC000852E51E0952E10E000E0A02E802F0E9480
:101AD00029106C01F401E190F1904F01E816F9062C
:101AE00009F45AC08091D20181FD0E943210C701D1
:101AF0008C259D25B12CEE24E394F12C9C012E2104
:101B00003F21232B09F442C00E94290D8823A9F00C
:101B1000BE82AF82CE20DF2081E0CD2809F480E0B4
:101B200088870E9492168160782F9A8789874E81D4
:101B30005F8168858A850E945C02000F111FF80191
:101B4000EC53FE4F80819181E826F926F182E082F4
:101B50000E94F3149091C3018917A9F10E94F31414
:101B60008093C3012A960FB6F894DEBF0FBECDBF97
:101B7000DF91CF911F910F91FF90EF90DF90CF9069
:101B8000BF90AF909F908F900C945402B394EE0C42
:101B9000FF1CFBE0BF12B2CF0F5F1F4F03301105D8
:101BA00009F093CF8FEF89838A831B820E9492165C
:101BB0008160782F9D838C8349815A816B818D81CF
:101BC0000E945C02C5CF2A960FB6F894DEBF0FBE06
:101BD000CDBFDF91CF911F910F91FF90EF90DF90DC
:101BE000CF90BF90AF909F908F90089590E080E04D
:101BF00008950895972F70E02BE0929F600D711D5E
:101C00001124FB0191E2899FE00DF11D1124EE0FDB
:101C1000FF1FE455FF4F859194910895FC01EE0F4D
:101C2000FF1FE251FF4F859194910895CF93DF9369
:101C30000E940B0FEC01811521E59207D0F581156B
:101C400030E5930708F096C081159042F8F4C1156D
:101C500081E0D807B8F4C03ED10588F4C03CD10576
:101C600008F07BC0C130D10569F0209759F0CE0152
:101C70000497813A910530F0D0E0C0E003C0C83E3F
:101C8000D105D0F7CE01DF91CF910895C11590E431
:101C9000D90708F06CC0CE019F70C11520E3D207B0
:101CA00008F45EC0CE019927D3FF5EC0EC01D86C6A
:101CB000E9CF811535E5930700F5811544E59407D3
:101CC00008F08DC0C11583E5D80708F074C0C115B0
:101CD00092E5D90708F46AC0CE018370992721E004
:101CE00030E002C0220F331F8A95E2F7C695C695F1
:101CF00080E2C89FE001112455C0811529E59207B3
:101D0000A0F4811538E5930708F06EC0811546E50B
:101D1000940708F0B1CF0E94A20FC82FD0E0DC2FAB
:101D2000CC27CC27DF71D062ADCFC1158AE5D807AB
:101D300008F45FC0CE0190568115904208F09CCF08
:101D40008D2F8F710E94A20F90E0982F88278827EF
:101D50009F719C012C2BE901E6CFCE01805C91099B
:101D60000E940E0EEC018ECFEC01D06C8BCFDF7099
:101D7000D06A88CFE4E096958795EA95E1F783707D
:101D80002C2F26952695237040E2249F9001112444
:101D9000382B8C2F8370C1E0D0E002C0CC0FDD1F48
:101DA0008A95E2F7C22BD32BDC686CCFDC2FCC27D3
:101DB000C16FD06A67CFCE018370992721E030E0F0
:101DC00002C0220F331F8A95E2F7C695C69590E2AE
:101DD000C99FE0011124C22BD32BDA6853CFD82F2F
:101DE000CC27C46FD06A4ECFD82FCC27C06FD06A13
:101DF00049CF8C2F8F700E94A20F34E0D695C795E3
:101E00003A95E1F7CF709C2FEC01D0693BCF0E944F
:101E1000FA0D0C94160E82389105B1F1B0F48133AD
:101E2000910509F475C048F48932910509F469C037
:101E30008A32910509F473C008958533910509F438
:101E400059C08933910501F10895833E9105A9F1A7
:101E500038F4803E9105F9F0823E910549F10895EC
:101E6000863E9105A9F1873E9105C9F1843E910511
:101E700019F52091130221FF1FC08091120284FDE9
:101E800014C087EE90E00895209112022370A1F013
:101E900080EE90E008952091120220FD47C030911D
:101EA000130230FF09C024FF44C090E080E004C06A
:101EB0002091120222FDF7CF08952091120222FDF7
:101EC0003BC03091130230FDE3CF24FFF5CFEDCFBF
:101ED0002091120223FFF0CF24FDE7CFD2CF209133
:101EE000120223FD2CC03091130231FFEECF84EE9D
:101EF00090E008952091120225FFDECF89E290E064
:101F000008952091120225FFD7CF85E390E0089530
:101F10002091120226FFD0CF8AE290E0089520910E
:101F2000120226FFC9CF81E390E0089589E390E093
:101F3000089583EE90E0089582EE90E0089586EE95
:101F400090E008959091120292FF06C0282F287108
:101F50002830F9F4877F846093FF06C0282F28710A
:101F60002831F1F4877E84612091130220FF06C09E
:101F7000382F38713830D9F4877F816021FF06C04F
:101F8000282F28712831D1F4877E816194FD877EC6
:101F90000895282F24712430F9F68B7F8860DCCFD8
:101FA000282F2471243101F78B7E8861DDCF382FF3
:101FB0003171313019F78E7F8860E0CF282F217181
:101FC000213121F78E7E8861E1CF80E008950C9465
:101FD0004A0C0E94F0108FE39CE90197F1F700C0D2
:101FE00000000E94F01080E00E94291080FF04C0D1
:101FF0000E94E70F0C94DD1608950C94E90F0E94DF
:10200000500C811102C00E94F50C0E945B0C809361
:10201000D2010E94630C90931302809312020E94DB
:10202000FD0F0E945F0C682F70E090E080E00E943E
:102030003C0660915E0170915F018091600190911A
:1020400061010C94760608950C94231008950C9465
:102050002610E82FF0E0EE0FFF1FE65EFD4F8081B7
:1020600091810895089580EA8A95F1F7089500C056
:1020700008950C943310F894E82FE295EF70F0E097
:1020800031A1282F2F7081E090E001C0880F2A95A0
:10209000EAF7982F9095932391A392A1892B82A37D
:1020A00078940895CF93DF9384EF0E943B1082E3EE
:1020B0000E943B1086E30E943B10C4E3D1E089916B
:1020C0008F3F11F00E943B1081E0CF33D807B9F762
:1020D000DF91CF910895AF92BF92DF92EF92FF927E
:1020E0000F931F93CF93DF938C01D62EC62FD0E092
:1020F000CE01815C9E4F7C01FC0120812F3F09F4C1
:102100004DC0F894E22FE295EF70F0E031A12F700E
:1021100081E090E001C0880F2A95EAF7932F982B71
:1021200091A392A18095892382A378940E9437106D
:10213000E4E3F1E04FE351E021E030E0B12CA12CE9
:1021400061916F3FA9F1A62FA295AF70B0E0909674
:102150008C9190E06F7002C0959587956A95E2F733
:1021600080FD26C0C901A82AB92A220F331F4E17A5
:102170005F0731F7F70180818F3F11F00E943B101C
:1021800061E0A114B10409F460E08D2D0E943910C2
:10219000CC0FDD1FC00FD11FB982A882DF91CF9174
:1021A0001F910F91FF90EF90DF90BF90AF90089537
:1021B00090E080E0D8CF0E94521086E0EAE1F2E0A1
:1021C000DF01982F1D929A95E9F7E4E1F2E0DF0133
:1021D0001D928A95E9F783E00E943B110C94D0018F
:1021E000FF920F931F93CF93DF9300D000D000D0C6
:1021F000CDB7DEB78E010F5F1F4F86E0F801119259
:102200008A95E9F760E0C8010E946B1061E0C8019F
:102210000E946B1062E0C8010E946B1046E050E023
:10222000B80184E192E00E948D1FFF24F39400978F
:1022300009F4F12C892B41F086E0F801A4E1B2E029
:1022400001900D928A95E1F72F2D43E06AE172E04B
:1022500084E192E00E943C110E94D6018F2D2696C7
:102260000FB6F894DEBF0FBECDBFDF91CF911F91A7
:102270000F91FF9008950895FF920F931F93CF93AE
:10228000DF93F82E092F162FD72FC42F222349F0C2
:1022900081E08093D5010E9492169093D40180939F
:1022A000D3018091D5018823A1F08091D301909131
:1022B000D4010E94AA16059760F0EF2DF02FA12FF0
:1022C000BD2F90E080E0D0E08C179D0744F0109285
:1022D000D501DF91CF911F910F91FF90089521912A
:1022E00031912D933D930196EFCF0E94B1180E943A
:1022F000310D0C94BD180E94C1180E94460D0C941B
:10230000DB180E941B160E9498180E941D0D0E9447
:1023100075110E947B110E942D0DFBCF86E0EEED22
:10232000F1E0DF01982F1D929A95E9F7E8EDF1E0D1
:10233000DF011D928A95E9F70895CF93DF9300D0CE
:1023400000D00F92CDB7DEB76B837C838D838C81F9
:102350009D81892B21F0CA0189238F3F51F480E0B0
:1023600081700F900F900F900F900F90DF91CF9191
:1023700008958B81F5CF0E94500C811102C00E94FC
:10238000F50C8DE090E00E949A1F8093D60108958D
:10239000CF93C82F0E948E11C093D6016C2F8DE071
:1023A00090E0CF910C94A81F81E0089581E00895FA
:1023B00081E00895EF92FF920F931F93CF93DF93E5
:1023C0007C01EB0180E3E8168AE5F806E9F030F4D9
:1023D000C7019A558A97A0F1C1E01DC0F1E3EF163D
:1023E000FAE5FF06C9F781E39AE50E94D811882330
:1023F00089F0488159816A817B818C810E949D117D
:10240000882341F081E019C080E39AE50E94D81149
:10241000811109C0C0E08C2FDF91CF911F910F91E6
:10242000FF90EF900895488159816A817B818C816A
:102430000E949D11882371F380E00E94C811EACFA9
:10244000C7010E94D811882329F31091D6011123C6
:10245000F9F0113009F445C00091D70128ED31E0C1
:10246000412FBE01C7010E94D611882399F24881ED
:1024700059816A817B818C810E949D11C82F809136
:10248000D701CC2309F458C08F5F8093D701C2CF06
:10249000488159816A817B818C810E949D11F7015D
:1024A000FF27E251FF4F9491A92FA295A695A695DB
:1024B000A370B0E0882371F09D0122523E4FF901D4
:1024C0008081892B8083A852BE4F8C91E92FE82B05
:1024D000EC93C2CFA252BE4FE92FE0958C91E82336
:1024E000F7CF488159816A817B818C810E949D113F
:1024F000482F8E2D67E00E947B1F292FE82FF0E0E8
:1025000086E090E0821B910921E030E001C0220FBB
:102510008A95EAF7DF01A252BE4F8C91442341F025
:10252000822B8C93E852FE4F8081282B208394CFFE
:10253000209528232C9390CF815018160CF4A5CF0A
:102540001092D70168ED71E08091D6010E94D411FC
:10255000882331F08091D601882329F0813099F0C9
:102560000E948E1158CF08ED11E0F80181918F0182
:1025700081110E945B18F1E00C3D1F07B1F780E06C
:102580000E945B18EDCF8091D80180688093D801BC
:1025900008ED11E08EEDE82E81E0F82EF801819132
:1025A0008F010E945B18E016F106C1F7D9CFCF93D7
:1025B000DF93EC01FB018281882309F420C1C43040
:1025C000FDE5DF07C8F5CB3F9CE5D90730F49E0158
:1025D00022503C452431310598F50E94630C9093BC
:1025E000130280931202C031FCE5DF0709F4E0C05A
:1025F00008F061C0C8309CE5D90709F4CBC088F564
:10260000C430FCE5DF0709F4B3C0E8F4C2309CE550
:10261000D90709F4A7C0809112028260C330DC455B
:1026200009F4A3C080911202909113020E94710CD0
:102630000E94E30580E004C0C236EDE5DE0769F2E2
:10264000DF91CF910895809112028061C630FCE540
:10265000DF0709F48AC008F48FC0809112028062FB
:1026600084C0809112028D7FCC309CE5D90709F49B
:102670007CC070F4809112028C60CA30FCE5DF07E8
:1026800009F473C008F48AC0809112028E7F6DC075
:1026900080911202877FCE309CE5D90709F465C08E
:1026A000809112028B7FCF30DC4508F45EC08091B0
:1026B00012028F7E5AC0CD3FFCE5DF0709F474C0DB
:1026C00040F5C4319CE5D90709F48AC058F4C231F9
:1026D000FCE5DF0709F474C008F46EC080911202B3
:1026E000837F43C0CB3F9CE5D90709F449C008F07C
:1026F0004DC0C531DC4509F095CF8091120282FBB7
:10270000992790F921E0922790FB82F990FB83F9B9
:102710002CC0C1308DE5D80709F458C088F48091E9
:1027200013028360CF3FECE5DE0769F1809113026D
:102730008D7FC115DD4538F1809113028C7F23C058
:10274000C3308DE5D80709F458C008F452C0C2362A
:10275000DD4509F067CF90911202892F8F7E94FF9B
:10276000806103C0809112028160809312025ACF6F
:10277000809112028460F9CF809112028860F5CFB7
:10278000809113028160809313024CCF80911302D9
:102790008260F9CF809112028064E7CF0E94E30546
:1027A000809112028068E1CF809113028E7FEBCF7F
:1027B000809112028F7DD9CF809112028F7BD5CF6D
:1027C0000E94E305809112028F77CFCF8091130290
:1027D000982F909591708E7F892B90FB81F9D3CFA4
:1027E0000E94E30590911202892F97FB87F9805888
:1027F000BCCF81E00E94F70C15CF80E0FBCF81E0D9
:102800001FCFCF93DF93EB0186319C4511F50E94DA
:10281000690B9A81992399F08A7A91E009F490E002
:102820009093E401811109C089E20E94440B0E9447
:10283000B90B80E0DF91CF91089585E3F6CF8091C9
:10284000E401811104C089E20E944B0BF0CF85E3C3
:10285000FBCF81E0EFCF0F931F93CF93DF93C42F74
:10286000D22FFC0182818823C9F04093E7010E94A6
:1028700092169093E6018093E50180E28C0F8830F8
:1028800008F050C0C77081E001C0880FCA95EAF710
:10289000DF91CF911F910F910C947D031091E7016F
:1028A000141335C08091E5019091E6010E94AA16AB
:1028B000883C910560F5C0E2CD0F1D17B9F080E2AC
:1028C000810F883040F4177081E001C0880F1A959D
:1028D000EAF70E948403C83048F481E09D2F977086
:1028E00001C0880F9A95EAF70E947D03802F0E940D
:1028F0007503C830B8F4D77081E001C0880FDA954D
:10290000EAF7DF91CF911F910F910C94840380E23D
:102910008C0F883038F4C77081E001C0880FCA95E9
:10292000EAF7EFCFDF91CF911F910F9108950F93A9
:102930009C01CB01243F4CE5340759F1A8F4293D13
:10294000FCE53F0701F12A3D4CE53407D1F1283D74
:102950003C4591F406E221EE41EE68ED7CE50E94F3
:102960002B1480E00F910895263FFCE53F07E9F026
:10297000B0F0273F3C45F9F0FC018281882339F112
:102980001092E701EFCF07E225EE45EE69ED7CE519
:10299000E6CF06E221EE40EE64EF7CE5E0CF07E211
:1029A00025EE44EE65EF7CE5DACF06E221EE42EE5D
:1029B00066EF7CE5D4CF07E225EE46EE67EF7CE5D7
:1029C000CECF08E221E045EE6AED7CE5C8CF81E09C
:1029D000C9CF909343018093420108959093ED01F4
:1029E0008093EC010895E091EC01F091ED013097B6
:1029F00021F00190F081E02D099480E00895E091AC
:102A0000EC01F091ED01309799F020912B012223F8
:102A100059F02091120227FF07C0DC012C9111967A
:102A20002C93119726E02C930280F381E02D0994DA
:102A300008952091EA013091EB012817390771F0D0
:102A40009093EB018093EA01E091EC01F091ED01AC
:102A5000309721F00680F781E02D099408952091A8
:102A6000E8013091E9012817390771F09093E901E5
:102A70008093E801E091EC01F091ED01309721F0B5
:102A80000084F185E02D09940895FC01329680912F
:102A90002B01882321F0809112029EE187FF96E0AE
:102AA00080E0915008F4089521912223D1F38F5FA3
:102AB000F8CF662301F120912B012223F1F0209120
:102AC000120227FF1AC0462F4695469546954E316D
:102AD00090F4677021E030E002C0220F331F6A9546
:102AE000E2F7840F911DFC01828190E028233923B5
:102AF00081E0232B69F480E00895FC01329608966A
:102B00002191261721F0E817F907D1F7F4CF81E0DA
:102B100008959C01FC0132969FEF80E04191461799
:102B200051F09F3F19F4411101C0982F8F5F8630FB
:102B3000A9F79F3F09F40895290F311D97FD3A9594
:102B4000F90162830895FC013296089621912613BB
:102B500003C0DF0111971C92E817F907B9F7089530
:102B6000E62FE695E695E695EE3168F4E80FF92F45
:102B7000F11D677021E030E001C0220F6A95EAF78D
:102B80008281822B82830895E62FE695E695E6956D
:102B9000EE3170F4E80FF92FF11D677021E030E09D
:102BA00001C0220F6A95EAF72095828128232283AB
:102BB000089520912B01222329F02091120227FD54
:102BC0000C94B0150C94891520912B01222329F027
:102BD0002091120227FD0C94C4150C94A315FC013E
:102BE000329680912B01882351F08091120287FF49
:102BF00006C08EE1DF011D928A95E9F7089586E00F
:102C0000F9CF08950C940116811105C081E08093DD
:102C1000EE010C94021682E0FACF83E08093EE017D
:102C20000C9402160C94041681E08093EE010C942F
:102C300002160C941416089580912802843031F104
:102C40000E94D8011092EF0188E190E020E40FB6D5
:102C5000F894A895809360000FBE2093600083B71E
:102C6000817F846083BF83B7816083BF78948895B8
:102C700083B78E7F83BF0FB6F894A89580916000CC
:102C8000886180936000109260000FBE08950895DF
:102C90000895CF930E9447160E94F0100E94481694
:102CA000C0E08C2F0E942910892B31F4CF5FC330F4
:102CB000C1F780E0CF91089581E0FCCF0E94E30549
:102CC0000C9446021F921FB61F9211248F939F935C
:102CD000AF93BF938091EF01811113C080912002C7
:102CE00090912102A0912202B09123024196A11D50
:102CF000B11D8093200290932102A0932202B093F1
:102D00002302BF91AF919F918F911F901FBE1F9083
:102D1000189582E084BD93E095BD9AEF97BD8093AE
:102D20006E0008952FB7F8948091200290912102AF
:102D3000A0912202B09123022FBF08952FB7F894DB
:102D400060912002709121028091220290912302D1
:102D50002FBF08959C014FB7F89480912002909165
:102D60002102A0912202B09123024FBF821B930B3C
:102D7000089578941F921FB61F9211248F939F93EA
:102D8000AF93BF938091200290912102A0912202E3
:102D9000B09123020196A11DB11D80932002909352
:102DA0002102A0932202B0932302BF91AF919F9181
:102DB0008F911F901FBE1F90189587E797E79093FC
:102DC00001088093000888E19AE00FB6F894A8956E
:102DD000809360000FBE90936000FFCF809110023F
:102DE000089508950895CF93DF93EC0180912B010E
:102DF0008823B1F18091120287FF32C060E282E045
:102E00008093E9008FEF9091E800815095FD06C016
:102E100095ED9A95F1F700008111F5CF8091E800CA
:102E200085FF1BC080912B0170E050E040E08111D4
:102E300004C050E040E068E070E0CE010E9451190B
:102E40008091E8008E778093E80080E2FE01A0EF99
:102E5000B1E001900D928A95E1F7DF91CF9108954D
:102E600068E081E0CDCF0895089580912702811117
:102E700009C00E94E11A0E943E1B8091E20084601A
:102E80008093E20008951092270208950C9414167E
:102E90006091240281E0611101C080E00C940D1664
:102EA0009091280281E0943009F080E06091240242
:102EB0000C94121642E061EC81E00E945D1A42E23D
:102EC00061EC82E00E945D1A42E061EC83E00E94C6
:102ED0005D1A42E160E885E00E945D1A42E161E826
:102EE00084E00E945D1A9091280281E0943009F0FC
:102EF00080E0609124020C94041680912A028330B1
:102F000009F461C048F48130D1F1823009F4A3C0E2
:102F100084E091E00C94C91E8A3009F48BC08B3098
:102F200009F46EC08930A1F780912902813281F7BE
:102F300080912D0290912E02029750F78091E80027
:102F4000877F8093E8008091E80082FF37C09091EE
:102F5000F3008091F200029731F48091F10081300A
:102F600011F0863021F48091F1008093100280915D
:102F7000E8008B778093E8000E94911AC9CF809176
:102F80002902813A29F68091E800877F8093E80042
:102F900080912D0290912E02892B61F460E280EFE6
:102FA00091E070E00E94A0198091E8008B778093F7
:102FB000E800AECF60E090E080E0F3CF809128029F
:102FC0008111C1CF089580912902813A09F0A0CFE3
:102FD00080912D0290912E02892B09F099CF80913A
:102FE000E800877F8093E8008091E80080FFFCCFB5
:102FF00080912B018093F1008091E8008E77BACF09
:1030000080912902813209F083CF80912D02909125
:103010002E02892B09F07CCF8091E800877F809376
:10302000E8000E94911A80912B0280932B010E944C
:10303000E3056ECF80912902813209F069CF80913A
:10304000E800877F8093E8000E94911A80912C020B
:10305000809311025DCF80912902813A09F058CF07
:103060008091E800877F8093E8008091E80080FFEE
:10307000FCCF80911102BECF82E090E090931701C7
:103080008093160184E091E00C94801E0895CF9304
:10309000DF9384E091E00E94271EEC01209719F451
:1030A000DF91CF91089584E091E00E94501E0E942C
:1030B00046182197F3CFCF93C091E9002091EC00FF
:1030C000922F917020FD90E82091140120FF12C0F2
:1030D000CF70C92B909105019F709093E90090915A
:1030E000EB0090FF04C09091EE0097FD05C0CF70FB
:1030F000C093E900CF9108959FEF2091E80091508F
:1031000025FD06C025ED2A95F1F700009111F5CFB8
:103110008093F10084E091E00E94E21D8091E8003C
:1031200080FFE5CF8091E8008E778093E800DFCFC5
:1031300084B7877F84BF0FB6F894A895809160000C
:10314000886180936000109260000FBE80E890E07C
:103150000FB6F89480936100909361000FBE0C94B9
:1031600019160E94E11A0E943E1BE2EEF0E08081F7
:103170008460808378940C94C71D8FE191E00C9457
:10318000EE14809128028530A9F4809128028530C0
:1031900011F00C945E160E941C1680912602882362
:1031A000A1F30E944916882381F30E943B190E94D3
:1031B000E305EBCF08950E94471884E091E00C945A
:1031C000101E0C94E318292F33272330310519F1F1
:1031D00068F42130310509F444C02230310509F486
:1031E00045C090E080E030E020E025C0213231058C
:1031F00049F122323105A9F780E490E029E232E07A
:1032000061157105C1F08BE390E02EEE31E0613085
:10321000710589F0E6CF99278130910581F00097FB
:1032200029F00297F1F6EEE2F1E002C0E0E6F1E00B
:10323000849190E09F01FA01318320830895E0E4B6
:10324000F1E0F6CF89E090E026E731E06115710505
:1032500091F389E090E02FE831E06130710559F396
:10326000C0CF82E190E02CED31E0E5CF88E790E03F
:1032700024E631E0E0CF80E189BD82E189BD09B477
:1032800000FEFDCF8091D8008F7D8093D800809183
:10329000E00082608093E0008091E00081FDFCCF3F
:1032A0000895AF92BF92CF92DF92FF920F931F9338
:1032B000CF93DF936C01EB018A010E94B01AF82EC4
:1032C000811123C00115110539F0F8018081918128
:1032D000C81BD90BC80ED91EB12CA12C2097A9F060
:1032E0008091E80085FD22C08091E8008E77809370
:1032F000E80001151105A1F0F80180819181A80E67
:10330000B91EB182A08285E0F82E8F2DDF91CF917A
:103310001F910F91FF90DF90CF90BF90AF900895D5
:103320000E94B01A8823D1F2F82EEFCFF6018191D6
:103330006F018093F1002197FFEFAF1ABF0ACECF44
:10334000FC0180912F029091300286179707A0F020
:103350006115710529F49091E8009E779093E8003B
:1033600090E06115710551F4911108C08091E80059
:1033700082FF34C080E00895BC01F2CF8091280222
:103380008823C1F18530C1F18091E80083FD30C010
:103390008091E80082FDEACF8091E80080FFE1CFD4
:1033A0008091F3002091F200382F6115710519F01A
:1033B0002830310558F091E02830310509F090E0CF
:1033C0002091E8002E772093E800CBCF8191809365
:1033D000F100615071092F5F3F4FE7CF80912802C4
:1033E000882341F0853041F08091E80083FFBECF13
:1033F00081E0089582E0089583E00895FC018091C2
:103400002F029091300286179707A0F06115710581
:1034100029F48091E8008E778093E80090E06115B0
:10342000710551F4911108C08091E80082FF35C008
:1034300080E00895BC01F2CF809128028823C9F171
:103440008530C9F18091E80083FD31C08091E800AA
:1034500082FDEACF8091E80080FFE1CF8091F30008
:103460002091F200382F6115710519F028303105CF
:1034700058F091E02830310509F090E08091E800A3
:103480008E778093E800CBCF84918093F1003196C2
:10349000615071092F5F3F4FE6CF8091280288234A
:1034A00041F0853041F08091E80083FFBDCF81E09D
:1034B000089582E0089583E00895982F973028F0CA
:1034C0008F708093E90081E008959093E900242FA4
:1034D000762F50E0981731F07091EC002091ED00BC
:1034E0005091F00021FD02C09F5FE8CF3091EB00CA
:1034F0003E7F3093EB003091ED003D7F3093ED0047
:103500003091EB0031603093EB007093EC0020932E
:10351000ED005093F0002091EE0027FDE5CF80E014
:1035200008958091290287FF13C08091E80082FFEF
:1035300006C08091E8008B778093E80004C08091FA
:1035400028028111F2CF0895809128028823D9F3AF
:103550008091E80080FFF8CF8091E8008E77ECCF73
:103560002091E4003091E50095E6A9012091EC005E
:10357000822F817020FF06C08091E80080FF06C086
:1035800080E008952091E80022FD1AC08091280271
:10359000882389F0853089F08091EB0085FD0FC08C
:1035A0002091E4003091E50042175307F9F2915061
:1035B000E1F684E0089582E0089583E0089581E0D3
:1035C00008950E944F1B0E94571BE0EEF0E080819F
:1035D00081608083E8EDF0E080818F77808319BC83
:1035E000A7EDB0E08C918E7F8C9380818F7E80835D
:1035F0001092270208950F931F93CF93DF930E9499
:103600004F1B0E94571BC8EDD0E088818F778883BD
:1036100088818068888388818F7D888319BC109217
:10362000280210922402109226021092250200EE27
:1036300010E0F80180818B7F80838881816088839E
:1036400042E060E080E00E945D1AE1EEF0E08081FF
:103650008E7F8083E2EEF0E08081816080838081D4
:1036600088608083F80180818E7F8083888180617B
:103670008883DF91CF911F910F910895E8EDF0E0DD
:1036800080818F7E8083E7EDF0E0808181608083A0
:1036900084E082BF81E0809327020C94FB1AE8ED5E
:1036A000F0E080818E7F80831092E2000895109276
:1036B000DA001092E10008951F920F920FB60F9258
:1036C00011242F933F934F935F936F937F938F9327
:1036D0009F93AF93BF93EF93FF938091E10082FF9D
:1036E0000BC08091E20082FF07C08091E1008B7FD8
:1036F0008093E1000E94C61D8091DA0080FF19C00E
:103700008091D80080FF15C08091DA008E7F809371
:10371000DA008091D90080FF96C080E189BD82E106
:1037200089BD09B400FEFDCF81E0809328020E948C
:1037300035178091E10080FF19C08091E20080FF81
:1037400015C08091E2008E7F8093E2008091E200BC
:1037500080618093E2008091D80080628093D800DD
:1037600019BC85E0809328020E9448178091E100EF
:1037700084FF2BC08091E20084FF27C080E189BDD7
:1037800082E189BD89B5982F917080FFFBCF809130
:10379000D8008F7D8093D8008091E1008F7E809348
:1037A000E1008091E2008F7E8093E2008091E20050
:1037B00081608093E20080912402882309F449C04B
:1037C00084E0809328020E9450178091E10083FFDB
:1037D00029C08091E20083FF25C08091E100877FAE
:1037E0008093E10082E0809328021092240280916D
:1037F000E1008E7F8093E1008091E2008E7F8093D4
:10380000E2008091E20080618093E20042E060E0AB
:1038100080E00E945D1A8091F00088608093F00043
:103820000E944617FF91EF91BF91AF919F918F91A9
:103830007F916F915F914F913F912F910F900FBEAC
:103840000F901F90189519BC109228020E944317E0
:1038500070CF8091E30087FD93E090932802B3CF6F
:103860001F920F920FB60F9211242F933F934F93F5
:103870005F936F937F938F939F93AF93BF93CF93F8
:10388000DF93EF93FF93D091E900DF708091EC001C
:10389000C82FC17080FDC0E81092E9008091F0004F
:1038A000877F8093F00078940E94741C1092E90046
:1038B0008091F00088608093F000CD2BCF70C09392
:1038C000E900FF91EF91DF91CF91BF91AF919F916F
:1038D0008F917F916F915F914F913F912F910F90B9
:1038E0000FBE0F901F9018951F93CF93DF93CDB706
:1038F000DEB7AA970FB6F894DEBF0FBECDBF89E240
:1039000092E02091F100FC012193CF01F2E081339C
:103910009F07B9F70E947D178091E80083FF1EC1C1
:103920008091290290912A029A3008F017C1E92F5C
:10393000F0E0E450F04E0C94871F803899F0823804
:1039400009F00CC180912D028F70873008F006C1FC
:103950008093E9008091EB0085FB882780F9109225
:10396000E90006C0809125029091260291118260A3
:103970009091E800977F9093E8008093F100109277
:10398000F1008091E8008E77E5C0882309F4D3C068
:10399000823009F0E3C080912B028111D6C0809162
:1039A0002D028F702FEF280F263008F0D7C080939C
:1039B000E9002091EB0020FFC8C0933031F48091E2
:1039C000EB0080628093EB00C0C09091EB009061AF
:1039D0009093EB0021E030E001C0220F8A95EAF7D6
:1039E0002093EA001092EA008091EB008860EACF11
:1039F0008111B4C010912B021F778091E300807871
:103A0000812B8093E3008091E800877F8093E8001A
:103A10000E94911A8091E80080FFFCCF8091E30022
:103A200080688093E30082E0111183E08093280294
:103A300095C08058823008F091C080912B029091FF
:103A40002C028C3D23E09207A1F583E08A838AE271
:103A500089834FB7F894DE01139620E03EE051E2EF
:103A6000E32FF0E050935700E49120FF03C0E2956C
:103A7000EF703F5FEF708E2F90E0EA30C0F0C79696
:103A80008D939D932F5F243159F74FBF8091E800AC
:103A9000877F8093E8006AE270E0CE0101960E9481
:103AA000A0198091E8008B778093E80057C0C096FA
:103AB000E7CF60912D0270912E02AE014F5F5F4FF4
:103AC0000E94E118BC01892B09F448C09091E800DC
:103AD000977F9093E80089819A810E94FE19E1CF37
:103AE0008038E1F58091E800877F8093E80080913D
:103AF00024028093F10045CF811130C090912B02B8
:103B0000923060F58091E800877F8093E800909381
:103B100024020E94911A80912402882311F084E0EB
:103B200005C08091E30087FDFACF81E080932802F1
:103B30000E945A1713C080912B02813079F481E0E2
:103B4000933009F080E0809326021092E900809182
:103B5000E800877F8093E8000E94911A8091E80036
:103B600083FF0AC08091E800877F8093E8008091FE
:103B7000EB0080628093EB00AA960FB6F894DEBF4C
:103B80000FBECDBFDF91CF911F9108950895CF93C0
:103B9000809128028823A1F0C091E900CF70909114
:103BA000EC00892F817090FD80E8C82B1092E9000D
:103BB0008091E80083FD0E94741CCF70C093E900DF
:103BC000CF91089520912802243041F5FC014489C9
:103BD000558966897789452B462B472BF9F08181DA
:103BE0008F708093E9009091F3008091F200892B0F
:103BF00011F480E008959091E8008091E8008E77BC
:103C00008093E80095FDF5CF0E94B01A811107C09E
:103C10009091E8009E779093E800089582E00895DF
:103C200020912802243091F4FC0144895589668949
:103C30007789452B462B472B49F021812F70209304
:103C4000E9002091E80020FD0C94E21D08952091E8
:103C50002802243019F090E080E00895FC014489A6
:103C6000558966897789452B462B472BA1F3868199
:103C70008F708093E9008091E80082FFECCF9091F3
:103C8000F3008091F200009731F42091E8002B7747
:103C90002093E80008959091F3008091F200089538
:103CA00020912802243019F08FEF9FEF0895FC0136
:103CB0004489558966897789452B462B472BA1F383
:103CC00086818F708093E9008091E80082FFECCFBD
:103CD0009091F3008091F200892B79F08091F100AE
:103CE00090E03091F3002091F200232B29F42091F1
:103CF000E8002B772093E80008958FEF9FEFF1CF36
:103D00000F931F93CF93DF93CDB7DEB728970FB6EE
:103D1000F894DEBF0FBECDBF8C01809128028430A5
:103D200059F5F80184899589A689B789892B8A2B49
:103D30008B2B11F183858F708093E90088E0ECE292
:103D4000F1E0DE01119601900D928A95E1F750E0C5
:103D500040E068E070E0CE0101960E94511950E009
:103D600040E062E070E0C80142960E9451198091E3
:103D7000E8008E778093E80028960FB6F894DEBFAF
:103D80000FBECDBFDF91CF911F910F910895089580
:103D90000895CF93DF93EC018091E80083FF10C07A
:103DA000288180912D0290912E022817190641F446
:103DB00080912A028132F1F030F4803209F450C04F
:103DC000DF91CF910895823209F47EC08332C1F72A
:103DD000809129028132A1F78091E800877F80934A
:103DE000E8000E94911A60912B02CE01DF91CF91E1
:103DF0000C94C81E80912902813A11F78091E80045
:103E0000877F8093E8008091E80080FFFCCF8C8959
:103E10009D89AE89BF898093F100492F5A2F6B2F5E
:103E200077274093F100AD01662777274093F10093
:103E30008B2F9927AA27BB278093F100888D809329
:103E4000F100898D8093F1008A8D8093F10080913B
:103E5000E8008E778093E800DF91CF910C94911A5F
:103E600080912902813209F0ABCF8091E800877FF1
:103E70008093E8008091E80082FF21C03091F1003A
:103E80002091F1009091F1008091F1003C8B2D8BFD
:103E90009E8B8F8B8091F100888F8091F100898FAC
:103EA0008091F1008A8F8091E8008B778093E80001
:103EB0000E94911ACE01DF91CF910C94C71E809180
:103EC00028028111D7CF7CCF80912902813209F05D
:103ED00077CF8091E800877F8093E8000E94911A55
:103EE00080912B0290912C02998B888BCE01DF91CF
:103EF000CF910C94C71E991B79E004C0991F9617A7
:103F000008F0961B881F7A95C9F780950895EE0FE3
:103F1000FF1F0590F491E02D0994FB01DC0104C022
:103F20008D910190801921F441505040C8F7881BB1
:103F3000990B0895F999FECF92BD81BDF89A992702
:103F400080B50895A8E1B0E042E050E00C94CE1FA7
:103F5000262FF999FECF92BD81BDF89A019700B442
:103F6000021639F01FBA20BD0FB6F894FA9AF99AE2
:103F70000FBE08950396272F0E94A91F0E94A81F15
:103F8000252F0E94A91F242F0C94A91F0196272FCB
:103F90000E94A91F0C94A81FDC01CB01FC01F99918
:103FA000FECF06C0F2BDE1BDF89A319600B40D9285
:103FB00041505040B8F70895F894FFCFC503C503AA
:103FC000F603F603250425042504250489041505B4
:103FD000240524057C05250425048505F205F20544
:103FE000FB05FB05FD05FB05FB05FB05F205F205E1
:103FF0000206FB05FB0502069D1CC51CAE1DC51C6B
:0C400000AE1DF81C191DAE1D701D7C1DAE
:10400C00C800A0010284100000010510000001830B
:10401C00080000010000000000000000000000EE9D
:10402C0016F3163317F1163417F21601A1200000FF
:10403C0000000200F5F6F731333534C6976694F478
:02404C0032360A
:00000001FF
