:100000000C9456010C9473010C9473010C947301BD
:100010000C9473010C9473010C9473010C94730190
:100020000C9473010C9473010C94061A0C94DA1A54
:100030000C94BA140C9473010C9473010C94730116
:100040000C9473010C9473010C9473010C94730160
:100050000C9473010C9441150C9473010C9473016E
:100060000C9473010C9473010C9473010C94730140
:100070000C9473010C9473010C9473010C94730130
:100080000C9473010C9473010C9473010C94730120
:100090000C9473010C9473010C9473010C94730110
:1000A0000C9473010C9473010C947301C774C9749C
:1000B000CB74CD74D174D674DA74DC74DE74E074ED
:1000C000E274C874CA74CC74CE74D274D774DB74FE
:1000D000DD74DF74E174E974000000002152CF7414
:1000E000D074D874D974C2740000000000000000FD
:1000F0000000000000000000000000000000000000
:1001000000000000E100E000E200E3002C00AA0093
:100110005000510052004F00A900000000000100F3
:10012000C17400000000000000000000000000009A
:1001300000D0D0D0D0D0D00101020408102041421C
:10014000444848000000484850608182848890A05C
:10015000C1C2C4D0D0D0D0D0D0C8000000000000B0
:10016000000000000000000000000000000000008F
:100170001003540068006500200055006E006900FF
:1001800000001E037300740065006E006F006B00BA
:100190006500790062006F00610072006400730006
:1001A00000000403090409027800040100A0FA0910
:1001B0000400000103010100092111010001224096
:1001C0000007058103080001090401000103000084
:1001D00000092111010001223B00070582032000D4
:1001E00001080B02020202010009040200010202DE
:1001F0000100052400100104240202052406020364
:10020000070583030800FF09040300020A00000039
:1002100007050502100005070584021000051201FC
:100220000002EF020108009001000100010200013C
:1002300005010906A1018506050719E029E7150052
:1002400025019508750181020507190029EF1500A0
:10025000250195F07501810205081901290595050B
:1002600075019102950175039101C005010906A16F
:1002700001050719E029E715002501950875018199
:10028000029501750881010507190029FF1500264F
:10029000FF009506750881000508190129059505D7
:1002A00075019102950175039101C00011241FBED3
:1002B000CFEFDAE0DEBFCDBF11E0A0E0B1E0E6EDC8
:1002C000FDE302C005900D92AC33B107D9F722E0EF
:1002D000ACE3B1E001C01D92AD33B207E1F70E947B
:1002E0009B100C94AA1E0C94000080E00E94F31056
:1002F00008958230B8F46330A8F44B3098F450E09D
:100300009BE0699F400D511D1124FA0191E2899FE4
:10031000E00DF11D1124EE0FFF1FE455FF4F8591F5
:100320009491089581E090E008950E9479010895E4
:1003300081E0089581E008950E949A01089508954A
:100340000E949F010895A5E0B0E0E9EAF1E00C9475
:100350002A1E49835A833091430189819A81311140
:1003600019C0662399F0222389F00E944107182FB3
:10037000682F89819A810E941D0769817A81812F66
:100380000E940B0E2596E3E00C94461E0E942F0758
:10039000182FF3CF0E94410769817A81F1CFFC01C8
:1003A000262F408151816281738184810E94A30143
:1003B000089581E00895CF93DF93EC0160E00E94FF
:1003C000CF01BE010E94A001DF91CF910895089551
:1003D0000E94EC050E94E7012FEF84E39CE021508E
:1003E00080409040E1F700C0000008950E94E801BD
:1003F0000E94651508950E94E8010E9476150895EF
:100400000F931F93CF93DF938C0161E00E94CF0184
:10041000EC01B8010E949C01811106C080E0DF91CF
:10042000CF911F910F910895B801CE010E9406113E
:100430008823A1F3B801CE010E943D13882371F3F4
:10044000B801CE010E94D311882341F3B801CE0137
:100450000E94AF12882311F3F8018281882361F092
:10046000C330FCE7DF07E9F058F4C115ECE7DE071D
:10047000A9F0C130DC47B9F0C8010E949801CFCF84
:10048000CB358CE7D807A9F0CC35ECE7DE0771F067
:10049000CA35DC4789F70E94720BEECF0E94F60145
:1004A000BDCF0E947A0B0E94FB01B8CF0E94680B5F
:1004B000E3CF0E94760BE0CF0E9496140E94830245
:1004C00008950E9487020E949B140895089581E078
:1004D00008950895CF93DF93D82F0E946702C82F05
:1004E000882319F08D2F0E9469028C2FDF91CF9104
:1004F00008950895CF93C82F0E9466028C2F0E9402
:100500006A02CF91089580E00E947A0208950E94C5
:100510008B130E947A020895CF930E948B13C82FE9
:1005200080913E018C1779F0C0933E010E94261500
:1005300060933F0170934001809341019093420189
:100540008C2F0E947A02CF910895ABE0B0E0EBEAE5
:10055000F2E00C942B1E4F83588769877A878B872C
:1005600061110E94B30A1E821D8285E0FE0137964A
:10057000DE01119601900D928A95E1F78C819D81A3
:10058000892B61F449815A816B817C818D819E81A7
:100590000E94DB092B96E2E00C94471E89819A8128
:1005A00089238F3F79F3CE0101960E94D9018111F1
:1005B000E9CFF0CFFC01808191810E9473070895FB
:1005C000CF93C82F8823C9F08238C9F40E948B13B7
:1005D00081FD13C089E30E946B0A0E94D40A2FEFA9
:1005E00087EE93E0215080409040E1F700C000008A
:1005F00089E30E94730A0E94D40ACF910895833838
:10060000A1F40E948B1380FDF8CF83E50E946B0A52
:100610000E94D40A2FEF81EE94E021508040904058
:10062000E1F700C0000083E5E4CF8438A1F40E9424
:100630008B1382FDE2CF87E40E946B0A0E94D40AEA
:100640002FEF81EE94E0215080409040E1F700C010
:10065000000087E4CECF8CEF8C0F813A90F46C2FA2
:1006600080910001909101010E94C613882329F016
:100670008C2F0E94730A0E94D40A8C2F0E946B0A4E
:10068000BACF80E28C0F883008F0B7CFC77081E016
:1006900001C0880FCA95EAF70E94960AACCF88235A
:1006A00081F0823879F40E948B1381FF0AC089E3BC
:1006B0000E946B0A0E94D40A89E30E94730A0E9476
:1006C000D40A0895833859F40E948B1380FFF9CF20
:1006D00083E50E946B0A0E94D40A83E5EECF84383A
:1006E00059F40E948B1382FFECCF87E40E946B0ABF
:1006F0000E94D40A87E4E1CF9CEF980F913AE8F288
:1007000090E2980F9830E8F6877091E001C0990F59
:100710008A95EAF7892F0E949C0AD1CF1F93CF9325
:10072000DF93182FEB010E94E002209739F4812F0C
:100730000E944F03DF91CF911F9108958FE99FE0B1
:100740000197F1F700C000002197EFCF70E060E063
:10075000893311F460E570E00E948E0308958823C8
:1007600021F00E94960A0E94D40A0895882321F05D
:100770000E949C0A0E94D40A0895B0E0A0E0E3EC35
:10078000F3E00C94241E6C01D62FC72FFC011281BC
:10079000058102950F700E948C0AE82E8823E9F0EB
:1007A000E12E1123D1F08C2F807F803451F080E234
:1007B0008D0F8830F8F0011104C08C2F807E8032BC
:1007C000C9F080911F0282FF15C082E00E94370BA2
:1007D0000E948C0A91E0E82EE926BC2EB2949FE09C
:1007E000B922FBE0FB15B8F1EB2DF0E0E455F14E3A
:1007F0000C94151EE12CF1CF0C2F0F70C07F11F05F
:100800000295007F112399F0002359F080E28D0FAB
:10081000883010F0D11107C0802F0E94960A0E94E4
:10082000D40A8D2F63C0802F0E94A60AF8CF8D2F87
:100830000E944F03002379F080E28D0F883010F082
:10084000D11104C0802F0E949C0A03C0802F0E94F7
:10085000AC0A0E94D40A2B2D2850330B24303105CA
:1008600020F40E948B130E947A02EE2089F00E94ED
:10087000880A80FD0DC0F60112820E94820A0E9441
:100880007B06C6010E94B8050E94820A0E948B0660
:10089000CDB7DEB7E9E00C94401E2C2F2F70F22E5E
:1008A000C07FC03219F0F29480EFF822DD2381F08E
:1008B000D13009F449C0112309F451C0002309F4CF
:1008C00048C0F601858180FFACCF8F70858341C021
:1008D00080911F0282FD15C0112359F0FF2029F0DD
:1008E0008F2D0E94960A0E94D40A80E00E94E002A6
:1008F000B2CF80E00E944F03FF2009F4ACCF8F2DD0
:10090000A2CF112381F0011106C00E94B60A8F29DF
:100910000E94AF03A0CF0130C1F70E94B60A8F2911
:100920000E94BD0A98CF011106C00E94CA0A8F2DED
:100930000E94B60390CF013009F48DCF8F2D0E9415
:10094000B6030E94CA0A87CF112329F0063008F0A7
:1009500082CF8F2DDDCF053008F07DCFE8CF00238B
:1009600031F3D93349F4FFEF27EE33E0F150204063
:100970003040E1F700C000008D2F0E944F036BCF85
:100980008C2F8370A1F5111166CF4D2F429546959E
:100990004770440F440F2D2F2F7030E0042E02C0FB
:1009A000220F331F0A94E2F790E080E0D4FF09C0E1
:1009B0008FE090E002C0880F991F4A95E2F780957A
:1009C0009095C695C695C370822B932BC23049F083
:1009D00058F4C13019F00E944B063DCF0E944206E8
:1009E0003ACF0E94540637CF0E943F0634CF8695F7
:1009F000112311F08C2F8170882309F42CCF4D2FF7
:100A0000429546954770440F440F2D2F2F7030E0CC
:100A1000042E02C0220F331F0A94E2F790E080E018
:100A2000D4FF09C08FE090E002C0880F991F4A955B
:100A3000E2F780959095C695C695C370822B932B4F
:100A4000C23049F058F4C13019F00E94B60603CF05
:100A50000E94AD0600CF0E94BF06FDCE0E94630635
:100A6000FACECF70112329F08C2F0E947B068D2F98
:100A70004FCF8D2F0E94B6038C2F0E948B06EBCE9A
:100A8000D23F41F160F4D03FB9F0D13F81F0112362
:100A900009F446C00111C5CE8C2F8F711FC0D33F02
:100AA00001F1D43FA1F780911F0282FD24C08C2F59
:100AB0008F71112311F312C0112341F0053008F09A
:100AC000CACE8C2F8F710E949D06C5CE063008F0CD
:100AD000C2CEF7CF8C2F8F711111CFCF0E947B0622
:100AE000BACE112329F08C2F8F710E946F06B3CEDE
:100AF0000E946A06B0CE112349F0CF718C2F0E945C
:100B00007B0663E08C2F0E94190BA5CE81E00E942A
:100B1000370B023008F49FCE82E00E94370B9BCE49
:100B2000002359F0D93309F027CF8FEF97EEE3E098
:100B300081509040E040E1F71DCF8C2F8F719DCF09
:100B40000F931F93CF93DF93EC01688179818A81A2
:100B50000E947E078C010E94C8060E943E06B801D2
:100B6000CE010E94BD03DF91CF911F910F91089597
:100B7000CF93DF93EC018B819C81892B29F08881B5
:100B8000998189238F3F51F4DF91CF910895CE0150
:100B90000E94A005CE010E94DB01F6CFCE010E948B
:100BA00000028111F4CF0E948C0A882369F38A81A4
:100BB000882351F380911F0282FFE6CF82E00E94DA
:100BC000370BE2CF0E94B30A0E94D40A08950E9414
:100BD0007B0A0E94E20508950E94A30A0E94E7058D
:100BE000089592959F70963091F058F4925F9F709F
:100BF000923058F4803F19F030F4883E30F481E0B0
:100C000008959A5FF4CF843FD1F380E00895883E41
:100C1000B0F3813FD1F7F3CFFC0183819481892B1D
:100C200029F08081918189238F3F11F480E008951C
:100C3000808191810E9473070E94F1050895A5E0CB
:100C4000B0E0E5E2F6E00C942B1E2596E2E00C9471
:100C5000471EA6E0B0E0EFE2F6E00C942B1E2696CD
:100C6000E2E00C94471E08950E94330608950E9406
:100C7000340690935B0180935A01089508950E9471
:100C80003706089520915A0130915B01822B932BF6
:100C90000E943706089520915A0130915B0182230A
:100CA00093230E943706089520915A0130915B01E9
:100CB000822793270E94370608950E9433060895DD
:100CC0000E945D0608950E946006909359018093EA
:100CD0005801089590E080E00E946306089521E0A5
:100CE00030E0A90102C0440F551F8A95E2F7CA01FE
:100CF0000E946306089521E030E002C0220F331FF6
:100D00008A95E2F78091580190915901822B932B9B
:100D10000E946306089521E030E002C0220F331FD5
:100D20008A95E2F72095309580915801909159016C
:100D3000822393230E946306089521E030E002C0DD
:100D4000220F331F8A95E2F7809158019091590143
:100D5000822793270E9463060895209158013091BD
:100D60005901822B932B0E9463060895209158010C
:100D700030915901822393230E94630608952091A4
:100D8000580130915901822793270E9463060895E4
:100D90000895262F277091E001C0990F2A95EAF750
:100DA00023E0769567952A95E1F7660F771F660F22
:100DB000771FFA01E60FF71F50E040E0682F70E060
:100DC0008191DF0111979B01042E02C03695279572
:100DD0000A94E2F7217021952827292328272C93AC
:100DE0004F5F5F4F4430510559F70895A82FA77002
:100DF00023E0969587952A95E1F7880F991F880F2C
:100E0000991FFB01E80FF91F50E040E080E02191BD
:100E100030E00A2E02C0369527950A94E2F7217039
:100E20003327042E01C0220F0A94EAF7822B4F5F6A
:100E30005F4F4430510559F70895262F933070F4D1
:100E40008B3060F4682F70E08BE0989F600D711D0F
:100E5000112444E451E0822F0E94C9060895292FED
:100E6000933068F48B3058F490E064E471E03BE038
:100E7000239F800D911D11240E94F606089580E0A5
:100E80000895B0E0A0E0E7E4F7E00C94241E7C01B4
:100E9000009158011091590180915A0190915B0184
:100EA000082B192BCFE0D0E0CC24C394D12CBC2E3E
:100EB000C6010C2E02C0880F991F0A94E2F7802306
:100EC0009123892B49F4219790F7B12C8B2DCDB725
:100ED000DEB7E9E00C94401EB7018C2F0E94170E7C
:100EE000019789F3F3CFCF93DF93EC010E94410781
:100EF000BE010E94170EDF91CF9108951F93CF93EB
:100F0000DF93EB0190914301992339F0CB010E94CB
:100F10007307DF91CF911F910895882369F0CB016A
:100F20000E944107182F682FCE010E941D07BE01A5
:100F3000812F0E94170EEDCFCB010E942F07182F93
:100F4000F6CF1F93CF93DF93C0915C0116E08091A1
:100F50005D018C1304C0DF91CF911F910895D0E003
:100F60001C9FF0011D9FF00D1124E25AFE4F40819D
:100F7000518162817381848195810E942906219625
:100F8000C770E5CF40918E0150918F016091900123
:100F90007091910180919201909193010E94290694
:100FA000089520915C0190915D0156E0291302C0E3
:100FB00080E0089530E0529FF001539FF00D11241E
:100FC000E25AFE4F7181761306C07081781303C018
:100FD0007281741304C02F5F3F4F2770E7CF81E009
:100FE00008951F93CF93DF9380919301807F09F041
:100FF0004BC080919001882309F446C080915C0128
:10100000C0915D0140918E0150918F0160919101DD
:1010100070919201D42FD52316E0C817A9F190E062
:1010200061157105A9F1DF3F99F1189FF001199F32
:10103000F00D1124DF01A25ABE4F11962C91119789
:10104000251326C02C91241323C012962C9112979D
:1010500021111EC013962D913C91261B370B283C65
:101060003105B0F4809193018F708061809393017A
:10107000ED59FE4F80818F70806180838EE891E012
:101080000E94B8050E94A107DF91CF911F9108959A
:1010900001968770C2CFA1E1B0E0E1E5F8E00C94E1
:1010A000211E8C0185E0F801DE011D9601900D9254
:1010B0008A95E1F7F801F2808EE8A82E81E0B82E3B
:1010C00040919101509192014115510509F45AC185
:1010D00090918E0120918F01892F82238F3F09F4F7
:1010E00051C1C080D18083809480E0909001B40190
:1010F000641B750BEE2009F4F6C080919301382F24
:10110000307F683C710508F0AFC031117AC0EF2C18
:101110002D1116C09C1114C0F11012C08F70806187
:10112000809393010E94C207C5010E94B805809177
:101130009301F80185838E2D6196ECE00C943D1EA1
:1011400081149104C9F18C2D8D218F3FA9F181E08B
:101150008F2580FF05C04F2D6D2D8C2D0E94D1074E
:101160008114910459F18C2D8D218F3F39F181E04B
:101170008F25F82FF170BF2E80FF39C04F2D6D2DB8
:101180008C2D0E94D107A82E811131C0CD86DE861C
:101190008D859E850E947307292F22952F702430FC
:1011A00078F49F702230A8F09923B9F0F801958166
:1011B000907F99F4EA2CBFCF80E0CBCF80E0D9CFED
:1011C0002A5F2F70223068F0C8010E94B805AB2C4E
:1011D000F1CF992311F0882369F3805E883050F3B2
:1011E000F3CF803F38F3815F833070F7E3CFFF2088
:1011F00009F4A1CF80919301816080939301E12C48
:101200009ACF2D1105C09C1103C0FF2009F486C0A0
:10121000C8010E940C06882319F1FF2009F1809172
:101220009301803270F020918E0130918F013887C8
:101230002F8319869B868A868C87CE0107960E940B
:10124000B80586E0F801AEE8B1E001900D928A950C
:10125000E1F70E94F1070E94C207EE24E3946BCFEE
:10126000C8010E94B805F9CF311114C0782D998AB0
:10127000888AA6016F2D89890E941F068EE891E059
:101280000E94B80586E0F50111928A95E9F70E945F
:10129000C207B5CF2D110EC09C110CC0F1100AC0B1
:1012A0008583C8010E94B80586E0F50111928A95F0
:1012B000E9F741CFC8010E940C06882389F2FF207C
:1012C00079F280919301803208F4BBCF20918E0196
:1012D00030918F013A8329831B829D828C828E8379
:1012E000CE010196ACCF683C710508F03DC0EF2CF3
:1012F000FF2009F4B5CF2D1129C09C1127C0809182
:10130000930180FD1AC0982F907FB9F08583903F9C
:1013100031F0982F907F905F8F70892B8583C80163
:101320000E94B80586E0F801AEE8B1E001900D92A8
:101330008A95E1F70E94C207FECE86E0F801AEE88A
:10134000B1E001900D928A95E1F7F5CEC8010E94B7
:101350000C06811176CF8091930181608093930177
:10136000C8010E94B805E7CE782D998A888AA6011F
:101370006F2D89890E941F0686E0F50111928A95DA
:10138000E9F7D8CFFF2009F46BCFC8010E940C0603
:10139000E82E882309F464CF86E0F801AEE8B1E0D6
:1013A00001900D928A95E1F78EE891E00E94DA02B1
:1013B0000E94F107BFCFACE0B0E0E1EEF9E00C94A1
:1013C0002A1E4F83588769877A878B879C87CE012F
:1013D00007960E944B088823B1F08A859B85892B4C
:1013E00039F04F815885842F85238F3F09F06CC0D9
:1013F00016E080915C0190915D01891343C02C96A9
:10140000E3E00C94461E86E0FE013796DE0111965D
:1014100001900D928A95E1F78A859B85892B41F38E
:101420008F81988589238F3F19F320915D0130E0EA
:10143000C90101968770992740915C0148171906E8
:1014400071F40E94EC0510925D0110925C0186E03F
:10145000EEE8F1E0DF011D928A95E9F7C9CF96E049
:10146000929FD001939FB00D1124A25ABE4FFE014E
:10147000319601900D929A95E1F780935D010E945B
:10148000A107B6CF819FC0011124825A9E4F0E94AE
:101490004B08882309F4B3CFE0915C011E9FF00153
:1014A0001124E25AFE4F408151816281738184810F
:1014B00095810E94290680915C0190E001968770D9
:1014C000992780935C0195CF69857A858B859C856A
:1014D0000E9429068DCF682F809100019091010113
:1014E0000E9446140895682F809100019091010197
:1014F0000E945414089580910001909101010E946E
:10150000621408958091B401859585958595089517
:101510008091B401877008959091B401977081E033
:1015200009F480E008958091D70108959091D70142
:10153000892B8093D701089580959091D7019823A6
:101540009093D70108951092D70108959091D601F4
:10155000892B8093D601089580959091D601982388
:101560009093D60108951092D60108958091B50107
:10157000089508950E94B90A089590911F0292FF5C
:1015800008C09091B501981721F08093B5010E9491
:10159000BA0A08958091B501882329F01092B50107
:1015A00080E00E94BA0A0895CF93DF93E091000192
:1015B000F09101018091D7018083E0910001F091C9
:1015C000010180819091D601892B80839091B50192
:1015D000992381F0E0910001F09101018081892B34
:1015E000808380910001909101010E94B2138111CA
:1015F0000E94CA0AC0910001D091010140E250E06E
:1016000064E971E0CE010E94521E892B59F080E2FC
:10161000FE01A4E9B1E001900D928A95E1F7CE01B7
:101620000E949813DF91CF91089508950E94150BA1
:10163000089590911F0292FF11C098E0899F900138
:101640001124622B6093B4010E947B068091B40147
:101650008595859585950E94160B08950E947B06B9
:1016600008951092B40180E00E94160B08959091A5
:10167000B401809589238093B401282F277091F4B9
:10168000282F082E000C330B9217130659F0909157
:101690001F0292FF07C08595859585950E948B0650
:1016A0000E94310B089590911F0292FB222720F98E
:1016B000281769F080FB92F990931F0280911E0217
:1016C00090911F020E949B0B82E00E94370B0895AD
:1016D00080911F0282FB882780F991E089270E9470
:1016E000530B089581E00E94530B089580E00E94FF
:1016F000530B08956FEF7FEF90E080E00E94941EFF
:10170000089590E080E00E94701E21E0873E9E4F89
:1017100009F020E0822F089582E090E00E94681E88
:10172000089583E090E00E94681E089584E090E0B0
:101730000E94701E0895BC0184E090E00E94941EF7
:101740000895AB01BC018FE090E00E94881E0895CF
:10175000AB01BC0183E190E00E94881E089560E027
:1017600070E0CB010E94A80B089560E070E0CB010F
:101770000E94A10B0E94AF0B089567EE7EEF90E0F0
:1017800080E00E94941E60E082E090E00E94761E5D
:1017900060E083E090E00E94761E10925B01109260
:1017A0005A0160E074E184E090E00E94941E60E0E1
:1017B00086E090E00E94761E6FEF87E090E00E9446
:1017C000761E40E050E0BA0188E090E00E94881E5A
:1017D00060E08DE090E00E94761E40E050E0BA01AB
:1017E00088E190E00E94881E60E087E190E00E941E
:1017F000761E40E050E0BA018CE190E00E94881E25
:1018000070E060E080E290E00E94941E40E050E0D2
:10181000BA0188E190E00E94881E0E94B50B0895ED
:101820000E94BD0B0895682F8EE090E00E94761E06
:101830000895A5E0B0E0EFE1FCE00C94291E0E94C1
:101840001A158C018091D8019091D90180179107C8
:10185000A1F08FEF89838A831B820E941A15816011
:10186000782F9D838C8349815A816B818D810E9461
:10187000A5021093D9010093D8012596E4E00C94B9
:10188000451E0E9426156093E4017093E501809344
:10189000E6019093E7016093E0017093E10180938A
:1018A000E2019093E3010895089508950E94550C74
:1018B00008950E947501089581E0089581E09FE0F8
:1018C0000E9481130E94540C0E94560C08950E949D
:1018D0005C0C08950E94670C0895089508950E9475
:1018E0006D0C0E946E0C08950E94200F0E947902D8
:1018F00008950E9411150E94F90F0E94740C0E9415
:10190000E610EEE1F2E080818068808380911E0223
:1019100090911F020E949B0B0E94DA160E94590CA4
:101920000895A5E0B0E0E7E9FCE00C94201E0E94D9
:101930005C0C811108C00E94190C0E948C02259633
:10194000EDE00C943C1E0E940F100091DA01109102
:10195000DB0180E00E94460F80179107A1F40091FF
:10196000DC011091DD0181E00E94460F8017910794
:1019700051F40091DE011091DF0182E00E94460FD8
:1019800008171907C1F28091E80181FD0E944F0FED
:101990000E946A0C782E2AED822E21E0922E10E011
:1019A000812F0E94460F7C01F401A190B1904F015C
:1019B0008A159B0561F1A826BF2400E0CC24C394BE
:1019C000D12CC5018C219D21892BC1F07720B1F04C
:1019D00009831A8321E0C7018C219D21892B09F4F9
:1019E00020E02B830E941A158160782F9D838C83C1
:1019F00049815A816B818D810E94A5020F5FCC0CB9
:101A0000DD1C0B30F1F6F4013297F182E0821F5FAA
:101A1000133031F60E94410C90CF1F93CF93DF9388
:101A20000E941C0EEC01C11582E5D80708F03FC0EA
:101A3000C11590E5D90708F0C2C0C83ED105C0F471
:101A4000C03ED10580F4C53AD10548F4C430D10573
:101A500050F4C130D10539F0D0E0C0E004C0CD3C35
:101A6000D105D0F3D065CE01DF91CF911F910895BC
:101A7000C11580E4D80708F053C0C11590E2D9071A
:101A800008F0B7C0C11581E0D80730F38D2F0E9450
:101A9000BE0E182FCE0199270E941C0EC12FD0E038
:101AA000DC2FCC27CC27DF71C82BD92BDCCFC0385B
:101AB00092E5D907A8F4C03682E5D80708F063C0DC
:101AC000C03492E5D90708F049C0C03282E5D80792
:101AD00088F1CF71D0E0DC2FCC27C16FD06AC3CFA3
:101AE000C03C92E5D90780F48C2F8F71C03AD24563
:101AF00008F45EC00E94BE0EC82FD0E0DC2FCC27B9
:101B0000CC27DF71D062AFCFC03E82E5D80708F0A6
:101B1000A3CFDC2FCC27CC27DF71C06FD06AA3CF37
:101B2000CE0199270E941C0ECC27DF70C82BD92B21
:101B3000D06A99CF2C2F2695269590E2299F900167
:101B400011248C2F8370C1E0D0E002C0CC0FDD1FC8
:101B50008A95E2F7C22BD32BDD6885CF2C2F2695F3
:101B60002695277080E2289F900111248C2F837086
:101B7000C1E0D0E002C0CC0FDD1F8A95E2F7C22B96
:101B8000D32BDC6870CF2C2F26952695277090E2FA
:101B9000299F900111248C2F8370C1E0D0E002C0F6
:101BA000CC0FDD1F8A95E2F7C22BD32BDA685BCF0F
:101BB000C82FD0E0DC2FCC27C46FD06A54CF8C2F35
:101BC0008F710E94BE0E55E0D695C7955A95E1F7E4
:101BD000CF70D0E0DC2FCC27282F30E084FF05C069
:101BE00044E0220F331F4A95E1F7C22BD32BD06973
:101BF0003ACF8D2F8F710E94BE0E182FCE019927DC
:101C00000E941C0EC12FD0E0DC2FCC27CC27DF7127
:101C1000C82BD92B77CF462F733030F46B3020F49C
:101C2000672F0E949501089590E080E008950E943A
:101C30000B0E0E940D0D089582389105B9F1B0F494
:101C40008133910509F47DC048F48932910509F486
:101C50006DC08A32910509F47BC0089585339105E2
:101C600009F45FC08933910509F10895833E910518
:101C7000D9F138F4803E910529F1823E910579F140
:101C80000895863E9105D9F1873E910509F43EC03D
:101C9000843E910541F520911F0221FF24C08091CF
:101CA0001E0284FD19C087EE90E0089520911E0267
:101CB000237009F05AC020911F0223FF14C089E24B
:101CC00090E0089520911E0220FD38C030911F023F
:101CD00030FF09C024FF43C090E080E008952091C8
:101CE0001E0222FDF7CF089520911E0222FD3AC068
:101CF00030911F0230FD39C024FFF5CFEDCF209188
:101D00001E0223FFF0CF24FDE7CFCDCF20911E028E
:101D100023FD2EC030911F0231FFEECF84EE90E004
:101D2000089520911E0225FFDECFC9CF20911E020B
:101D300025FD21C020911F0223FFD5CF89E390E02C
:101D4000D2CF20911E0226FFCECF8AE290E00895E6
:101D500020911E0226FFC7CF81E390E0089583EE15
:101D600090E0089582EE90E0089580EE90E008956E
:101D700086EE90E0089585E390E0089590911E022C
:101D800092FF06C0282F28712830F9F4877F8460DD
:101D900093FF06C0282F28712831F1F4877E8461D3
:101DA00020911F0220FF06C0382F38713830D9F437
:101DB000877F816021FF06C0282F28712831D1F448
:101DC000877E816194FD877E0895282F24712430B9
:101DD000F9F68B7F8860DCCF282F2471243101F73E
:101DE0008B7E8861DDCF382F3171313019F78E7FCE
:101DF0008860E0CF282F2171213121F78E7E886104
:101E0000E1CF80E008950E947A0B08950E940F10A0
:101E10002FEF86E791E0215080409040E1F700C02D
:101E200000000E940F1080E00E94460F80FF04C057
:101E30000E94030F0E94651508950E94060F0895E1
:101E40000E94810B811102C00E94100C0E948C0B19
:101E50008093E8010E94960B90931F0280931E02CC
:101E60000E941D0F0E94910B90E00E943F068091FE
:101E70005801909159010E946006089508950E94AA
:101E80003E0F089508950E94420F0895E82FF0E054
:101E9000EE0FFF1FEA5DFD4F808191810895089547
:101EA00080EA8A95F1F7089500C008950E94500FC6
:101EB0000895F894E82FE295EF70F0E031A1282F13
:101EC0002F7081E090E001C0880F2A95EAF7982FE3
:101ED0009095932391A392A1892B82A3789408953E
:101EE000CF93DF9384EF0E94590F82E30E94590F32
:101EF00086E30E94590FCEE2D1E089918F3F11F025
:101F00000E94590F81E0C933D807B9F7DF91CF910B
:101F10000895AF92BF92DF92EF92FF920F931F93BB
:101F2000CF93DF938C01D62EC62FD0E0CE01875CF5
:101F30009E4F7C01FC0120812F3F09F44DC0F89495
:101F4000E22FE295EF70F0E031A12F7081E090E098
:101F500001C0880F2A95EAF7932F982B91A392A19D
:101F60008095892382A378940E94540FEEE2F1E0D9
:101F700049E351E021E030E0B12CA12C61916F3FA9
:101F8000A9F1A62FA295AF70B0E090968C9190E049
:101F90006F7002C0959587956A95E2F780FD26C01F
:101FA000C901A82AB92A220F331F4E175F0731F73C
:101FB000F70180818F3F11F00E94590F61E0A11459
:101FC000B10409F460E08D2D0E94560FCC0FDD1F87
:101FD000C00FD11FB982A882DF91CF911F910F91BD
:101FE000FF90EF90DF90BF90AF90089590E080E079
:101FF000D8CF0E94700F86E0E6E2F2E0DF01982F72
:102000001D929A95E9F7E0E2F2E0DF011D928A95D0
:10201000E9F783E00E944D100E943F0F0895A6E06B
:10202000B0E0E5E1F0E10C94291E8E010F5F1F4F37
:1020300086E0F80111928A95E9F760E0C8010E94F4
:10204000890F61E0C8010E94890F62E0C8010E9407
:10205000890F46E050E0B80180E292E00E94521EF3
:1020600021E0009709F420E0892B41F086E0F80197
:10207000A0E2B2E001900D928A95E1F743E066E2BA
:1020800072E080E292E00E944E10182F0E94430FEF
:10209000812F2696E4E00C94451E0895CF92DF929E
:1020A000EF92FF921F93CF93DF936C017B01C42FBC
:1020B000222349F081E08093EB010E941A1590934E
:1020C000EA018093E9011091EB0111110AC010E0BF
:1020D000812FDF91CF911F91FF90EF90DF90CF90F4
:1020E00008958091E9019091EA010E9432150597C7
:1020F00070F3D0E0CC0FDD1FAE01B601C7010E9426
:10210000521E892B41F0AE01B601C7010E945F1E2D
:102110001092EB01DDCF10E0FBCF0E9451170E941F
:10212000790C0E945E1708950E9463170E94910C1B
:102130000E947D1708950E94B3140E9437170E94D1
:102140005E0C0E948D100E9494100E946F0CFBCFB9
:10215000EEEEF1E086E0DF011D928A95E9F7089541
:10216000CF93DF938091EE0180688093EE01CEEEF5
:10217000D1E089910E94FA1681E0C43FD807C9F7DF
:10218000DF91CF910895282F67E00E94091E90E00B
:10219000FC01E251FE4FAC0133E0440F551F3A956C
:1021A000E1F7841B950B820F911D26E030E0281B80
:1021B000390B81E090E0AC0102C0440F551F2A9515
:1021C000E2F78081842B808380E008950E94810B58
:1021D000811102C00E94100C8DE090E00E94681EE8
:1021E0008093EC010895CF93C82F0E94A810C0934C
:1021F000EC016C2F8DE090E00E94761ECF91089547
:1022000081E0089581E0089581E00895EF92FF92C2
:102210000F931F93CF93DF937C01EB018C01005C44
:1022200014470034110550F48B819C81892B31F0C7
:102230008881998189238F3F09F07EC0C1E057C012
:1022400081EFE81684E7F80609F087C08B819C814E
:10225000892B09F482C08981988189238F3F09F4F1
:102260007CC08A81882309F478C080E010C08B810B
:102270009C81892B09F471C08881998189238F3FC2
:1022800009F46BC08A81882309F467C081E00E9449
:10229000F31063C00091ED011091EC018B819C81E2
:1022A000892B31F08981988189238F3F09F057C0AC
:1022B00001500093ED012EEE31E0412FBE01C70128
:1022C0000E940211882309F448C08091ED0118167C
:1022D0000CF443C01092ED016EEE71E08091EC01C0
:1022E0000E940011C82F81110DC00E94A8108C2FD0
:1022F000CDB7DEB7E6E00C94431E80E48E0D0E945D
:10230000C31049C08091EC01882399F0813071F4A9
:10231000CEEED1E002EF11E0899181110E94FA1610
:102320000C171D07C9F780E00E94FA160E94A8103A
:1023300014C00E94B010FACFC7010E940411882374
:1023400061F080EFE81684E7F80609F490CF08F012
:1023500077CF0A32110508F49DCFC0E0C8CF8A813B
:10236000882309F4A5CF0F5F0093ED01112329F213
:10237000113099F7E0E4EE0DF0E0E05DFE4FE491FE
:10238000AE2FA295A695A695A370B0E0A251BE4F20
:102390008C91E82BEC932EEE31E0412FBE01C7016A
:1023A0000E940211DACFCF93DF93EC01FB0182810F
:1023B000882309F4D2C09E0130572332310508F03A
:1023C000B2C00E94960B90931F0280931E02FE01E2
:1023D000E150F047E232F10520F4E854F14E0C945C
:1023E000151E80911E02816080931E0293C0809111
:1023F0001F02886080931F028DC080911E02826040
:10240000F3CF80911E028460EFCF80911E0288601E
:10241000EBCF80911F028160EDCF80911F0282601F
:10242000E9CF80911E028061DFCF80911E02806221
:10243000DBCF80911E028064D7CF0E94EC05809193
:102440001E028068D1CF80911E028C60CDCF80911A
:102450001F028360CFCF80911E028E7FC5CF8091F7
:102460001F02877FC7CF80911E028D7FBDCF8091D5
:102470001E028B7FB9CF80911E02877FB5CF8091DE
:102480001F028E7FB7CF80911F028D7FB3CF8091C7
:102490001E028F7EA9CF80911E028F7DA5CF8091D5
:1024A0001E028F7BA1CF0E94EC0580911E028F77C8
:1024B0009BCF80911E02837F97CF80911F028C7FDC
:1024C00099CF80911E0282FB992790F921E09227F3
:1024D00090FB82F990FB83F987CF80911F02982FA0
:1024E000909591708E7F892B90FB81F983CF90918D
:1024F0001E02892F8F7B96FF806476CF0E94EC05A9
:1025000090911E02892F97FB87F980586DCF81E04B
:102510000E94130C80911E0290911F020E949B0B3F
:102520000E94EC0580E0DF91CF91089580E0F0CF2C
:1025300090911E02892F8F7E94FF806155CF9091DC
:102540001E02892F8E7F90FF81604ECF90911F02D7
:10255000892F877F93FF88604DCF81E0E4CFCF93B1
:10256000DF93EB0186319C4711F50E94930A9A8113
:10257000992399F08A7A91E009F490E09093F4011C
:10258000811109C089E20E946B0A0E94D40A80E08E
:10259000DF91CF91089585E3F6CF8091F401811109
:1025A00004C089E20E94730AF0CF85E3FBCF81E08B
:1025B000EFCF0F931F93CF93DF93C42FD22FFC0144
:1025C00082818823C9F04093F7010E941A159093E5
:1025D000F6018093F50180E28C0F883040F4C770DB
:1025E00081E001C0880FCA95EAF70E94AF03DF912E
:1025F000CF911F910F9108951091F701141332C0DC
:102600008091F5019091F6010E943215883C910568
:1026100048F5C0E2CD0F1D17B9F080E2810F883078
:1026200040F4177081E001C0880F1A95EAF70E9404
:10263000B603C83048F481E09D2F977001C0880F21
:102640009A95EAF70E94AF03802F0E94A603C83034
:1026500070F6D77081E001C0880FDA95EAF70E9422
:10266000B603C5CF80E28C0F883008F6C77081E0D2
:1026700001C0880FCA95EAF7F2CF0F93DB018851AA
:102680009C4787309105A0F5FC01E652F14E0C9471
:10269000151E06E221EE41EE6AE17CE7CD010E94C3
:1026A000D91280E00F91089507E225EE45EE6BE127
:1026B0007CE7F4CF06E221EE40EE68E17CE7EECF66
:1026C00007E225EE44EE69E17CE7E8CF06E221EE81
:1026D00042EE6CE17CE7E2CF07E225EE46EE6DE1EB
:1026E0007CE7DCCF08E221E045EE6EE17CE7D6CF67
:1026F00012968C91882319F01092F701D3CF81E0C4
:10270000D1CF90933D0180933C0108959093F901BE
:102710008093F8010895E091F801F091F901309764
:1027200029F00190F081E02D0995089580E0089549
:10273000E091F801F091F901309799F0209125018D
:10274000222359F020911E0227FF07C0DC012C91A3
:1027500011962C93119726E02C930280F381E02DA3
:1027600009950895FC01329680912501882321F076
:1027700080911E029EE187FF96E080E0915008F470
:10278000089521912223D1F38F5FF8CF662301F1C1
:10279000209125012223F1F020911E0227FF1AC06B
:1027A000462F4695469546954E3190F4677021E048
:1027B00030E002C0220F331F6A95E2F7840F911DAB
:1027C000FC01828190E02823392381E0232B69F4E6
:1027D00080E00895FC01329608962191261721F099
:1027E000E817F907D1F7F4CF81E008959C01FC01C7
:1027F00032969FEF80E04191461751F09F3F19F4C8
:10280000411101C0982F8F5F8630A9F79F3F09F4CF
:102810000895290F311D97FD3A95F90162830895B6
:10282000FC01329608962191261303C0DF0111970F
:102830001C92E817F907B9F70895E62FE695E69593
:10284000E695EE3168F4E80FF92FF11D677021E08D
:1028500030E001C0220F6A95EAF78281822B8283E1
:102860000895E62FE695E695E695EE3170F4E80FCB
:10287000F92FF11D677021E030E001C0220F6A9549
:10288000EAF720958281282322830895209125014B
:10289000222339F020911E0227FF03C00E941D143D
:1028A00008950E94F613089520912501222339F0FE
:1028B00020911E0227FF03C00E94311408950E9438
:1028C00010140895FC01329680912501882351F05F
:1028D00080911E0287FF06C08EE1DF011D928A955E
:1028E000E9F7089586E0F9CF08950E9474140895D9
:1028F000811106C081E08093FA010E947514089549
:1029000082E0F9CF83E08093FA010E947514089564
:102910000E947814089581E08093FA010E94751452
:1029200008950E948B140895089508950E949514A7
:102930000895089508950E9494140895CF930E94D5
:1029400099140E940F100E949A14C0E08C2F0E94CC
:10295000460F892B31F4CF5FC330C1F780E0CF91B0
:10296000089581E0FCCF85B7806885BF85B7806812
:1029700085BF08951F921FB61F9211248F939F93B6
:10298000AF93BF938091FB01811113C080912C0202
:1029900090912D02A0912E02B0912F024196A11D7F
:1029A000B11D80932C0290932D02A0932E02B09320
:1029B0002F02BF91AF919F918F911F901FBE1F90CB
:1029C000189580913402843031F10E945C0210929B
:1029D000FB0188E190E020E40FB6F894A89580937D
:1029E00060000FBE2093600083B7817F846083BF47
:1029F00083B7816083BF7894889583B78E7F83BFC8
:102A00000FB6F894A895809160008861809360006B
:102A1000109260000FBE08950E94EC050E946102B2
:102A2000089582E084BD93E095BD9AEF97BD8093B1
:102A30006E0008952FB7F89480912C0290912D028A
:102A4000A0912E02B0912F022FBF08952FB7F894B6
:102A500060912C0270912D0280912E0290912F0294
:102A60002FBF08959C014FB7F89480912C0290914C
:102A70002D02A0912E02B0912F024FBF821B930B0B
:102A8000089578941F921FB61F9211248F939F93DD
:102A9000AF93BF9380912C0290912D02A0912E02B2
:102AA000B0912F020196A11DB11D80932C0290932D
:102AB0002D02A0932E02B0932F02BF91AF919F9150
:102AC0008F911F901FBE1F90189587E797E79093EF
:102AD00001088093000888E19AE00FB6F894A89561
:102AE000809360000FBE90936000FFCF88E19AE072
:102AF0000FB6F894A895809360000FBE9093600085
:102B0000FFCF80911C020895089508959B01BA019A
:102B1000909134029430E9F48F708093E9009FEF34
:102B20008091E800915085FD06C085ED8A95F1F70A
:102B300000009111F5CF8091E80085FF0AC050E0B8
:102B400040E0C9010E94FA178091E8008E778093D7
:102B5000E8000895CF93DF93EC0180912501811166
:102B600011C048E050E0BE0181E00E94861580E27D
:102B7000FE01ACEFB1E001900D928A95E1F7DF9193
:102B8000CF91089580911E0287FF05C040E282E048
:102B900050E0BE01EACF48E081E0FACF80913302F5
:102BA000811109C00E948A190E94E7198091E200F0
:102BB00084608093E20008951092330208950E9489
:102BC0008B1408956091300281E0611101C080E0B2
:102BD0000E94821408959091340281E0943009F0AB
:102BE00080E0609130020E948814089542E061EC18
:102BF00081E00E94061942E261EC82E00E9406191F
:102C000042E061EC83E00E94061942E160E885E061
:102C10000E94061942E161E884E00E940619909141
:102C2000340281E0943009F080E0609130020E942B
:102C30007814089580913602833009F462C050F40C
:102C40008130D9F1823009F4A4C082E091E00E9481
:102C50005B1D56C08A3009F48BC08B3009F46EC0FE
:102C6000893099F780913502813279F78091390264
:102C700090913A02029748F78091E800877F80930D
:102C8000E8008091E80082FF37C09091F3008091C6
:102C9000F200029731F48091F100813011F086301A
:102CA00021F48091F10080931C028091E8008B77E1
:102CB0008093E8000E943A19C8CF80913502813A8A
:102CC00021F68091E800877F8093E80080913902A7
:102CD00090913A02892B61F460E28CEF91E070E010
:102CE0000E9449188091E8008B778093E800ADCF6F
:102CF00060E090E080E0F3CF809134028111C1CF99
:102D0000089580913502813A09F09FCF8091390270
:102D100090913A02892B09F098CF8091E800877F43
:102D20008093E8008091E80080FFFCCF809125012E
:102D30008093F1008091E8008E77BACF80913502C0
:102D4000813209F082CF8091390290913A02892B29
:102D500009F07BCF8091E800877F8093E8000E9494
:102D60003A1980913702809325010E94EC056DCFBE
:102D700080913502813209F068CF8091E800877F29
:102D80008093E8000E943A198091380280931D02D6
:102D90005CCF80913502813A09F057CF8091E800ED
:102DA000877F8093E8008091E80080FFFCCF8091CE
:102DB0001D02BECF82E090E0909315018093140134
:102DC00082E091E00E941F1D08950895CF93DF9344
:102DD00082E091E00E94C61CEC01209719F4DF917B
:102DE000CF91089582E091E00E94EF1C0E94E516C9
:102DF0002197F3CFCF93C091E9002091EC00922F5F
:102E0000917020FD90E82091120120FF12C0CF7038
:102E1000C92B909103019F709093E9009091EB0072
:102E200090FF04C09091EE0097FD05C0CF70C09355
:102E3000E900CF9108959FEF2091E800915025FD82
:102E400006C025ED2A95F1F700009111F5CF80938A
:102E5000F10082E091E00E94811C8091E80080FFF7
:102E6000E5CF8091E8008E778093E800DFCF84B7CC
:102E7000877F84BF0FB6F894A89580916000886121
:102E800080936000109260000FBE80E890E00FB663
:102E9000F89480936100909361000FBE0E9491149A
:102EA00008950E948A190E94E719E2EEF0E08081FD
:102EB0008460808378940E94661C08958DE191E07F
:102EC0000E948613089580913402853031F48091F8
:102ED0003402853019F00E940C1508950E94E11407
:102EE00080913202882399F30E949E14882379F3FB
:102EF0000E94E4170E94EC05EACF0E94E61682E0E9
:102F000091E00E94AF1C08959A0140913B025091BC
:102F10003C020E948C170895492F552743305105D4
:102F200019F168F44130510509F444C042305105AB
:102F300009F445C090E080E050E040E025C0413217
:102F4000510549F142325105A9F780E490E04BE682
:102F500052E061157105C1F08BE390E040E352E06F
:102F60006130710589F0E6CF99278130910581F0B4
:102F7000009729F00297F1F6E0E7F1E002C0E2EAFB
:102F8000F1E0849190E0AF01F9015183408308950D
:102F9000E2E8F1E0F6CF89E090E048EB51E061151E
:102FA000710591F389E090E041ED51E061307105E8
:102FB00059F3C0CF82E190E04EE152E0E5CF88E7DF
:102FC00090E046EA51E0E0CF80E189BD82E189BD31
:102FD00009B400FEFDCF8091D8008F7D8093D8008A
:102FE0008091E00082608093E0008091E00081FDAC
:102FF000FCCF0895AF92BF92CF92DF92FF920F93D2
:103000001F93CF93DF936C01EB018A010E94591942
:10301000F82E811123C00115110539F0F8018081C6
:103020009181C81BD90BC80ED91EB12CA12C209799
:10303000A9F08091E80085FD22C08091E8008E779C
:103040008093E80001151105A1F0F80180819181BC
:10305000A80EB91EB182A08285E0F82E8F2DDF91D7
:10306000CF911F910F91FF90DF90CF90BF90AF90C5
:1030700008950E9459198823D1F2F82EEFCFF60156
:1030800081916F018093F1002197FFEFAF1ABF0A82
:10309000CECFFC0180913B0290913C0286179707AE
:1030A000A0F06115710529F49091E8009E77909346
:1030B000E80090E06115710551F4911108C080910C
:1030C000E80082FF34C080E00895BC01F2CF809117
:1030D00034028823C1F18530C1F18091E80083FD7D
:1030E00030C08091E80082FDEACF8091E80080FF47
:1030F000E1CF8091F3002091F200382F6115710526
:1031000019F02830310558F091E02830310509F0E8
:1031100090E02091E8002E772093E800CBCF8191BA
:103120008093F100615071092F5F3F4FE7CF80918D
:103130003402882341F0853041F08091E80083FF1C
:10314000BECF81E0089582E0089583E00895FC01F8
:1031500080913B0290913C0286179707A0F0611581
:10316000710529F48091E8008E778093E80090E063
:103170006115710551F4911108C08091E80082FF3A
:1031800035C080E00895BC01F2CF809134028823DD
:10319000C9F18530C9F18091E80083FD31C080918B
:1031A000E80082FDEACF8091E80080FFE1CF8091C6
:1031B000F3002091F200382F6115710519F02830C5
:1031C000310558F091E02830310509F090E0809108
:1031D000E8008E778093E800CBCF84918093F10054
:1031E0003196615071092F5F3F4FE6CF80913402D5
:1031F000882341F0853041F08091E80083FFBDCF06
:1032000081E0089582E0089583E00895982F973033
:1032100028F08F708093E90081E008959093E90091
:10322000242F762F50E0981731F07091EC00209108
:10323000ED005091F00021FD02C09F5FE8CF30917A
:10324000EB003E7F3093EB003091ED003D7F3093FB
:10325000ED003091EB0031603093EB007093EC00A7
:103260002093ED005093F0002091EE0027FDE5CF74
:1032700080E008958091350287FF13C08091E800B7
:1032800082FF06C08091E8008B778093E80004C03D
:10329000809134028111F2CF089580913402882305
:1032A000D9F38091E80080FFF8CF8091E8008E7715
:1032B000ECCF2091E4003091E50095E6A901209142
:1032C000EC00822F817020FF06C08091E80080FF13
:1032D00006C080E008952091E80022FD1AC0809188
:1032E0003402882389F0853089F08091EB0085FDD8
:1032F0000FC02091E4003091E50042175307F9F226
:103300009150E1F684E0089582E0089583E0089505
:1033100081E008950E94F9190E94011AE0EEF0E0A0
:10332000808181608083E8EDF0E080818F77808309
:1033300019BCA7EDB0E08C918E7F8C9380818F7E3D
:1033400080831092330208950F931F93CF93DF93DE
:103350000E94F9190E94011AC8EDD0E088818F7788
:10336000888388818068888388818F7D888319BC61
:1033700010923402109230021092320210923102F6
:1033800000EE10E0F80180818B7F8083888181606E
:10339000888342E060E080E00E940619E1EEF0E000
:1033A00080818E7F8083E2EEF0E080818160808387
:1033B000808188608083F80180818E7F808388810E
:1033C00080618883DF91CF911F910F910895E8ED7F
:1033D000F0E080818F7E8083E7EDF0E08081816086
:1033E000808384E082BF81E0809333020E94A4192D
:1033F0000895E8EDF0E080818E7F80831092E200F6
:1034000008951092DA001092E10008951F920F9231
:103410000FB60F9211242F933F934F935F936F93A7
:103420007F938F939F93AF93BF93EF93FF9380917D
:10343000E10082FF0BC08091E20082FF07C0809113
:10344000E1008B7F8093E1000E94651C8091DA008F
:1034500080FF19C08091D80080FF15C08091DA00EC
:103460008E7F8093DA008091D90080FF96C080E142
:1034700089BD82E189BD09B400FEFDCF81E0809362
:1034800034020E94CE158091E10080FF19C0809126
:10349000E20080FF15C08091E2008E7F8093E20001
:1034A0008091E20080618093E2008091D800806288
:1034B0008093D80019BC85E0809334020E94E21505
:1034C0008091E10084FF2BC08091E20084FF27C03F
:1034D00080E189BD82E189BD89B5982F917080FF17
:1034E000FBCF8091D8008F7D8093D8008091E10040
:1034F0008F7E8093E1008091E2008F7E8093E200D6
:103500008091E20081608093E20080913002882304
:1035100009F449C084E0809334020E94EB15809145
:10352000E10083FF29C08091E20083FF25C08091E4
:10353000E100877F8093E10082E080933402109263
:1035400030028091E1008E7F8093E1008091E20063
:103550008E7F8093E2008091E20080618093E200A0
:1035600042E060E080E00E9406198091F0008860EF
:103570008093F0000E94DF15FF91EF91BF91AF9112
:103580009F918F917F916F915F914F913F912F917B
:103590000F900FBE0F901F90189519BC1092340217
:1035A0000E94DC1570CF8091E30087FD93E090933B
:1035B0003402B3CF1F920F920FB60F9211242F93A4
:1035C0003F934F935F936F937F938F939F93AF93AB
:1035D000BF93CF93DF93EF93FF93D091E900DF7018
:1035E0008091EC00C82FC17080FDC0E81092E90006
:1035F0008091F000877F8093F00078940E941E1BDA
:103600001092E9008091F00088608093F000CD2B4B
:10361000CF70C093E900FF91EF91DF91CF91BF91FF
:10362000AF919F918F917F916F915F914F913F915A
:103630002F910F900FBE0F901F901895AAE2B0E047
:10364000E4E2FBE10C942A1E85E392E02091F10074
:10365000FC012193CF01F2E08D339F07B9F70E945F
:103660001A168091E80083FF1EC180913502909167
:1036700036029A3008F017C1E92FF0E0EF51F14E11
:103680000C94151E803899F0823809F00CC1809195
:1036900039028F70873008F006C18093E90080916D
:1036A000EB0085FB882780F91092E90006C0809125
:1036B000310290913202911182609091E800977FDF
:1036C0009093E8008093F1001092F1008091E8005F
:1036D0008E77E5C0882309F4D3C0823009F0E3C0B7
:1036E000809137028111D6C0809139028F702FEFFF
:1036F000280F263008F0D7C08093E9002091EB0016
:1037000020FFC8C0933031F48091EB008062809339
:10371000EB00C0C09091EB0090619093EB0021E032
:1037200030E001C0220F8A95EAF72093EA00109258
:10373000EA008091EB008860EACF8111B4C010915B
:1037400037021F778091E3008078812B8093E3001C
:103750008091E800877F8093E8000E943A19809169
:10376000E80080FFFCCF8091E30080688093E30055
:1037700082E0111183E08093340295C0805882303A
:1037800008F091C080913702909138028C3D23E07F
:103790009207A1F583E08A838AE289834FB7F89480
:1037A000DE01139620E03EE051E2E32FF0E050937B
:1037B0005700E49120FF03C0E295EF703F5FEF7088
:1037C0008E2F90E0EA30C0F0C7968D939D932F5FC7
:1037D000243159F74FBF8091E800877F8093E8003C
:1037E0006AE270E0CE0101960E9449188091E800DB
:1037F0008B778093E80057C0C096E7CF609139027D
:1038000070913A02AE014F5F5F4F0E948417BC0176
:10381000892B09F448C09091E800977F9093E800C5
:1038200089819A810E94A718E1CF8038E1F58091C3
:10383000E800877F8093E800809130028093F10058
:1038400045CF811130C090913702923060F5809160
:10385000E800877F8093E800909330020E943A1935
:1038600080913002882311F084E005C08091E3004C
:1038700087FDFACF81E0809334020E94F61513C0D1
:1038800080913702813079F481E0933009F080E053
:10389000809332021092E9008091E800877F809344
:1038A000E8000E943A198091E80083FF0AC08091E5
:1038B000E800877F8093E8008091EB00806280932E
:1038C000EB00AA96E3E00C94461E0895CF938091F6
:1038D00034028823A1F0C091E900CF709091EC00F0
:1038E000892F817090FD80E8C82B1092E9008091AB
:1038F000E80083FD0E941E1BCF70C093E900CF91AA
:10390000089520913402243041F5FC014489558901
:1039100066897789452B462B472BF9F081818F707B
:103920008093E9009091F3008091F200892B11F4CB
:1039300080E008959091E8008091E8008E77809370
:10394000E80095FDF5CF0E945919811107C09091AB
:10395000E8009E779093E800089582E00895209112
:103960003402243091F4FC014489558966897789B1
:10397000452B462B472B49F021812F702093E900DE
:103980002091E80020FD0E94811C089520913402BE
:10399000243019F090E080E00895FC0144895589B5
:1039A00066897789452B462B472BA1F386818F703B
:1039B0008093E9008091E80082FFECCF9091F300C2
:1039C0008091F200009731F42091E8002B7720934A
:1039D000E80008959091F3008091F20008952091FD
:1039E0003402243019F08FEF9FEF0895FC014489D1
:1039F000558966897789452B462B472BA1F386810C
:103A00008F708093E9008091E80082FFECCF909165
:103A1000F3008091F200892B79F08091F10090E021
:103A20003091F3002091F200232B29F42091E8003B
:103A30002B772093E80008958FEF9FEFF1CFA8E058
:103A4000B0E0E5E2FDE10C94291E8C018091340286
:103A5000843059F5F80184899589A689B789892B1D
:103A60008A2B8B2B11F183858F708093E90088E07E
:103A7000E6E2F1E0DE01119601900D928A95E1F700
:103A800050E040E068E070E0CE0101960E94FA1735
:103A900050E040E062E070E0C80142960E94FA17F0
:103AA0008091E8008E778093E8002896E4E00C94FB
:103AB000451E08950895CF93DF93EC018091E800AF
:103AC00083FF10C028818091390290913A02281713
:103AD000190641F4809136028132E9F030F48032E7
:103AE00009F44EC0DF91CF910895823209F47BC072
:103AF0008332C1F7809135028132A1F78091E800CD
:103B0000877F8093E8000E943A1960913702CE01C6
:103B10000E945A1DE7CF80913502813A19F78091B2
:103B2000E800877F8093E8008091E80080FFFCCF69
:103B30008C899D89AE89BF898093F100492F5A2FC6
:103B40006B2F77274093F100AD01662777274093CD
:103B5000F1008B2F9927AA27BB278093F100888D2E
:103B60008093F100898D8093F1008A8D8093F1001C
:103B70008091E8008E778093E8000E943A19B2CFD6
:103B800080913502813209F0ADCF8091E800877FC6
:103B90008093E8008091E80082FF20C03091F1001E
:103BA0002091F1009091F1008091F1003C8B2D8BE0
:103BB0009E8B8F8B8091F100888F8091F100898F8F
:103BC0008091F1008A8F8091E8008B778093E800E4
:103BD0000E943A19CE010E94591D84CF809134026F
:103BE0008111D8CF7FCF80913502813209F07ACF11
:103BF0008091E800877F8093E8000E943A198091C5
:103C0000370290913802998B888BCE010E94591D02
:103C100069CF991B79E004C0991F961708F0961B8D
:103C2000881F7A95C9F780950895EE0FFF1F0590BC
:103C3000F491E02D09942F923F924F925F926F92F0
:103C40007F928F929F92AF92BF92CF92DF92EF922C
:103C5000FF920F931F93CF93DF93CDB7DEB7CA1BAD
:103C6000DB0B0FB6F894DEBF0FBECDBF09942A88D8
:103C7000398848885F846E847D848C849B84AA8480
:103C8000B984C884DF80EE80FD800C811B81AA810D
:103C9000B981CE0FD11D0FB6F894DEBF0FBECDBFD8
:103CA000ED010895FB01DC0104C08D9101908019A4
:103CB00021F441505040C8F7881B990B0895FB012F
:103CC000DC0102C001900D9241505040D8F7089598
:103CD000F999FECF92BD81BDF89A992780B50895D4
:103CE000A8E1B0E042E050E00C949C1E262FF99928
:103CF000FECF92BD81BDF89A019700B4021639F04B
:103D00001FBA20BD0FB6F894FA9AF99A0FBE08951B
:103D10000396272F0E94771E0E94761E252F0E9451
:103D2000771E242F0C94771E0196272F0E94771E52
:103D30000C94761EDC01CB01FC01F999FECF06C084
:103D4000F2BDE1BDF89A319600B40D924150504059
:103D5000B8F70895F894FFCFFC03FC034D044D041D
:103D60002B042B042B042B04C00431054005400513
:103D70002B129F123312FD110112371205123B1242
:103D800047121112981215124B1219124F12771274
:103D90001D1253127E1223125912611209123F1280
:103DA0000D12431227125D126D1287129612F7112F
:103DB0002F12A6125A1360134913541366136C136F
:103DC0007213421B6A1B531C6A1B531C9D1BBE1B98
:063DD000531C151C211C10
:103DD600B6010284100000010510000001830800EE
:103DE600000100000000000000000000008115AA8C
:103DF600158515841501A120000000000200F5F6C6
:0C3E0600F731333534C6976694F4323639
:00000001FF
