:100000000C94D0010C94ED010C94ED010C94ED01D5
:100010000C94ED010C94ED010C94ED010C94ED01A8
:100020000C94ED010C94ED010C94C71A0C949A1BDE
:100030000C9485150C94ED010C94ED010C94ED01DC
:100040000C94ED010C94ED010C94ED010C94ED0178
:100050000C94ED010C940C160C94ED010C94ED0134
:100060000C94ED010C94ED010C94ED010C94ED0158
:100070000C94ED010C94ED010C94ED010C94ED0148
:100080000C94ED010C94ED010C94ED010C94ED0138
:100090000C94ED010C94ED010C94ED010C94ED0128
:1000A0000C94ED010C94ED010C94ED010000C7746B
:1000B000C974CB74CD74D174D674DA74DC74DE7404
:1000C000E074E2740000C874CA74CC74CE74D27444
:1000D000D774DB74DD74DF74E174E9744152E100BC
:1000E000E000E200E3002C00AA00500051005200A2
:1000F0004F00A900000000000000C174CF74D0744C
:10010000D874D974C27400000000000029001400E3
:100110001A000800150017001C0018000C0012003F
:1001200013002A00E00004001600070009000A007E
:100130000B000D000E000F003300340040521D0074
:100140001B000600190005001100100036003700E2
:1001500038002800000000000000E3002252E10007
:100160002C002352E60000000000000001001E00E9
:100170001F0020002100220023002400250026006B
:1001800027002A002B0001005000510052004F00B0
:100190000100010001000100010001000000010058
:1001A0004C000100010001000100010001000100FC
:1001B000010001000000000000000100010001003A
:1001C00001000000010000000000000001001E020C
:1001D0001F022002210222022302240225022602FB
:1001E00027022A0001000100A800AA00A9000100BE
:1001F0002D002E002F0030003100350000000100DE
:1002000001000100010001002D022E022F02300228
:100210003102350200000000000001000000010072
:100220000100010001000000000000001203500066
:100230006F006C00790067006C006F0074000000B4
:100240001E035300740065006E006F004B006500D4
:10025000790062006F0061007200640073000000AA
:100260000403090409027800040100A0FA0904004B
:1002700000010301010009211101000122440007CE
:1002800005810308000109040100010300000009C1
:100290002111010001226D000705820320000108E1
:1002A0000B02020202010009040200010202010025
:1002B0000524001001042402020524060203070598
:1002C00083030800FF09040300020A000000070579
:1002D0000502100005070584021000051201000246
:1002E000EF02010800900300010001020001050176
:1002F0000980A101850319012AB700150126B7005D
:10030000950175108100C0050C0901A10185041932
:10031000012AA002150126A002950175108100C0D6
:1003200005010906A1018506050719E029E7150061
:1003300025019508750181020507190029EF1500AF
:10034000250195F07501810205081901290595051A
:1003500075019102950175039101C005010906A17E
:1003600001050719E029E7150025019508750181A8
:10037000029501750881010507190029FF1500265E
:10038000FF0095067508810005081901290515006B
:100390002501950575019102950175039101C00034
:1003A00011241FBECFEFDAE0DEBFCDBF11E0A0E029
:1003B000B1E0EEE2F0E402C005900D92AA3CB10774
:1003C000D9F722E0AAECB1E001C01D92AA3DB20724
:1003D000E1F70E9480110C94E21F0C940000982F0A
:1003E000962B9430A8F44C3098F450E09CE0699F30
:1003F000400D511D1124FA0190E3899FE00DF11D7C
:100400001124EE0FFF1FE455FF4F8591959108953C
:1004100081E090E008950E94EF01089581E0089541
:100420000E940E02089581E0089581E008950E94DF
:100430001502089508950E941A020895A7E0B0E0F9
:10044000E4E2F2E00C94531F49835A839E83309177
:10045000D10189819A8131111AC03E81311599F0FB
:10046000211589F00E94E0078F83682F89819A8186
:100470000E94BC0769817A818F810E94E20E2796D3
:10048000E2E00C946F1F0E94CE078F83F3CF0E948F
:10049000E00769817A81F1CFFC01262F40815181EB
:1004A00062817381848195810E941E020895A2E079
:1004B000B0E0EDE5F2E00C94531F89839A8361E08C
:1004C0000E944C0269817A810E9410022296E2E029
:1004D0000C946F1FA2E0B0E0E0E7F2E00C94531F31
:1004E00089839A8360E00E944C0269817A810E942C
:1004F0001B022296E2E00C946F1F81E008950E9497
:100500007D020895A1E0B0E0E8E8F2E00C94531F0A
:1005100089830E94890689810E947F022FEF84E3EC
:100520009CE0215080409040E1F700C000002196FF
:10053000E2E00C946F1F81E00E9482020E9430165C
:10054000089580E00E9482020E94411608950F9350
:100550001F93CF93DF938C0161E00E944C02EC016A
:10056000B8010E9417028115E1F1B801CE010E9485
:10057000CB118115B1F1B801CE010E949D138115F7
:1005800081F1B801CE010E945B12811551F1B801D1
:10059000CE010E942812811521F1F8018581811573
:1005A00081F0CA35FCE7DF0739F178F4C130ECE7B8
:1005B000DE07F9F0C330FCE7DF07C9F0C115DC47FF
:1005C00071F0C8010E9413020DC0CB35ECE7DE07C5
:1005D000B1F0CC35DC47A9F70E94130CF2CF0E9492
:1005E0009B0280E0DF91CF911F910F9108950E94AF
:1005F000240C0E94A102F5CF0E941C0CE2CF0E94A5
:10060000200CDFCF0E9461150E94350308950E94DF
:1006100039030E9466150895089581E008950895AC
:10062000A2E0B0E0E6E1F3E00C94531F8A830E945D
:100630000D038983811519F08A810E940F03898136
:100640002296E2E00C946F1F0895A1E0B0E0EBE287
:10065000F3E00C94531F89830E940C0389810E944C
:1006600010032196E2E00C946F1F80E00E942503A6
:1006700008950E94E3130E9425030895CF930E94DA
:10068000E313C82F8091CC018C1779F0C093CC0173
:100690000E94F1156093CD017093CE018093CF013C
:1006A0009093D0018C2F0E942503CF910895ADE047
:1006B000B0E0EDE5F3E00C94531F488759876A8753
:1006C0007B878C879D8791110E94230B1F8286E078
:1006D000FE013896DE01119601900D928A95E1F7A0
:1006E0008D8181110DC029813A814B815C816D81A1
:1006F0007E818F810E946D0A2D96E2E00C946F1F1F
:10070000CE0101960E9457028111EDCFF5CFFC0179
:100710002481213021F4808191810E94170808955D
:10072000CF93C82F811599F08CEF8C0F813A88F404
:100730008C2F0E947514811529F08C2F0E941215A0
:100740000E94B70B8C2F0E94FB140E94B70BCF9115
:10075000089580E28C0F883050F481E0C1FD84E080
:10076000C0FD880FC2FD82950E94040BEECF8BE581
:100770008C0F833038F42C2F2452330BC9010E9484
:100780000914E5CFC85ACB3110F7EC2FF0E0EE0F8B
:10079000FF1FE25BFE4F808191810E942E14D7CF14
:1007A000811541F19CEF980F913A28F40E9412159F
:1007B0000E94B70B089590E2980F983058F4982F44
:1007C00081E091FD84E090FD880F92FD82950E946A
:1007D0000A0BEECF9BE5980F933028F480E090E071
:1007E0000E9409140895885A8B3120F480E090E02B
:1007F0000E942E140895A3E0B0E0E1E0F4E00C9430
:10080000531F89836A837B830E9490038A819B8123
:10081000892B39F489810E94D0032396E2E00C945D
:100820006F1F8FE99FE00197F1F700C000008A81F8
:100830009B8101978A839B83E9CF60E570E08933D0
:1008400011F060E070E00E94FB030895811521F033
:100850000E94040B0E94B70B0895811521F00E949D
:100860000A0B0E94B70B0895A0E0B0E0EAE3F4E0C1
:100870000C944D1F6C01D62FC72FFC0115810681EA
:1008800002950F700E94F90AE82E8115F9F0E12E09
:100890001115E1F08C2F807F803461F080E28D0FA4
:1008A0008830A8F18C2F807E803221F4D23078F10C
:1008B000011569F18091B80282FF29C082E00E948F
:1008C000E70B0E94F90A91E0E82EE9268C2F829529
:1008D0008F70883009F4E6C0B0F58430D0F48230EF
:1008E00008F442C0FC2FFF70FF2EC07FC03219F009
:1008F000F29480EFF822D13008F467C009F498C070
:10090000111509F4A2C0011509F47CC042C0E12C04
:10091000DDCF09F4ABC0E11489F00E94F50A80FD37
:100920000DC0F60115820E94EF0A0E941B07C60146
:100930000E9454060E94EF0A0E942B07CDB7DEB733
:10094000E8E00C94691F893009F422C18A5F8F7036
:10095000823008F7D23F09F02CC18C2F8F71111112
:1009600025C10E941B07CCC00C2F0F70C03110F0A6
:100970000295007F111599F0011559F080E28D0F55
:10098000883010F0D11107C0802F0E94040B0E9404
:10099000B70B8D2F28C0802F0E94150BF8CF8D2FFD
:1009A0000E94D003011509F4B6CF80E28D0F883084
:1009B00010F0D11104C0802F0E940A0B03C0802FB9
:1009C0000E941B0B0E94B70BA6CF8091B80282FD3C
:1009D00015C0111559F0F11429F08F2D0E94040B48
:1009E0000E94B70B80E00E94900395CF80E00E94A8
:1009F000D003F11409F48FCF8F2DDECF111561F0E4
:100A0000013020F48F2D0E94260485CF09F083CF7A
:100A10008F2D0E943A0B7FCF01117DCF8F2D0E9429
:100A20002D048F2D0E94460B8F2D0E942A0B73CF11
:100A3000111521F0063008F06ECFE4CF053008F034
:100A40006ACF8F2D0E942D0466CF0115D1F3D933C3
:100A500049F42FEF87EE93E0215080409040E1F77A
:100A600000C000008D2F0E94D00355CF8C2F86959B
:100A700086958370813060F009F04DCF8D2F9C2FCB
:100A80009370111102C080E090E00E942E1443CFB9
:100A90008D2F9C2F9370111102C080E090E00E9476
:100AA000091439CF8C2F8370C9F5111129C04D2F2E
:100AB000429546954770440F440F2D2F2F7030E01C
:100AC000042E02C0220F331F0A94E2F780E090E068
:100AD000D4FF09C08FE090E002C0880F991F4A95AB
:100AE000E2F780959095C695C695C370822B932B9F
:100AF000C23071F0C33079F0C13039F00E94EB069A
:100B00000E94E3130E94250306CF0E94E206F8CF5D
:100B10000E94F406F5CF0E94DF06F2CF111561F1B5
:100B2000C0FFEECF4D2F429546954770440F440FBE
:100B30002D2F2F7030E0042E02C0220F331F0A9495
:100B4000E2F780E090E0D4FF09C08FE090E002C0BF
:100B5000880F991F4A95E2F780959095C695C6959E
:100B6000C370822B932BC23069F0C33071F0C13057
:100B700031F00E945607C4CF823010F2D3CF0E94CA
:100B80004D07BECF0E945F07BBCF0E940307B8CFBF
:100B9000CF70111539F08C2F0E941B078D2F0E94EA
:100BA0002604AECF8D2F0E942D048C2F0E942B0780
:100BB000A7CF68F4D03FC1F0D13F89F0111509F4F7
:100BC00041C00115E1F18D2F0E94900399CFD33FD1
:100BD000B9F0D43F99F78091B80282FD1BC08C2FE9
:100BE0008F71111519F3BDCE111541F0053008F0C4
:100BF00087CF8C2F8F710E943D0782CF0630F7CFB1
:100C0000111529F08C2F8F710E940F0779CF0E9448
:100C10000A0776CF111549F0CF718C2F0E941B0760
:100C200063E08C2F0E94C90B6BCF81E00E94E70B21
:100C3000023008F465CF82E00E94E70B61CF8C2F71
:100C40008F718FCE011579F0D93349F4EFEFF7EEBC
:100C500023E0E150F0402040E1F700C000008D2F7C
:100C60000E94D0034DCF8C2F8F71A0CFA4E0B0E0B5
:100C7000ECE3F6E00C94531F8B839C83FC016081B2
:100C8000718185810E94290889839A830E9468075F
:100C90000E94DE0669817A818B819C810E943404E6
:100CA0002496E2E00C946F1FCF93DF93EC018C81CC
:100CB000811599F0CE010E94A702811111C00E94F6
:100CC000F90A811551F08D81811539F08091B802B2
:100CD00082FF03C082E00E94E70BDF91CF9108956D
:100CE000CE010E943606CE010E946A02F6CF80E055
:100CF00090E00E94091480E090E00E942E140E946F
:100D0000230B0E94B70B08950E9429150E947706B5
:100D100008950E94120B0E9484060895282F929530
:100D20009F70963099F060F4925F9F70923030F42B
:100D3000203FB1F038F481E0283E38F080E008959B
:100D40009A5FF3CF81E0243FC9F7089591E0813F96
:100D500009F090E081E0283E08F080E0892B0895BA
:100D600081E00895FC012481211539F08081918171
:100D70000E9417080E948E06089580E00895A6E05C
:100D8000B0E0E5ECF6E00C94531F2696E2E00C94FC
:100D90006F1FA7E0B0E0EFECF6E00C94531F27962E
:100DA000E2E00C946F1F08950E94D30608950E94FC
:100DB000D4068093EC019093ED01089508950E946C
:100DC000D70608952091EC013091ED01822B932BF1
:100DD0000E94D70608952091EC013091ED01822305
:100DE00093230E94D70608952091EC013091ED01E4
:100DF000822793270E94D70608950E94D30608955C
:100E00000E94FD0608950E9400078093EA019093D6
:100E1000EB01089580E090E00E940307089521E02F
:100E200030E0A90102C0440F551F8A95E2F7CA01BC
:100E30000E940307089521E030E002C0220F331F13
:100E40008A95E2F78091EA019091EB01822B932B36
:100E50000E940307089521E030E002C0220F331FF3
:100E60008A95E2F7209530958091EA019091EB0107
:100E7000822393230E940307089521E030E002C0FB
:100E8000220F331F8A95E2F78091EA019091EB01DE
:100E9000822793270E94030708952091EA01309149
:100EA000EB01822B932B0E94030708952091EA0106
:100EB0003091EB01822393230E9403070895209130
:100EC000EA013091EB01822793270E9403070895DE
:100ED0000895CF93C1E061FDC4E060FDCC0F62FDD9
:100EE000C29593E0769567959A95E1F7660F771F1F
:100EF000660F771FFA01E60FF71F40E050E090E021
:100F00006191DF019C01042E02C0369527950A9459
:100F1000E2F72695220B26272C2326272E934F5FB8
:100F20005F4F4430510561F7CF910895A82FA77006
:100F300023E0969587952A95E1F7880F991F880FEA
:100F4000991FFB01E80FF91F40E050E080E021917C
:100F500030E00A2E02C0369527950A94E2F72170F8
:100F6000042E01C0220F0A94EAF7822B4F5F5F4FD5
:100F70004430510561F70895262F943070F48C3079
:100F800060F4682F70E08CE0989F600D711D112453
:100F900042ED51E0822F0E9469070895292F943075
:100FA00068F48C3058F490E062ED71E03CE0239FEF
:100FB000800D911D11240E949607089580E00895E8
:100FC000A4E0B0E0E6EEF7E00C94501F89839A832A
:100FD0000091EA011091EB018091EC019091ED01FB
:100FE000082B192B8FE08B831C8281E090E00B8013
:100FF00002C0880F991F0A94E2F780239123892B5E
:1010000069F48B819C8101978B839C83019669F79E
:10101000F12C8F2D2496E5E00C946C1FFB806981E8
:101020007A818F2D0E94EE0E019759F3F2CFA2E044
:10103000B0E0EDE1F8E00C94531F89839A830E949D
:10104000E00769817A810E94EE0E2296E2E00C941C
:101050006F1FA3E0B0E0EFE2F8E00C94531F6A8347
:101060007B839091D101911539F0CB010E94170833
:101070002396E2E00C946F1F811581F08A819B8199
:101080000E94E0078983682F8A819B810E94BC07A8
:101090006A817B8189810E94EE0EEACF8A819B81E1
:1010A0000E94CE078983F4CF0F931F930091EE0126
:1010B0008091EF01801303C01F910F91089587E085
:1010C000089FF0011124E051FE4F208131814281BF
:1010D00053816481758186810E94C9060F5F1F4F0D
:1010E0000770E6CF209128023091290240912A0210
:1010F00050912B0260912C0270912D0280912E0252
:101100000E94C906089580912E02803170F480916A
:101110002D02811551F0E091EE012091EF01309107
:101120002902409128022E1301C008956E2F70E00D
:1011300087E0E89FF0011124DF01A051BE4F149613
:101140008C911497811561F111968C9111978313ED
:1011500027C08C91841324C015968C91159781110A
:101160001FC012968D919D91A0912A02B0912B02E1
:101170008A1B9B0B883C910598F480912E028F70FE
:10118000806180932E02EA50FE4F80818F708061D3
:10119000808388E292E00E9454060E9454080895D9
:1011A000FB01E395E770BFCFE091EE019091EF0175
:1011B000E91302C080E008952E2F30E057E0E59F4C
:1011C000F0011124E051FE4F5181561306C05081A9
:1011D000581303C05581541304C0F901E395E77017
:1011E000E7CF81E008958F929F92AF92BF92DF92F6
:1011F000EF92FF920F931F93CF93DF93CDB7DEB79C
:101200002D970FB6F894DEBF0FBECDBF8C0186E0E0
:10121000F801DE01189601900D928A95E1F7F80128
:10122000F580848198E2892E92E0992E90912C028B
:1012300091111BC0811509F4FFC0F11409F440C1DC
:10124000C8010E94B206811509F43AC187E0F8018D
:10125000D40101900D928A95E1F7C4010E948703A1
:101260000E9483080E947208E7C0E080A280B380D9
:10127000D0902D0220912A0230912B02A501421B11
:10128000530BD11409F4DBC0483C510508F0A6C04B
:10129000811509F4D1C090912902918080912E028C
:1012A000803108F06BC0991228C0909128029E11DD
:1012B00024C0F1105DC08F70806180932E020E9467
:1012C000720888E292E00E94540680912E02F80192
:1012D0008683F12C8F2D2D960FB6F894DEBF0FBEAE
:1012E000CDBFDF91CF911F910F91FF90EF90DF90D5
:1012F000BF90AF909F908F900895F11039C040E05B
:10130000692D8E2D0E94D40840E0692D8E2D0E94FB
:10131000D408F82E8111DDCF888599850E941708A1
:10132000292F22952F70903450F49F70223080F036
:10133000911599F0F8019681903178F4CBCF2A5F1E
:101340002F70223078F0C8010E945406FD2CC2CFC5
:10135000911519F0811509F4BDCF805E883008F42D
:10136000B9CFF1CF803F08F4B5CF815F8330F7CF9D
:1013700080912E02816080932E02ABCF991207C01C
:10138000909128029E1103C0F11409F479C0C8019C
:101390000E94B206811509F493C0F11409F490C0BB
:1013A00080912E02803288F020912802309129020B
:1013B00029833A83AB82BC8290912C029D831E824A
:1013C0008F83CE0101960E94540687E0F801A8E2BF
:1013D000B2E001900D928A95E1F742CF90912E02F2
:1013E0009031A0F4488559856A857B858C859D85DB
:1013F0000E94BF0688E292E00E94540687E0F40152
:1014000011928A95E9F70E94720863CF8115A1F0C5
:101410002091290281812813BACF809128028E1150
:10142000B6CFF110B4CF9683C8010E94540687E06E
:10143000F40111928A95E9F7FF24F3944BCF483CCD
:10144000510508F041C08115B9F3F114C9F190912B
:101450002902818198132AC0809128028E1126C00A
:1014600080912E0280FD19C08031B8F08683807F84
:10147000803F39F08681982F907F905F8F70892B05
:101480008683C8010E94540687E0F801A8E2B2E012
:1014900001900D928A95E1F7E5CE87E0F801A8E288
:1014A000B2E001900D928A95E1F7C6CFC8010E9483
:1014B000B20681118ACF80912E02816080932E0224
:1014C000C8010E945406B8CF488559856A857B8536
:1014D0008C859D850E94BF0691CFAEE0B0E0E3E72A
:1014E000FAE00C94521F288739874A875B876C87FC
:1014F0007D878E87CE0108960E94F3086C85811542
:10150000A9F0611541F0288539854A855B857D857F
:101510008E850E94C90617E08091EE019091EF013F
:1015200089133AC02E96E3E00C946E1F87E0FE010B
:101530003896DE01119601900D928A95E1F76115BA
:1015400051F3A091EF018A2F90E08395877090E08E
:101550002091EE012817190689F097E09A9FD00193
:101560001124A051BE4FFE01319601900D929A9523
:10157000E1F78093EF010E945408CDCF0E948906C5
:101580001092EF011092EE0187E0E8E2F2E0DF0155
:101590001D928A95E9F7BFCF189FC0011124805191
:1015A0009E4F0E94F308811509F4BCCFE091EE0133
:1015B0001E9FF0011124E051FE4F208131814281B4
:1015C00053816481758186810E94C9062091EE0154
:1015D0002F5F3F4FC90187708093EE019DCF8091AF
:1015E0005702869586958695089580915702877053
:1015F000089590915702977081E0911101C080E0A9
:10160000089580918302089590918302982B90937E
:1016100083020895982F9095809183028923809367
:101620008302089510928302089590918202982B6C
:10163000909382020895982F909580918202892339
:1016400080938202089510928202089508950E9464
:10165000260B089590915802292F282331F0809568
:101660008923809358020E94270B089508950E94B1
:10167000360B089590915902292F2823281729F015
:10168000982B909359020E94370B0895909159021C
:10169000292F282331F080958923809359020E94B5
:1016A000370B089580915902811529F01092590243
:1016B00080E00E94370B0895CF93C0918302809100
:1016C0008202C82B80915902811531F0C82B0E94EB
:1016D000531481110E94520B8C2FCF910895CF93F8
:1016E000DF93C0910201D09103010E945C0B8883BB
:1016F000C0910201D091030148E050E06FE472E034
:10170000CE010E947A1F892B59F088E0FE01AFE4D8
:10171000B2E001900D928A95E1F7CE010E94F0139C
:10172000DF91CF910895CF93DF93C0910001D091C5
:1017300001010E945C0B8983C0910001D0910101DD
:1017400040E250E06FE272E0CE010E947A1F892BE6
:1017500059F080E2FE01AFE2B2E001900D928A956D
:10176000E1F7CE010E94FB13DF91CF9108958091A4
:101770002901811539F08091B70287FF03C00E94CB
:10178000930B08950E946F0B089508950E94C50B56
:1017900008959091B80292FF11C0982F990F990F58
:1017A000990F962B909357020E941B078091570226
:1017B0008695869586950E94C60B08950E941B0704
:1017C00008951092570280E00E94C60B08959091F0
:1017D00057028095892380935702282F277069F438
:1017E000891759F09091B80292FF07C086958695A7
:1017F00086950E942B070E94E10B08959091B802F4
:1018000092FB222720F9281769F080FB92F9909328
:10181000B8028091B7029091B8020E94450C82E014
:101820000E94E70B08958091B802002482FF039480
:10183000802D0E94FE0B089581E00E94FE0B08950A
:1018400080E00E94FE0B08956FEF7FEF80E090E054
:101850000E94CC1F089580E090E00E94981F9C0198
:1018600081E0263E3E4F09F080E0089582E090E05E
:101870000E94901F089583E090E00E94901F0895B9
:1018800084E090E00E94981F0895BC0184E090E0FD
:101890000E94CC1F0895AB01BC018FE090E00E9434
:1018A000C01F0895AB01BC0183E190E00E94C01FFE
:1018B000089580E090E0BC010E94520C089580E001
:1018C00090E0BC010E944B0C0E94590C0895A8E0C6
:1018D000B0E0EDE6FCE00C94531F66EE7EEF80E096
:1018E00090E00E94CC1F60E082E090E00E94AE1F7A
:1018F00081E090E08093EC011092ED0161E083E0E3
:101900000E94AE1F60E074E184E090E00E94CC1F72
:1019100060E086E090E00E94AE1F6FEF87E090E00D
:101920000E94AE1F60E070E0AB0188E090E00E9492
:10193000C01F60E084E290E00E94AE1F60E087E19B
:1019400090E00E94AE1F60E08CE090E00E94AE1F2D
:1019500060E08DE090E00E94AE1F19821A821B8227
:101960001C821D821E821F82188648E050E068E1BA
:1019700070E0CE0101960E949E1F60E070E0AB0116
:1019800080E290E00E94C01F0E945F0C2896E2E077
:101990000C946F1F0E94670C0895682F8EE090E0F2
:1019A0000E94AE1F0895A6E0B0E0E9EDFCE00C94C3
:1019B000511F0E94E5158C0180918402909185024F
:1019C0008017910779F019821A820E94E515BC01EF
:1019D00049815A8180E090E00E945703009384027D
:1019E000109385022696E4E00C946D1F0E94F11579
:1019F0006093920270939302809394029093950265
:101A000060938E0270938F02809390029093910264
:101A10000895089508950E94090D089508950E945B
:101A20000E0D089585EE9FE00E948D110E940A0D13
:101A30000E940B0D089581E0089581E008950E94B1
:101A40001B0D0895089508950E94220D0E94230DF4
:101A500008950E9404100E94240308950E94DC153A
:101A60000E94DC100E94290D8091B702806880934B
:101A7000B7028091B7029091B8020E94450C0E9473
:101A8000A2170E940F0D0895A7E0B0E0EAE4FDE080
:101A90000C94491F0E941D0D811108C00E94D30C97
:101AA0000E943E032796ECE00C94651F0E94F21002
:101AB00026E8822E22E0922E740110E0F701C08009
:101AC000D180812F0E942A101F5F143009F44CC06E
:101AD000F2E0EF0EF11CC816D90681F38091960250
:101AE00081FD0E9433100E941F0D8F8310E0812F13
:101AF0000E942A107C01F401A190B1904F018A1537
:101B00009B0561F1A826BF2400E091E0C92ED12CED
:101B1000C5018C219D21892BC9F0FF81F115B1F000
:101B200009831A830E94E5158B839C8321E02D8312
:101B3000C7018C219D21892B09F420E049815A811C
:101B40006B817C818D81922F0E9457030F5FCC0C9B
:101B5000DD1C0C30E9F6F401F292E2921F5F1430C2
:101B600031F60E94F60C9CCFC816D90609F0B6CF04
:101B700095CFA3E0B0E0EFEBFDE00C94531F0E9483
:101B8000F30E8A839B83923508F05AC0903508F093
:101B9000EAC0803E910558F58D3C910508F0BCC027
:101BA000883A910580F4853A910508F0AFC08130FC
:101BB000910509F498C00497813A910508F493C0FF
:101BC0001A821B8290C08A819B81885A91094B9707
:101BD000B8F73A81385A432F50E0440F551F4C57FD
:101BE0005E4FFA010190F081E02DF4647AC04A81E1
:101BF0005B815034C8F4503208F0D1C0483E5105E2
:101C000008F471C0CA0191509F31D0F68B810E94B7
:101C1000960F89838A8190E00E94F30E4981F42F08
:101C2000FF71E82FF92B5DC08A8190E00E94F30ECE
:101C30003B813F70282F392B306A2A833B8353C066
:101C40004A815B81403882E55807E0F5403692E5ED
:101C5000590708F06BC04034E2E55E07E8F4403213
:101C6000F2E55F0708F05CC0842F8695869520E238
:101C7000829FC00111244370498321E030E0A90113
:101C8000098002C0440F551F0A94E2F7482B592BD4
:101C90005D684A835B8327C08A81869586958770B5
:101CA00050E2859FC0011124EA81E37021E030E019
:101CB000A90102C0440F551FEA95E2F7482B592BA2
:101CC0005C68E7CF8A819B81803C924590F48A8151
:101CD0008F712A813B81203A3245F0F5F82FE4EFED
:101CE000F06AEA83FB838A819B812396E2E00C946D
:101CF0006F1F8A819B81805C9245809708F060CF3E
:101D00004A81542F5F7140EF506AC3CF2A813B81D3
:101D100024523109306491CF2A813B8130658DCFC7
:101D2000FA81FF715F2F41EF506AB3CF8A818695A8
:101D30008695877050E2859FC0011124EA81E37087
:101D400021E030E0A90102C0440F551FEA95E2F7F7
:101D5000482B592B5A689DCF0E94960F382F20E0B0
:101D60003F7130626ACF8A818F710E94960FEA813B
:101D7000FB8153E0EE0FFF1F5A95E1F7FF701A82C7
:101D8000FB83282F30E084FF04C0F0E18F9F900197
:101D900011244A815B81422B532B50697ACF8B816E
:101DA0008F710E94960F89838A8190E00E94F30EC2
:101DB0005981352F3F71282F392BC90190628A83B1
:101DC0009B8391CF462F743030F46C3020F4672F12
:101DD0000E940B02089580E090E008950E94E20EB8
:101DE0000E94B90D0895803E9105D1F1C8F4813368
:101DF000910509F481C048F48932910509F471C054
:101E00008A32910509F47FC0089589339105E1F084
:101E100082389105C9F08533910509F45DC00895B4
:101E2000843E9105D1F148F4823E910531F1833E23
:101E3000910541F181EE90E00895863E9105C1F152
:101E4000873E9105F1F108952091B702237009F0C2
:101E500064C02091B80223FF14C089E290E0089585
:101E60002091B70220FD45C03091B80230FF09C073
:101E700024FD24C083EE90E008952091B70222FD56
:101E8000F7CF08952091B70222FD44C03091B802E7
:101E900030FD43C024FFF5CF11C02091B80221FFCF
:101EA000F0CF8091B70284FD09C087EE90E00895DD
:101EB0002091B70223FFE5CF24FFF7CF80E090E029
:101EC00008952091B70223FD2BC03091B80231FF55
:101ED000E1CF84EE90E008952091B70225FFD1CFA5
:101EE000BCCF2091B70225FD1EC02091B80223FF70
:101EF000C8CF89E390E008952091B70226FFC1CFB3
:101F00008AE290E008952091B70226FFBACF81E3DC
:101F100090E0089582EE90E0089580EE90E00895BC
:101F200086EE90E0089585E390E008959091B702E1
:101F300092FF10C041E0282F2471243009F040E0C6
:101F400031E0282F2871283009F030E0431711F0D4
:101F50002CE0822793FF10C041E0282F2471243108
:101F600009F040E031E0282F2871283109F030E0F5
:101F7000431711F02CE082273091B80230FF10C0D7
:101F800051E0282F2171213009F050E041E0282F45
:101F90002871283009F040E0541711F029E0822719
:101FA00031FF10C041E0282F2171213109F040E0BC
:101FB00031E0282F2871283109F030E0431711F063
:101FC00029E0822794FD877E089580E008950E948D
:101FD000240C08950E94F2102FEF86E791E0215023
:101FE00080409040E1F700C000000E94F21080E0C5
:101FF0000E942A1080FF04C00E94E70F0E94301642
:1020000008950E94EA0F08950E942B0C811102C0CE
:102010000E94CA0C0E94360C809396020E94400CCB
:102020008093B7029093B8020E9401100E943B0C6B
:1020300090E00E94DF068091EA019091EB010E94FE
:102040000007089508950E942210089508950E949F
:1020500026100895E82FF0E0EE0FFF1FEF53FD4F1D
:10206000808191810895089580EA8A95F1F7089515
:1020700000C008950E9434100895F894E82FE29566
:10208000EF70F0E041A18F7021E030E0B90101C0B4
:10209000660F8A95EAF7862F962F9095942391A341
:1020A00092A1892B82A378940895CF93DF93C6ECF5
:1020B000D1E089918F3F11F00E943D1081E0CA3C30
:1020C000D807B9F7CAEBD1E089918F3F11F00E9490
:1020D0003D1081E0C63CD807B9F7DF91CF91089554
:1020E000A5E0B0E0E6E7F0E10C944F1F8A839B8304
:1020F0006983262F30E06C831D8289010A531E4FAD
:10210000F80180818F3F09F451C0F894E82FE295DF
:10211000EF70F0E091A18F7021E001C0220F8A954D
:10212000EAF7892F822B81A382A12095282322A35D
:1021300078940E943810EAEBF1E021E030E0E12CE5
:10214000F12C41914F3F79F0A42FA295AF70A05E82
:10215000B0E08C9190E04F7002C0959587954A95BC
:10216000E2F780FF27C080E090E0E82AF92A220FFA
:10217000331F81E0E63CF80721F7F80180818F3FAB
:1021800011F00E943D1061E0E114F10409F460E0F7
:1021900089810E943A102C813D81220F331F8A8150
:1021A0009B81280F391FF901E082F1822596E6E034
:1021B0000C946B1FC901D9CF0E94551088E0E1EC47
:1021C000F2E0DF01982F1D929A95E9F7E9EBF2E032
:1021D000DF011D928A95E9F784E00E942F110E9489
:1021E00023100895AAE0B0E0E8EFF0E10C94521F4C
:1021F000FE01319688E0DF011D928A95E9F710E033
:10220000E987FA87612F89859A850E9470101F5F80
:102210001430C1F748E050E069857A8589EB92E097
:102220000E947A1F21E0892B81F420E044E061ECD8
:1022300072E089EB92E00E94301189870E9427109A
:1022400089852A96E3E00C946E1F88E0E985FA857B
:10225000A9EBB2E001900D928A95E1F7E7CF0895DE
:10226000A6E0B0E0E6E3F1E10C94511F89839A8384
:102270006B837C83042F2D83211571F081E0809383
:1022800099020E94E515809397029093980280E04E
:102290002696E4E00C946D1F809199028E8381153F
:1022A000B1F380919702909198020E94FD150597D5
:1022B00070F310E0000F111FA80169817A818B81F2
:1022C0009C810E947A1F892B49F0A80169817A813B
:1022D0008B819C810E94871F8E818D831092990231
:1022E0008D81D6CF0E9418180E942E0D0E942518AD
:1022F00008950E942A180E94440D0E9444180895CF
:102300000E947E150E94FE170E94120D0E947211FB
:102310000E9479110E94240DFBCF8093CA019093F3
:10232000CB010895CF93DF9380919B0280688093C7
:102330009B02CBE9D2E089910E94C11782E0C13AA9
:10234000D807C9F7DF91CF910895282F67E00E9441
:10235000311F90E0FC01E556FD4FAC0133E0440F26
:10236000551F3A95E1F7841B950B820F911D26E0CE
:1023700030E0A901481B21E001C0220F4A95EAF78D
:102380008081822B808380E0089581E0089581E040
:10239000089581E00895EF92FF920F931F93CF93DA
:1023A000DF93EC017B018C01005C144700341105C4
:1023B00008F04CC0DB0114968C91811509F446C0DD
:1023C000CE010E94C9118115B9F00A321105A0F49D
:1023D00000919A02F70185818115A1F00F5F0093AA
:1023E0009A028C2F805C0E94A5112BE932E040E01C
:1023F000B701CE010E94C71180E0CDB7DEB7E6E09D
:102400000C946B1F015000939A022BE932E040E0DC
:10241000B701CE010E94C711811571F380919A0214
:10242000181654F310929A026BE972E080E00E9451
:10243000C511811108C0EBE9F2E086E0DF011D92D1
:102440008A95E9F7D9CF0E949211F5CF81E0D5CFD7
:10245000A2E0B0E0EEE2F2E10C94531F69837A83CC
:1024600086319C4731F50E94010BE981FA81958103
:102470009115A9F08A7A91E0811101C090E09093C2
:10248000A102811551F085E30E94FB140E94B70B55
:1024900080E02296E2E00C946F1F89E2F5CF8091F4
:1024A000A102811521F085E30E941215EFCF89E288
:1024B000FBCF81E0EECFCF93DF93EC01FB01858171
:1024C000811509F4CFC09E0130572332310508F041
:1024D000AFC00E94400C8093B7029093B802FE01F7
:1024E000E150F047E232F10520F4EC51F04E0C944B
:1024F0003D1F8091B70281608093B70290C08091A8
:10250000B80288608093B8028AC08091B702826066
:10251000F3CF8091B7028460EFCF8091B7028860DB
:10252000EBCF8091B8028160EDCF8091B8028260DC
:10253000E9CF8091B7028061DFCF8091B7028062DE
:10254000DBCF8091B7028064D7CF0E94890680914B
:10255000B7028068D1CF8091B7028C60CDCF8091D7
:10256000B8028360CFCF8091B7028E7FC5CF8091B4
:10257000B802877FC7CF8091B7028D7FBDCF809192
:10258000B7028B7FB9CF8091B702877FB5CF80919B
:10259000B8028E7FB7CF8091B8028D7FB3CF809184
:1025A000B7028F7EA9CF8091B7028F7DA5CF809192
:1025B000B7028F7BA1CF0E9489068091B7028F77E7
:1025C0009BCF8091B702837F97CF8091B8028C7F99
:1025D00099CF9091B702892F8B7F92FF8460877F7C
:1025E00092FF886089CF8091B802982F909590FBD8
:1025F00080F990FB81F986CF9091B702892F8F7B6C
:1026000096FF806479CF0E9489069091B702892F46
:1026100097FB87F9805870CF81E00E94CD0C8091A4
:10262000B7029091B8020E94450C0E94890680E092
:10263000DF91CF91089580E0F0CF9091B702892F7C
:102640008F7E94FF806158CF9091B702892F8E7F43
:1026500090FF816051CF9091B802892F877F93FFBF
:10266000886050CF81E0E4CF0F931F93CF93DF9327
:10267000C42FD22FFC0185818115D1F04093A40293
:102680000E94E5158093A2029093A30280E28C0F32
:10269000883048F481E0C1FD84E0C0FD880FC2FDB0
:1026A00082950E942604DF91CF911F910F9108958A
:1026B0001091A402141334C08091A2029091A3023D
:1026C0000E94FD15883C910558F5C0E2CD0F1D17FD
:1026D000C1F080E2810F883048F481E011FD84E090
:1026E00010FD880F12FD82950E942D04C83048F419
:1026F00081E0D1FD84E0D0FD880FD2FD82950E945B
:102700002604802F0E941D0481E0D1FD84E0D0FDCD
:10271000880FD2FD8295C83030F60E942D04C3CFB9
:1027200080E28C0F883008F0BECF81E0C1FD84E0EC
:10273000C0FD880FC2FD8295F0CF0F93FC01CB0145
:10274000E851FC47E730F10590F5EA5FFF4D0C9446
:102750003D1F06E221EE41EE6AE17CE70E94341360
:1027600080E00F91089507E225EE45EE6BE17CE7EE
:10277000F5CF06E221EE40EE68E17CE7EFCF07E21D
:1027800025EE44EE69E17CE7E9CF06E221EE42EE78
:102790006CE17CE7E3CF07E225EE46EE6DE17CE7F6
:1027A000DDCF08E221E045EE6EE17CE7D7CFFB010B
:1027B000858181111092A40281E0D3CF8093A90278
:1027C0009093AA020895E091A902F091AA0230978D
:1027D00029F00190F081E02D0995089580E0089599
:1027E000E091A902F091AA02309721F00280F381D2
:1027F000E02D09950895E091A902F091AA02309781
:1028000039F026E0DC012C930480F581E02D099558
:102810000895A3E0B0E0EFE0F4E10C94531F2091A1
:10282000A7023091A80228173907A1F08093A702C8
:102830009093A802E091A902F091AA02309751F07A
:1028400023E029838A839B830084F185E02DCE01D8
:10285000019609952396E2E00C946F1FA3E0B0E087
:10286000E4E3F4E10C94531F2091A5023091A602F9
:1028700028173907A1F08093A5029093A602E09152
:10288000A902F091AA02309751F024E029838A83AB
:102890009B830084F185E02DCE0101960995239656
:1028A000E2E00C946F1F80912901811521F0809145
:1028B000B70287FD12C020910201309103012E5F03
:1028C0003F4F96E080E09150F90140812F5F3F4FEC
:1028D00041118F5F9111F7CF089520910001309140
:1028E00001012E5F3F4F9EE1EDCF8115A9F190913F
:1028F0002901911521F09091B70297FD10C0209108
:10290000020130910301F9013296285F3F4F908117
:10291000981709F13196E217F307C9F71AC0982FF3
:10292000969596959695803FA0F4E0910001F091E0
:102930000101E90FF11D228130E0877041E050E094
:10294000BA0101C0660F8A95EAF7262381E0232B9E
:1029500019F480E0089581E008959C01FC0132960D
:1029600080E09FEF4081461759F031969F3F19F460
:10297000411101C0982F8F5F8630A1F79F3F09F466
:102980000895290F311D97FD3A95F9016283089545
:10299000FC01329608962191261302C0DF011E9297
:1029A000E817F907C1F70895262F2695269526954D
:1029B000603F60F4FC01E20FF11D677021E001C08F
:1029C000220F6A95EAF78281822B82830895262F4F
:1029D000269526952695603F68F4FC01E20FF11DCF
:1029E0009DEF61FD97EF60FF959562FD9295828165
:1029F000892382830895682F80912901811559F0D8
:102A00008091B70287FF07C080910001909101017A
:102A10000E94D414089580910201909103010E94B4
:102A2000AD140895682F80912901811559F0809186
:102A3000B70287FF07C080910001909101010E94B9
:102A4000E714089580910201909103010E94C81437
:102A5000089580912901811579F08091B70287FF4F
:102A60000BC0E0910001F091010132968EE1DF018F
:102A70001D928A95E9F70895E0910201F091030112
:102A8000329686E0F4CF08950E94431508958F5F33
:102A90008093AB020E944415089583E08093AB02BB
:102AA0000E94441508950E944715089581E080937F
:102AB000AB020E94441508950E945615089508958A
:102AC00008950E9460150895089508950E945F1565
:102AD0000895CF930E9464150E94F2100E9465151C
:102AE000C0E08C2F0E942A10892B31F4CF5FC430B4
:102AF000C1F780E0CF91089581E0FCCF85B7806871
:102B000085BF85B7806885BF08951F921FB61F9245
:102B100011248F939F93AF93BF938091AC02811147
:102B200013C08091C9029091CA02A091CB02B091CA
:102B3000CC024196A11DB11D8093C9029093CA0297
:102B4000A093CB02B093CC02BF91AF919F918F9194
:102B50001F901FBE1F9018958091D102843031F1D3
:102B60000E9402031092AC0288E190E020E40FB6CC
:102B7000F894A895809360000FBE2093600083B7FF
:102B8000817F846083BF83B7816083BF7894889599
:102B900083B78E7F83BF0FB6F894A89580916000AD
:102BA000886180936000109260000FBE08950E94BB
:102BB00089060E940703089582E084BD93E095BDD5
:102BC0009AEF97BD80936E0008952FB7F894809187
:102BD000C9029091CA02A091CB02B091CC022FBF42
:102BE00008952FB7F8946091C9027091CA0280913C
:102BF000CB029091CC022FBF08959C014FB7F8945F
:102C00008091C9029091CA02A091CB02B091CC02EE
:102C10004FBF821B930B089578941F921FB61F928B
:102C200011248F939F93AF93BF938091C90290918A
:102C3000CA02A091CB02B091CC020196A11DB11D98
:102C40008093C9029093CA02A093CB02B093CC02A6
:102C5000BF91AF919F918F911F901FBE1F901895AC
:102C600087E797E7809300089093010888E19AE04E
:102C70000FB6F894A895809360000FBE9093600003
:102C8000FFCF88E19AE00FB6F894A8958093600092
:102C90000FBE90936000FFCF8091B5020895089514
:102CA0009B01BA019091D1029430E1F48F7080932E
:102CB000E9009FEF8091E80085FD06C085ED8A95CB
:102CC000F1F700009150B1F78091E80085FF0AC04C
:102CD00040E050E0C9010E94BE188091E8008E7764
:102CE0008093E800089543E050E0BC0182E00E9438
:102CF0005016089540E250E0BC0182E00E94501658
:102D00000895CF93DF93EC0148E050E0BC0181E0EF
:102D10000E94501688E0FE01ADEAB2E001900D92EB
:102D20008A95E1F7DF91CF9108958091D0028111CA
:102D300009C00E944E1A0E94A91A8091E200846084
:102D40008093E20008951092D00208950E945615D3
:102D500008956091CD0281E0611101C080E00E9480
:102D60004D1508959091D10281E0943009F080E0F2
:102D70006091CD020E945315089542E061EC81E01C
:102D80000E94CA1942E261EC82E00E94CA1942E044
:102D900061EC83E00E94CA1942E160E885E00E948C
:102DA000CA1942E161E884E00E94CA199091D102F7
:102DB00081E0943009F080E06091CD020E944715D7
:102DC00008958091D302893009F44AC068F48230B2
:102DD00009F4A7C0833009F476C0813011F184E092
:102DE00091E00E948E1E08958A3009F489C08B30CC
:102DF000B1F78091D202813291F78091D602909101
:102E0000D702892B61F78091E800877F8093E800E3
:102E10000E94FE198091D402809329010E948906A4
:102E2000DECF8091D202813AD1F68091E800877F8F
:102E30008093E8008091D6029091D702892B61F0AF
:102E400060E080E090E070E00E940D198091E80061
:102E50008B778093E800C3CF68E08DEA92E0F3CFF0
:102E60008091D202813209F0BACF8091D60290913E
:102E7000D702029708F0B3CF8091E800877F809354
:102E8000E8008091E80082FF19C02091F300809152
:102E9000F200922F029731F48091F100813011F00D
:102EA000863021F48091F1008093B5028091E80092
:102EB0008B778093E8000E94FE1991CF8091D10218
:102EC0008111DFCF08958091D202813A09F087CF36
:102ED0008091D6029091D702892B09F080CF809102
:102EE000E800877F8093E8008091E80080FFFCCFB6
:102EF000809129018093F1008091E8008E77D9CFED
:102F00008091D202813209F06ACF8091E800877FF8
:102F10008093E8000E94FE198091D5028093B6024A
:102F20005ECF8091D202813A09F059CF8091E800BA
:102F3000877F8093E8008091E80080FFFCCF80913C
:102F4000B602D8CF82E0809316011092170184E078
:102F500091E00E94521E08950895CF93DF9384E07C
:102F600091E00E94D01DEC01209719F4DF91CF91E0
:102F7000089584E091E00E94FA1D0E94AC17219709
:102F8000F3CFCF939091E900C091EC002091140110
:102F90003091150120FF15C09F70C0FBCC27C7F9E9
:102FA000C92B909105019F709093E9009091EB00DF
:102FB00090FF04C09091EE0097FD05C0CF70C093C4
:102FC000E900CF9108959FEF2091E80025FD06C00C
:102FD00025ED2A95F1F700009150B1F78093F100AB
:102FE00084E091E00E948A1D8091E80080FFE6CF96
:102FF0008091E8008E778093E800E0CF84B7877FE8
:1030000084BF0FB6F894A895809160008861809382
:103010006000109260000FBE80E890E00FB6F89458
:1030200080936100909361000FBE0E945C1508952B
:103030000E944E1A0E94A91AE2EEF0E0808184609C
:10304000808378940E94271D08958FE191E00E946B
:10305000DE1308958091D102853031F48091D10240
:10306000853019F00E94D71508950E94AC15809103
:10307000CF02811599F30E946915811579F30E9499
:10308000A8180E948906EACF0E94AD1784E091E05B
:103090000E94B91D08959A014091D8025091D90219
:1030A0000E9453180895492F50E043305105C9F04C
:1030B00070F441305105E9F14230510571F488E76F
:1030C00090E044E652E0F901408351830895413293
:1030D0005105E9F04232510519F180E090E040E0FD
:1030E000F2CF482F50E0813061F04230510561F05D
:1030F000E0E6F2E04115510581F7849190E0AF01DF
:10310000E2CFE0E4F2E0F9CFECE2F2E0F6CF6130BA
:103110007105A0F011F789E090E04FE852E0D3CFBD
:103120006130710580F0C9F68DE690E04EEE52E018
:10313000CACF82E190E04CED52E0C5CF89E090E04B
:1031400046E752E0C0CF84E490E04BE553E0BBCFCC
:1031500080E189BD82E189BD09B400FEFDCF809187
:10316000D8008F7D8093D8008091E00082608093AA
:10317000E0008091E00081FDFCCF0895AF92BF9206
:10318000CF92DF92FF920F931F93CF93DF936C0147
:10319000EB018A010E941D1AF82E811123C001152E
:1031A000110539F0F80180819181C81BD90BC80E37
:1031B000D91EA12CB12C2097A9F08091E80085FDA3
:1031C00022C08091E8008E778093E80001151105F8
:1031D000A1F0F801808191818A0D9B1D80839183EC
:1031E00085E0F82E8F2DDF91CF911F910F91FF90E9
:1031F000DF90CF90BF90AF9008950E941D1A811567
:10320000E1F2F82EEFCFF60181916F018093F1008A
:103210002197FFEFAF1ABF0ACECFFC012091D80251
:103220003091D9022617370720F06115710569F032
:103230009B0190E02115310571F491110CC0809132
:10324000E80082FF38C080E008959091E8009E7702
:103250009093E800EDCF8091D1028115C1F18530C6
:10326000C1F18091E80083FD30C08091E80082FDCB
:10327000E6CF8091E80080FFDDCF8091F3004091A0
:10328000F200582F2115310519F04830510558F03A
:1032900091E04830510509F090E04091E8004E7708
:1032A0004093E800C7CF81918093F100215031090C
:1032B0004F5F5F4FE7CF8091D102811541F085309C
:1032C00041F08091E80083FFBACF81E0089582E069
:1032D000089583E00895FC012091D8023091D9022D
:1032E0002617370720F06115710569F09B0190E002
:1032F0002115310571F491110CC08091E80082FF15
:1033000039C080E008958091E8008E778093E800CE
:10331000EDCF8091D1028115C9F18530C9F180913D
:10332000E80083FD31C08091E80082FDE6CF809106
:10333000E80080FFDDCF8091F3004091F200582F2C
:103340002115310519F04830510558F091E0483009
:10335000510509F090E08091E8008E778093E800B5
:10336000C7CF84918093F1003196215031094F5F8E
:103370005F4FE6CF8091D102811541F0853041F059
:103380008091E80083FFB9CF81E0089582E008953D
:1033900083E00895982F973028F08F708093E9008C
:1033A00081E008959093E900242F762F50E098173C
:1033B00031F07091EC002091ED005091F00021FD72
:1033C00002C09F5FE8CF3091EB003E7F3093EB006F
:1033D0003091ED003D7F3093ED003091EB00316096
:1033E0003093EB007093EC002093ED005093F000CD
:1033F0002091EE0027FDE5CF80E008958091D20274
:1034000087FF13C08091E80082FF06C08091E8002A
:103410008B778093E80008958091D1028111F2CFDB
:1034200008958091D1028115D9F38091E80080FF41
:10343000F8CF8091E8008E77ECCF2091E4003091B6
:10344000E50095E6A9012091EC00822F817020FF14
:1034500006C08091E80080FF06C080E008952091BA
:10346000E80022FD1AC08091D102811589F08530D3
:1034700089F08091EB0085FD0FC02091E400309130
:10348000E50042175307F9F29150E1F684E0089500
:1034900082E0089583E0089581E008950E94BA1AB9
:1034A0000E94C21AE0EEF0E0808181608083E8ED46
:1034B00080818F77808319BCA7EDB0E08C918E7FDF
:1034C0008C9380818F7E80831092D00208950F9319
:1034D0001F93CF93DF930E94BA1A0E94C21AC8EDBD
:1034E000D0E088818F77888388818068888388810D
:1034F0008F7D888319BC1092D1021092CD02109258
:10350000CF021092CE0200EE10E0F80180818B7F96
:10351000808388818160888342E060E080E00E944F
:10352000CA19E1EEF0E080818E7F8083E2EE808137
:1035300081608083808188608083E0EE80818E7FDF
:103540008083888180618883DF91CF911F910F9163
:103550000895E8EDF0E080818F7E8083E7ED808143
:103560008160808384E082BF81E08093D0020E94EA
:10357000671A0895E8EDF0E080818E7F80831092D5
:10358000E20008951092DA001092E10008951F926F
:103590000F920FB60F9211242F933F934F935F9387
:1035A0006F937F938F939F93AF93BF93EF93FF930B
:1035B0008091E10082FF0BC08091E20082FF07C092
:1035C0008091E1008B7F8093E1000E94261D809115
:1035D000DA0080FF19C08091D80080FF15C080916B
:1035E000DA008E7F8093DA008091D90080FF94C04A
:1035F00080E189BD82E189BD09B400FEFDCF81E093
:103600008093D1020E9495168091E10080FF19C03D
:103610008091E20080FF15C08091E2008E7F809350
:10362000E2008091E20080618093E2008091D80006
:1036300080628093D80019BC85E08093D1020E94FB
:10364000A9168091E10084FF29C08091E20084FFE7
:1036500025C080E189BD82E189BD09B400FEFDCFAE
:103660008091D8008F7D8093D8008091E1008F7E7B
:103670008093E1008091E2008F7E8093E200809150
:10368000E20081608093E2008091CD02811509F40F
:1036900049C084E08093D1020E94B2168091E1007B
:1036A00083FF29C08091E20083FF25C08091E10063
:1036B000877F8093E10082E08093D1021092CD0257
:1036C0008091E1008E7F8093E1008091E2008E7F07
:1036D0008093E2008091E20080618093E20042E00A
:1036E00060E080E00E94CA198091F00088608093B9
:1036F000F0000E94A616FF91EF91BF91AF919F91AC
:103700008F917F916F915F914F913F912F910F908A
:103710000FBE0F901F90189519BC1092D1020E94F5
:10372000A31672CF8091E30087FF02C083E0B2CF7F
:1037300081E0B0CF1F920F920FB60F921124EF923B
:10374000FF920F931F932F933F934F935F936F932A
:103750007F938F939F93AF93BF93CF93EF93FF93F9
:1037600009EE10E0F8018081C091EC008F70C0FB81
:10377000CC27C7F9C82B1082E0EF8081877F808338
:1037800078940E94E21BF8011082E0EF808188604B
:103790008083CF70E9EEC083FF91EF91CF91BF910D
:1037A000AF919F918F917F916F915F914F913F91D9
:1037B0002F911F910F91FF90EF900F900FBE0F90E0
:1037C0001F901895AAE2B0E0E8EEFBE10C94521FBE
:1037D00082ED92E0FC0101962091F100208322E02D
:1037E0008A3D9207B9F70E94E1168091E80083FFB5
:1037F00038C08091D2029091D3029A3090F5E92F8F
:10380000F0E0E35FFF4D0C943D1F803889F0823873
:1038100041F58091D6028F70873018F58093E900CA
:103820008091EB0085FB882780F91092E90006C0A3
:103830008091CF02880F9091CE02892B9091E80061
:10384000977F9093E8008093F1001092F1008091AF
:10385000E8008E7723C0811116C08091D402813098
:1038600011F18091E80083FF0AC08091E800877F12
:103870008093E8008091EB0080628093EB00AA9631
:10388000E3E00C946E1F823061F78091D4028115C1
:1038900081F01092E9008091E800877F8093E80032
:1038A0000E94FE19DECF933009F080E08093CF02B2
:1038B000F0CF8091D6028F702FEF280F263088F638
:1038C0008093E9002091EB0020FFE3CF933031F4A7
:1038D0008091EB0080628093EB00DBCF9091EB0056
:1038E00090619093EB0021E030E0A90101C0440F0A
:1038F0008A95EAF74093EA001092EA008091EB0083
:103900008860E9CF8111ADCF1091D4021F778091EB
:10391000E3008078812B8093E3008091E800877F2B
:103920008093E8000E94FE198091E80080FFFCCFA0
:103930008091E30080688093E30083E0111101C06F
:1039400082E08093D1028DCF8058823008F089CFF9
:103950008091D4029091D5028C3D53E0950791F56A
:1039600083E08A838AE289834FB7F894DE01139655
:1039700020E03EE051E2E32FF0E0509357008491C5
:1039800020FF03C082958F703F5F8F708A30C0F038
:10399000895C8D931D922F5F243169F74FBF809111
:1039A000E800877F8093E8006AE270E0CE0101962C
:1039B0000E940D198091E8008B778093E80051CF29
:1039C000805DE7CF6091D6027091D702AE014F5F64
:1039D0005F4F0E944B18BC01892B09F442CF909194
:1039E000E800977F9093E80089819A810E946B1983
:1039F000E1CF803809F035CF8091E800877F809350
:103A0000E8008091CD028093F10021CF811129CF70
:103A10009091D402923008F024CF8091E800877F03
:103A20008093E8009093CD020E94FE198091CD0210
:103A3000811531F084E08093D1020E94BD1611CF30
:103A40008091E30087FDF6CF81E0F5CF0895CF9315
:103A50008091D102811599F08091E900C091EC002C
:103A60008F70C0FBCC27C7F9C82B1092E90080915A
:103A7000E80083FD0E94E21BCF70C093E900CF9164
:103A80000895A1E0B0E0E7E4FDE10C94531F6983E1
:103A90002091D102243019F5FC01448955896689A9
:103AA0007789452B462B472BD1F081818F708093EE
:103AB000E9008091E80085FF08C0F981F093F100EA
:103AC00080E02196E2E00C946F1F8091E8008E77F1
:103AD0008093E8000E941D1A811579F3F2CF82E0ED
:103AE000F0CFA1E0B0E0E7E7FDE10C94531F89833C
:103AF000FB01682F848595850E94411D811107C0B7
:103B00002981822F90E02196E2E00C946F1F8FEFC5
:103B10009FEFF9CF2091D102243049F5FC0144896F
:103B2000558966897789452B462B472B01F1818181
:103B30008F708093E9002091F3008091F200922F22
:103B4000892B11F480E008959091E8008091E800BD
:103B50008E778093E80095FDF5CF0E941D1A8111A4
:103B600007C09091E8009E779093E800089582E066
:103B700008952091D102243091F4FC0144895589A3
:103B800066897789452B462B472B49F021812F7079
:103B90002093E9002091E80020FD0E948A1D0895ED
:103BA0002091D1022430E9F4FC01448955896689C9
:103BB0007789452B462B472BA1F086818F70809308
:103BC000E9008091E80082FF0CC02091F300809111
:103BD000F200922F892B41F48091E8008B7780933B
:103BE000E80080E090E008952091F3008091F200D9
:103BF000922F08952091D102243019F08FEF9FEF7A
:103C00000895FC014489558966897789452B462B9F
:103C1000472BA1F386818F708093E9008091E800A3
:103C200082FFECCF2091F3008091F200922F892B3C
:103C300081F08091F10090E04091F3002091F2003A
:103C4000342F232B29F42091E8002B772093E800D0
:103C500008958FEF9FEFF0CFFC01848595850E943A
:103C6000FA1D8F3F980711F48EEF9FEF0895CF93C1
:103C7000DF93EC018C859D850E94FA1D8F3F98078C
:103C800019F0DF91CF9108958091D102811539F01B
:103C90008C859D850E94B91D0E94271DEBCF8EEF5C
:103CA0009FEFEFCFA8E0B0E0E8E5FEE10C94511FF4
:103CB0008C018091D102843059F5F801848995896D
:103CC000A689B789892B8A2B8B2B11F183858F705D
:103CD0008093E90088E0EAE2F1E0DE0111960190CC
:103CE0000D928A95E1F740E050E068E070E0CE0187
:103CF00001960E94BE1840E050E062E070E0C8010A
:103D000042960E94BE188091E8008E778093E8006A
:103D10002896E4E00C946D1F08950895CF93DF93E7
:103D2000EC018091E80083FF13C028818091D602C6
:103D30009091D7022817190659F48091D302823244
:103D400009F479C040F4803209F442C08132B1F004
:103D5000DF91CF9108958332D9F78091D2028132D9
:103D6000B9F78091E800877F8093E8000E94FE19F0
:103D70006091D402CE010E948D1EEACF8091D202C2
:103D8000813A31F78091E800877F8093E800809145
:103D9000E80080FFFCCF8C899D89AE89BF89809324
:103DA000F1009093F100A093F100B093F100888DA1
:103DB0008093F100898D8093F1008A8D8093F100CA
:103DC0008091E8008E778093E8000E94FE19C0CFB2
:103DD0008091D202813209F0BBCF8091E800877FC9
:103DE0008093E8008091E80082FF20C03091F100CC
:103DF0002091F1009091F1008091F1003C8B2D8B8E
:103E00009E8B8F8B8091F100888F8091F100898F3C
:103E10008091F1008A8F8091E8008B778093E80091
:103E20000E94FE19CE010E948C1E92CF8091D10279
:103E30008111D8CF8DCF8091D202813209F088CF05
:103E40008091E800877F8093E8000E94FE198091AE
:103E5000D4029091D502888B998BCE010E948C1E42
:103E600077CF992778E0880F991F961708F0961B4F
:103E7000881F7A95C9F780950895EE0FFF1F05906A
:103E8000F491E02D09942F923F924F925F926F929E
:103E90007F928F929F92AF92BF92CF92DF92EF92DA
:103EA000FF920F931F93CF93DF93CDB7DEB7CA1B5B
:103EB000DB0B0FB6F894DEBF0FBECDBF09942A8886
:103EC000398848885F846E847D848C849B84AA842E
:103ED000B984C884DF80EE80FD800C811B81AA81BB
:103EE000B981CE0FD11D0FB6F894DEBF0FBECDBF86
:103EF000ED010895FB01DC0104C08D910190801952
:103F000021F441505040C8F7881B990B0895FB01DC
:103F1000DC0102C001900D9241505040D8F7089545
:103F2000F999FECF92BD81BDF89A992780B5089581
:103F3000A8E1B0E042E050E00C94D41FDC01A40FF3
:103F4000B51F4150504048F0CB01840F951F2E9172
:103F50000E94AF1F41505040D0F70895262FF99985
:103F6000FECF92BD81BDF89A019700B4021639F0D8
:103F70001FBA20BD0FB6F894FA9AF99A0FBE0895A9
:103F80000396272F0E94AF1F0E94AE1F252F0E946D
:103F9000AF1F242F0C94AF1F0196272F0E94AF1F35
:103FA0000C94AE1FDC01CB01FC01F999FECF06C0D9
:103FB000F2BDE1BDF89A319600B40D9241505040E7
:103FC000B8F70895F894FFCFB3122413BB128512EB
:103FD0008912BF128D12C312CF1299121D139D1296
:103FE000D312A112D712FC12A512DB120313AB12CB
:103FF000E112E9129112C7129512CB12AF12E5121B
:10400000F3120C131B137F12B7122B13B913BF1328
:10401000A913B313C513CB13D113051C2B1C311CCF
:0E4020002B1C311C821CA41C311CF91C061D1B
:10402E005A027A020284100000010510000001837A
:10403E000800000100000000000000000000004C1D
:10404E001681167A164F16731601A1200000000075
:10405E0002000000000300000000711D2C1E000075
:10406E000000000300000000711D371E0000E2007A
:10407E00E900EA00B500B600B700CD008301CC0020
:10408E008A019201940121022302240225022602B2
:10409E0027022A02B300B4006F0070009F01CB010B
:1040AE009F02A002E200E900EA00B500B600B700E8
:1040BE00CD008301CC008A019201940121022302DA
:1040CE0024022502260227022A02B300B4006F0042
:1040DE0070009F01CB019F02A002F5F6F73133323B
:0A40EE00C697669490F491363435BD
:00000001FF
