:100000000C9435010C947C010C947C010C947C01C3
:100010000C947C010C947C010C947C010C947C016C
:100020000C947C010C947C010C946F1A0C94431B6F
:100030000C9438150C947C010C947C010C947C017C
:100040000C947C010C947C010C947C010C947C013C
:100050000C947C010C948F150C947C010C947C0105
:100060000C947C010C947C010C947C010C947C011C
:100070000C947C010C947C010C947C010C947C010C
:100080000C947C010C947C010C947C010C947C01FC
:100090000C947C010C947C010C947C010C947C01EC
:1000A0000C947C010C947C010C947C0114001A00CB
:1000B0000800150017001C0018000C0012001300A7
:1000C0002F0004001600070009000A000B000D00B5
:1000D0000E000F0033003400000000001E00060078
:1000E0001900110010001F0000000000000000D0E7
:1000F000D0D0D0D0D00101020408102041424448A1
:1001000048000000484850608182848890A0C1C2A5
:10011000C4D0D0D0D0D0D0C8000000000000000073
:1001200000000000000000000000000000001003BC
:10013000540068006500200055006E006900000052
:100140001E037300740065006E006F006B00650095
:10015000790062006F0061007200640073000000AB
:100160000403090409027800040100A0FA0904004C
:1001700000010301010009211101000122400007D3
:1001800005810308000A09040100010300000009B9
:100190002111010001223B000705820320000A080B
:1001A0000B02020202010009040200010202010026
:1001B0000524001001042402020524060203070599
:1001C00083030800FF09040300020A00000007057A
:1001D0000502100005070584021000051201100138
:1001E000EF02010800900100020001020001050178
:1001F0000906A1018505050719E029E71500250174
:100200009508750181020507190029EF15002501E0
:1002100095F07501810205081901290595057501FB
:100220009102950175039101C005010906A101051F
:100230000719E029E7150025019508750181029548
:1002400001750881010507190029FF150026FF0027
:1002500095067508810005081901290595057501A0
:100260009102950175039101C00011241FBECFEFCB
:10027000DAE0DEBFCDBF04B603FE27C080912C02BA
:1002800090912D02A0912E02B0912F028730904BB9
:10029000A740B04BD1F410922C0210922D02109274
:1002A0002E0210922F0214BE84B7877F84BF0FB630
:1002B000F894A89580916000886180936000109206
:1002C00060000FBEE0E0F8E3099511E0A0E0B1E0C6
:1002D000E8E1FEE302C005900D92AE33B107D9F715
:1002E00022E0AEE3B1E001C01D92AC32B207E1F70B
:1002F0000E94A1170C94E21E0C94000081E0089566
:10030000089581E008950C947E0108950C94850170
:100310001F93CF93DF9300D000D00F92CDB7DEB7FD
:1003200049835A836B8330916A0189819A813111A3
:100330001DC06623B9F02223A9F00E943212182FA3
:10034000682F89819A810E94DE1169817A81812FCB
:100350000F900F900F900F900F90DF91CF911F9102
:100360000C9440020E940A12182FEFCF0E94321202
:1003700069817A81EDCFFC01262F40815181628114
:10038000738184810C948801CF93DF93EC0160E04A
:100390000E94BB01BE01DF91CF910C9486010E94A7
:1003A000DE150E947E13811102C00E9422140C945B
:1003B00029040C942C0408950E94480D0E94DB012E
:1003C0002FEF84E39CE0215080409040E1F700C093
:1003D00000000C94B3150F931F93CF93DF93EC01A0
:1003E00061E00E94BB018C01BE010E948301882351
:1003F00059F1BE01C8010E949405882329F1BE016C
:10040000C8010E94FD068823F9F0BE01C8010E94C0
:100410004F078823C9F0BE01C8010E9472088823D3
:1004200099F08A81882339F001158CE5180751F07D
:100430000F3D1C4579F0CE01DF91CF911F910F91B7
:100440000C9481010E94DC0180E0DF91CF911F912B
:100450000F9108950E942214F7CF08950C942D0255
:1004600081E008950C943002CF93C82F0E942E0291
:100470008C2FCF910C94320290E080E00895089583
:10048000972F70E02BE0929F600D711D1124FB01EE
:1004900091E2899FE00DF11D1124EE0FFF1FE4553D
:1004A000FF4F859194910895FC01EE0FFF1FE251DB
:1004B000FF4F859194910895CF93DF930E9440025E
:1004C0000E944F03EC01811521E59207D0F58115BB
:1004D00030E5930708F096C081159042F8F4C115F5
:1004E00081E0D807B8F4C03ED10588F4C03CD105FE
:1004F00008F07BC0C130D10569F0209759F0CE01DA
:100500000497813A910530F0D0E0C0E003C0C83EC6
:10051000D105D0F7CE01DF91CF910895C11590E4B8
:10052000D90708F06CC0CE019F70C11520E3D20737
:1005300008F45EC0CE019927D3FF5EC0EC01D86CF1
:10054000E9CF811535E5930700F5811544E594075A
:1005500008F08DC0C11583E5D80708F074C0C11537
:1005600092E5D90708F46AC0CE018370992721E08B
:1005700030E002C0220F331F8A95E2F7C695C69578
:1005800080E2C89FE001112455C0811529E592073A
:10059000A0F4811538E5930708F06EC0811546E593
:1005A000940708F0B1CF0E94E603C82FD0E0DC2FFB
:1005B000CC27CC27DF71D062ADCFC1158AE5D80733
:1005C00008F45FC0CE0190568115904208F09CCF90
:1005D0008D2F8F710E94E60390E0982F882788273F
:1005E0009F719C012C2BE901E6CFCE01805C910923
:1005F0000E945402EC018ECFEC01D06C8BCFDF70E7
:10060000D06A88CFE4E096958795EA95E1F7837004
:100610002C2F26952695237040E2249F90011124CB
:10062000382B8C2F8370C1E0D0E002C0CC0FDD1FCF
:100630008A95E2F7C22BD32BDC686CCFDC2FCC275A
:10064000C16FD06A67CFCE018370992721E030E077
:1006500002C0220F331F8A95E2F7C695C69590E235
:10066000C99FE0011124C22BD32BDA6853CFD82FB6
:10067000CC27C46FD06A4ECFD82FCC27C06FD06A9A
:1006800049CF8C2F8F700E94E60334E0D695C79532
:100690003A95E1F7CF709C2FEC01D0693BCF8238BF
:1006A0009105B1F1B0F48133910509F475C048F4B6
:1006B0008932910509F469C08A32910509F473C041
:1006C00008958533910509F459C08933910501F1E5
:1006D0000895833E9105A9F138F4803E9105F9F023
:1006E000823E910549F10895863E9105A9F1873E24
:1006F0009105C9F1843E910519F520911E0221FF53
:100700001FC080911D0284FD14C087EE90E0089503
:1007100020911D022370A1F080EE90E008952091B9
:100720001D0220FD47C030911E0230FF09C024FF8A
:1007300044C090E080E004C020911D0222FDF7CF6C
:10074000089520911D0222FD3BC030911E0230FD14
:10075000E3CF24FFF5CFEDCF20911D0223FFF0CF93
:1007600024FDE7CFD2CF20911D0223FD2CC0309174
:100770001E0231FFEECF84EE90E0089520911D021D
:1007800025FFDECF89E290E0089520911D0225FF2C
:10079000D7CF85E390E0089520911D0226FFD0CFAA
:1007A0008AE290E0089520911D0226FFC9CF81E3DF
:1007B00090E0089589E390E0089583EE90E0089535
:1007C00082EE90E0089586EE90E0089590911D02EB
:1007D00092FF06C0282F28712830F9F4877F8460A3
:1007E00093FF06C0282F28712831F1F4877E846199
:1007F00020911E0220FF06C0382F38713830D9F4FE
:10080000877F816021FF06C0282F28712831D1F40D
:10081000877E816194FD877E0895282F247124307E
:10082000F9F68B7F8860DCCF282F2471243101F703
:100830008B7E8861DDCF382F3171313019F78E7F93
:100840008860E0CF282F2171213121F78E7E8861C9
:10085000E1CF0C94800108950C942B04E82FF0E074
:10086000EE0FFF1FED5EFD4F808191810895089589
:1008700080EA8A95F1F7089500C008950C94380431
:10088000F894E82FE295EF70F0E031A1282F2F7057
:1008900081E090E001C0880F2A95EAF7982F9095A3
:1008A000932391A392A1892B82A378940895CF9347
:1008B000DF9387E30E94400486E90E94400487E6B4
:1008C0000E944004C0E3D1E089910E94400481E08D
:1008D000CB33D807C9F710920E0210920D02109276
:1008E0001402109213021092100210920F02109232
:1008F000160210921502109212021092110210921A
:1009000018021092170283E00E940E05DF91CF912A
:100910000C94CF01AF92BF92CF92DF92EF92FF92F1
:100920000F931F93CF93DF930BE311E0CDE0D2E061
:10093000C12CD12CEE24E394F12CF80181918F018C
:10094000F894E82FE295EF70F0E021A18F70A701F5
:1009500002C0440F551F8A95E2F7CA01922F982BC7
:1009600091A392A18095892382A378940E943C044C
:10097000E0E3F1E030E020E0B12CA12C4191A42F84
:10098000A295AF70B0E090968C9190E04F7002C04D
:10099000959587954A95E2F780FD3BC0C701022EE9
:1009A00002C0880F991F0A94E2F7A82AB92A2F5F7C
:1009B0003F4F2B30310511F7F801319780810E94AC
:1009C000400452E0C5120E943E0488819981A81615
:1009D000B90611F1B982A88281E0D82AC39422967F
:1009E00083E0C812AACF2D2D43E063E172E08DE0D1
:1009F00092E00E940F050E94D9018D2DDF91CF91C9
:100A00001F910F91FF90EF90DF90CF90BF90AF902C
:100A1000089590E080E0C9CF80E0DFCF0895FF9295
:100A20000F931F93CF93DF93F82E092F162FD72FF5
:100A3000C42F222349F081E0809342010E9468156F
:100A40009093410180934001809142018823A1F05D
:100A500080914001909141010E948015069760F0BD
:100A6000EF2DF02FA12FBD2F90E080E0D0E08C176C
:100A70009D0744F010924201DF91CF911F910F9199
:100A8000FF900895219131912D933D930196EFCFE1
:100A900086E0EBE4F1E0DF01982F1D929A95E9F7EB
:100AA000E5E4F1E0DF011D928A95E9F70895CF931F
:100AB000DF9300D000D00F92CDB7DEB76B837C837D
:100AC0008D838C819D81892B21F0CA0189238F3FE1
:100AD00051F480E081700F900F900F900F900F9065
:100AE000DF91CF9108958B81F5CF0E947E13811104
:100AF00002C00E9422148DE090E00E94A01E80930C
:100B000043010895CF93C82F0E944805C093430125
:100B10006C2F8DE090E0CF910C94AE1E81E0089593
:100B200081E0089581E00895EF92FF920F931F9363
:100B3000CF93DF937C01EB0180E3E8168AE5F806AA
:100B4000E9F030F4C7019A558A97A0F1C1E01DC0C1
:100B5000F1E3EF16FAE5FF06C9F781E39AE50E9493
:100B60009205882389F0488159816A817B818C8133
:100B70000E945705882341F081E019C080E39AE57F
:100B80000E949205811109C0C0E08C2FDF91CF91A6
:100B90001F910F91FF90EF900895488159816A81CC
:100BA0007B818C810E945705882371F380E00E942D
:100BB0008205EACFC7010E949205882329F310918C
:100BC00043011123F9F0113009F445C000914401AB
:100BD00025E431E0412FBE01C7010E949005882322
:100BE00099F2488159816A817B818C810E945705E5
:100BF000C82F80914401CC2309F458C08F5F8093A3
:100C00004401C2CF488159816A817B818C810E94D5
:100C10005705F701FF27E251FF4F9491A92FA295A5
:100C2000A695A695A370B0E0882371F09D01255B81
:100C30003E4FF9018081892B8083AB5BBE4F8C9145
:100C4000E92FE82BEC93C2CFA55BBE4FE92FE095CF
:100C50008C91E823F7CF488159816A817B818C810F
:100C60000E945705482F8E2D67E00E948E1E292F67
:100C7000E82FF0E086E090E0821B910921E030E06F
:100C800001C0220F8A95EAF7DF01A55BBE4F8C9168
:100C9000442341F0822B8C93EB5BFE4F8081282B09
:100CA000208394CF209528232C9390CF8150181621
:100CB0000CF4A5CF1092440165E471E080914301EA
:100CC0000E948E05882331F080914301882329F00A
:100CD000813099F00E94480558CF05E411E0F801F1
:100CE00081918F0181110E946417F1E009341F077F
:100CF000B1F780E00E946417EDCF809145018068D4
:100D00008093450105E411E08BE4E82E81E0F82EA4
:100D1000F80181918F010E946417E016F106C1F776
:100D2000D9CF0F931F93CF93DF93C42FD22FFC0102
:100D300082818823C9F0409353010E9468159093E3
:100D400052018093510180E28C0F883008F050C02E
:100D5000C77081E001C0880FCA95EAF7DF91CF9193
:100D60001F910F910C94020B10915301141335C075
:100D700080915101909152010E948015883C91050B
:100D800060F5C0E2CD0F1D17B9F080E2810F883009
:100D900040F4177081E001C0880F1A95EAF70E94AD
:100DA000090BC83048F481E09D2F977001C0880F6F
:100DB0009A95EAF70E94020B802F0E94FA0AC83027
:100DC000B8F4D77081E001C0880FDA95EAF7DF91B7
:100DD000CF911F910F910C94090B80E28C0F8830FA
:100DE00038F4C77081E001C0880FCA95EAF7EFCFE9
:100DF000DF91CF911F910F9108950F939C01CB012B
:100E0000243F4CE5340759F1A8F4293DFCE53F07A0
:100E100001F12A3D4CE53407D1F1283D3C4591F4E0
:100E200006E221EE41EE68ED7CE50E94910680E04D
:100E30000F910895263FFCE53F07E9F0B0F0273F0A
:100E40003C45F9F0FC018281882339F1109253016D
:100E5000EFCF07E225EE45EE69ED7CE5E6CF06E251
:100E600021EE40EE64EF7CE5E0CF07E225EE44EEB4
:100E700065EF7CE5DACF06E221EE42EE66EF7CE537
:100E8000D4CF07E225EE46EE67EF7CE5CECF08E251
:100E900021E045EE6AED7CE5C8CF81E0C9CFCF9374
:100EA000DF93EC01FB018281882309F419C1C23070
:100EB000FCE5DF07C0F1C6319CE5D90730F09E01A3
:100EC0002B5F3C452930310570F50E9491139093BA
:100ED0001E0280931D02C031ECE5DE0709F4CFC08D
:100EE00008F05BC0C8308CE5D80709F4B6C088F5B7
:100EF000C430ECE5DE0709F4A8C0C0F4C2308CE5CC
:100F0000D80709F49CC080911D028260C330DC4583
:100F100009F498C080911D0290911E020E949F13B7
:100F20000E94480D80E0DF91CF91089580911D02CD
:100F30008061C630ECE5DE0709F484C080911D02B3
:100F40008860C730DC4508F47DC080911D02806256
:100F500079C0CC308CE5D80709F489C070F4809151
:100F60001D028C60CA30ECE5DE0709F46BC008F4A2
:100F700078C080911D028E7F65C0CE308CE5D80789
:100F800009F479C080911D028B7FCF30DC4508F4D5
:100F900059C080911D028F7E55C0CC3FECE5DE0725
:100FA00009F457C030F5C3318CE5D80709F46FC098
:100FB00078F4C131ECE5DE0709F465C0C231DC45E7
:100FC00009F0A8CF0E94480D80911D028F773AC08A
:100FD000C5318CE5D80709F462C008F476C0809169
:100FE0001E028160CB3FDC4509F094CF80931E0246
:100FF00091CFC115FDE5DF0709F44DC088F480915C
:101000001E028D7FCE3F9CE5D90781F380911E02A1
:101010008E7FCF3FDC4550F380911E028360E6CF88
:10102000C230FDE5DF0709F459C008F444C080E090
:10103000C330DD4509F06ECF0E9424146BCF809140
:101040001D02816080931D0265CF80911D02846026
:10105000F9CF80911E028260C9CF80911D02806409
:10106000F1CF0E94480D80911D028068EBCF8091E6
:101070001D028D7FE7CF80911D02877FE3CF809196
:101080001D028F7DDFCF80911D028F7BDBCF809192
:101090001D02837FD7CF80911E028C7FA7CF8091C6
:1010A0001D0282FB992790F921E0922790FB82F99B
:1010B00090FB83F9C7CF80911E02982F9095917075
:1010C0008E7F892B90FB81F991CF0E94480D9091E2
:1010D0001D02892F97FB87F98058B4CF81E0ACCFF0
:1010E00081E021CFCF93DF93EB0186319C4511F551
:1010F0000E94C7129A81992399F08A7A91E009F4A3
:1011000090E090935401811109C089E20E94A212DB
:101110000E94131380E0DF91CF91089585E3F6CF0D
:1011200080915401811104C089E20E94A912F0CF7C
:1011300085E3FBCF81E0EFCF90935A018093590173
:101140000895E0915901F0915A01309721F00190F2
:10115000F081E02D099480E00895E0915901F0912B
:101160005A01309799F020912701222359F02091BC
:101170001D0227FF07C0DC012C9111962C931197BB
:1011800025E02C930280F381E02D099408952091AD
:101190005701309158012817390771F09093580181
:1011A00080935701E0915901F0915A01309721F055
:1011B0000680F781E02D0994089520915501309122
:1011C00056012817390771F0909356018093550105
:1011D000E0915901F0915A01309721F00084F18596
:1011E000E02D099408950E94741560936601709330
:1011F0006701809368019093690160936201709325
:1012000063018093640190936501089585B78068B8
:1012100085BF85B7806885BF0895089508950C94AB
:101220000D0908950C9411090E94060986E793E1BF
:101230000E94D7150E940E090C940F0981E00895B1
:101240000C941E09089508950E945F150E9457048A
:101250000E94F2150E947505EDE1F2E08081806840
:10126000808380911D0290911E020E949F130C9416
:1012700012098F929F92AF92BF92CF92DF92EF921C
:10128000FF920F931F93CF93DF93CDB7DEB72A97CB
:101290000FB6F894DEBF0FBECDBF0E9422090E9498
:1012A00023090E948A0481110E94F3085CE5852EBF
:1012B00051E0952E10E000E0A02E802F0E942E0419
:1012C0006C01F401E190F1904F01E816F90609F480
:1012D0005AC08091E90181FD0E943704C7018C2525
:1012E0009D25B12CEE24E394F12C9C012E213F216D
:1012F000232B09F442C00E9420098823A9F0BE8252
:10130000AF82CE20DF2081E0CD2809F480E08887FD
:101310000E9468158160782F9A8789874E815F8146
:1013200068858A850E94ED09000F111FF801E45AB3
:10133000FE4F80819181E826F926F182E0820E94A9
:10134000A10890915B018917A9F10E94A1088093DF
:101350005B012A960FB6F894DEBF0FBECDBFDF91BA
:10136000CF911F910F91FF90EF90DF90CF90BF90A2
:10137000AF909F908F900C943402B394EE0CFF1CAE
:10138000FBE0BF12B2CF0F5F1F4F0330110509F012
:1013900093CF8FEF89838A831B820E9468158160B7
:1013A000782F9D838C8349815A816B818D810E9426
:1013B000ED09C5CF2A960FB6F894DEBF0FBECDBF9C
:1013C000DF91CF911F910F91FF90EF90DF90CF9021
:1013D000BF90AF909F908F900895DF92EF92FF9211
:1013E0000F931F93CF93DF93CDB7DEB72B970FB635
:1013F000F894DEBF0FBECDBF7A878B87F42E052F02
:10140000162FE72ED82E61110E94E7121E821D8230
:101410007E2DEC82DD824F2D502F612F8D2D9E81F0
:101420002B960FB6F894DEBF0FBECDBFDF91CF91E4
:101430001F910F91FF90EF90DF900C94BE0FFC0175
:10144000808191810C947412CF93C82F882309F462
:1014500069C08238C1F40E94A10881FD63C089E39C
:101460000E94A2120E9413132FEF81EE94E02150EC
:1014700080409040E1F700C0000089E30E94A9127B
:10148000CF910C9413138338A1F40E94A10880FD1E
:1014900049C083E50E94A2120E9413132FEF81EE30
:1014A00094E0215080409040E1F700C0000083E5C7
:1014B000E5CF8438A1F40E94A10882FD33C087E4FF
:1014C0000E94A2120E9413132FEF81EE94E021508C
:1014D00080409040E1F700C0000087E4CFCF8CEF60
:1014E0008C0F813A90F46C2F809100019091010152
:1014F0000E943D14882329F08C2F0E94A9120E947B
:1015000013138C2F0E94A212BBCF80E28C0F883065
:1015100048F4C77081E001C0880FCA95EAF70E94BD
:10152000CA12AECFCF910895882309F44BC08238F8
:1015300071F40E94A10881FF45C089E30E94A212B4
:101540000E94131389E30E94A9120C941313833889
:1015500059F40E94A10880FF35C083E50E94A212C1
:101560000E94131383E5EFCF843859F40E94A10839
:1015700082FF28C087E40E94A2120E94131387E40E
:10158000E2CF9CEF980F913AF0F290E2980F9830EA
:1015900050F4877091E001C0990F8A95EAF7892F7E
:1015A0000E94D012D2CF9BE5980F933020F490E0A8
:1015B00080E00C94C708885A873120F490E080E0DE
:1015C0000C94DD0808951F93CF93DF93182FEB0140
:1015D0000E94240A209731F4812FDF91CF911F912F
:1015E0000C94940A8FE99FE00197F1F700C0000086
:1015F0002197F0CF70E060E0893311F460E570E08E
:101600000C94E30A882321F00E94CA120C9413134D
:101610000895882321F00E94D0120C94131308958A
:10162000BF92CF92DF92EF92FF920F931F93CF93CF
:10163000DF936C01D62FC72FFC0102811581129513
:101640001F700E94C012E82E8823A1F0E02E002314
:1016500089F08C2F807F803429F080E28D0FE12C7F
:10166000883040F082E00E945E130E94C01291E038
:10167000E82EE926BC2EB2949FE0B922EB2DF0E0D3
:10168000EC51F14E0C949A1E1C2F1F70C07F11F06C
:101690001295107F0023A9F0112359F080E28D0FDD
:1016A000883010F0D11109C0812F0E94CA120E9407
:1016B00013138D2F0E94240A14C0812F0E94DA1266
:1016C000F6CF8D2F0E94940A112359F080E28D0FDE
:1016D000883010F0D1112CC0812F0E94D0120E94AE
:1016E00013132B2D2850330B2430310520F40E9486
:1016F000A1080E943402EE2009F477C10E94BC12B6
:1017000080FD73C1F60112820E94B6120E9442113E
:10171000C6010E94160D0E94B612DF91CF911F9153
:101720000F91FF90EF90DF90CF90BF900C946311DA
:10173000812F0E94E012D3CFFC2FFF70FF2EC07FBD
:10174000C03219F0F29480EFF822DD2369F0D13035
:1017500049F1002391F1112351F1F601858180FFB8
:10176000A8CF8F70858323C0002381F0111106C09C
:101770000E94FA128F290E94020BB3CF1130C1F7D9
:101780000E94FA128F290E940013ABCF111106C0DC
:101790000E9409138F2D0E94090BA3CF113009F469
:1017A000A0CFF6CF002329F0163008F09ACF8F2D66
:1017B000E2CF153008F095CFEDCF112359F3D9338F
:1017C00049F4FFEF27EE33E0F15020403040E1F7DD
:1017D00000C000008D2F0E94940A83CF8C2F83704D
:1017E00009F041C001117DCF4D2F429546954770BC
:1017F000440F440F0D2F0F7010E030E020E0042E56
:1018000004C0000F111F221F331F0A94D2F760E09B
:1018100070E0CB01D4FF0FC06FE070E080E090E09B
:1018200004C0660F771F881F991F4A95D2F76095ED
:10183000709580959095C695C695C370602B712B59
:10184000822B932BC23049F058F4C13019F00E941A
:10185000F41047CF0E94E21044CF0E94061141CFFE
:101860000E94E0103ECF8695002311F08C2F8170EE
:10187000882309F436CF4D2F429546954770440F83
:10188000440F0D2F0F7010E030E020E0042E04C054
:10189000000F111F221F331F0A94D2F760E070E07F
:1018A000CB01D4FF0FC06FE070E080E090E004C097
:1018B000660F771F881F991F4A95D2F7609570951C
:1018C00080959095C695C695C370602B712B822B21
:1018D000932BC23049F058F4C13019F00E94B9116D
:1018E00000CF0E94A711FDCE0E94CB11FACE0E941C
:1018F0001C11F7CECF70002329F08C2F0E944211CB
:101900008D2F39CF8D2F0E94090B8C2F0E946311D0
:10191000E8CED23F89F160F4D03FC9F0D13F29F140
:10192000002309F442C01111C4CE8C2F8F7121C045
:10193000D33F39F1D43FA1F7002369F1CF718C2F48
:101940000E94421163E08C2F0E944913CACE0023EB
:1019500041F0153008F0C5CE8C2F8F710E94861192
:10196000C0CE163008F0BDCEF7CF8C2F8F7100237C
:1019700069F20E944211B5CE8C2F8F710023C9F3FA
:10198000C5CF002329F08C2F8F710E942D11A9CE75
:101990000E942811A6CE81E00E945E13123008F446
:1019A000A0CE82E00E945E139CCE112359F0D93361
:1019B00009F010CF8FEF97EEE3E081509040E040C8
:1019C000E1F706CF8C2F8F71A1CF4C2F4F706D2F69
:1019D000C6010E943C020E94581083CE4C2F4F70CB
:1019E0006D2FC6010E943F027CCEDF91CF911F91E7
:1019F0000F91FF90EF90DF90CF90BF9008950F93DD
:101A00001F93CF93DF93EC01688179818A810E94D3
:101A10007E128C010E94DD110E94DF10B801CE0100
:101A2000DF91CF911F910F910C94100BCF93DF9307
:101A3000EC018B819C81892B29F0888199818923F4
:101A40008F3F59F4DF91CF910895CE010E94FF0C92
:101A5000CE01DF91CF910C94C401CE010E94EB0125
:101A60008111F3CF0E94C012882361F38A818823F9
:101A700049F382E0DF91CF910C945E130E94E7124C
:101A80000E94F7120C9413130E94B0120C943E0D96
:101A90000E94D7120C94440DE92FE295EF70E250AA
:101AA000EE3070F4F0E0EC50F14E0C949A1E803F52
:101AB00019F020F4883E20F481E00895843FE1F39A
:101AC00080E00895883EC0F3813FD1F7F5CF93FBC6
:101AD000882780F908950E9474120C944C0DCF93BE
:101AE000DF9300D000D00F92CDB7DEB70F900F90EC
:101AF0000F900F900F90DF91CF910895CF93DF93C8
:101B000000D000D000D0CDB7DEB726960FB6F8943F
:101B1000DEBF0FBECDBFDF91CF9108951F93CF934E
:101B2000DF93C0916B0116E080916C018C1304C0AF
:101B3000DF91CF911F910895D0E01C9FF0011D9F70
:101B4000F00D1124E359FE4F408151816281738170
:101B5000848195810E947E0D2196C770E5CF4091CA
:101B60009D0150919E0160919F017091A001809113
:101B7000A1019091A2010C947E0D1F93CF93DF934E
:101B80008091A201807FA9F480919F01882389F030
:101B900080916B01C0916C0160919D0170919E01DB
:101BA000A091A001B091A101D62FD72316E0C813B0
:101BB00004C0DF91CF911F91089590E0109711F02C
:101BC000DF3F19F401968770F2CF189F9001199F9B
:101BD000300D1124F901E359FE4F41814713F2CF33
:101BE00040814613EFCF42814111ECCF43815481B4
:101BF0004A1B5B0B483C510528F78091A2018F706E
:101C000080618093A201F901EE58FE4F80818F70B0
:101C1000806180838DE991E00E94160DDF91CF9164
:101C20001F910C948E0DAF92BF92CF92DF92EF92E4
:101C3000FF920F931F93CF93DF93CDB7DEB76197DA
:101C40000FB6F894DEBF0FBECDBF8C0185E0F80162
:101C5000DE011D9601900D928A95E1F7F801408111
:101C60005181E2808DE9C82E81E0D82E6091A001DB
:101C70007091A1016115710509F461C190919D01F7
:101C800020919E01892F82238F3F09F458C1A380A0
:101C9000B480F0909F01F501E61BF70BFF2009F4DB
:101CA000FCC08091A201382F307FE83CF10508F09C
:101CB000B2C0311179C0FE2C251323C0941321C06A
:101CC000E1101FC08F7080618093A2010E94AF0D50
:101CD000C6010E94160D8091A201F80185838F2D07
:101CE00061960FB6F894DEBF0FBECDBFDF91CF91E6
:101CF0001F910F91FF90EF90DF90CF90BF90AF902A
:101D00000895AB2829F0842F85238F3F09F033C134
:101D100080E0F82FF170DF2E80FF3CC080916B01D6
:101D200020916C0136E0821315C04D875E878D854A
:101D30009E850E947412292F22952F702230F0F078
:101D4000243018F59F70F1F0F8019581907FD1F45F
:101D5000D12C1EC090E0389FF001399FF00D112466
:101D6000E359FE4F6181651306C06081641303C0AF
:101D700062816E110FC001968770D5CF9F7011F0F0
:101D8000882331F3805E883018F3C8010E94160D55
:101D9000FD2CA5CFEE2009F4A2CF8091A201816095
:101DA0008093A201F12C9BCF251306C0941304C08D
:101DB000F801EE2009F48DC04D875E878D859E85E4
:101DC0000E946B0D882319F1EE2009F18091A20188
:101DD000803270F020919D0130919E0138872F83D1
:101DE0001986BB86AA868C87CE0107960E94160D9F
:101DF00086E0F801ADE9B1E001900D928A95E1F736
:101E00000E94BD0D0E94AF0DFF24F39468CFC8015E
:101E10000E94160DF9CF311113C07A2DB98AA88A04
:101E20006E2D89890E946F0D8DE991E00E94160D3B
:101E300086E0F60111928A95E9F70E94AF0DB2CFC4
:101E400025130FC094130DC0E1100BC0F80185835A
:101E5000C8010E94160D86E0F60111928A95E9F7F5
:101E60003ECF4D875E878D859E850E946B0D8823B2
:101E700071F2EE2061F28091A201803208F4B8CFB5
:101E800020919D0130919E013A8329831B82BD825E
:101E9000AC828E83CE010196A9CFE83CF10508F013
:101EA00041C0FE2CEE2009F4B2CF25132AC09413B2
:101EB00028C08091A20180FD1BC0982F907FC1F0A7
:101EC000F8018583903F31F0982F907F905F8F705D
:101ED000892B8583C8010E94160D86E0F801ADE9C3
:101EE000B1E001900D928A95E1F70E94AF0DF7CE17
:101EF00086E0F801ADE9B1E001900D928A95E1F735
:101F0000EECE4D875E878D859E850E946B0D81117B
:101F10006FCF8091A20181608093A201C8010E94CD
:101F2000160DDDCE7A2DB98AA88A6E2D89890E9478
:101F30006F0D86E0F60111928A95E9F7D6CFEE2073
:101F400009F465CF4D875E878D859E850E946B0D58
:101F5000F82E882309F45BCF86E0F801ADE9B1E003
:101F600001900D928A95E1F78DE991E00E941F0A98
:101F70000E94BD0DBACF81E08E25CBCE1F93CF93AB
:101F8000DF93CDB7DEB72C970FB6F894DEBF0FBE48
:101F9000CDBF4F83588769877A878B879C87CE010F
:101FA00007960E94130E882369F08A859B85892BEA
:101FB00039F04F815885842F85238F3F09F071C0F8
:101FC00016E05FC086E0FE013796DE0111960190B3
:101FD0000D928A95E1F78A859B85892B89F38F81FC
:101FE000988589238F3F61F320916C0130E0C9010E
:101FF00001968770992740916B014817190671F473
:102000000E94480D10926C0110926B0186E0EDE980
:10201000F1E0DF011D928A95E9F7D2CF96E0929F19
:10202000D001939FB00D1124A359BE4FFE013196EC
:1020300001900D929A95E1F780936C010E948E0DAC
:10204000BFCF819FC001112483599E4F0E94130E60
:102050008823E9F0E0916B011E9FF0011124E35900
:10206000FE4F4081518162817381848195810E94FC
:102070007E0D80916B0190E0019687709927809387
:102080006B0180916B0190916C018913DACF2C96D2
:102090000FB6F894DEBF0FBECDBFDF91CF911F9179
:1020A000089569857A858B859C850E947E0D88CFF1
:1020B000EF92FF920F931F93CF93DF938C01892BA5
:1020C00081F0F12CEE24E394E8012196F80184914B
:1020D000843770F4843008F05FC08130B1F0823012
:1020E000A1F1DF91CF911F910F91FF90EF90089593
:1020F000853709F44CC008F43DC09CE7980F903731
:1021000080F78F770E94940A49C00E5F1F4FFE012F
:10211000849190E2980F983060F48770FE2D01C092
:10212000FF0F8A95EAF78F2F0E94EA120E9413137D
:1021300002C00E94240A8F2D815030F2EFE9FFE0A7
:102140003197F1F700C00000F7CF0E5F1F4FFE017F
:10215000849190E2980F983050F48770FE2D01C062
:10216000FF0F8A95EAF78F2F0E94F012DFCF0E94AF
:10217000940AE1CF0E5F1F4FFE01C491C150D8F207
:102180008FE99FE00197F1F700C00000F7CF0E5FE5
:102190001F4FFE01F490CFCF0E94240A8E01CBCFB7
:1021A00008950C94D0100E94D1106093C0017093D8
:1021B000C1018093C2019093C3010C943E0D089518
:1021C0000C94D3100F931F930091C0011091C10183
:1021D0002091C2013091C301602B712B822B932B74
:1021E0001F910F910C94D3100F931F930091C00176
:1021F0001091C1012091C2013091C301602371236C
:10220000822393231F910F910C94D3100F931F934C
:102210000091C0011091C1012091C2013091C30110
:1022200060277127822793271F910F910C94D31059
:102230000C94D0100C9418110E941A116093BC01D8
:102240007093BD018093BE019093BF010C943E0D2D
:1022500060E070E0CB010C941C110F931F9341E0E0
:1022600050E060E070E08A019B0104C0000F111F84
:10227000221F331F8A95D2F7C901B8011F910F9110
:102280000C941C110F931F9341E050E060E070E04C
:1022900004C0440F551F661F771F8A95D2F780919F
:1022A000BC019091BD01A091BE01B091BF018A0116
:1022B0009B01082B192B2A2B3B2BC901B8011F911D
:1022C0000F910C941C110F931F9341E050E060E0BC
:1022D00070E004C0440F551F661F771F8A95D2F720
:1022E000CB01BA0160957095809590950091BC01E5
:1022F0001091BD012091BE013091BF016023712377
:10230000822393231F910F910C941C110F931F9301
:1023100041E050E060E070E004C0440F551F661FCC
:10232000771F8A95D2F78091BC019091BD01A09151
:10233000BE01B091BF018A019B01082719272A27F6
:102340003B27C901B8011F910F910C941C110F93E9
:102350001F930091BC011091BD012091BE013091ED
:10236000BF01602B712B822B932B1F910F910C942B
:102370001C110F931F930091BC011091BD0120917E
:10238000BE013091BF0160237123822393231F91EB
:102390000F910C941C110F931F930091BC0110918D
:1023A000BD012091BE013091BF01602771278227B6
:1023B00093271F910F910C941C1108952BE0929F6D
:1023C000800D1124982F977041E001C0440F9A9519
:1023D000EAF786958695869595E0899FF001112408
:1023E000ED55FE4F90E080E070E05191DF011197D4
:1023F0009B01082E02C0369527950A94E2F72170BA
:1024000021952527242325272C9301968530910596
:1024100061F708952BE0929F800D1124982F9770FB
:1024200086958695869525E0829FF0011124ED55CD
:10243000FE4F50E040E080E0219130E0092E02C0E4
:10244000369527950A94E2F721703327042E01C0B0
:10245000220F0A94EAF7822B4F5F5F4F45305105F8
:1024600059F70895BF92CF92DF92EF92FF920F93A8
:102470001F93CF93DF938C01C090BC01D090BD011E
:10248000E090BE01F090BF018091C0019091C10128
:10249000A091C201B091C301C82AD92AEA2AFB2A15
:1024A000CFE1D0E0BC2ED701C6010C2E04C0B695FA
:1024B000A795979587950A94D2F780FD0EC021972E
:1024C00088F7B12C8B2DDF91CF911F910F91FF9049
:1024D000EF90DF90CF90BF900895B8018C2F0E94AD
:1024E0005C02019761F3EECFCF93DF93EC010E9482
:1024F0003212BE01DF91CF910C945C021F93CF93F7
:10250000DF93EB0190916A01992331F0CB01DF91C8
:10251000CF911F910C947412882379F0CB010E9403
:102520003212182F682FCE010E94DE11BE01812FBA
:10253000DF91CF911F910C945C02CB010E940A1293
:10254000182FF4CF682F80910001909101010C9415
:10255000BD14682F80910001909101010C94C81462
:1025600080910001909101010C94D3148091C401D9
:1025700085958595859508958091C4018770089506
:102580009091C401977081E009F480E008958091F2
:10259000E80108959091E801892B8093E80108955E
:1025A00080959091E80198239093E8010895109206
:1025B000E80108959091E701892B8093E701089540
:1025C00080959091E70198239093E70108951092E8
:1025D000E70108959091E601892B8093E601089523
:1025E00080959091E60198239093E60108951092CA
:1025F000E60108958091C501089508950C94FD1297
:102600009091C501981721F08093C5010C94FE129A
:1026100008958091C501882329F01092C50180E0BA
:102620000C94FE120895E0910001F0910101809157
:10263000E8018083E0910001F09101018081909197
:10264000E701892B8083E0910001F09101018081F5
:102650009091E601892B80839091C501992381F0A7
:10266000E0910001F09101018081892B80838091AC
:102670000001909101010E94291481110E94091307
:1026800080910001909101010C94AD0808950C9483
:10269000461398E0899F90011124622B6093C40136
:1026A0000E9442118091C4018595859585950C9471
:1026B00047131092C40180E00C9447139091C40119
:1026C000809589238093C401282F277071F4282FC7
:1026D000082E000C330B9217130639F0859585955B
:1026E00085950E9463110C945913089580E0089514
:1026F0006FEF7FEF90E080E00C94CC1E90E080E0E4
:102700000E94A81E21E08B3E9E4F09F020E0822F00
:10271000089582E090E00C94A01E83E090E00C9479
:10272000A01ECF9384E090E00E94A01EC82F81E2FB
:1027300090E00E94A01E982F8C2FCF910895CF93E8
:10274000C92F682F84E090E00E94AE1E6C2F81E2BA
:1027500090E0CF910C94AE1EAB01BC018FE090E0F5
:102760000C94C01EAB01BC0183E190E00C94C01E30
:1027700060E070E0CB010C94B21360E070E0CB013C
:102780000E94AC130C94B8136BEE7EEF90E080E0E7
:102790000E94CC1E60E082E090E00E94AE1E60E0ED
:1027A00083E090E00E94AE1E1092C0011092C10121
:1027B0001092C2011092C30160E084E090E00E9498
:1027C000AE1E60E081E290E00E94AE1E60E085E017
:1027D00090E00E94AE1E60E086E090E00E94AE1E97
:1027E0006FEF87E090E00E94AE1E40E050E0BA013B
:1027F00088E090E00E94C01E60E08DE090E00E94C2
:10280000AE1E40E050E0BA0188E190E00E94C01E98
:1028100060E087E190E00E94AE1E40E050E0BA0127
:102820008CE190E00E94C01E60E080E290E00E9497
:10283000AE1E40E050E0BA0188E190E00E94C01E68
:102840000C94BD130C94C413682F8EE090E00C948C
:10285000AE1EFC01329680912701882321F08091E1
:102860001D029EE187FF96E080E0915008F40895F4
:1028700021912223D1F38F5FF8CF662301F12091BC
:1028800027012223F1F020911D0227FF1AC0462FB5
:102890004695469546954E3190F4677021E030E0BC
:1028A00002C0220F331F6A95E2F7840F911DFC01CD
:1028B000828190E02823392381E0232B69F480E092
:1028C0000895FC01329608962191261721F0E81709
:1028D000F907D1F7F4CF81E008959C01FC0132960D
:1028E0009FEF80E04191461751F09F3F19F441114D
:1028F00001C0982F8F5F8630A9F79F3F09F4089594
:10290000290F311D97FD3A95F90162830895FC0165
:10291000329608962191261303C0DF0111971C926D
:10292000E817F907B9F70895E62FE695E695E695D5
:10293000EE3168F4E80FF92FF11D677021E030E007
:1029400001C0220F6A95EAF78281822B8283089563
:10295000E62FE695E695E695EE3170F4E80FF92F4F
:10296000F11D677021E030E001C0220F6A95EAF79F
:1029700020958281282322830895209127012223F4
:1029800029F020911D0227FD0C9494140C946D14D1
:1029900020912701222329F020911D0227FD0C946C
:1029A000A8140C948714FC01329680912701882387
:1029B00051F080911D0287FF06C08EE1DF011D925C
:1029C0008A95E9F7089586E0F9CF089508950C9463
:1029D000E61480912302843049F10E94E71480E0DC
:1029E0000E9434021092EA0188E190E020E40FB6E0
:1029F000F894A895809360000FBE2093600083B781
:102A0000817F846083BF83B7816083BF789488951A
:102A100083B78E7F83BF0FB6F894A895809160002E
:102A2000886180936000109260000FBE0895089541
:102A3000CF930E94E5140E948A040E941715C0E0FB
:102A40008C2F0E942E04892B31F4CF5FC330C1F745
:102A500080E0CF91089581E0FCCF08950C942D156E
:102A60000E94480D0E94A1080E9434020C942E1569
:102A70001F921FB61F9211248F939F93AF93BF9302
:102A80008091EA01811113C08091190290911A027C
:102A9000A0911B02B0911C024196A11DB11D809313
:102AA000190290931A02A0931B02B0931C02BF91CB
:102AB000AF919F918F911F901FBE1F90189582E03C
:102AC00084BD93E095BD9AEF97BD80936E00089505
:102AD0002FB7F8948091190290911A02A0911B02CD
:102AE000B0911C022FBF08952FB7F894609119027E
:102AF00070911A0280911B0290911C022FBF0895C1
:102B00009C014FB7F8948091190290911A02A091FC
:102B10001B02B0911C024FBF821B930B0895789447
:102B20001F921FB61F9211248F939F93AF93BF9351
:102B30008091190290911A02A0911B02B0911C027F
:102B40000196A11DB11D8093190290931A02A093C2
:102B50001B02B0931C02BF91AF919F918F911F9068
:102B60001FBE1F90189581E08093E00080E2809363
:102B7000D8001092C9008FE19EE40197F1F700C0E0
:102B8000000087E090EBDC0180932C0290932D02F3
:102B9000A0932E02B0932F0288E19CE00FB6F89428
:102BA000A895809360000FBE90936000FFCF909334
:102BB0003F0180933E0108950C9478130E948A048B
:102BC0008FE39CE90197F1F700C000000E948A049E
:102BD00080E00E942E0480FF04C00E94DC150C944B
:102BE000B31508950E947E13811102C00E94221421
:102BF0000E9489138093E9010E94911390931E0211
:102C000080931D020E948D13682F70E090E080E099
:102C10000E94E0106091BC017091BD018091BE01E5
:102C20009091BF010C941A1180910B0208950895A0
:102C30000895CF93DF93EC01809127018823B1F1B0
:102C400080911D0287FF32C060E282E08093E9003C
:102C50008FEF9091E800815095FD06C095ED9A9513
:102C6000F1F700008111F5CF8091E80085FF1BC0CE
:102C70008091270170E050E040E0811104C050E0F5
:102C800040E068E070E0CE010E9464188091E800A6
:102C90008E778093E80080E2FE01ABEEB1E0019018
:102CA0000D928A95E1F7DF91CF91089568E081E078
:102CB000CDCF089580912202811109C00E94F4199C
:102CC0000E94511A8091E20084608093E20008958E
:102CD00010922202089508950895089542E061EC4B
:102CE00081E00E94701942E261EC82E00E9470195A
:102CF00042E061EC83E00E94701942E160E885E007
:102D00000E94701942E161E884E00C94701980918E
:102D10002502833009F460C048F48130C9F1823063
:102D200009F4A2C082E091E00C94DC1D8A3009F421
:102D30008AC08B3009F46DC08930A1F780912402DC
:102D4000813281F78091280290912902029750F7F1
:102D50008091E800877F8093E8008091E80082FFFF
:102D600036C09091F3008091F200029729F480918F
:102D7000F1008B7F813021F48091F10080930B0270
:102D80008091E8008B778093E8000E94A419CACF55
:102D900080912402813A31F68091E800877F809308
:102DA000E8008091280290912902892B61F460E269
:102DB0008BEE91E070E00E94B3188091E8008B7771
:102DC0008093E800AFCF60E090E080E0F3CF8091A7
:102DD00023028111C2CF089580912402813A09F023
:102DE000A1CF8091280290912902892B09F09ACFD6
:102DF0008091E800877F8093E8008091E80080FF61
:102E0000FCCF809127018093F1008091E8008E77BC
:102E1000BACF80912402813209F084CF80912802B8
:102E200090912902892B09F07DCF8091E800877F5E
:102E30008093E8000E94A4198091260280932701C4
:102E40000E94480D6FCF80912402813209F06ACF31
:102E50008091E800877F8093E8000E94A419809108
:102E6000270280930C025ECF80912402813A09F000
:102E700059CF8091E800877F8093E8008091E80037
:102E800080FFFCCF80910C02BECF82E090E0909357
:102E900015018093140182E091E00C94931D089534
:102EA000CF93DF9382E091E00E943A1DEC012097DE
:102EB00019F4DF91CF91089582E091E00E94631DA3
:102EC0000E944F172197F3CFCF93C091E900209133
:102ED000EC00922F917020FD90E82091120120FFCC
:102EE00012C0CF70C92B909103019F709093E9009D
:102EF0009091EB0090FF04C09091EE0097FD05C00B
:102F0000CF70C093E900CF9108959FEF2091E80022
:102F1000915025FD06C025ED2A95F1F7000091118D
:102F2000F5CF8093F10082E091E00E94F51C809142
:102F3000E80080FFE5CF8091E8008E778093E8007D
:102F4000DFCF84B7877F84BF0FB6F894A8958091B0
:102F50006000886180936000109260000FBE80E87E
:102F600090E00FB6F89480936100909361000FBEDB
:102F70000E9414090E94F4190E94511A8091E200E3
:102F800084608093E20078940E94DA1C0E942409F5
:102F90008DE191E00E949C080E94451780912302D8
:102FA0008530D9F00E9439090E94501782E091E0E3
:102FB0000E94231D0E9422090E942309EFCF0E9434
:102FC000E91480912102882341F00E94181588237A
:102FD00021F00E944E180E94480D809123028530F6
:102FE00071F30E943015DECF0C94F617292F33278A
:102FF0002330310519F168F42130310509F444C05A
:103000002230310509F445C090E080E030E020E056
:1030100025C02132310549F122323105A9F780E47A
:1030200090E029E232E061157105C1F08BE390E098
:103030002EEE31E06130710589F0E6CF99278130BD
:10304000910581F0009729F00297F1F6EEE2F1E0A8
:1030500002C0E0E6F1E0849190E09F01FA01318343
:1030600020830895E0E4F1E0F6CF89E090E026E7E0
:1030700031E06115710591F389E090E02FE831E0CE
:103080006130710559F3C0CF82E190E02CED31E061
:10309000E5CF88E790E024E631E0E0CF80E189BD2C
:1030A00082E189BD09B400FEFDCF8091D8008F7DFB
:1030B0008093D8008091E00082608093E00080914E
:1030C000E00081FDFCCF0895AF92BF92CF92DF92D6
:1030D000FF920F931F93CF93DF936C01EB018A0153
:1030E0000E94C319F82E811123C00115110539F072
:1030F000F80180819181C81BD90BC80ED91EB12C53
:10310000A12C2097A9F08091E80085FD22C0809134
:10311000E8008E778093E80001151105A1F0F80111
:1031200080819181A80EB91EB182A08285E0F82E1F
:103130008F2DDF91CF911F910F91FF90DF90CF9056
:10314000BF90AF9008950E94C3198823D1F2F82E42
:10315000EFCFF60181916F018093F1002197FFEF8E
:10316000AF1ABF0ACECFFC0180912A0290912B02A8
:1031700086179707A0F06115710529F49091E80072
:103180009E779093E80090E06115710551F49111DC
:1031900008C08091E80082FF34C080E00895BC013F
:1031A000F2CF809123028823C1F18530C1F1809153
:1031B000E80083FD30C08091E80082FDEACF809175
:1031C000E80080FFE1CF8091F3002091F200382FDA
:1031D0006115710519F02830310558F091E028305B
:1031E000310509F090E02091E8002E772093E80067
:1031F000CBCF81918093F100615071092F5F3F4FD8
:10320000E7CF80912302882341F0853041F08091FF
:10321000E80083FFBECF81E0089582E0089583E057
:103220000895FC0180912A0290912B02861797073E
:10323000A0F06115710529F48091E8008E778093E4
:10324000E80090E06115710551F4911108C080917A
:10325000E80082FF35C080E00895BC01F2CF809184
:1032600023028823C9F18530C9F18091E80083FDEC
:1032700031C08091E80082FDEACF8091E80080FFB4
:10328000E1CF8091F3002091F200382F6115710594
:1032900019F02830310558F091E02830310509F057
:1032A00090E08091E8008E778093E800CBCF849106
:1032B0008093F1003196615071092F5F3F4FE6CF47
:1032C00080912302882341F0853041F08091E8000D
:1032D00083FFBDCF81E0089582E0089583E00895E3
:1032E000982F973028F08F708093E90081E008953F
:1032F0009093E900242F762F50E0981731F07091C9
:10330000EC002091ED005091F00021FD02C09F5F84
:10331000E8CF3091EB003E7F3093EB003091ED0031
:103320003D7F3093ED003091EB0031603093EB0046
:103330007093EC002093ED005093F0002091EE008C
:1033400027FDE5CF80E008958091240287FF13C018
:103350008091E80082FF06C08091E8008B7780931F
:10336000E80004C0809123028111F2CF089580917A
:1033700023028823D9F38091E80080FFF8CF809161
:10338000E8008E77ECCF2091E4003091E50095E6DF
:10339000A9012091EC00822F817020FF06C080914E
:1033A000E80080FF06C080E008952091E80022FD3B
:1033B0001AC080912302882389F0853089F080919A
:1033C000EB0085FD0FC02091E4003091E50042172D
:1033D0005307F9F29150E1F684E0089582E00895F0
:1033E00083E0089581E008950E94621A0E946A1A9B
:1033F000E0EEF0E0808181608083E8EDF0E08081A4
:103400008F77808319BCA7EDB0E08C918E7F8C9371
:1034100080818F7E80831092220208950F931F93E4
:10342000CF93DF930E94621A0E946A1AC8EDD0E01F
:1034300088818F77888388818068888388818F7D61
:10344000888319BC1092230210921F02109221024D
:103450001092200200EE10E0F80180818B7F8083C3
:1034600088818160888342E060E080E00E9470197A
:10347000E1EEF0E080818E7F8083E2EEF0E08081FB
:1034800081608083808188608083F80180818E7F65
:103490008083888180618883DF91CF911F910F9114
:1034A0000895E8EDF0E080818F7E8083E7EDF0E025
:1034B00080818160808384E082BF81E080932202EA
:1034C0000C940E1AE8EDF0E080818E7F80831092DC
:1034D000E20008951092DA001092E10008951F9220
:1034E0000F920FB60F9211242F933F934F935F9338
:1034F0006F937F938F939F93AF93BF93EF93FF93BC
:103500008091E10082FF0BC08091E20082FF07C042
:103510008091E1008B7F8093E1000E94D91C809113
:10352000DA0080FF19C08091D80080FF15C080911B
:10353000DA008E7F8093DA008091D90080FF96C0F8
:1035400080E189BD82E189BD09B400FEFDCF81E043
:10355000809323020E945A168091E10080FF19C0D7
:103560008091E20080FF15C08091E2008E7F809301
:10357000E2008091E20080618093E2008091D800B7
:1035800080628093D80019BC85E0809323020E945A
:103590006C168091E10084FF2BC08091E20084FFD3
:1035A00027C080E189BD82E189BD89B5982F9170DE
:1035B00080FFFBCF8091D8008F7D8093D8008091D1
:1035C000E1008F7E8093E1008091E2008F7E809306
:1035D000E2008091E20081608093E20080911F020E
:1035E000882309F449C084E0809323020E946D1669
:1035F0008091E10083FF29C08091E20083FF25C014
:103600008091E100877F8093E10082E08093230234
:1036100010921F028091E1008E7F8093E1008091E3
:10362000E2008E7F8093E2008091E20080618093CF
:10363000E20042E060E080E00E9470198091F000BA
:1036400088608093F0000E946B16FF91EF91BF910C
:10365000AF919F918F917F916F915F914F913F912A
:103660002F910F900FBE0F901F90189519BC1092BC
:1036700023020E94681670CF8091E30087FD93E0DB
:1036800090932302B3CF1F920F920FB60F92112483
:103690002F933F934F935F936F937F938F939F935A
:1036A000AF93BF93CF93DF93EF93FF93D091E90054
:1036B000DF708091EC00C82FC17080FDC0E81092CF
:1036C000E9008091F000877F8093F00078940E9459
:1036D000871B1092E9008091F00088608093F000D1
:1036E000CD2BCF70C093E900FF91EF91DF91CF9187
:1036F000BF91AF919F918F917F916F915F914F910A
:103700003F912F910F900FBE0F901F9018951F9310
:10371000CF93DF93CDB7DEB7AA970FB6F894DEBF8D
:103720000FBECDBF84E292E02091F100FC01219315
:10373000CF01F2E08C329F07B9F70E948716809183
:10374000E80083FF1EC180912402909125029A30E7
:1037500008F017C1E92FF0E0EE5FF04E0C949A1ECE
:10376000803899F0823809F00CC1809128028F705E
:10377000873008F006C18093E9008091EB0085FB5B
:10378000882780F91092E90006C08091200290916C
:103790002102911182609091E800977F9093E80058
:1037A0008093F1001092F1008091E8008E77E5C0DF
:1037B000882309F4D3C0823009F0E3C08091260247
:1037C0008111D6C0809128028F702FEF280F2630EC
:1037D00008F0D7C08093E9002091EB0020FFC8C01B
:1037E000933031F48091EB0080628093EB00C0C095
:1037F0009091EB0090619093EB0021E030E001C0EC
:10380000220F8A95EAF72093EA001092EA0080914D
:10381000EB008860EACF8111B4C0109126021F77B7
:103820008091E3008078812B8093E3008091E80011
:10383000877F8093E8000E94A4198091E80080FFB0
:10384000FCCF8091E30080688093E30082E0111157
:1038500083E08093230295C08058823008F091C0A5
:1038600080912602909127028C3D23E09207A1F5DA
:1038700083E08A838AE289834FB7F894DE01139646
:1038800020E03EE051E2E32FF0E050935700E49156
:1038900020FF03C0E295EF703F5FEF708E2F90E046
:1038A000EA30C0F0C7968D939D932F5F243159F76E
:1038B0004FBF8091E800877F8093E8006AE270E064
:1038C000CE0101960E94B3188091E8008B77809317
:1038D000E80057C0C096E7CF609128027091290296
:1038E000AE014F5F5F4F0E94F417BC01892B09F4B2
:1038F00048C09091E800977F9093E80089819A8171
:103900000E941119E1CF8038E1F58091E800877FAE
:103910008093E80080911F028093F10045CF8111D0
:1039200030C090912602923060F58091E800877F48
:103930008093E80090931F020E94A41980911F02B7
:10394000882311F084E005C08091E30087FDFACF61
:1039500081E0809323020E946E1613C0809126029C
:10396000813079F481E0933009F080E08093210286
:103970001092E9008091E800877F8093E8000E9420
:10398000A4198091E80083FF0AC08091E800877F36
:103990008093E8008091EB0080628093EB00AA9610
:1039A0000FB6F894DEBF0FBECDBFDF91CF911F9150
:1039B00008950895CF93809123028823A1F0C091A8
:1039C000E900CF709091EC00892F817090FD80E824
:1039D000C82B1092E9008091E80083FD0E94871BAC
:1039E000CF70C093E900CF91089520912302243035
:1039F00041F5FC014489558966897789452B462B19
:103A0000472BF9F081818F708093E9009091F3004A
:103A10008091F200892B11F480E008959091E800E4
:103A20008091E8008E778093E80095FDF5CF0E94A5
:103A3000C319811107C09091E8009E779093E80028
:103A4000089582E0089520912302243091F4FC012E
:103A50004489558966897789452B462B472B49F040
:103A600021812F702093E9002091E80020FD0C9423
:103A7000F51C089520912302243019F090E080E095
:103A80000895FC014489558966897789452B462B21
:103A9000472BA1F386818F708093E9008091E80025
:103AA00082FFECCF9091F3008091F200009731F407
:103AB0002091E8002B772093E80008959091F3007F
:103AC0008091F200089520912302243019F08FEFA5
:103AD0009FEF0895FC014489558966897789452BB4
:103AE000462B472BA1F386818F708093E90080914C
:103AF000E80082FFECCF9091F3008091F200892BD7
:103B000079F08091F10090E03091F3002091F20083
:103B1000232B29F42091E8002B772093E8000895C7
:103B20008FEF9FEFF1CF0F931F93CF93DF93CDB71D
:103B3000DEB728970FB6F894DEBF0FBECDBF8C015D
:103B400080912302843059F5F80184899589A689EA
:103B5000B789892B8A2B8B2B11F183858F708093EA
:103B6000E90088E0E8E2F1E0DE01119601900D92B3
:103B70008A95E1F750E040E068E070E0CE01019600
:103B80000E94641850E040E062E070E0C801429694
:103B90000E9464188091E8008E778093E800289650
:103BA0000FB6F894DEBF0FBECDBFDF91CF911F914E
:103BB0000F91089508950895CF93DF93EC018091BC
:103BC000E80083FF10C0288180912802909129028B
:103BD0002817190641F4809125028132F1F030F462
:103BE000803209F450C0DF91CF910895823209F4F8
:103BF0007EC08332C1F7809124028132A1F7809187
:103C0000E800877F8093E8000E94A4196091260253
:103C1000CE01DF91CF910C94DB1D80912402813A7B
:103C200011F78091E800877F8093E8008091E80099
:103C300080FFFCCF8C899D89AE89BF898093F1007C
:103C4000492F5A2F6B2F77274093F100AD0166273C
:103C500077274093F1008B2F9927AA27BB278093C2
:103C6000F100888D8093F100898D8093F1008A8D19
:103C70008093F1008091E8008E778093E800DF91D7
:103C8000CF910C94A41980912402813209F0ABCF1A
:103C90008091E800877F8093E8008091E80082FFB0
:103CA00021C03091F1002091F1009091F1008091BC
:103CB000F1003C8B2D8B9E8B8F8B8091F100888F38
:103CC0008091F100898F8091F1008A8F8091E800C6
:103CD0008B778093E8000E94A419CE01DF91CF91E9
:103CE0000C94DA1D809123028111D7CF7CCF809173
:103CF0002402813209F077CF8091E800877F80939A
:103D0000E8000E94A4198091260290912702998BC5
:103D1000888BCE01DF91CF910C94DA1D991B79E04D
:103D200004C0991F961708F0961B881F7A95C9F74B
:103D300080950895EE0FFF1F0590F491E02D0994F2
:103D4000F999FECF92BD81BDF89A992780B5089563
:103D5000A8E1B0E042E050E00C94D41E262FF9997F
:103D6000FECF92BD81BDF89A019700B4021639F0DA
:103D70001FBA20BD0FB6F894FA9AF99A0FBE0895AB
:103D80000396272F0E94AF1E0E94AE1E252F0E9471
:103D9000AF1E242F0C94AF1E0196272F0E94AF1E3A
:103DA0000C94AE1EDC01CB01FC01F999FECF06C0DC
:103DB000F2BDE1BDF89A319600B40D9241505040E9
:103DC000B8F70895F894FFCF440B440B9C0B9C0B61
:103DD000710B710B710B710BEE0B7A0C890C890C4A
:103DE000E50C710B710BEE0C570D570D600D600D4E
:103DF000620D600D600D600D570D570D670D600D64
:103E0000600D670DB01BD81BC11CD81BC11C0B1C3F
:083E10002C1CC11C831C8F1C3B
:103E1800C60102841000000105100000018308009B
:103E28000001000000000000000000000014161946
:103E38001617161816591601A120000000000200D6
:0E3E4800F0F1F4F5F695939291909437966709
:00000001FF
