:100000000C9456010C948E010C948E010C948E016C
:100010000C948E010C948E010C948E010C948E0124
:100020000C948E010C948E010C94B8190C948C1ABB
:100030000C945E140C948E010C948E010C948E0121
:100040000C948E010C948E010C948E010C948E01F4
:100050000C948E010C94E5140C948E010C948E017A
:100060000C948E010C948E010C948E010C948E01D4
:100070000C948E010C948E010C948E010C948E01C4
:100080000C948E010C948E010C948E010C948E01B4
:100090000C948E010C948E010C948E010C948E01A4
:1000A0000C948E010C948E010C948E01C774C9744B
:1000B000CB74CD74D174D674DA74DC74DE74E074ED
:1000C000E274C874CA74CC74CE74D274D774DB74FE
:1000D000DD74DF74E174E974000000002152CF7414
:1000E000D074D874D974C2740000000000000000FD
:1000F0000000000000000000000000000000000000
:1001000000000000E100E000E200E3002C00AA0093
:100110005000510052004F00A900000000000100F3
:10012000C17400000000000000000000000000009A
:1001300000D0D0D0D0D0D00101020408102041421C
:10014000444848000000484850608182848890A05C
:10015000C1C2C4D0D0D0D0D0D0C8000000000000B0
:10016000000000000000000000000000000000008F
:100170001003540068006500200055006E006900FF
:1001800000001E037300740065006E006F006B00BA
:100190006500790062006F00610072006400730006
:1001A00000000403090409027800040100A0FA0910
:1001B0000400000103010100092111010001224096
:1001C0000007058103080001090401000103000084
:1001D00000092111010001223B00070582032000D4
:1001E00001080B02020202010009040200010202DE
:1001F0000100052400100104240202052406020364
:10020000070583030800FF09040300020A00000039
:1002100007050502100005070584021000051201FC
:100220000002EF020108009001000300010200013A
:1002300005010906A1018506050719E029E7150052
:1002400025019508750181020507190029EF1500A0
:10025000250195F07501810205081901290595050B
:1002600075019102950175039101C005010906A16F
:1002700001050719E029E715002501950875018199
:10028000029501750881010507190029FF1500264F
:10029000FF009506750881000508190129059505D7
:1002A00075019102950175039101C00011241FBED3
:1002B000CFEFDAE0DEBFCDBF04B603FE18C08091F9
:1002C0003D0290913E02A0913F02B09140028730E2
:1002D000904BA740B04B59F410923D0210923E0251
:1002E00010923F0210924002E0E0F8E3099511E01D
:1002F000A0E0B1E0EAE3FDE302C005900D92AC336B
:10030000B107D9F722E0ACE3B1E001C01D92AD33F3
:10031000B207E1F70E943F100C945C1E0C940000A1
:1003200080E00E94971008958230B8F46330A8F4FA
:100330004B3098F450E09BE0699F400D511D112413
:10034000FA0191E2899FE00DF11D1124EE0FFF1FCC
:10035000E455FF4F85919491089580E090E00895D1
:100360000E949401089581E0089581E008950E941B
:10037000B501089508950E94BA010895A5E0B0E07E
:10038000E4ECF1E00C94DC1D49835A833091430185
:1003900089819A81311119C0662399F0222389F04D
:1003A0000E945807182F682F89819A810E9434076C
:1003B00069817A81812F0E94B20D2596E3E00C9429
:1003C000F81D0E944607182FF3CF0E945807698135
:1003D0007A81F1CFFC01262F4081518162817381A6
:1003E00084810E94BE01089581E00895CF93DF9338
:1003F000EC0160E00E94EA01BE010E94BB01DF91B6
:10040000CF9108950E94E30E08950E94E70E08958B
:1004100008950E9403060E9408022FEF84E39CE0E7
:10042000215080409040E1F700C0000008950E94F4
:1004300009020E94091508950E9409020E942D15C3
:1004400008950F931F93CF93DF938C0161E00E9477
:10045000EA01EC01B8010E94B701811106C080E0F9
:10046000DF91CF911F910F910895B801CE010E94A5
:10047000AA108823A1F3B801CE010E94E1128823BB
:1004800071F3B801CE010E947711882341F3B801BE
:10049000CE010E945312882311F3F8018281882330
:1004A00061F0C330FCE7DF07E9F058F4C115ECE771
:1004B000DE07A9F0C130DC47B9F0C8010E94B301E2
:1004C000CFCFCB358CE7D807A9F0CC35ECE7DE07EA
:1004D00071F0CA35DC4789F70E945A0BEECF0E94B3
:1004E0001702BDCF0E94620B0E941C02B8CF0E946F
:1004F000500BE3CF0E945E0BE0CF0E943A140E94A3
:10050000A70208950E94AB020E943F140895089527
:100510000E948702089581E008950895CF93DF93A4
:10052000D82F0E948B02C82F882319F08D2F0E948C
:100530008D028C2FDF91CF9108950895CF93C82F0E
:100540000E9488028C2F0E948E02CF91089580E035
:100550000E949E0208950E942F130E949E020895F9
:10056000CF930E942F13C82F80913E018C1779F0F2
:10057000C0933E010E94CA1460933F0170934001F2
:1005800080934101909342018C2F0E949E02CF9153
:100590000895ABE0B0E0EFECF2E00C94DD1D4F838A
:1005A000588769877A878B8761110E949B0A1E8210
:1005B0001D8285E0FE013796DE01119601900D92B5
:1005C0008A95E1F78C819D81892B61F449815A815B
:1005D0006B817C818D819E810E94C4092B96E2E013
:1005E0000C94F91D89819A8189238F3F79F3CE017B
:1005F00001960E94F4018111E9CFF0CFFC018081C6
:1006000091810E948A070895CF93C82F8823C9F04B
:100610008238C9F40E942F1381FD13C089E30E9420
:10062000530A0E94BC0A2FEF87EE93E021508040CE
:100630009040E1F700C0000089E30E945B0A0E943D
:10064000BC0ACF9108958338A1F40E942F1380FD36
:10065000F8CF83E50E94530A0E94BC0A2FEF81EE77
:1006600094E0215080409040E1F700C0000083E515
:10067000E4CF8438A1F40E942F1382FDE2CF87E4F7
:100680000E94530A0E94BC0A2FEF81EE94E0215091
:1006900080409040E1F700C0000087E4CECF8CEFAF
:1006A0008C0F813A90F46C2F8091000190910101A0
:1006B0000E946A13882329F08C2F0E945B0A0E94F3
:1006C000BC0A8C2F0E94530ABACF80E28C0F88306C
:1006D00008F0B7CFC77081E001C0880FCA95EAF76C
:1006E0000E947E0AACCF882381F0823879F40E9480
:1006F0002F1381FF0AC089E30E94530A0E94BC0A9B
:1007000089E30E945B0A0E94BC0A0895833859F469
:100710000E942F1380FFF9CF83E50E94530A0E94A5
:10072000BC0A83E5EECF843859F40E942F1382FF70
:10073000ECCF87E40E94530A0E94BC0A87E4E1CF11
:100740009CEF980F913AE8F290E2980F9830E8F613
:10075000877091E001C0990F8A95EAF7892F0E946E
:10076000840AD1CF1F93CF93DF93182FEB010E9400
:100770000403209739F4812F0E947303DF91CF91F6
:100780001F9108958FE99FE00197F1F700C00000E5
:100790002197EFCF70E060E0893311F460E570E0FD
:1007A0000E94B2030895882321F00E947E0A0E94CD
:1007B000BC0A0895882321F00E94840A0E94BC0A82
:1007C0000895B0E0A0E0E7EEF3E00C94D61D6C01D4
:1007D000D62FC72FFC011281F580F2949FE0F922F9
:1007E0000E94740AE82E8823B9F0E12E1123A1F0AB
:1007F0008C2F807F803421F080E28D0F8830D0F004
:1008000080911F0282FF16C082E00E941F0B0E948F
:10081000740A91E0E82EE926BC2EB2948FE0B8224B
:10082000FBE0FB1508F468C0EB2DF0E0E25AF14E56
:100830000C94C71DE12CF0CF0C2F0F70C07F11F06E
:100840000295007F112399F0002359F080E28D0F6B
:10085000883010F0D11107C0802F0E947E0A0E94BC
:10086000BC0A8D2F41C0802F0E948E0AF8CF8D2F99
:100870000E947303002309F43FC080E28D0F88308B
:1008800010F0D11104C0802F0E94840A03C0802F71
:100890000E94940A0E94BC0A2FC00C2F0F70C07FC8
:1008A000C03211F00295007FDD2381F0D13009F4D0
:1008B00068C0112309F472C0FF2009F468C0F60172
:1008C000858180FFCECF8F70858361C080911F02AC
:1008D00082FD33C0112359F0002329F0802F0E949C
:1008E0007E0A0E94BC0A80E00E94040305C080E0EA
:1008F0000E9473030111C7CFEB2DE850FF0B349713
:1009000020F40E942F130E949E02EE2089F00E9484
:10091000700A80FD0DC0F60112820E946A0A0E94D0
:100920009206C6010E94CF050E946A0A0E94A20692
:10093000CDB7DEB7E9E00C94F21D112389F0F11078
:1009400006C00E949E0A802B0E94D303D5CF21E0CF
:10095000F212F7CF0E949E0A802B0E94A50ACCCFEC
:10096000F11006C00E94B20A802F0E94DA03C4CFA1
:1009700031E0F31609F2802F0E94DA030E94B20AD6
:10098000BBCF112331F085E08F1508F4B5CF802F50
:10099000DBCF94E09F1508F4AFCFE6CFFF2021F323
:1009A000D93349F4FFEF27EE33E0F15020403040D7
:1009B000E1F700C000008D2F0E9473039DCF8C2FA4
:1009C0008370A1F5111198CF4D2F42954695477030
:1009D000440F440F2D2F2F7030E0042E02C0220F41
:1009E000331F0A94E2F790E080E0D4FF09C08FE063
:1009F00090E002C0880F991F4A95E2F78095909584
:100A0000C695C695C370822B932BC23049F058F41B
:100A1000C13019F00E9462066FCF0E9459066CCF58
:100A20000E946B0669CF0E94560666CF86951123F9
:100A300011F08C2F8170882309F45ECF4D2F4295E1
:100A400046954770440F440F2D2F2F7030E0042E31
:100A500002C0220F331F0A94E2F790E080E0D4FF37
:100A600009C08FE090E002C0880F991F4A95E2F715
:100A700080959095C695C695C370822B932BC230F6
:100A800049F058F4C13019F00E94CD0635CF0E94CC
:100A9000C40632CF0E94D6062FCF0E947A062CCFF2
:100AA000CF70112329F08C2F0E9492068D2F4CCFEE
:100AB0008D2F0E94DA038C2F0E94A2061DCFD23FF9
:100AC00051F160F4D03FB9F0D13F81F0112309F426
:100AD00049C0F110C6CE8C2F8F7121C0D33F11F1C8
:100AE000D43FA1F780911F0282FD26C08C2F8F7109
:100AF000112311F314C0112349F084E08F1508F479
:100B0000FBCE8C2F8F710E94B406F6CE95E09F1518
:100B100008F4F2CEF6CF8C2F8F711111CDCF0E9439
:100B20009206EACE112329F08C2F8F710E9486063F
:100B3000E3CE0E948106E0CE112349F0CF718C2FC5
:100B40000E94920663E08C2F0E94010BD5CE81E0BB
:100B50000E941F0BE1E0EF1508F0CECE82E00E946C
:100B60001F0BCACEF1101CCF8C2F8F71A5CF0F9306
:100B70001F93CF93DF93EC01688179818A810E9472
:100B800095078C010E94DF060E945506B801CE0130
:100B90000E94E103DF91CF911F910F910895CF93B0
:100BA000DF93EC018B819C81892B29F088819981CD
:100BB00089238F3F51F4DF91CF910895CE010E9498
:100BC000B705CE010E94F601F6CFCE010E942102A8
:100BD0008111F4CF0E94740A882369F38A818823E3
:100BE00051F380911F0282FFE6CF82E00E941F0B2B
:100BF000E2CF0E949B0A0E94BC0A08950E94630AE9
:100C00000E94F90508950E948B0A0E94FE0508952E
:100C100092959F70963091F058F4925F9F70923049
:100C200058F4803F19F030F4883E30F481E00895A4
:100C30009A5FF4CF843FD1F380E00895883EB0F30B
:100C4000813FD1F7F3CFFC0183819481892B29F077
:100C50008081918189238F3F11F480E00895808104
:100C600091810E948A070E9408060895A5E0B0E0DD
:100C7000ECE3F6E00C94DD1D2596E2E00C94F91D02
:100C8000A6E0B0E0E6E4F6E00C94DD1D2696E2E096
:100C90000C94F91D08950E944A0608950E944B067F
:100CA00090935B0180935A01089508950E944E0627
:100CB000089520915A0130915B01822B932B0E9461
:100CC0004E06089520915A0130915B0182239323AF
:100CD0000E944E06089520915A0130915B018227AF
:100CE00093270E944E0608950E944A0608950E9486
:100CF000740608950E9477069093590180935801D5
:100D0000089590E080E00E947A06089521E030E0A6
:100D1000A90102C0440F551F8A95E2F7CA010E943B
:100D20007A06089521E030E002C0220F331F8A9531
:100D3000E2F78091580190915901822B932B0E94E8
:100D40007A06089521E030E002C0220F331F8A9511
:100D5000E2F72095309580915801909159018223B6
:100D600093230E947A06089521E030E002C0220F0A
:100D7000331F8A95E2F7809158019091590182279B
:100D800093270E947A0608952091580130915901C5
:100D9000822B932B0E947A0608952091580130915E
:100DA0005901822393230E947A06089520915801C5
:100DB00030915901822793270E947A060895089559
:100DC000262F277091E001C0990F2A95EAF723E0BA
:100DD000769567952A95E1F7660F771F660F771F5F
:100DE000FA01E60FF71F50E040E0682F70E08191B4
:100DF000DF0111979B01042E02C0369527950A94B6
:100E0000E2F7217021952827292328272C934F5F6B
:100E10005F4F4430510559F70895A82FA77023E07C
:100E2000969587952A95E1F7880F991F880F991F46
:100E3000FB01E80FF91F50E040E080E0219130E035
:100E40000A2E02C0369527950A94E2F721703327BF
:100E5000042E01C0220F0A94EAF7822B4F5F5F4FE6
:100E60004430510559F70895262F933070F48B3094
:100E700060F4682F70E08BE0989F600D711D112465
:100E800044E451E0822F0E94E0060895292F933018
:100E900068F48B3058F490E064E471E03BE0239F09
:100EA000800D911D11240E940D07089580E0089582
:100EB000B0E0A0E0EEE5F7E00C94D61D7C010091D7
:100EC00058011091590180915A0190915B01082BB2
:100ED000192BCFE0D0E0CC24C394D12CBC2EC6017A
:100EE0000C2E02C0880F991F0A94E2F780239123E9
:100EF000892B49F4219790F7B12C8B2DCDB7DEB714
:100F0000E9E00C94F21DB7018C2F0E94BE0D0197F1
:100F100089F3F3CFCF93DF93EC010E945807BE0112
:100F20000E94BE0DDF91CF9108951F93CF93DF9361
:100F3000EB0190914301992339F0CB010E948A077C
:100F4000DF91CF911F910895882369F0CB010E9412
:100F50005807182F682FCE010E943407BE01812F39
:100F60000E94BE0DEDCFCB010E944607182FF6CF91
:100F70001F93CF93DF93C0915C0116E080915D01D8
:100F80008C1304C0DF91CF911F910895D0E01C9F76
:100F9000F0011D9FF00D1124E25AFE4F4081518156
:100FA00062817381848195810E9440062196C77079
:100FB000E5CF40918E0150918F0160919001709129
:100FC000910180919201909193010E9440060895B1
:100FD0001F93CF93DF9380919301807F09F049C0E5
:100FE00080919001882309F444C080915C01C091F4
:100FF0005D0160918E0170918F01A0919101B0917E
:101000009201D62FD72316E0C81799F190E01097D8
:1010100011F0DF3F19F401968770F6CF189F900109
:10102000199F300D1124F901E25AFE4F41814713F7
:10103000F2CF40814613EFCF42814111ECCF438183
:1010400054814A1B5B0B483C510528F78091930162
:101050008F70806180939301F901ED59FE4F80817B
:101060008F70806180838EE891E00E94CF050E949E
:10107000B807DF91CF911F910895A1E1B0E0E3E4BB
:10108000F8E00C94D51D8C0185E0F801DE011D9679
:1010900001900D928A95E1F7F801E2808EE8C82E62
:1010A00081E0D82E609191017091920161157105D6
:1010B00009F44EC190918E0120918F01892F8223D6
:1010C0008F3F09F445C140815181A380B480F090E5
:1010D0009001F501E61BF70BFF2009F4EAC08091AF
:1010E0009301382F307FE83CF10508F0A3C031119F
:1010F0006DC0FE2C251316C0941314C0E11012C04D
:101100008F708061809393010E94D907C6010E946D
:10111000CF0580919301F80185838F2D6196EAE0D8
:101120000C94F11DA114B10429F0842F85238F3F65
:1011300009F027C180E0F82FF170DF2E80FF3CC05E
:1011400080915C0120915D0136E0821315C04D87CE
:101150005E878D859E850E948A07292F22952F7094
:101160002230F0F0243018F59F70F1F0F8019581ED
:10117000907FD1F4D12C1EC090E0389FF001399FB0
:10118000F00D1124E25AFE4F6181651306C06081A3
:10119000641303C06281E6120FC001968770D5CF39
:1011A0009F7011F0882331F3805E883018F3C801F6
:1011B0000E94CF05FD2CB1CFEE2009F4AECF809177
:1011C0009301816080939301F12CA7CF251306C072
:1011D000941304C0F801EE2009F487C0C8010E94EE
:1011E0002306882319F1EE2009F1809193018032C2
:1011F00070F020918E0130918F0138872F831986EE
:10120000BB86AA868C87CE0107960E94CF0586E012
:10121000F801AEE8B1E001900D928A95E1F70E94E5
:10122000E8070E94D907FF24F39477CFC8010E94F2
:10123000CF05F9CF311113C07A2DB98AA88A6E2D46
:1012400089890E9436068EE891E00E94CF0586E0EB
:10125000F60111928A95E9F70E94D907B5CF2513B7
:101260000FC094130DC0E1100BC0F8018583C801B5
:101270000E94CF0586E0F60111928A95E9F74DCFDD
:10128000C8010E942306882389F2EE2079F280911A
:101290009301803208F4BBCF20918E0130918F01F1
:1012A0003A8329831B82BD82AC828E83CE01019654
:1012B000ACCFE83CF10508F03EC0FE2CEE2009F46E
:1012C000B5CF25132AC0941328C08091930180FDC7
:1012D0001BC0982F907FC1F0F8018583903F31F0BB
:1012E000982F907F905F8F70892B8583C8010E9413
:1012F000CF0586E0F801AEE8B1E001900D928A9545
:10130000E1F70E94D90709CF86E0F801AEE8B1E025
:1013100001900D928A95E1F700CFC8010E94230643
:10132000811175CF80919301816080939301C801F1
:101330000E94CF05F2CE7A2DB98AA88A6E2D8989AE
:101340000E94360686E0F60111928A95E9F7D9CF18
:10135000EE2009F46BCFC8010E942306F82E8823E3
:1013600009F464CF86E0F801AEE8B1E001900D9297
:101370008A95E1F78EE891E00E94FE020E94E8075C
:10138000C0CF81E08E25D7CEACE0B0E0EAECF9E04A
:101390000C94DC1D4F83588769877A878B879C87DD
:1013A000CE0107960E943D08882369F08A859B85B7
:1013B000892B39F04F815885842F85238F3F09F081
:1013C0006BC016E05FC086E0FE013796DE01119625
:1013D00001900D928A95E1F78A859B85892B89F387
:1013E0008F81988589238F3F61F320915D0130E0E3
:1013F000C90101968770992740915C014817190629
:1014000071F40E94030610925D0110925C0186E067
:10141000EEE8F1E0DF011D928A95E9F7D2CF96E080
:10142000929FD001939FB00D1124A25ABE4FFE018E
:10143000319601900D929A95E1F780935D010E949B
:10144000B807BFCF819FC0011124825A9E4F0E94CE
:101450003D088823E9F0E0915C011E9FF001112412
:10146000E25AFE4F4081518162817381848195816E
:101470000E94400680915C0190E001968770992758
:1014800080935C0180915C0190915D018913DACFBA
:101490002C96E3E00C94F81D69857A858B859C85F4
:1014A0000E9440068ECF682F80910001909101012B
:1014B0000E94EA130895682F809100019091010124
:1014C0000E94F813089580910001909101010E94FB
:1014D000061408958091B4018595859585950895A4
:1014E0008091B401877008959091B401977081E064
:1014F00009F480E008958091D70108959091D70173
:10150000892B8093D701089580959091D7019823D6
:101510009093D70108951092D70108959091D60124
:10152000892B8093D601089580959091D6019823B8
:101530009093D60108951092D60108958091B50137
:10154000089508950E94A10A089590911F0292FFA4
:1015500008C09091B501981721F08093B5010E94C1
:10156000A20A08958091B501882329F01092B5014F
:1015700080E00E94A20A0895CF93DF93E0910001DA
:10158000F09101018091D7018083E0910001F091F9
:10159000010180819091D601892B80839091B501C2
:1015A000992381F0E0910001F09101018081892B64
:1015B000808380910001909101010E945613811156
:1015C0000E94B20AC0910001D091010140E250E0B6
:1015D00064E971E0CE010E94041E892B59F080E27B
:1015E000FE01A4E9B1E001900D928A95E1F7CE01E8
:1015F0000E943C13DF91CF91089508950E94FD0A47
:10160000089590911F0292FF11C098E0899F900168
:101610001124622B6093B4010E9492068091B40160
:101620008595859585950E94FE0A08950E949206EB
:1016300008951092B40180E00E94FE0A08959091EE
:10164000B401809589238093B401282F277091F4E9
:10165000282F082E000C330B9217130659F0909187
:101660001F0292FF07C08595859585950E94A20669
:101670000E94190B089590911F0292FB222720F9D6
:10168000281769F080FB92F990931F0280911E0247
:1016900090911F020E94830B82E00E941F0B08950D
:1016A00080911F0282FB882780F991E089270E94A0
:1016B0003B0B089581E00E943B0B089580E00E945F
:1016C0003B0B08956FEF7FEF90E080E00E94461E95
:1016D000089590E080E00E94221E21E0873E9E4F08
:1016E00009F020E0822F089582E090E00E941A1E07
:1016F000089583E090E00E941A1E089584E090E02F
:101700000E94221E0895BC0184E090E00E94461EC3
:101710000895AB01BC018FE090E00E943A1E08954D
:10172000AB01BC0183E190E00E943A1E089560E0A5
:1017300070E0CB010E94900B089560E070E0CB0157
:101740000E94890B0E94970B089567EE7EEF90E050
:1017500080E00E94461E60E082E090E00E94281E29
:1017600060E083E090E00E94281E10925B011092DE
:101770005A0160E074E184E090E00E94461E60E05F
:1017800086E090E00E94281E6FEF87E090E00E94C4
:10179000281E40E050E0BA0188E090E00E943A1E26
:1017A00060E08DE090E00E94281E40E050E0BA0129
:1017B00088E190E00E943A1E60E087E190E00E949C
:1017C000281E40E050E0BA018CE190E00E943A1EF1
:1017D00070E060E080E290E00E94461E40E050E051
:1017E000BA0188E190E00E943A1E0E949D0B089584
:1017F0000E94A50B0895682F8EE090E00E94281E9D
:1018000008950E94CA146093E4017093E5018093E7
:10181000E6019093E7016093E0017093E10180930A
:10182000E2019093E3010895089508950E94150C34
:1018300008950E949001089588EA9EE00E94251371
:101840000E94140C0E94160C089581E008950E94D5
:10185000250C0895089508950E942A0C0E942B0CCF
:1018600008950E94C40E0E949D0208950E94B5141E
:101870000E949D0F0E94310C0E948A10EEE1F2E05E
:1018800080818068808380911E0290911F020E9457
:10189000830B0E9491160E94190C0895AAE0B0E0F3
:1018A000E4E5FCE00C94D21D0E94B30F0091DA0134
:1018B0001091DB0180E00E94EA0E08171907C1F5BC
:1018C0000091DC011091DD0181E00E94EA0E801799
:1018D000910771F50091DE011091DF0182E00E9415
:1018E000EA0E0817190721F50E94BE148C01809199
:1018F000D8019091D90108171907A1F08FEF8983BA
:101900008A831B820E94BE148160782F9D838C8302
:1019100049815A816B818D810E94C9021093D9013E
:101920000093D8010E94B0022A96EDE00C94EE1DBF
:101930008091E80181FD0E94F30E0E94270C782E11
:101940002AED822E21E0922E10E0812F0E94EA0ED5
:101950007C01F401A190B1904F018A159B0561F1C2
:10196000A826BF2400E0CC24C394D12CC5018C212F
:101970009D21892BC1F07720B1F00E831F8321E0D8
:10198000C7018C219D21892B09F420E028870E9422
:10199000BE148160782F9A8789874E815F81688520
:1019A0008A850E94C9020F5FCC0CDD1C0B30F1F65A
:1019B000F4013297F182E0821F5F133031F60E940A
:1019C000010CB0CFCF93DF930E94C30DEC018115C2
:1019D00022E5920760F5811530E5930708F0A8C06D
:1019E000883E910598F4803E9105E8F4853A91058A
:1019F00040F484309105B8F40197A9F0D0E0C0E03C
:101A000012C08D3C9105D0F3D0650DC08115904476
:101A100008F046C0C11580E2D80708F096C0C1158D
:101A200091E0D90758F3CE01DF91CF910895803826
:101A300022E59207A8F4803632E5930708F05CC0EF
:101A4000803442E5940708F042C0C03282E5D807EE
:101A500050F1CF71D0E0DC2FCC27C16FD06AE3CF3B
:101A6000C03C92E5D90780F48C2F8F71C03AD245E3
:101A700008F457C00E94650EC82FD0E0DC2FCC2799
:101A8000CC27DF71D062CFCFC03E32E5D30708F05C
:101A9000B5CFDC2FCC27CC27DF71C06FD06AC3CF86
:101AA000DF70D06AC0CF2C2F2695269540E2249F68
:101AB000900111248C2F8370C1E0D0E002C0CC0FC4
:101AC000DD1F8A95E2F7C22BD32BDD68ACCF282F20
:101AD00026952695277080E2289F900111248C2F4F
:101AE0008370C1E0D0E002C0CC0FDD1F8A95E2F721
:101AF000C22BD32BDC6897CF282F269526952770ED
:101B000090E2299F900111248C2F8370C1E0D0E0D6
:101B100002C0CC0FDD1F8A95E2F7C22BD32BDA6807
:101B200082CFC82FD0E0DC2FCC27C46FD06A7BCF08
:101B30008F710E94650E35E0D695C7953A95E1F70D
:101B4000CF709C2FEC01D0696ECF8D2F8F710E94CA
:101B5000650E90E0982F882788279F719C012C2B79
:101B6000E90190CF462F733030F46B3020F4672FAB
:101B70000E94B001089590E080E008950E94B20DA7
:101B80000E94E20C089582389105B9F1B0F48133D6
:101B9000910509F47DC048F48932910509F46DC0BE
:101BA0008A32910509F47BC008958533910509F4C3
:101BB0005FC08933910509F10895833E9105D9F1FC
:101BC00038F4803E910529F1823E910579F108951E
:101BD000863E9105D9F1873E910509F43EC0843EC9
:101BE000910541F520911F0221FF24C080911E0222
:101BF00084FD19C087EE90E0089520911E022370A5
:101C000009F05AC020911F0223FF14C089E290E01E
:101C1000089520911E0220FD38C030911F0230FF30
:101C200009C024FF43C090E080E0089520911E0287
:101C300022FDF7CF089520911E0222FD3AC0309177
:101C40001F0230FD39C024FFF5CFEDCF20911E02D9
:101C500023FFF0CF24FDE7CFCDCF20911E0223FD3F
:101C60002EC030911F0231FFEECF84EE90E0089538
:101C700020911E0225FFDECFC9CF20911E0225FD37
:101C800021C020911F0223FFD5CF89E390E0D2CF5E
:101C900020911E0226FFCECF8AE290E00895209187
:101CA0001E0226FFC7CF81E390E0089583EE90E007
:101CB000089582EE90E0089580EE90E0089586EE1B
:101CC00090E0089585E390E0089590911E0292FFC0
:101CD00006C0282F28712830F9F4877F846093FF8D
:101CE00006C0282F28712831F1F4877E8461209165
:101CF0001F0220FF06C0382F38713830D9F4877F93
:101D0000816021FF06C0282F28712831D1F4877EF9
:101D1000816194FD877E0895282F24712430F9F67F
:101D20008B7F8860DCCF282F2471243101F78B7ED4
:101D30008861DDCF382F3171313019F78E7F88609F
:101D4000E0CF282F2171213121F78E7E8861E1CFEC
:101D500080E008950E94620B08950E94B30F8FE304
:101D60009CE90197F1F700C000000E94B30F80E0EA
:101D70000E94EA0E80FF04C00E94AA0E0E9409156C
:101D800008950E94AD0E08950E94690B811102C052
:101D90000E94F80B0E94740B8093E8010E947E0B56
:101DA00090931F0280931E020E94C10E0E94790B25
:101DB00090E00E94560680915801909159010E942E
:101DC0007706089508950E94E20E089508950E94EE
:101DD000E60E0895E82FF0E0EE0FFF1FEA5DFD4FDD
:101DE000808191810895089580EA8A95F1F7089598
:101DF00000C008950E94F40E0895F894E82FE2952B
:101E0000EF70F0E031A1282F2F7081E090E001C049
:101E1000880F2A95EAF7982F9095932391A392A182
:101E2000892B82A378940895CF93DF9387E30E9450
:101E3000FD0E86E90E94FD0E87E60E94FD0ECEE2B1
:101E4000D1E089918F3F11F00E94FD0E81E0C933EE
:101E5000D807B9F7DF91CF910895AF92BF92DF9283
:101E6000EF92FF920F931F93CF93DF938C01D62EA7
:101E7000C62FD0E0CE01875C9E4F7C01FC01208103
:101E80002F3F09F44DC0F894E22FE295EF70F0E097
:101E900031A12F7081E090E001C0880F2A95EAF708
:101EA000932F982B91A392A18095892382A3789454
:101EB0000E94F80EEEE2F1E049E351E021E030E06B
:101EC000B12CA12C61916F3FA9F1A62FA295AF7003
:101ED000B0E090968C9190E06F7002C095958795D8
:101EE0006A95E2F780FD26C0C901A82AB92A220F07
:101EF000331F4E175F0731F7F70180818F3F11F0D5
:101F00000E94FD0E61E0A114B10409F460E08D2D82
:101F10000E94FA0ECC0FDD1FC00FD11FB982A8821C
:101F2000DF91CF911F910F91FF90EF90DF90BF90C5
:101F3000AF90089590E080E0D8CF0E94140F86E023
:101F4000E6E2F2E0DF01982F1D929A95E9F7E0E2D0
:101F5000F2E0DF011D928A95E9F783E00E94F10F1C
:101F60000E9402020895A6E0B0E0E9EBFFE00C94C5
:101F7000DB1D8E010F5F1F4F86E0F80111928A95DD
:101F8000E9F760E0C8010E942D0F61E0C8010E94DE
:101F90002D0F62E0C8010E942D0F46E050E0B8010D
:101FA00080E292E00E94041E21E0009709F420E004
:101FB000892B41F086E0F801A0E2B2E001900D9299
:101FC0008A95E1F743E066E272E080E292E00E94E7
:101FD000F20F182F0E940502812F2696E4E00C9440
:101FE000F71D0895CF92DF92EF92FF921F93CF9348
:101FF000DF936C017B01C42F222349F081E08093A1
:10200000EB010E94BE149093EA018093E9011091C4
:10201000EB0111110AC010E0812FDF91CF911F91C8
:10202000FF90EF90DF90CF9008958091E90190911B
:10203000EA010E94D614059770F3D0E0CC0FDD1FA3
:10204000AE01B601C7010E94041E892B41F0AE010A
:10205000B601C7010E94111E1092EB01DDCF10E006
:10206000FBCF0E9408170E94360C0E941517089596
:102070000E941A170E944E0C0E94341708950E9465
:1020800057140E94EE160E941C0C0E9431100E94F0
:1020900038100E942C0CFBCFEEEEF1E086E0DF0161
:1020A0001D928A95E9F70895CF93DF938091EE0111
:1020B00080688093EE01CEEED1E089910E94B11646
:1020C00081E0C43FD807C9F7DF91CF910895282F49
:1020D00067E00E94BB1D90E0FC01E251FE4FAC01A5
:1020E00033E0440F551F3A95E1F7841B950B820F9F
:1020F000911D26E030E0281B390B81E090E0AC0117
:1021000002C0440F551F2A95E2F78081842B8083FB
:1021100080E008950E94690B811102C00E94F80BB3
:102120008DE090E00E941A1E8093EC010895CF93F9
:10213000C82F0E944C10C093EC016C2F8DE090E0F2
:102140000E94281ECF91089581E0089581E00895AE
:1021500081E00895EF92FF920F931F93CF93DF9347
:102160007C01EB018C01005C14470034110550F434
:102170008B819C81892B31F08881998189238F3FC4
:1021800009F0A2C0C1E057C081EFE81684E7F80665
:1021900009F0ABC08B819C81892B09F4A6C0888192
:1021A000998189238F3F09F4A0C08A81882309F48B
:1021B0009CC080E010C08B819C81892B09F495C064
:1021C0008981988189238F3F09F48FC08A81882370
:1021D00009F48BC081E00E94971087C00091ED0147
:1021E0001091EC018B819C81892B31F08981988140
:1021F00089238F3F09F044C001500093ED012EEE7A
:1022000031E0412FBE01C7010E94A610882309F4C6
:102210006CC08091ED0118160CF467C01092ED01AE
:102220006EEE71E08091EC010E94A410C82F811124
:102230000DC00E944C108C2FCDB7DEB7E6E00C9499
:10224000F51D80E48E0D0E94671036C08091EC0170
:10225000882399F0813071F4CEEED1E002EF11E0E5
:10226000899181110E94B1160C171D07C9F780E0F2
:102270000E94B1160E944C1038C00E945410FACF30
:102280008A81882309F4B8CF0F5F0093ED011123F1
:10229000C1F2113051F5E0E4EE0DF0E0E05DFE4FEB
:1022A000E491AE2FA295A695A695A370B0E0A25199
:1022B000BE4F8C91E82BEC932EEE31E0412FBE0106
:1022C000C7010E94A61011C0C7010E94A810882350
:1022D00061F080EFE81684E7F80609F46CCF08F0A7
:1022E00053CF0A32110508F479CFC0E0A4CFCF93C1
:1022F000DF93EC01FB018281882309F4D2C09E01A7
:1023000030572332310508F0B2C00E947E0B909303
:102310001F0280931E02FE01E150F047E232F105F8
:1023200020F4E659F14E0C94C71D80911E02816085
:1023300080931E0293C080911F02886080931F02C9
:102340008DC080911E028260F3CF80911E02846056
:10235000EFCF80911E028860EBCF80911F028160D9
:10236000EDCF80911F028260E9CF80911E028061D3
:10237000DFCF80911E028062DBCF80911E028064DD
:10238000D7CF0E94030680911E028068D1CF809132
:102390001E028C60CDCF80911F028360CFCF8091D1
:1023A0001E028E7FC5CF80911F02877FC7CF80918D
:1023B0001E028D7FBDCF80911E028B7FB9CF809191
:1023C0001E02877FB5CF80911F028E7FB7CF80918D
:1023D0001F028D7FB3CF80911E028F7EA9CF809187
:1023E0001E028F7DA5CF80911E028F7BA1CF0E9400
:1023F000030680911E028F779BCF80911E02837F00
:1024000097CF80911F028C7F99CF80911E0282FB13
:10241000992790F921E0922790FB82F990FB83F9AC
:1024200087CF80911F02982F909591708E7F892B76
:1024300090FB81F983CF90911E02892F8F7B96FFAD
:10244000806476CF0E94030690911E02892F97FB2D
:1024500087F980586DCF81E00E94FB0B80911E02AE
:1024600090911F020E94830B0E94030680E0DF917F
:10247000CF91089580E0F0CF90911E02892F8F7E3A
:1024800094FF806155CF90911E02892F8E7F90FF1F
:1024900081604ECF90911F02892F877F93FF8860C4
:1024A0004DCF81E0E4CFCF93DF93EB0186319C47A2
:1024B00011F50E947B0A9A81992399F08A7A91E01A
:1024C00009F490E09093F401811109C089E20E941F
:1024D000530A0E94BC0A80E0DF91CF91089585E302
:1024E000F6CF8091F401811104C089E20E945B0A59
:1024F000F0CF85E3FBCF81E0EFCF0F931F93CF9316
:10250000DF93C42FD22FFC0182818823C9F040932E
:10251000F7010E94BE149093F6018093F50180E2CA
:102520008C0F883040F4C77081E001C0880FCA95D5
:10253000EAF70E94D303DF91CF911F910F91089585
:102540001091F701141332C08091F5019091F601BA
:102550000E94D614883C910548F5C0E2CD0F1D17A6
:10256000B9F080E2810F883040F4177081E001C03B
:10257000880F1A95EAF70E94DA03C83048F481E020
:102580009D2F977001C0880F9A95EAF70E94D30398
:10259000802F0E94CA03C83070F6D77081E001C056
:1025A000880FDA95EAF70E94DA03C5CF80E28C0F34
:1025B000883008F6C77081E001C0880FCA95EAF735
:1025C000F2CF0F93DB0188519C4787309105A0F52E
:1025D000FC01E457F14E0C94C71D06E221EE41EEDA
:1025E0006AE17CE7CD010E947D1280E00F910895A1
:1025F00007E225EE45EE6BE17CE7F4CF06E221EE43
:1026000040EE68E17CE7EECF07E225EE44EE69E1BB
:102610007CE7E8CF06E221EE42EE6CE17CE7E2CF18
:1026200007E225EE46EE6DE17CE7DCCF08E221E033
:1026300045EE6EE17CE7D6CF12968C91882319F097
:102640001092F701D3CF81E0D1CF90933D018093D9
:102650003C0108959093F9018093F8010895E09169
:10266000F801F091F901309729F00190F081E02D07
:102670000995089580E00895E091F801F091F9013D
:10268000309799F020912501222359F020911E02C4
:1026900027FF07C0DC012C9111962C93119726E09F
:1026A0002C930280F381E02D09950895FC01329668
:1026B00080912501882321F080911E029EE187FFF1
:1026C00096E080E0915008F4089521912223D1F3FF
:1026D0008F5FF8CF662301F1209125012223F1F0CD
:1026E00020911E0227FF1AC0462F46954695469513
:1026F0004E3190F4677021E030E002C0220F331FAA
:102700006A95E2F7840F911DFC01828190E02823F5
:10271000392381E0232B69F480E00895FC0132968F
:1027200008962191261721F0E817F907D1F7F4CF81
:1027300081E008959C01FC0132969FEF80E0419179
:10274000461751F09F3F19F4411101C0982F8F5F38
:102750008630A9F79F3F09F40895290F311D97FD91
:102760003A95F90162830895FC0132960896219109
:10277000261303C0DF0111971C92E817F907B9F778
:102780000895E62FE695E695E695EE3168F4E80FB4
:10279000F92FF11D677021E030E001C0220F6A952A
:1027A000EAF78281822B82830895E62FE695E695EB
:1027B000E695EE3170F4E80FF92FF11D677021E016
:1027C00030E001C0220F6A95EAF720958281282324
:1027D0002283089520912501222339F020911E02A1
:1027E00027FF03C00E94C11308950E949A13089501
:1027F00020912501222339F020911E0227FF03C0DA
:102800000E94D51308950E94B4130895FC013296D6
:1028100080912501882351F080911E0287FF06C018
:102820008EE1DF011D928A95E9F7089586E0F9CFE0
:1028300008950E9418140895811106C081E08093C4
:10284000FA010E941914089582E0F9CF83E0809381
:10285000FA010E94191408950E941C14089581E041
:102860008093FA010E94191408950E942F1408956C
:10287000089508950E9439140895089508950E94B6
:1028800038140895CF930E943D140E94B30F0E9404
:102890003E14C0E08C2F0E94EA0E892B31F4CF5FEA
:1028A000C330C1F780E0CF91089581E0FCCF85B7B8
:1028B000806885BF85B7806885BF08951F921FB661
:1028C0001F9211248F939F93AF93BF938091FB012D
:1028D000811113C080912C0290912D02A0912E02A3
:1028E000B0912F024196A11DB11D80932C029093AF
:1028F0002D02A0932E02B0932F02BF91AF919F9112
:102900008F911F901FBE1F901895809134028430C4
:1029100031F10E947D021092FB0188E190E020E4F9
:102920000FB6F894A895809360000FBE20936000C6
:1029300083B7817F846083BF83B7816083BF7894CE
:10294000889583B78E7F83BF0FB6F894A895809142
:102950006000886180936000109260000FBE08954F
:102960000E9403060E948202089582E084BD93E0E3
:1029700095BD9AEF97BD80936E0008952FB7F89498
:1029800080912C0290912D02A0912E02B0912F02E5
:102990002FBF08952FB7F89460912C0270912D02EB
:1029A00080912E0290912F022FBF08959C014FB766
:1029B000F89480912C0290912D02A0912E02B0915A
:1029C0002F024FBF821B930B089578941F921FB65E
:1029D0001F9211248F939F93AF93BF9380912C02EA
:1029E00090912D02A0912E02B0912F020196A11D6F
:1029F000B11D80932C0290932D02A0932E02B093D0
:102A00002F02BF91AF919F918F911F901FBE1F907A
:102A1000189581E08093E00080E28093D8001092C6
:102A2000C9008FE19EE40197F1F700C0000087E044
:102A300090EBDC0180933D0290933E02A0933F0215
:102A4000B093400288E19CE00FB6F894A89580937B
:102A500060000FBE90936000FFCF88E19CE00FB64E
:102A6000F894A895809360000FBE90936000FFCF0C
:102A700080911C020895089508959B01BA019091D8
:102A800034029430E9F48F708093E9009FEF8091D5
:102A9000E800915085FD06C085ED8A95F1F70000AC
:102AA0009111F5CF8091E80085FF0AC050E040E029
:102AB000C9010E94AC178091E8008E778093E800EE
:102AC0000895CF93DF93EC0180912501811111C00E
:102AD00048E050E0BE0181E00E943D1580E2FE0129
:102AE000ACEFB1E001900D928A95E1F7DF91CF91C3
:102AF000089580911E0287FF05C040E282E050E009
:102B0000BE01EACF48E081E0FACF80913302811123
:102B100009C00E943C190E9499198091E2008460CA
:102B20008093E20008951092330208950E942F14BA
:102B300008956091300281E0611101C080E00E943F
:102B4000261408959091340281E0943009F080E0D9
:102B5000609130020E942C14089542E061EC81E003
:102B60000E94B81842E261EC82E00E94B81842E08C
:102B700061EC83E00E94B81842E160E885E00E94C1
:102B8000B81842E161E884E00E94B81890913402DC
:102B900081E0943009F080E0609130020E941C14C2
:102BA000089580913602833009F462C050F4813078
:102BB000D9F1823009F4A4C082E091E00E940D1D99
:102BC00056C08A3009F48BC08B3009F46EC089304E
:102BD00099F780913502813279F78091390290918D
:102BE0003A02029748F78091E800877F8093E800D7
:102BF0008091E80082FF37C09091F3008091F2004D
:102C0000029731F48091F100813011F0863021F487
:102C10008091F10080931C028091E8008B77809373
:102C2000E8000E94EC18C8CF80913502813A21F665
:102C30008091E800877F8093E8008091390290912D
:102C40003A02892B61F460E28CEF91E070E00E941F
:102C5000FB178091E8008B778093E800ADCF60E0B0
:102C600090E080E0F3CF809134028111C1CF0895CC
:102C700080913502813A09F09FCF8091390290917D
:102C80003A02892B09F098CF8091E800877F8093E2
:102C9000E8008091E80080FFFCCF809125018093BF
:102CA000F1008091E8008E77BACF809135028132B1
:102CB00009F082CF8091390290913A02892B09F074
:102CC0007BCF8091E800877F8093E8000E94EC181A
:102CD00080913702809325010E9403066DCF809179
:102CE0003502813209F068CF8091E800877F8093B8
:102CF000E8000E94EC188091380280931D025CCF9E
:102D000080913502813A09F057CF8091E800877FA2
:102D10008093E8008091E80080FFFCCF80911D0245
:102D2000BECF82E090E0909315018093140182E081
:102D300091E00E94D11C08950895CF93DF9382E023
:102D400091E00E94781CEC01209719F4DF91CF915B
:102D5000089582E091E00E94A11C0E949C16219798
:102D6000F3CFCF93C091E9002091EC00922F9170A6
:102D700020FD90E82091120120FF12C0CF70C92BD6
:102D8000909103019F709093E9009091EB0090FF68
:102D900004C09091EE0097FD05C0CF70C093E9008C
:102DA000CF9108959FEF2091E800915025FD06C036
:102DB00025ED2A95F1F700009111F5CF8093F100F0
:102DC00082E091E00E94331C8091E80080FFE5CF13
:102DD0008091E8008E778093E800DFCF84B7877F0B
:102DE00084BF0FB6F894A8958091600088618093A5
:102DF0006000109260000FBE80E890E00FB6F8947B
:102E000080936100909361000FBE0E943514089575
:102E10000E943C190E949919E2EEF0E080818460E2
:102E2000808378940E94181C08958DE191E00E949F
:102E30002A13089580913402853031F48091340250
:102E4000853019F00E94B01408950E948514809175
:102E50003202882399F30E944214882379F30E9456
:102E600096170E940306EACF0E949D1682E091E029
:102E70000E94611C08950E943E170895292F332750
:102E80002330310519F168F42130310509F444C0CB
:102E90002230310509F445C090E080E030E020E0C8
:102EA00025C02132310549F122323105A9F780E4EC
:102EB00090E02BE632E061157105C1F08BE390E004
:102EC00020E332E06130710589F0E6CF9927813047
:102ED000910581F0009729F00297F1F6E0E7F1E023
:102EE00002C0E2EAF1E0849190E09F01FA013183AF
:102EF00020830895E2E8F1E0F6CF89E090E028EB46
:102F000031E06115710591F389E090E021ED31E048
:102F10006130710559F3C0CF82E190E02EE132E0DB
:102F2000E5CF88E790E026EA31E0E0CF80E189BD97
:102F300082E189BD09B400FEFDCF8091D8008F7D6C
:102F40008093D8008091E00082608093E0008091BF
:102F5000E00081FDFCCF0895AF92BF92CF92DF9247
:102F6000FF920F931F93CF93DF936C01EB018A01C4
:102F70000E940B19F82E811123C00115110539F09B
:102F8000F80180819181C81BD90BC80ED91EB12CC4
:102F9000A12C2097A9F08091E80085FD22C08091A6
:102FA000E8008E778093E80001151105A1F0F80183
:102FB00080819181A80EB91EB182A08285E0F82E91
:102FC0008F2DDF91CF911F910F91FF90DF90CF90C8
:102FD000BF90AF9008950E940B198823D1F2F82E6C
:102FE000EFCFF60181916F018093F1002197FFEF00
:102FF000AF1ABF0ACECFFC0180913B0290913C02F8
:1030000086179707A0F06115710529F49091E800E3
:103010009E779093E80090E06115710551F491114D
:1030200008C08091E80082FF34C080E00895BC01B0
:10303000F2CF809134028823C1F18530C1F18091B3
:10304000E80083FD30C08091E80082FDEACF8091E6
:10305000E80080FFE1CF8091F3002091F200382F4B
:103060006115710519F02830310558F091E02830CC
:10307000310509F090E02091E8002E772093E800D8
:10308000CBCF81918093F100615071092F5F3F4F49
:10309000E7CF80913402882341F0853041F0809160
:1030A000E80083FFBECF81E0089582E0089583E0C9
:1030B0000895FC0180913B0290913C02861797078E
:1030C000A0F06115710529F48091E8008E77809356
:1030D000E80090E06115710551F4911108C08091EC
:1030E000E80082FF35C080E00895BC01F2CF8091F6
:1030F00034028823C9F18530C9F18091E80083FD4D
:1031000031C08091E80082FDEACF8091E80080FF25
:10311000E1CF8091F3002091F200382F6115710505
:1031200019F02830310558F091E02830310509F0C8
:1031300090E08091E8008E778093E800CBCF849177
:103140008093F1003196615071092F5F3F4FE6CFB8
:1031500080913402882341F0853041F08091E8006D
:1031600083FFBDCF81E0089582E0089583E0089554
:10317000982F973028F08F708093E90081E00895B0
:103180009093E900242F762F50E0981731F070913A
:10319000EC002091ED005091F00021FD02C09F5FF6
:1031A000E8CF3091EB003E7F3093EB003091ED00A3
:1031B0003D7F3093ED003091EB0031603093EB00B8
:1031C0007093EC002093ED005093F0002091EE00FE
:1031D00027FDE5CF80E008958091350287FF13C079
:1031E0008091E80082FF06C08091E8008B77809391
:1031F000E80004C0809134028111F2CF08958091DB
:1032000034028823D9F38091E80080FFF8CF8091C1
:10321000E8008E77ECCF2091E4003091E50095E650
:10322000A9012091EC00822F817020FF06C08091BF
:10323000E80080FF06C080E008952091E80022FDAC
:103240001AC080913402882389F0853089F08091FA
:10325000EB0085FD0FC02091E4003091E50042179E
:103260005307F9F29150E1F684E0089582E0089561
:1032700083E0089581E008950E94AB190E94B3197C
:10328000E0EEF0E0808181608083E8EDF0E0808115
:103290008F77808319BCA7EDB0E08C918E7F8C93E3
:1032A00080818F7E80831092330208950F931F9345
:1032B000CF93DF930E94AB190E94B319C8EDD0E001
:1032C00088818F77888388818068888388818F7DD3
:1032D000888319BC1092340210923002109232028C
:1032E0001092310200EE10E0F80180818B7F808324
:1032F00088818160888342E060E080E00E94B818A5
:10330000E1EEF0E080818E7F8083E2EEF0E080816C
:1033100081608083808188608083F80180818E7FD6
:103320008083888180618883DF91CF911F910F9185
:103330000895E8EDF0E080818F7E8083E7EDF0E096
:1033400080818160808384E082BF81E0809333024A
:103350000E9456190895E8EDF0E080818E7F808309
:103360001092E20008951092DA001092E1000895A0
:103370001F920F920FB60F9211242F933F934F93EA
:103380005F936F937F938F939F93AF93BF93EF93CD
:10339000FF938091E10082FF0BC08091E20082FFE9
:1033A00007C08091E1008B7F8093E1000E94171C91
:1033B0008091DA0080FF19C08091D80080FF15C08D
:1033C0008091DA008E7F8093DA008091D90080FFAF
:1033D00096C080E189BD82E189BD09B400FEFDCFC0
:1033E00081E0809334020E9485158091E10080FF86
:1033F00019C08091E20080FF15C08091E2008E7FAD
:103400008093E2008091E20080618093E2008091ED
:10341000D80080628093D80019BC85E08093340284
:103420000E9499158091E10084FF2BC08091E200F9
:1034300084FF27C080E189BD82E189BD89B5982FCD
:10344000917080FFFBCF8091D8008F7D8093D80052
:103450008091E1008F7E8093E1008091E2008F7E79
:103460008093E2008091E20081608093E20080918D
:103470003002882309F449C084E0809334020E941A
:10348000A2158091E10083FF29C08091E20083FFB3
:1034900025C08091E100877F8093E10082E08093E6
:1034A0003402109230028091E1008E7F8093E1001F
:1034B0008091E2008E7F8093E2008091E200806143
:1034C0008093E20042E060E080E00E94B8188091C2
:1034D000F00088608093F0000E949615FF91EF91B4
:1034E000BF91AF919F918F917F916F915F914F911C
:1034F0003F912F910F900FBE0F901F90189519BC00
:10350000109234020E94931570CF8091E30087FDE2
:1035100093E090933402B3CF1F920F920FB60F92A5
:1035200011242F933F934F935F936F937F938F93C8
:103530009F93AF93BF93CF93DF93EF93FF93D0917C
:10354000E900DF708091EC00C82FC17080FDC0E8F9
:103550001092E9008091F000877F8093F0007894CA
:103560000E94D01A1092E9008091F0008860809348
:10357000F000CD2BCF70C093E900FF91EF91DF9168
:10358000CF91BF91AF919F918F917F916F915F91FB
:103590004F913F912F910F900FBE0F901F90189554
:1035A000AAE2B0E0E6EDFAE10C94DC1D85E392E0DE
:1035B0002091F100FC012193CF01F2E08D339F07B0
:1035C000B9F70E94D1158091E80083FF1EC1809158
:1035D0003502909136029A3008F017C1E92FF0E0D9
:1035E000ED56F14E0C94C71D803899F0823809F0E1
:1035F0000CC1809139028F70873008F006C180932A
:10360000E9008091EB0085FB882780F91092E900A2
:1036100006C08091310290913202911182609091A6
:10362000E800977F9093E8008093F1001092F100FA
:103630008091E8008E77E5C0882309F4D3C08230FA
:1036400009F0E3C0809137028111D6C08091390220
:103650008F702FEF280F263008F0D7C08093E90035
:103660002091EB0020FFC8C0933031F48091EB0033
:1036700080628093EB00C0C09091EB0090619093CA
:10368000EB0021E030E001C0220F8A95EAF7209399
:10369000EA001092EA008091EB008860EACF811185
:1036A000B4C0109137021F778091E3008078812B9E
:1036B0008093E3008091E800877F8093E8000E9478
:1036C000EC188091E80080FFFCCF8091E3008068D7
:1036D0008093E30082E0111183E08093340295C06F
:1036E0008058823008F091C0809137029091380262
:1036F0008C3D23E09207A1F583E08A838AE28983E7
:103700004FB7F894DE01139620E03EE051E2E32F3C
:10371000F0E050935700E49120FF03C0E295EF7072
:103720003F5FEF708E2F90E0EA30C0F0C7968D9328
:103730009D932F5F243159F74FBF8091E800877F19
:103740008093E8006AE270E0CE0101960E94FB17C8
:103750008091E8008B778093E80057C0C096E7CF50
:103760006091390270913A02AE014F5F5F4F0E9443
:103770003B17BC01892B09F448C09091E800977F62
:103780009093E80089819A810E945918E1CF80388E
:10379000E1F58091E800877F8093E8008091300216
:1037A0008093F10045CF811130C090913702923063
:1037B00060F58091E800877F8093E8009093300265
:1037C0000E94EC1880913002882311F084E005C03B
:1037D0008091E30087FDFACF81E0809334020E945C
:1037E000AD1513C080913702813079F481E09330B8
:1037F00009F080E0809332021092E9008091E800A5
:10380000877F8093E8000E94EC188091E80083FF96
:103810000AC08091E800877F8093E8008091EB00E8
:1038200080628093EB00AA96E3E00C94F81D089563
:10383000CF93809134028823A1F0C091E900CF702A
:103840009091EC00892F817090FD80E8C82B109238
:10385000E9008091E80083FD0E94D01ACF70C093E8
:10386000E900CF91089520913402243041F5FC0104
:103870004489558966897789452B462B472BF9F072
:1038800081818F708093E9009091F3008091F20024
:10389000892B11F480E008959091E8008091E80070
:1038A0008E778093E80095FDF5CF0E940B1981116A
:1038B00007C09091E8009E779093E800089582E019
:1038C000089520913402243091F4FC0144895589F3
:1038D00066897789452B462B472B49F021812F702C
:1038E0002093E9002091E80020FD0E94331C0895F8
:1038F00020913402243019F090E080E00895FC011A
:103900004489558966897789452B462B472BA1F336
:1039100086818F708093E9008091E80082FFECCF70
:103920009091F3008091F200009731F42091E8002B
:103930002B772093E80008959091F3008091F20096
:10394000089520913402243019F08FEF9FEF0895ED
:10395000FC014489558966897789452B462B472B7D
:10396000A1F386818F708093E9008091E80082FF47
:10397000ECCF9091F3008091F200892B79F0809147
:10398000F10090E03091F3002091F200232B29F414
:103990002091E8002B772093E80008958FEF9FEFA8
:1039A000F1CFA8E0B0E0E7EDFCE10C94DB1D8C0169
:1039B00080913402843059F5F80184899589A6896B
:1039C000B789892B8A2B8B2B11F183858F7080937C
:1039D000E90088E0E6E2F1E0DE01119601900D9247
:1039E0008A95E1F750E040E068E070E0CE01019692
:1039F0000E94AC1750E040E062E070E0C8014296DF
:103A00000E94AC178091E8008E778093E80028969A
:103A1000E4E00C94F71D08950895CF93DF93EC0133
:103A20008091E80083FF10C0288180913902909135
:103A30003A022817190641F4809136028132E9F0E2
:103A400030F4803209F44EC0DF91CF910895823274
:103A500009F47BC08332C1F7809135028132A1F72E
:103A60008091E800877F8093E8000E94EC186091C5
:103A70003702CE010E940C1DE7CF80913502813ABA
:103A800019F78091E800877F8093E8008091E80033
:103A900080FFFCCF8C899D89AE89BF898093F1001E
:103AA000492F5A2F6B2F77274093F100AD016627DE
:103AB00077274093F1008B2F9927AA27BB27809364
:103AC000F100888D8093F100898D8093F1008A8DBB
:103AD0008093F1008091E8008E778093E8000E9447
:103AE000EC18B2CF80913502813209F0ADCF8091D0
:103AF000E800877F8093E8008091E80082FF20C083
:103B00003091F1002091F1009091F1008091F1004D
:103B10003C8B2D8B9E8B8F8B8091F100888F8091B9
:103B2000F100898F8091F1008A8F8091E8008B7776
:103B30008093E8000E94EC18CE010E940B1D84CFF8
:103B4000809134028111D8CF7FCF809135028132AC
:103B500009F07ACF8091E800877F8093E8000E9487
:103B6000EC188091370290913802998B888BCE01A6
:103B70000E940B1D69CF991B79E004C0991F96170D
:103B800008F0961B881F7A95C9F780950895EE0F67
:103B9000FF1F0590F491E02D09942F923F924F92D0
:103BA0005F926F927F928F929F92AF92BF92CF92CD
:103BB000DF92EF92FF920F931F93CF93DF93CDB7D6
:103BC000DEB7CA1BDB0B0FB6F894DEBF0FBECDBF4E
:103BD00009942A88398848885F846E847D848C841F
:103BE0009B84AA84B984C884DF80EE80FD800C8128
:103BF0001B81AA81B981CE0FD11D0FB6F894DEBF0B
:103C00000FBECDBFED010895FB01DC0104C08D9115
:103C10000190801921F441505040C8F7881B990B3E
:103C20000895FB01DC0102C001900D92415050400B
:103C3000D8F70895F999FECF92BD81BDF89A9927DA
:103C400080B50895A8E1B0E042E050E00C944E1E2B
:103C5000262FF999FECF92BD81BDF89A019700B445
:103C6000021639F01FBA20BD0FB6F894FA9AF99AE5
:103C70000FBE08950396272F0E94291E0E94281E1A
:103C8000252F0E94291E242F0C94291E0196272FD0
:103C90000E94291E0C94281EDC01CB01FC01F9991D
:103CA000FECF06C0F2BDE1BDF89A319600B40D9288
:103CB00041505040B8F70895F894FFCF1C041C04FD
:103CC0004D044D047C047C047C047C04DF0450051A
:103CD0005F055F05CF114312D711A111A511DB11AB
:103CE000A911DF11EB11B5113C12B911EF11BD1182
:103CF000F3111B12C111F7112212C711FD11051288
:103D0000AD11E311B111E711CB11011211122B12F8
:103D10003A129B11D3114A12FE120413ED12F8123B
:103D20000A1310131613F41A1C1B051C1C1B051C6C
:0A3D30004F1B701B051CC71BD31BA3
:103D3A00B60102841000000105100000018308008A
:103D4A0000010000000000000000000000381561BA
:103D5A00153C153B1501A120000000000200F0F1FE
:0C3D6A00F4F5F6959392919094379667CB
:00000001FF
