:10000000D6C10000F1C10000EFC100000C94DA1865
:10001000EBC10000E9C10000E7C10000E5C100003C
:10002000E3C10000E1C100000C94171E0C94E31E14
:100030000C948817D9C10000D7C10000D5C10000B9
:10004000D3C10000D1C10000CFC10000CDC100006C
:10005000CBC100000C94FF17C7C10000C5C1000050
:10006000C3C10000C1C10000BFC10000BDC100008C
:10007000BBC10000B9C10000B7C10000B5C100009C
:10008000B3C10000B1C10000AFC10000ADC10000AC
:10009000ABC10000A9C10000A7C10000A5C10000BC
:1000A000A3C10000A1C100009FC100000000C774EF
:1000B000C974CB74CD74D1740000C874CA74CC7484
:1000C000CE74D2744152E100E000E200E3002C0063
:1000D000000000000000CF74D074C174E274E074BA
:1000E000DE74DC74DA74D674E974E174DF74DD7480
:1000F000DB74D774A9004F00520051005000AA00D1
:10010000000000000000D974D874C27429001400E3
:100110001A00080015001700E00004001600070090
:1001200009000A0040521D001B00060019000500CE
:100130000000000000002252E100E3002A0013004A
:1001400012000C0018001C00340033000F000E00D9
:100150000D000B0028003800370036001000110099
:1001600000000000000023522C00E60001001E00E9
:100170001F002000210022002B0001005000510030
:1001800052004F00000001004C000100010001007E
:100190000000000000000100010001002A0027000B
:1001A00026002500240023000100010001000100B9
:1001B0000100010001000100010001000100010037
:1001C00000000000000000000100010001001E020C
:1001D0001F0220022102220201000100A800AA0041
:1001E000A900010000000100010001000100010060
:1001F0000000000000000000010001002A002702AA
:1002000026022502240223023500310030002F008F
:100210002E002D003502310230022F022E022D0257
:1002200000000000000001000100010000D0D0D05B
:10023000D0D0D001010204081020414244484800B7
:100240000000484850608182848890A0C1C2C4D018
:10025000D0D0D0D0D0C800000000000000000000C6
:100260000000000000000000000000001203540025
:1002700077006F006E0069002000760031000000FA
:100280001E035300740065006E006F004B00650094
:10029000790062006F00610072006400730000006A
:1002A0000403090409027800040100A0FA0904000B
:1002B000000103010100092111010001224400078E
:1002C0000581030800010904010001030000000981
:1002D0002111010001223B000705820320000108D3
:1002E0000B020202020100090402000102020100E5
:1002F0000524001001042402020524060203070558
:1003000083030800FF09040300020A000000070538
:100310000502100005070584021000051201000205
:10032000EF02010800900120010001020001050117
:100330000906A1018506050719E029E71500250131
:100340009508750181020507190029EF150025019F
:1003500095F07501810205081901290595057501BA
:100360009102950175039101C005010906A10105DE
:100370000719E029E7150025019508750181029507
:1003800001750881010507190029FF150026FF00E6
:100390009506750881000508190129051500250134
:1003A000950575019102950175039101C000112415
:1003B0001FBECFEFDAE0DEBFCDBF11E0A0E0B1E0BD
:1003C000EAE4F6E402C005900D92AE37B107D9F722
:1003D00022E0AEE7B1E001C01D92A63BB207E1F713
:1003E0000E94C1120C94F0220BCE8430C8F4683005
:1003F000B8F44630A8F450E096E0699F400D511DD6
:10040000112490E3899F400D511D1124FA01EE0F34
:10041000FF1FE455FF4F85919591282F822F089556
:1004200021E090E0FBCFE1CF089581E0089581E0E5
:100430000895FBCF089581E0089581E00895FDCFF0
:10044000089508950895FDCF089508950895A6E0AC
:10045000B0E0EDE2F2E00C94772249835A839E8368
:100460003091850189819A81311117C03E81311502
:1004700089F0211579F00ED5182F682F89819A817E
:10048000E8D469817A81812F0E94380D2696E3E0B5
:100490000C949322EFD4182FF4CFFCD469817A8185
:1004A000F3CFFC01262F40815181628173818481C9
:1004B0009581CDCFCF93DF93EC0161E0F2DFBE01F8
:1004C000B6DF811529F061E0CE01EBDFBE01B1DFBF
:1004D000DF91CF9108950F931F93CF93DF93EC019A
:1004E00060E0DFDF8C01BE01ADDFBE01C801ABDF24
:1004F000DF91CF911F910F9108950F931F93CF9389
:10050000DF93EC0161E0CDDF8C01BE0194DF81114E
:1005100006C080E0DF91CF911F910F910895BE0139
:10052000C8018DDF8115A9F3BE01C8010E94231304
:10053000811579F3BE01C8010E944C15811549F35C
:10054000BE01C8010E941014811519F3BE01C80133
:100550000E94E7138115E9F2BE01C8010E94800ED6
:100560008115B9F2BE01C8010E94920E811589F26F
:10057000BE01C8010E94AC0ECDCF21E030E002C028
:10058000220F331F8A95E2F7C9019EC3CF93C82F6C
:1005900081E090E00C2E02C0880F991F0A94E2F7C8
:1005A0000E946C0B8C2FE9DFCF91089581E00895B4
:1005B00081E00895FBCF0895CF93C82F34D38C2FBB
:1005C000F7DF8C2FF7DF8FEF94E32CE08150904022
:1005D0002040E1F700C00000CF91089581E0ECDFFA
:1005E0000C94231880E0E8DF0C9434182EDF0E946E
:1005F0001D1717C018D02ADF0C94211781E0089529
:100600000895CF93DF93D82FF9DFC82F811511F00C
:100610008D2FF6DF8C2FDF91CF9108950895F1CFC4
:10062000089580E0FCCF0E949A15F9CFCF930E94E5
:100630009A15C82F809180018C1771F0C0938001AA
:100640000E94F3176093810170938201809383016C
:10065000909384018C2FE3DFCF910895ADE0B0E05B
:10066000E4E3F3E00C947822488759876A877B8714
:100670008C879D8791111CD71F8286E0FE013896DA
:100680009E012F5F3F4FD90101900D928A95E1F7AE
:100690008D8181110CC029813A814B815C816D81F2
:1006A0007E818F8150D62D96E2E00C949422CE016B
:1006B000019600DF8111EFCFF6CFFC0124812130BC
:1006C00019F48081918119C40895CF93C82F8115A1
:1006D000B9F08238B9F40E94AF1581FD11C089E3E9
:1006E0000E947C1670D78FEF97EE23E081509040E8
:1006F0002040E1F700C0000089E30E94931663D711
:10070000CF910895833899F40E94AF1580FDF8CFFA
:1007100083E50E947C1657D78FEF91EE24E081503D
:1007200090402040E1F700C0000083E5E6CF843828
:1007300099F40E94AF1582FDE3CF87E40E947C16F6
:1007400042D78FEF91EE24E0815090402040E1F7B6
:1007500000C0000087E4D1CF8450813A68F48C2F28
:100760000E94F615811521F08C2F0E9493162BD72D
:100770008C2F0E947C16C3CF8C2F805E883008F0AF
:10078000BFCF81E0C1FD84E0C0FD880FC2FD82952E
:1007900070D6B5CF811571F0823869F40E94AF151B
:1007A00081FF08C089E30E947C160DD789E30E946F
:1007B000931609C70895833851F40E94AF1580FF3E
:1007C000F9CF83E50E947C16FED683E5F0CF84380E
:1007D00051F40E94AF1582FFEDCF87E40E947C1692
:1007E000F2D687E4E4CF982F9450913A00F3982FF3
:1007F000905E9830F8F6982F81E091FD84E090FDAE
:10080000880F92FD82953BD6D4CF1F93CF93DF9371
:10081000182FEB015ADF209731F4812FBBDFDF91D6
:10082000CF911F9108958FE99FE00197F1F700C0E4
:1008300000002197F0CF60E570E0893311F060E0AF
:1008400070E0E3CF811511F014D6BDC6089581156F
:1008500011F015D6B8C60895A0E0B0E0E2E3F4E0E8
:100860000C9472226C01D62FC72FFC0115810681D2
:1008700002950F70F3D5E82E8115E9F0E12E1115E0
:10088000D1F08C2F807F803461F08D2F805E883096
:1008900078F18C2F807E803221F4D23048F101151E
:1008A00039F180918E0282FF23C082E0B0D6D6D586
:1008B00091E08927E82E9C2F92959F70983009F43B
:1008C000ABC0C0F4923030F1925F9F70923008F468
:1008D0004BC0E11409F4D0C0BDD580FDCDC0F601F8
:1008E0001582B2D521D2C6017BD1AED52BD2C4C0E0
:1008F000E12CE1CF993009F401C19A5F9F709230E9
:1009000040F7D23F09F007C18C2F8F71111101C13F
:100910000BD2AFC00C2F0F70C03110F00295007FCA
:10092000111581F0011549F08D2F805E883010F08F
:10093000D11105C0802F9DD546D68D2F33C0802F75
:10094000A9D5FACF8D2F26DF011509F4C2CF8D2F3F
:10095000805E883010F0D11103C0802F90D502C086
:10096000802F9ED530D6B5CF8C2F8F70F82EC07FBC
:10097000C03219F0F29480EFF822D13038F081F1D2
:10098000111509F439C00115D1F0D7CF80918E022D
:1009900082FD11C0111541F0F11419F08F2D69D5A8
:1009A00012D680E092DE95CF80E0F4DEF11409F4F7
:1009B00090CF8F2DD3CF111551F0013018F48F2D1A
:1009C00041DF87CF09F085CF8F2D86D582CF0111EA
:1009D00080CF8F2D3CDF8F2D8AD58F2D6FD579CF8E
:1009E000111521F0063008F074CFE9CF053008F07A
:1009F00070CF8F2D2CDF6DCF0115D9F3D93349F48A
:100A00008FEF97EE23E0815090402040E1F700C047
:100A100000008D2FBFDE5DCF8C2F8370C1F51111CB
:100A200028C04D2F429546954770440F440F2D2FF7
:100A30002F7030E0042E02C0220F331F0A94E2F719
:100A400080E090E0D4FF09C08FE090E002C0880F02
:100A5000991F4A95E2F780959095C695C695C37003
:100A6000822B932BC23079F0C33079F0C13049F03A
:100A700034D10E949A15D3DDCDB7DEB7E8E00C94EF
:100A80008E2224D1F6CF30D1F4CF1ED1F2CF111562
:100A900059F1C0FFEECF4D2F429546954770440F58
:100AA000440F2D2F2F7030E0042E02C0220F331F71
:100AB0000A94E2F780E090E0D4FF09C08FE090E074
:100AC00002C0880F991F4A95E2F780959095C695C8
:100AD000C695C370822B932BC23061F0C33061F096
:100AE000C13031F054D1C5CF823008F4C2CFD3CF5A
:100AF00047D1BFCF53D1BDCF04D1BBCFCF701115DC
:100B000029F08C2F11D18D2F9DDEB3CF8D2F9FDE3D
:100B10008C2F18D1AECF58F4D03FB1F0D13F79F03F
:100B20001115B9F1011591F18D2FCFDDA2CFD33F72
:100B3000B1F0D43FA9F780918E0282FD18C08C2FAE
:100B40008F71111531F3E4CE111539F0053008F02D
:100B500090CF8C2F8F7106D18CCF0630F8CF111526
:100B600021F08C2F8F71D7D084CFD2D082CF1115A6
:100B700029F063E08C2F8F7133D57BCF81E047D58F
:100B8000023008F476CF82E042D573CF8C2F8F717C
:100B9000BFCE011571F0D93349F48FEF97EE23E002
:100BA000815090402040E1F700C000008D2FF2DD21
:100BB00060CF8C2F8F71ADCF0F931F93CF93DF93A7
:100BC000EC01688179818D81A1D18C01EED07BD03F
:100BD000B801CE0141DEDF91CF911F910F910895B1
:100BE000CF93DF93EC018C81811581F0CE0185DC00
:100BF00081110FC033D4811549F08D81811531F0F9
:100C000080918E0282FF02C082E001D5DF91CF91F8
:100C10000895CE01D1DFCE015EDCF8CF49D4D3C434
:100C20000E94AA16FBCF33D4FBCF282F92959F703A
:100C3000963099F060F4925F9F70923030F4203FCC
:100C4000B1F038F481E0283E38F080E008959A5FF2
:100C5000F3CF81E0243FC9F7089591E0813F09F087
:100C600090E081E0283E08F080E0892B089581E043
:100C70000895FC012481211521F0808191813DD1CD
:100C8000D4CF80E00895A6E0B0E0E9E4F6E00C946B
:100C900078222696E2E00C949422A7E0B0E0E3E507
:100CA000F6E00C9478222796E2E00C9494220895C2
:100CB000FECF0895FDCF0895FADFFCDF8093A001F9
:100CC0009093A10108950895F7CF08952091A00170
:100CD0003091A101822B932BEFCF2091A001309175
:100CE000A10182239323E8CF2091A0013091A1019B
:100CF00082279327E1CFDBCF0895FDCF0895D7CF8B
:100D00000895FDDFFADF80939E0190939F0108957F
:100D100080E090E0F6CF21E030E002C0220F331FE8
:100D20008A95E2F7C901EDCF21E030E002C0220F41
:100D3000331F8A95E2F780919E0190919F01822B4B
:100D4000932BDFCF21E030E002C0220F331F8A95C2
:100D5000E2F72095309580919E0190919F0182232A
:100D60009323CFCF21E030E002C0220F331F8A95BA
:100D7000E2F780919E0190919F0182279327C1CF36
:100D800020919E0130919F01822B932BBACF20910D
:100D90009E0130919F0182239323B3CF20919E0126
:100DA00030919F0182279327ACCF0895CF93C1E064
:100DB00061FDC4E060FDCC0F62FDC29593E07695C5
:100DC00067959A95E1F7660F771F660F771F460FB5
:100DD000571FFA0140E050E090E06191DF019C0173
:100DE000042E02C0369527950A94E2F72695220B29
:100DF00026272C2326272E934F5F5F4F4430510523
:100E000061F7CF910895A82FA77023E09695879555
:100E10002A95E1F7880F991F880F991F680F791F8E
:100E2000FB0140E050E080E0219130E00A2E02C05A
:100E3000369527950A94E2F72170042E01C0220FFF
:100E40000A94EAF7822B4F5F5F4F4430510561F7F8
:100E50000895262F983068F4863058F4682F70E093
:100E600086E0989F600D711D112446E851E0822FA5
:100E70009DCF0895292F983058F4863048F490E09B
:100E800066E871E036E0239F800D911D1124BBCFF1
:100E900080E00895CF92DF92FF920F931F93CF933C
:100EA000DF936C0100919E0110919F018091A00140
:100EB0009091A101082B192BCFE0D0E081E090E0C8
:100EC0000C2E02C0880F991F0A94E2F78023912309
:100ED000892B61F4219790F7F12C8F2DDF91CF9121
:100EE0001F910F91FF90DF90CF900895FC2EB601D7
:100EF0008C2FC9D5019771F3F0CFCF93DF93EC011D
:100F0000C9DFBE01C0D5DF91CF9108951F93CF9364
:100F1000DF93EB0190918501911531F0CB01EDDF6D
:100F2000DF91CF911F910895811551F0CB01B2DF70
:100F3000182F682FCE018DDFBE01812FA4D5F0CFF1
:100F4000CB0198DF182FF8CF0F931F930091A201C8
:100F50008091A301801303C01F910F91089587E032
:100F6000089FF0011124EC55FE4F20813181428110
:100F7000538164817581868190DE0F5F1F4F0770FA
:100F8000E7CF2091DC013091DD014091DE015091ED
:100F9000DF016091E0017091E1018091E2017DCE7D
:100FA0008091E201803170F48091E101811551F06E
:100FB000E091A2012091A3013091DD014091DC017B
:100FC0002E1301C00895BF0187E0E89FF0011124AE
:100FD000DF01AC55BE4F14968C911497811549F1E1
:100FE00011968C911197831324C08C91841321C086
:100FF00015968C91159781111CC012968D919D911B
:10100000A091DE01B091DF018A1B9B0B883C91050A
:1010100080F48091E2018F7080618093E201E65557
:10102000FE4F80818F70806180838CED91E0D8DDF0
:101030008BCF6F5F7F4FFB01E770C2CFE091A201C2
:101040009091A301E91302C080E008959F0157E049
:10105000E59FF0011124EC55FE4F5181561306C057
:101060005081581303C05581541305C02F5F3F4F63
:10107000F901E770E7CF81E008958F929F92AF92D8
:10108000BF92DF92EF92FF920F931F93CF93DF9364
:10109000CDB7DEB72D970FB6F894DEBF0FBECDBF2C
:1010A0008C0186E0F801DE01189601900D928A9578
:1010B000E1F7F801F58084819CED892E91E0992E6D
:1010C0009091E001911117C0811509F4EFC0F1145E
:1010D00009F42EC1C801CDDD811509F429C187E0CD
:1010E000F801D40101900D928A95E1F7C401E5DA87
:1010F00057DF47DFDBC0E080A280B380D090E10102
:101100002091DE013091DF01A501421B530BD11468
:1011100009F4CFC0483C510508F09EC0811509F480
:10112000C5C09091DD0191808091E201803108F08D
:1011300065C0991226C09091DC019E1122C0F11069
:1011400057C08F7080618093E2011BDF8CED91E0CE
:1011500047DD8091E201F8018683F12C8F2D2D96D9
:101160000FB6F894DEBF0FBECDBFDF91CF911F91B8
:101170000F91FF90EF90DF90BF90AF909F908F9076
:101180000895F11035C040E0692D8E2D57DF40E005
:10119000692D8E2D53DFF82E8111DFCF888599853B
:1011A000ACDE292F22952F70903450F49F7022309E
:1011B00078F0911591F0F8019681903170F4CECFCE
:1011C0002A5F2F70223070F0C8010ADDFD2CC6CFD7
:1011D000911519F0811509F4C1CF805E883008F4AB
:1011E000BDCFF2CF803F08F4B9CF815F8330F7CF16
:1011F0008091E20181608093E201AFCF991207C034
:101200009091DC019E1103C0F11409F473C0C80170
:1012100030DD811509F48CC0F11409F489C0809186
:10122000E201803280F02091DC013091DD012983E0
:101230003A83AB82BC829091E0019D831E828F83B2
:10124000CE010196CDDC87E0F801ACEDB1E0019074
:101250000D928A95E1F74CCF9091E201903188F49C
:10126000488559856A857B858C859D850CDD8CED4F
:1012700091E0B6DCF40187E011928A95E9F781DE0E
:101280006CCF811599F02091DD0181812813BFCFAA
:101290008091DC018E11BBCFF110B9CF9683C801CC
:1012A0009FDCF40187E011928A95E9F7FF24F3941B
:1012B00055CF483C510508F03EC08115B9F3F114F3
:1012C000B9F19091DD018181981329C08091DC01F1
:1012D0008E1125C08091E20180FD18C08031B0F0F0
:1012E0008683807F803F39F08681982F907F905F42
:1012F0008F70892B8683C80173DC87E0F801ACED21
:10130000B1E001900D928A95E1F7F3CE87E0F80104
:10131000ACEDB1E001900D928A95E1F7C7CFC8011D
:10132000A8DC811190CF8091E20181608093E2017D
:10133000C80156DCBBCF488559856A857B858C857D
:101340009D85A1DC97CFAEE0B0E0E9EAF9E00C942E
:101350007722288739874A875B876C877D878E87C6
:10136000CE0108968ADE6C85811599F0611539F0F9
:10137000288539854A855B857D858E858EDC8091C3
:10138000A2019091A30189133DC02E96E3E00C9435
:10139000932287E09E01285F3F4FF90127503109D2
:1013A000D90101900D928A95E1F7611541F3A09161
:1013B000A3018A2F90E08395877090E0AC01209183
:1013C000A2012417150691F097E09A9FD0011124ED
:1013D000AC55BE4F9E012F5F3F4FF90101900D921A
:1013E0009A95E1F74093A301AFDDC9CF1CDC1092C1
:1013F000A3011092A201ECEDF1E087E011928A9531
:10140000E9F7BDCF17E0189FC00111248C559E4FFE
:1014100034DE811509F4B9CFE091A2011E9FF001DD
:101420001124EC55FE4F208131814281538164812A
:101430007581868132DC8091A2019091A301019691
:1014400087708093A2019BCF80910B028695869531
:101450008695089580910B028770089590910B02F4
:10146000977081E0911101C080E00895809137026A
:10147000089590913702982B9093370208958095A4
:10148000982F809137028923809337020895109214
:101490003702089590913602982B90933602089562
:1014A0008095982F80913602892380933602089583
:1014B0001092360208950895FECF089590910C027F
:1014C000292F282329F08095892380930C02F4CFBB
:1014D00008950895FECF089590910D02292F282395
:1014E000281721F0982B90930D02F4CF0895909136
:1014F0000D02292F282329F08095892380930D023E
:10150000E9CF089580910D02811521F010920D020E
:1015100080E0E0CF0895CF93C091370280913602EA
:10152000C82B80910D02811529F0C82B0E94D0157F
:101530008111E8DF8C2FCF910895CF93DF93C09175
:101540000201D0910301E7DF8883C0910201D091AD
:10155000030148E050E063E072E0CE010E949F2268
:10156000892B59F088E0FE01A3E0B2E001900D92D2
:101570008A95E1F7CE010E94B115DF91CF910895D0
:10158000CF93DF93C0910001D0910101C4DF898323
:10159000C0910001D091010140E250E063EE71E0A2
:1015A000CE010E949F22892B59F080E2FE01A3EE1A
:1015B000B1E001900D928A95E1F7CE010E94BE152F
:1015C000DF91CF9108950E949315811529F08091A4
:1015D0008D0287FF01C0D4CFB0CF0895FECF08950C
:1015E00090918E0292FF0EC0982F990F990F990F2C
:1015F000962B90930B0298DB80910B028695869533
:101600008695ECCF91CB10920B0280E0E7CF9091C2
:101610000B028095892380930B02282F277059F4A1
:10162000891749F090918E0292FF05C086958695A4
:10163000869588DBE8CF089590918E0292FB222751
:1016400020F9281749F080FB92F990938E028DE8DB
:1016500092E046D082E0DBCF089580918E02002494
:1016600082FF0394802DE8CF81E0E6CF80E0E4CFD5
:1016700080E090E0BC01E0C380E090E0BC01D6D304
:10168000F7CFA3E0B0E0E7E4FBE00C9478227ED350
:1016900089D31B82CE0103969CD381E090E0809396
:1016A000A0011092A101A1D380E8898384E18A83FB
:1016B000CE010196ABD380E0B4D3DEDF2396E2E027
:1016C0000C949422DECF089573C3089560C30895E7
:1016D00075C3089584C3089588C308958BC308957E
:1016E00095C308959AC308959CC30895ABC3089504
:1016F000A6E0B0E0EEE7FBE00C9476220E94E7174C
:101700008C0180913802909139028017910779F00D
:1017100019821A820E94E717BC0149815A8180E030
:1017200090E00E942E03009338021093390226960F
:10173000E4E00C949222C6D260933E0270933F0282
:10174000809340029093410260933A0270933B026F
:1017500080933C0290933D02089508950895FDCF33
:1017600008950895FEDFFBCF0895FECF08950895F4
:10177000FEDFFBCF81E008958EE79EE012D7EEDF1B
:10178000F1CF29C50895089508950895FCDFFCDF81
:10179000FCCF9CDF811101C095DF82E492E098DFED
:1017A0008DE892E09BDFF7D795DF8EDA80919E017E
:1017B00090919F01A2CA0E94DE175BD211D53CD442
:1017C000E8DF0E9491150E940E03E7D729D70E94F7
:1017D000171B13D5CDCFFFD481110C94921508950A
:1017E000A6E0B0E0E6EFFBE00C946F22C3DF8111CE
:1017F00008C07EDFF0DF0E9416032696EBE00C9413
:101800008B2262D485E8A82E82E0B82E750110E004
:10181000F7010081812F21D31F5F183009F445C0E3
:101820009FEFE91AF90A081799F38091420281FDA6
:101830001AD3A7DF982E10E0812F0FD3F82EF501D1
:1018400081915F01F81661F18F25D82E00E0EE241A
:10185000E3948D2D8E21F1F0CC24C3948F2D8E2115
:1018600009F4C12C911489F0602F812F0E94421736
:1018700081110BC009831A830E94E717BC014981BB
:101880005A8181E09C2D0E942E034C2D602F812FC8
:101890000E9456170F5FEE0C0630D9F6F501F29252
:1018A0001F5F183049F647DFA5CF0813BECFA1CF81
:1018B0000F931F93CF93DF93E8D0EC01D23508F05C
:1018C00040C0D03508F0B3C0C83ED105F0F4C03EEA
:1018D000D10560F4C53AD10578F4C430D10530F4AF
:1018E00081E0219709F080E0C82FD0E0CE01DF91A0
:1018F000CF911F910F910895CE018D5C9109D06514
:101900004397A0F3C0E0D0E0F1CFD03490F4D032D0
:1019100008F0A0C0CE0191509F31A0F78D2F58D173
:10192000082F8C2F90E0B1D0D02FDF71C82FD92B8A
:10193000DDCF8C2F90E0A9D0DF70C82FD92BD06AD3
:10194000D5CFC03882E5D807B8F5C03682E5D807CC
:1019500008F051C0C03482E5D807C8F4C03282E52F
:10196000D80708F042C08C2F8695869520E2829F8A
:10197000C0011124C37021E030E002C0220F331FE8
:10198000CA95E2F7E901C82BD92BDD68AFCF8C2FC0
:1019900086958695877020E2829FC0011124C370CE
:1019A00021E030E002C0220F331FCA95E2F7E901BF
:1019B000C82BD92BDC689ACFC03C82E5D80750F4FD
:1019C0008C2F8F71C03AD24558F5982F84EF906ACA
:1019D000EC018CCFCE01805C9245809708F092CFCD
:1019E000DC2FDF71C0EFD06A81CF8C2F8F71D82FA1
:1019F000C1EFD06A7BCF8C2F86958695877020E2C9
:101A0000829FC0011124C37021E030E002C0220F88
:101A1000331FCA95E2F7E901C82BD92BDA6866CFE4
:101A2000D7D0982F80E09F71EC01D0625FCF8C2FD0
:101A30008F71CED053E0CC0FDD1F5A95E1F7DF70E8
:101A4000282F84FF04C090E1899F90011124C22FA8
:101A5000D0694CCF8D2F8F71BBD0082F8C2F90E089
:101A600014D0302F3F71282F392B3062E9013ECF3F
:101A7000462F783028F4663018F4672F0C94130240
:101A800080E090E00895F4DF13CF803E9105D1F11E
:101A9000C8F48133910509F481C048F48932910575
:101AA00009F471C08A32910509F47FC00895893321
:101AB0009105E1F082389105C9F08533910509F46B
:101AC0005DC00895843E9105D1F148F4823E9105B0
:101AD00031F1833E910541F181EE90E00895863E1B
:101AE0009105C1F1873E9105F1F1089520918D0294
:101AF000237009F064C020918E0223FF14C089E294
:101B000090E0089520918D0220FD45C030918E0215
:101B100030FF09C024FD24C083EE90E00895209199
:101B20008D0222FDF7CF089520918D0222FD44C041
:101B300030918E0230FD43C024FFF5CF11C02091BB
:101B40008E0221FFF0CF80918D0284FD09C087EEC7
:101B500090E0089520918D0223FFE5CF24FFF7CF79
:101B600080E090E0089520918D0223FD2BC03091FC
:101B70008E0231FFE1CF84EE90E0089520918D0236
:101B800025FFD1CFBCCF20918D0225FD1EC0209115
:101B90008E0223FFC8CF89E390E0089520918D0243
:101BA00026FFC1CF8AE290E0089520918D0226FFA2
:101BB000BACF81E390E0089582EE90E0089580EE40
:101BC00090E0089586EE90E0089585E390E0089512
:101BD00090918D0292FF10C041E0282F2471243093
:101BE00009F040E031E0282F2871283009F030E07A
:101BF000431711F02CE0822793FF10C041E0282FFB
:101C00002471243109F040E031E0282F2871283177
:101C100009F030E0431711F02CE0822730918E025A
:101C200030FF10C051E0282F2171213009F050E021
:101C300041E0282F2871283009F040E0541711F0B6
:101C400029E0822731FF10C041E0282F2171213186
:101C500009F040E031E0282F2871283109F030E008
:101C6000431711F029E0822794FF02C083FD877E8D
:101C7000089510928F021092900210929102109289
:101C800092020895EF92FF920F931F937B018C01B4
:101C9000A2D2811112C00E94F3179701A801261B3E
:101CA000370B480B590BC901DA0180938F029093CF
:101CB0009002A0939102B09392021F910F91FF9016
:101CC000EF90089588D2811541F00E94F317462FB6
:101CD000572FBC01CB01BA0108950E94F317DC0114
:101CE000CB0140918F0250919002609191027091CE
:101CF0009202480F591F6A1F7B1FECCF80E00895A6
:101D0000CF939C01205E3245C1E02032310538F48A
:101D1000FB01C581C11103C08F710E94C6028C2FC7
:101D2000CF9108959C01FB018581811599F02B3598
:101D30009CE7390769F02C359CE7390721F02A35F3
:101D40003C4721F0089589DC80E008958DDCFCCFCC
:101D50008DDCFACF81E008959C01FB01858181151E
:101D600099F021309CE7390761F023309CE739076F
:101D700039F021153C4749F40E94EE0280E00895B5
:101D8000A3DC0E94F202FACF81E00895089580E07A
:101D900090E00E94BD229C0181E0233E3E4F09F06D
:101DA00080E0089563EE7EEF80E090E00C94DC220A
:101DB0006FEF7FEF80E090E00C94DC22CF93DF9315
:101DC000EC0182E090E00E94B5228883DF91CF9100
:101DD0000895FC01608182E090E00C94C22283E0CF
:101DE00090E00E94B52290E00895682F83E090E093
:101DF0000C94C222CF93DF93EC0184E090E00E9428
:101E0000BD2288839983DF91CF910895FC01608181
:101E1000718184E090E00C94DC228DE090E00C94E1
:101E2000B522682F8DE090E00C94C222AB01BC017A
:101E30008FE090E00C94D422AB01BC0183E190E0F0
:101E40000C94D422682F8EE090E00C94C222089566
:101E5000FECF08950895FECF0895E82FF0E0E456F0
:101E6000FD4F80810895089580EA8A95F1F70895DD
:101E700000C00895F9CF08950895FECF0895A4E015
:101E8000B0E0E5E4FFE00C947522A5D1F82E809136
:101E9000A40290E084569D4FF114D9F18E010F5F9A
:101EA0001F4FF80124E011922A95E9F7B801B1D14A
:101EB0008115B1F08091930290E044E050E0B801C8
:101EC00084569D4F0E949F2221E020934302892B3C
:101ED00091F4F12CC0DF8F2D2496E5E00C94912233
:101EE000809143028115A9F3F80184E011928A954B
:101EF000E9F710924302E0919302F0E0E456FD4FBF
:101F000089819A81AB81BC8180839183A283B383D1
:101F1000E1CF2091930230E0BC01C90184569D4F6E
:101F2000FFD1ABDFD8CFF894E82FE295EF70F0E067
:101F300041A18F7021E001C0220F8A95EAF7922F0C
:101F40009095942391A392A1822F892B82A37894B8
:101F50000895CF93DF93CAE0D1E089918F3F09F0D4
:101F6000E2DF81E0CE30D807C1F7C4E0D1E089914B
:101F70008F3F09F0D8DF81E0CA30D807C1F7DF9181
:101F8000CF910895A0E0B0E0E8ECFFE00C9472225D
:101F90006C01E62EC62FD0E08E01065F1E4FF801C1
:101FA00080818F3F09F441C0F894E82FE295EF70EB
:101FB000F0E091A18F7021E001C0220F8A95EAF72D
:101FC000892F822B81A382A12095282322A3789494
:101FD0004FDFA4E0B1E031E0F12C2D912F3F79F0FB
:101FE000E22FE295EF70E05EF0E0808190E02F70EC
:101FF00002C0959587952A95E2F780FF1BC080E087
:10200000F82A330F81E0AA30B80739F7F801808148
:102010008F3F09F088DF61E0F11001C060E08E2D94
:1020200029DFF601EC0FFD1FF082CDB7DEB7E8E047
:102030000C948E22832FE4CFA6E0B0E0E2E2F0E140
:102040000C94782280910E0181111FC087E9809342
:102050000A0186EC80930B0184E380930C0185E3F5
:1020600080930D0186E0E4E7F1E09E012F5F3F4F92
:10207000D90101900D928A95E1F786E0F901A4E07B
:10208000B1E001900D928A95E1F780910E0191E007
:102090008927880F880F8093A40294E0981B90935F
:1020A000930257DFECE9F2E088E011928A95E9F7B4
:1020B000E4E9F2E088E011928A95E9F745D0C8DEBC
:1020C0002696E2E00C949422A8E0B0E0EAE6F0E183
:1020D0000C947522FE013196DF0188E01D928A95ED
:1020E000E9F710E00E2FFF2E612F802F9F2D4ADF82
:1020F000812F8F5F182F8430B9F748E050E0602FB0
:102100007F2D84E992E00E949F2241E0892B91F487
:1021100040E06091A40270E064567D4F84E992E053
:1021200014D0182FACDE912F982B892F2896E5E03C
:102130000C94912288E0E02FFF2DA4E9B2E00190F9
:102140000D928A95E1F7E5CF0895EF92FF920F93F4
:102150001F93CF93DF938C017B01C42F411571F046
:1021600081E08093460233D78093440290934502E6
:1021700080E0CDB7DEB7E6E00C949022D091460225
:10218000D115B1F380914402909145029FD60597F5
:1021900078F344E050E0B801C7010E949F22892BE8
:1021A00041F084E0F801D70101900D928A95E1F7A2
:1021B000CD2F109246028C2FDCCFCF930E94492264
:1021C000C82F811102C00E9445228C2FCF91089503
:1021D00080914A020895809149020895FCCF0895A4
:1021E000ECDF80934902FADF80934A02F1DF8093AB
:1021F0000E01F1DF81113EC00895EDDF811101C0B4
:102200003BC0089581E090914B029A3008F080E045
:1022100008950F931F93CF93DF93EC018B0180916F
:102220004B028A3078F4B801CE0178D081111FC0FA
:1022300080914B028F3FA1F4CAD6809347029093BE
:10224000480208C080914702909148023FD6843FDF
:10225000914048F780E0DF91CF911F910F91089551
:102260008F5F80934B028A3038F781E0F4CF109271
:102270004B02FBCF5AC708955BC70895CF92DF92F8
:10228000FF920F931F93CF93DF936901E801082F0B
:10229000880F110B41155105B1F0F80133E0EE0F35
:1022A000FF1F3A95E1F7E15FFE4F81819281845BE8
:1022B0009D4FE0812E2F30E04E17510508F49A0112
:1022C000A9010E94AC22C8010E947719F82E81153D
:1022D000E1F02097D1F0C80123E0880F991F2A95DB
:1022E000E1F7FC01E15FFE4F2381422F50E0C2176E
:1022F000D10508F4AE01815F9E4FFC0164817581B8
:10230000645B7D4FC6010E94AC228F2DDF91CF917F
:102310001F910F91FF90DF90CF900895E9C008952D
:10232000FCC00895A4E0B0E0E8E9F1E10C94762265
:1023300060916102709162028091630290916402E7
:10234000CED511E0643671058105910500F1BADC46
:10235000DC01CB010296A11DB11D89839A83AB8359
:10236000BC8300E010E0980144E050E0BE016F5FE4
:102370007F4F82E083DF182F811549F034D66093B8
:102380006102709362028093630290936402812FD2
:102390002496E4E00C949222A5E0B0E0E2EDF1E1B5
:1023A0000C9470225B01E0907B01F0907C0101E0D5
:1023B00010E0CE0105969C0140E050E0BA0180E0BB
:1023C0005DDF182F811509F444C067018FEFC81A2B
:1023D000D80A60915D0270915E0280915F029091D7
:1023E00060027DD5643671058105910558F104E0E0
:1023F00010E09E012F5F3F4F40E050E0BA0181E0C6
:102400003DDF182F64E070E0C601C8D19D819813AC
:102410002BC0111549F1E7D560935D0270935E0200
:1024200080935F029093600289819A81AB81BC8125
:102430008093590290935A02A0935B02B0935C027E
:1024400081E013C064E070E0C601A8D19D818913CA
:10245000CECFF70181819281A381B48189839A8350
:10246000AB83BC831111E0CF80E0409159025091C1
:102470005A0260915B0270915C02F50140835183C6
:10248000628373832596EAE00C948C22A0E0B0E08E
:10249000ECE4F2E10C9470227C016B015A01B2DE93
:1024A0000AE010E0811102C001E010E0C1E0D0E0DC
:1024B000B601C701F5010995811115C021960C17C8
:1024C0001D078CF0CC9F9001CD9F300D300D112455
:1024D00080E090E045E34A95F1F70000019682170D
:1024E0009307C1F7E5CFCDB7DEB7EAE00C948C22B5
:1024F0000F931F93CF93DF93EC018B014CEC51E1D1
:10250000C5DF811529F042E951E1B801CE01BEDFF6
:10251000DF91CF911F910F910895CF93DF93C091D9
:102520007B01D0917C01CE01019624E0FB01DC010E
:1025300001900D922A95E1F764E070E02FD1888335
:102540008D819E81AF81B885409155025091560290
:10255000609157027091580284179507A607B70734
:1025600059F08093550290935602A0935702B0936E
:102570005802BC01CD0186DBDF91CF91089530C9AF
:102580000895BFD40E946D1BF7D80E94851B13D9F4
:102590000E948E1B0E94911BF2DF0E94A71BF6D89F
:1025A000F9CF80937E0190937F010895E7E6F2E0F2
:1025B00086E011928A95E9F70895CF93DF93809191
:1025C0006702806880936702C7E6D2E089910E9423
:1025D000311B82E0CD36D807C9F7DF91CF9108953E
:1025E000282F67E00E94562290E0FC01E959FD4F38
:1025F000AC0133E0440F551F3A95E1F7841B950B6E
:10260000820F911D26E030E0281B822F21E001C0BF
:10261000220F8A95EAF78081822B808380E00895DB
:1026200061D8809365020895CF93C82FBFDF8C2FA8
:10263000C093650259D8CF91089581E0089581E053
:10264000089581E00895EF92FF920F931F93CF9327
:10265000DF93EC017B018C01005C14470034110511
:1026600008F07FC0FB018481811509F47AC0CE0196
:10267000E8DF811541F0C03F84E7D80799F048F4BE
:102680000A321105B0F080E0CDB7DEB7E6E00C9479
:102690009022C13FD447B9F7F7018581811599F39D
:1026A00080E005C0F7018581811569F381E0BCDF19
:1026B000EACF0091660210916502F70185818115CC
:1026C00009F10F5F009366021130C0F0E1F6EC2FC4
:1026D000E05CF0E0E45DFD4FE491A4E0AE9FA12D4D
:1026E0001124B0E0A959BD4F8C918E2B8C9327E615
:1026F00032E0412FB701CE01A2DFC5CF8C2F805C25
:102700006FDFF5CF01500093660227E632E0412FDC
:10271000B701CE0194DF811509F4B5CF809166022F
:1027200018160CF4B0CF1092660267E672E0809142
:10273000650283DF811102C039DFA5CF8091650278
:10274000813068F0C9F7C7E6D2E08991811189D755
:1027500082E0CB36D807C9F780E083D7EDCF2DDFF5
:10276000EBCF81E091CF0C94640B089580E075DB92
:1027700081700895A9DC8FEF96E721E081509040A9
:102780002040E1F700C000009FDCF0DF811511F070
:10279000EADF59C40895EECF08950895FC01680F4B
:1027A000791F8FEF41E3E617F70709F40895919138
:1027B000892728E030E0982F990F87FF06C0892FDE
:1027C000842721503040B9F7EECF892FFACFCF932D
:1027D000DF93EB0186319C4709F50E94360A9D8103
:1027E000911599F08A7A91E0811101C090E090935F
:1027F0006D02811541F085E37FD20E94E30A80E0FB
:10280000DF91CF91089589E2F7CF80916D02811514
:1028100019F085E388D2F1CF89E2FCCF81E0F0CFD7
:10282000CF93DF93EC01FB018581811509F4CBC0C7
:102830009E0130572332310508F0ABC08DE892E09D
:102840000E946E0BFE01E150F047E232F10520F4E8
:10285000EE50FD4D0C94622280918D028160809338
:102860008D0290C080918E02886080938E028AC013
:1028700080918D028260F3CF80918D028460EFCFD2
:1028800080918D028860EBCF80918E028160EDCFC8
:1028900080918E028260E9CF80918D028061DFCFCE
:1028A00080918D028062DBCF80918D028064D7CFD2
:1028B0000E94130680918D028068D1CF80918D0295
:1028C0008C60CDCF80918E028360CFCF80918D02BE
:1028D0008E7FC5CF80918E02877FC7CF80918D027A
:1028E0008D7FBDCF80918D028B7FB9CF80918D027E
:1028F000877FB5CF80918E028E7FB7CF80918E0279
:102900008D7FB3CF80918D028F7EA9CF80918D0274
:102910008F7DA5CF80918D028F7BA1CF0E94130662
:1029200080918D028F779BCF80918D02837F97CF8F
:1029300080918E028C7F99CF90918D02892F8B7F11
:1029400092FF8460877F92FF886089CF80918E029A
:10295000982F909590FB80F990FB81F986CF90910C
:102960008D02892F8F7B96FF806479CF0E9413069A
:1029700090918D02892F97FB87F9805870CF81E065
:102980000E94760B8DE892E00E94700B0E94130665
:1029900080E0DF91CF91089580E0F2CF90918D0299
:1029A000892F8F7E94FF80615ACF90918D02892F5D
:1029B0008E7F90FF816053CF90918E02892F877F09
:1029C00093FF886052CF81E0E4CF0F931F93CF93A2
:1029D000DF93C42FD22FFC0185818115C9F040936C
:1029E0007002F5D280936E0290936F028C2F805EFE
:1029F000883048F481E0C1FD84E0C0FD880FC2FD4D
:102A000082950E942204DF91CF911F910F9108952A
:102A100010917002141333C080916E0290916F0276
:102A200055D2883C910558F5CD2FC05E1D17C1F0D9
:102A3000812F805E883048F481E011FD84E010FD34
:102A4000880F12FD82950E942704C83048F481E067
:102A5000D1FD84E0D0FD880FD2FD82950E94220432
:102A6000802F0E941B0481E0D1FD84E0D0FD880FFF
:102A7000D2FD8295C83038F60E942704C4CF8C2F2F
:102A8000805E883008F0BFCF81E0C1FD84E0C0FDEA
:102A9000880FC2FD8295F0CF0F93FC01CB01E85166
:102AA000FC47E730F10588F5EC5EFC4D0C946222A2
:102AB00006E221EE41EE6AE17CE787DF80E00F91DC
:102AC000089507E225EE45EE6BE17CE7F6CF06E2DE
:102AD00021EE40EE68E17CE7F0CF07E225EE44EE20
:102AE00069E17CE7EACF06E221EE42EE6CE17CE7A9
:102AF000E4CF07E225EE46EE6DE17CE7DECF08E2AB
:102B000021E045EE6EE17CE7D8CFFB0185818111A4
:102B10001092700281E0D3CF80937202909373027F
:102B200008950895089568D1982F81E0913009F0B3
:102B300080E0089550DB811103C0809171020895F7
:102B4000E0917202F0917302309739F00190F081B8
:102B5000E02D309711F00995089580E00895EACFAF
:102B60000895E0917202F0917302309731F0028083
:102B7000F381E02D309709F009950895E0917202F4
:102B8000F0917302309759F024813581232B39F06D
:102B900026E0DC012C930480F581E02D0995089551
:102BA000CF93DF93C0910201D0910301BCDF811567
:102BB00021F080918D0287FD11C09E012E5F3F4F55
:102BC00096E080E09150F90140812F5F3F4F411125
:102BD0008F5F9111F7CFDF91CF9108952091000180
:102BE000309101012E5F3F4F9EE1EBCFCF93C82F75
:102BF000811102C080E02EC096DF811521F0809106
:102C00008D0287FD0FC08091020190910301FC01AC
:102C10003296089620812C17F9F03196E817F907BB
:102C2000C9F7E8CF8C2F869586958695C03F10F71B
:102C3000E0910001F0910101E80FF11D228130E0E7
:102C4000C77081E001C0880FCA95EAF7282381E0A8
:102C5000232B81F2CF91089581E0FCCF9C01FC01F0
:102C6000329680E09FEF4081461759F031969F3FA2
:102C700019F4411101C0982F8F5F8630A1F79F3F53
:102C800009F40895290F311D97FD3A95F9016283E2
:102C90000895FC01329608962191261302C0DF01A7
:102CA0001E92E817F907C1F70895262F2695269555
:102CB0002695603F60F4820F911DFC01677021E052
:102CC00001C0220F6A95EAF78281822B82830895E0
:102CD000262F269526952695603F68F4820F911D34
:102CE000FC019DEF61FD97EF60FF959562FD929568
:102CF0008281892382830895CF93C82F14DF6C2F9C
:102D0000811559F080918D0287FF07C080910001E5
:102D100090910101CADFCF910895809102019091B5
:102D200003019CDFF8CFCF93C82FFDDE6C2F8115F8
:102D300059F080918D0287FF07C08091000190912A
:102D40000101C6DFCF9108958091020190910301A6
:102D5000A0DFF8CFE8DE811571F080918D0287FF4A
:102D60000AC0E0910001F091010132968EE11192CA
:102D70008A95E9F70895E0910201F09103013296F6
:102D800086E0F5CF0895FECF08958F5F80932A01E6
:102D900060912701709128018091290190912A0169
:102DA000F2CF83E080932A0160912701709128017E
:102DB0008091290190912A01E6CFE7CF089581E023
:102DC00080932A0160912701709128018091290147
:102DD00090912A01D8CFF3CF089591E0811101C0DD
:102DE00090E09093290160912701709128018091D2
:102DF000290190912A01C7CF8091290108958093DC
:102E000028016091270170912801809129019091FA
:102E10002A01B9CF809128010895809327016091FC
:102E20002701709128018091290190912A01ABCF4F
:102E300080912701089508950895FECF089508957B
:102E40000895F9CF08950F931F93CF93DF93F7DF82
:102E50003BD9F6DF04E712E0C0E0D0E08C2F0E94FF
:102E60002D0FF80181938F0191E0811101C090E055
:102E7000D92BCF5FC83091F78D2FDF91CF911F9164
:102E80000F910895E82FF0E0EC58FD4F808190E01D
:102E900021E030E002C0220F331F6A95E2F72823B9
:102EA000392381E0232B09F480E0089541110DC0FE
:102EB000E82FF0E0EC58FD4F21E001C0220F6A95A9
:102EC000EAF720958081282320830895CF93DF930C
:102ED000EC017DD08C1B9D0BDF91CF910895EF927B
:102EE000FF920F931F937B018C017DD09701A80166
:102EF000621B730B840B950B1F910F91FF90EF904A
:102F0000089585B7806885BF85B7806885BF0895B7
:102F10001F921FB61F9211248F939F93AF93BF935D
:102F200080917C02811113C08091A5029091A6022C
:102F3000A091A702B091A8024196A11DB11D809356
:102F4000A5029093A602A093A702B093A802BF91F6
:102F5000AF919F918F911F901FBE1F9018958091E8
:102F6000AD02843031F10E94F60210927C0288E1B9
:102F700090E020E40FB6F894A895809360000FBE0F
:102F80002093600083B7817F846083BF83B78160B3
:102F900083BF7894889583B78E7F83BF0FB6F894EC
:102FA000A895809160008861809360001092600015
:102FB0000FBE08950E9413060C94FA0282E084BDAD
:102FC00093E095BD9AEF97BD80936E0008952FB75B
:102FD000F8948091A5029091A602A091A702B091C9
:102FE000A8022FBF08952FB7F8946091A5027091A1
:102FF000A6028091A7029091A8022FBF089578940D
:103000001F921FB61F9211248F939F93AF93BF936C
:103010008091A5029091A602A091A702B091A8026A
:103020000196A11DB11D8093A5029093A602A093C5
:10303000A702B093A802BF91AF919F918F911F906B
:103040001FBE1F90189587E797E78093000890931D
:10305000010888E19AE00FB6F894A8958093600083
:103060000FBE90936000FFCF88E19AE00FB6F8940E
:10307000A895809360000FBE90936000FFCF8EE113
:103080004A9B02C08150E1F74A9BFECF08955A98AF
:1030900080E28A95F1F75A9A0895FC018BE08A95AF
:1030A000F1F728E080E090E031E040E14A95F1F767
:1030B000880F4A9B02C08160932742E04A95F1F74E
:1030C000000040E14A95F1F7215079F720E12A9577
:1030D000F1F729B132E03A95F1F7000030E13A9585
:1030E000F1F731E022FD93272081920F908308951C
:1030F000A1E0B0E0EEE7F8E10C94742219828C01B3
:103100007C01E60EF11CBBDFCE010196C6DFF801A3
:1031100081938F01EE15FF05B1F781E0998191113F
:1031200080E02196E6E00C949022529A5A9A0895F3
:1031300052985A9AEA9AE9E6F0E080818F7C80837F
:1031400008956150770B91E001C0990F6A95EAF7F5
:10315000692F90E021E0611108C0911591F05A9A11
:1031600080E28A95F1F75A980895362F382339F07E
:103170005A9A922730E23A95F1F76695ECCF5A9831
:10318000F9CF5A98EDCFFF920F931F93CF93DF9310
:10319000EC018C01060F111D8991F82E78DF68E093
:1031A0008F2DCFDFC017D107B9F7CDB7DEB7E5E078
:1031B0000C9491221F920F920FB60F9211240F932D
:1031C0001F932F933F934F935F936F937F938F93AF
:1031D0009F93AF93BF93EF93FF93CF93DF930F92A0
:1031E000CDB7DEB719824BDFCE01019656DF082F2F
:1031F000069506950695282F22952570902F957097
:10320000920F292F237096959695920F9827977075
:103210008981892B09F055C0043008F052C080E143
:103220008A95F1F75A9A529A82E08A95F1F700C08E
:103230005A9888E0089F80011124D801A15FBE4FF1
:103240001696ED91FD911897309791F060917B0162
:1032500070917C0114962D913D91260F371F159783
:103260008D919D91680F791F4C9113978C910995C1
:10327000F801E15FFE4F6381611549F020917B0108
:1032800030917C0184819581820F931F7CDFFFDE6A
:1032900080E18A95F1F75A9852985A9A80E18A9576
:1032A000F1F7F801E15FFE4F6081611549F020916F
:1032B0007B0130917C0181819281820F931F18DF05
:1032C000DEDE0F90DF91CF91FF91EF91BF91AF9133
:1032D0009F918F917F916F915F914F913F912F912E
:1032E0001F910F910F900FBE0F901F9018950F9385
:1032F0001F93CF93DF93EC0104970CF05EC0F8941A
:10330000529A5A9885E08A95F1F700009C2F96957D
:1033100095708C2F8570980F892F83709695969550
:10332000292F93E0CC0FDD1F9A95E1F7280F822F0C
:103330008C2B082FACDE00C068E0802F02DF80E11C
:103340008A95F1F752985A9A4A9B30C087E090E0EC
:103350004A992EC0FE01E15FFE4F6381611559F06D
:1033600020917B0130917C0184819581820F931F94
:10337000BFDE8115F9F083DE80E28A95F1F75A9875
:10338000529A80E18A95F1F7C15FDE4F688161153D
:1033900049F020917B0130917C0189819A81820FD3
:1033A000931FF1DE74DE789481E008C000C0CCCFBA
:1033B000019749F4529A5A9A789480E0DF91CF911C
:1033C0001F910F91089500C0C3CF089508959B01E8
:1033D000BA019091AD029430D9F48F708093E900D6
:1033E0009FEF8091E80085FD06C085ED8A95F1F795
:1033F00000009150B1F78091E80085FF09C040E0DE
:1034000050E0C90119D28091E8008E778093E800DE
:10341000089540E250E0BC0182E0D9CFCF93DF9322
:10342000EC01EADC48E050E0BE0181E0D0DF88E05A
:10343000FE01ADE7B2E001900D928A95E1F7DF91D0
:10344000CF9108958091AC02811107C083D3D3D36B
:103450008091E20084608093E20008951092AC02B3
:103460000895ADDC81E0B9CC6091A90281E06111E1
:1034700001C080E096CC9091AD0281E0943009F0DB
:1034800080E06091A90299CC42E061EC81E0DED25B
:1034900042E261EC82E0DAD242E061EC83E0D6D233
:1034A00042E160E885E0D2D242E161E884E0CED238
:1034B0009091AD0281E0943009F080E06091A90222
:1034C00064CC8091AF02893009F445C058F4823051
:1034D00009F49DC0833009F46FC08130F1F08BE2B4
:1034E00091E037C78A3009F483C08B30C1F78091EF
:1034F000AE028132A1F78091B2029091B302892B82
:1035000071F78091E800877F8093E800D3D28091A3
:10351000B00263DC0E941306E2CF8091AE02813AD2
:10352000F1F68091E800877F8093E8008091B202F5
:103530009091B302892B59F060E080E090E070E058
:10354000C8D18091E8008B778093E800C8CF68E00D
:103550008DE792E0F4CF8091AE02813209F0BFCFC7
:103560008091B2029091B302029708F0B8CF809197
:10357000E800877F8093E8008091E80082FF17C011
:103580002091F3008091F200922F029731F4809104
:10359000F100813011F0863019F48091F1002FDCB8
:1035A0008091E8008B778093E80084D298CF809157
:1035B000AD028111E1CF08958091AE02813A09F008
:1035C0008ECF8091B2029091B302892B09F087CF00
:1035D0008091E800877F8093E8008091E80080FF79
:1035E000FCCF0ADC8093F1008091E8008E77DBCF7E
:1035F0008091AE02813209F072CF8091E800877F1E
:103600008093E80057D28091B10207DC68CF8091A7
:10361000AE02813A09F063CF8091E800877F809302
:10362000E8008091E80080FFFCCF02DCDBCF82E085
:1036300080933D0110923E018BE291E051C60895C6
:10364000CF93DF938BE291E0CDD5EC01209719F475
:10365000DF91CF9108958BE291E0EED5F0DF2197D5
:10366000F5CFCF939091E900C091EC0020913B0100
:1036700030913C0120FF15C09F70C0FBCC27C7F9DB
:10368000C92B90912C019F709093E9009091EB00D1
:1036900090FF04C09091EE0097FD05C0CF70C093DD
:1036A000E900CF9108959FEF2091E80025FD06C025
:1036B00025ED2A95F1F700009150B1F78093F100C4
:1036C0008BE291E04BD58091E80080FFE7CF8091BD
:1036D000E8008E778093E800E1CF84B7877F84BFCE
:1036E0000FB6F894A895809160008861809360007F
:1036F000109260000FBE80E890E00FB6F8948093BF
:103700006100909361000FBE66CB24D274D2E2EECA
:10371000F0E08081846080837894D0C486E491E076
:10372000FBC98091AD02853029F48091AD028530CE
:1037300011F040CC089513DC86DB8115B1F3809144
:10374000AB02811591F362D00E941306EECF78DFB1
:103750008BE291E031C59A014091B4025091B502DB
:1037600000C0492F50E043305105C9F070F441309A
:103770005105E9F14230510571F488E790E044EADF
:1037800052E0F90140835183089541325105E9F037
:103790004232510519F180E090E040E0F2CF482F2D
:1037A00050E0813061F04230510561F0E0EAF2E032
:1037B0004115510581F7849190E0AF01E2CFE0E837
:1037C000F2E0F9CFECE6F2E0F6CF61307105A0F05F
:1037D00011F789E090E04FEC52E0D3CF61307105F2
:1037E00080F0C9F68BE390E04EE253E0CACF82E16D
:1037F00090E04CE153E0C5CF89E090E046EB52E029
:10380000C0CF84E490E049E653E0BBCF80E189BDBE
:1038100082E189BD09B400FEFDCF8091D8008F7D83
:103820008093D8008091E00082608093E0008091D6
:10383000E00081FDFCCF0895AF92BF92CF92DF925E
:10384000FF920F931F93CF93DF936C01EB018A01DB
:1038500050D1F82E811123C00115110539F0F8015E
:1038600080819181C81BD90BC80ED91EA12CB12C07
:103870002097A9F08091E80085FD21C08091E800A3
:103880008E778093E80001151105A1F0F801808181
:1038900091818A0D9B1D8083918385E0F82E8F2D69
:1038A000DF91CF911F910F91FF90DF90CF90BF904C
:1038B000AF9008951ED18115E9F2F82EF0CFF601F0
:1038C00081916F018093F10021978FEFA81AB80AB8
:1038D000CFCFFC012091B4023091B50226173707F3
:1038E00020F06115710569F09B0190E0211531050B
:1038F00071F491110CC08091E80082FF38C080E023
:1039000008959091E8009E779093E800EDCF809124
:10391000AD028115C1F18530C1F18091E80083FDD0
:1039200030C08091E80082FDE6CF8091E80080FF02
:10393000DDCF8091F3004091F200582F2115310521
:1039400019F04830510558F091E04830510509F020
:1039500090E04091E8004E774093E800C7CF819116
:103960008093F100215031094F5F5F4FE7CF809185
:10397000AD02811541F0853041F08091E80083FF70
:10398000BACF81E0089582E0089583E00895FC01B4
:103990002091B4023091B5022617370720F0611547
:1039A000710569F09B0190E02115310571F49111C9
:1039B0000CC08091E80082FF39C080E008958091BA
:1039C000E8008E778093E800EDCF8091AD028115FD
:1039D000C9F18530C9F18091E80083FD31C0809143
:1039E000E80082FDE6CF8091E80080FFDDCF809186
:1039F000F3004091F200582F2115310519F048309D
:103A0000510558F091E04830510509F090E080915F
:103A1000E8008E778093E800C7CF84918093F1000F
:103A20003196215031094F5F5F4FE6CF8091AD0253
:103A3000811541F0853041F08091E80083FFB9CFD6
:103A400081E0089582E0089583E00895982F9730EB
:103A500028F08F708093E90081E008959093E90049
:103A6000242F762F50E0981731F07091EC002091C0
:103A7000ED005091F00021FD02C09F5FE8CF309132
:103A8000EB003E7F3093EB003091ED003D7F3093B3
:103A9000ED003091EB0031603093EB007093EC005F
:103AA0002093ED005093F0002091EE0027FDE5CF2C
:103AB00080E008958091AE0287FF13C08091E800F6
:103AC00082FF06C08091E8008B778093E80008951C
:103AD0008091AD028111F2CF08958091AD028115E0
:103AE000D9F38091E80080FFF8CF8091E8008E77CD
:103AF000ECCF2091E4003091E50095E6A9012091FA
:103B0000EC00822F817020FF06C08091E80080FFCA
:103B100006C080E008952091E80022FD1AC080913F
:103B2000AD02811589F0853089F08091EB0085FD2B
:103B30000FC02091E4003091E50042175307F9F2DD
:103B40009150E1F684E0089582E0089583E00895BD
:103B500081E008955FD066D0E0EEF0E08081816082
:103B60008083E8ED80818F77808319BCA7EDB0E07A
:103B70008C918E7F8C9380818F7E80831092AC029B
:103B80000895CF93DF9346D04DD0C8EDD0E0888123
:103B90008F77888388818068888388818F7D8883F8
:103BA00019BC1092AD021092A9021092AB021092B1
:103BB000AA02E0EEF0E080818B7F808388818160C3
:103BC000888342E060E080E041DFE1EEF0E0808168
:103BD0008E7F8083E2EE8081816080838081886037
:103BE0008083E0EE80818E7F8083888180618883FE
:103BF000DF91CF910895E8EDF0E080818F7E8083A2
:103C0000E7ED80818160808384E082BF81E08093E2
:103C1000AC02B7CFE8EDF0E080818E7F8083109218
:103C2000E20008951092DA001092E10008951F92C8
:103C30000F920FB60F9211242F933F934F935F93E0
:103C40006F937F938F939F93AF93BF93EF93FF9364
:103C50008091E10082FF0AC08091E20082FF06C0ED
:103C60008091E1008B7F8093E10027D28091DA0080
:103C700080FF18C08091D80080FF14C08091DA00C6
:103C80008E7F8093DA008091D90080FF8FC080E121
:103C900089BD82E189BD09B400FEFDCF81E080933A
:103CA000AD02D0DB8091E10080FF18C08091E2007E
:103CB00080FF14C08091E2008E7F8093E2008091AB
:103CC000E20080618093E2008091D800806280935E
:103CD000D80019BC85E08093AD02C6DB8091E1007D
:103CE00084FF28C08091E20084FF24C080E189BD68
:103CF00082E189BD09B400FEFDCF8091D8008F7D9F
:103D00008093D8008091E1008F7E8093E1008091C4
:103D1000E2008F7E8093E2008091E20081608093D8
:103D2000E2008091A902811509F445C084E08093E6
:103D3000AD02A1DB8091E10083FF27C08091E2000A
:103D400083FF23C08091E100877F8093E10082E0C0
:103D50008093AD021092A9028091E1008E7F809342
:103D6000E1008091E2008E7F8093E2008091E2008A
:103D700080618093E20042E060E080E067DE809155
:103D8000F00088608093F0006CDBFF91EF91BF91B1
:103D9000AF919F918F917F916F915F914F913F91E3
:103DA0002F910F900FBE0F901F90189519BC109275
:103DB000AD0254DB77CF8091E30087FF02C083E040
:103DC000B6CF81E0B4CF1F920F920FB60F9211249D
:103DD0001F932F933F934F935F936F937F938F9393
:103DE0009F93AF93BF93CF93DF93EF93FF93E9EE4E
:103DF000F0E080811091EC008F7010FB112717F913
:103E0000182B1082C0EFD0E08881877F8883789458
:103E10001CD0E9EEF0E010828881886088831F70F2
:103E20001083FF91EF91DF91CF91BF91AF919F915F
:103E30008F917F916F915F914F913F912F911F9142
:103E40000F900FBE0F901F901895AAE2B0E0EAE223
:103E5000FFE14DC38EEA92E0FC0101962091F10052
:103E6000208322E0863B9207B9F72BDB8091E800A4
:103E700083FF37C08091AE029091AF029A3088F5EF
:103E8000E92FF0E0E55EFC4D1DC3803889F08238F3
:103E900041F58091B2028F70873018F58093E90068
:103EA0008091EB0085FB882780F91092E90006C01D
:103EB0008091AB02880F9091AA02892B9091E80023
:103EC000977F9093E8008093F1001092F100809129
:103ED000E8008E7722C0811115C08091B002813038
:103EE00001F18091E80083FF0AC08091E800877F9C
:103EF0008093E8008091EB0080628093EB00AA96AB
:103F0000E3E011C3823069F78091B002811579F046
:103F10001092E9008091E800877F8093E800CADD75
:103F2000E0CF933009F080E08093AB02F1CF809135
:103F3000B2028F70282F2150263098F68093E90026
:103F40002091EB0020FFE4CF933031F48091EB001F
:103F500080628093EB00DCCF9091EB0090619093B6
:103F6000EB0021E001C0220F8A95EAF72093EA00D6
:103F70001092EA008091EB008860EBCF8111B1CF05
:103F80008091B0028F77182F8091E3008078812B89
:103F90008093E3008091E800877F8093E8008ADDCA
:103FA0008091E80080FFFCCF8091E30080688093DF
:103FB000E30083E0111101C082E08093AD0291CF54
:103FC0008058823008F08DCF8091B0029091B1027C
:103FD0008C3D23E0920789F583E08A838AE2898316
:103FE0004FB7F894DE01139620E03EE051E2E32F54
:103FF000F0E050935700849120FF03C082958F70AA
:104000003F5F8F708A30B8F0895C8D931D922F5F6F
:10401000243169F74FBF8091E800877F8093E800E3
:104020006AE270E0CE01019654DC8091E8008B7763
:104030008093E80056CF805DE8CF6091B202709126
:10404000B302AE014F5F5F4F86DBBC01892B09F4E1
:1040500048CF9091E800977F9093E80089819A81FA
:1040600096DCE3CF803809F03CCF8091E800877F71
:104070008093E8008091A9028093F10028CF8111FC
:1040800030CF9091B002923008F02BCF8091E800B1
:10409000877F8093E8009093A9020CDD8091A902AC
:1040A000811529F084E08093AD02EED91ACF80917A
:1040B000E30087FDF7CF81E0F6CF0895CF9380919D
:1040C000AD02811591F08091E900C091EC008F70F4
:1040D000C0FBCC27C7F9C82B1092E9008091E800FB
:1040E00083FDB3DECF70C093E900CF910895CF93E5
:1040F000C62F2091AD022430F9F4FC014489558982
:1041000066897789452B462B472BB1F081818F70CB
:104110008093E9008091E80085FF05C0C093F1001D
:1041200080E0CF9108958091E8008E778093E80039
:10413000E0DC811599F3F5CF82E0F3CFCF93C82F60
:10414000FB01682F84859585D2DF811104C08C2FF7
:1041500090E0CF9108958FEF9FEFFBCF2091AD02BC
:10416000243041F5FC014489558966897789452BBE
:10417000462B472BF9F081818F708093E9002091C5
:10418000F3008091F200922F892B11F480E00895C2
:104190009091E8008091E8008E778093E80095FD8B
:1041A000F5CFA7DC811107C09091E8009E7790932E
:1041B000E800089582E008952091AD02243089F44A
:1041C000FC014489558966897789452B462B472B05
:1041D00041F021812F702093E9002091E80020FD1B
:1041E000BDCF08952091AD022430E9F4FC0144894B
:1041F000558966897789452B462B472BA1F0868107
:104200008F708093E9008091E80082FF0CC02091BC
:10421000F3008091F200922F892B41F48091E80005
:104220008B778093E80080E090E008952091F30080
:104230008091F200922F08952091AD02243019F060
:104240008FEF9FEF0895FC0144895589668977892E
:10425000452B462B472BA1F386818F708093E90075
:104260008091E80082FFECCF2091F3008091F20072
:10427000922F892B81F08091F10090E04091F30022
:104280002091F200342F232B29F42091E8002B7782
:104290002093E80008958FEF9FEFF0CFFC01848515
:1042A0009585CADF8F3F980711F48EEF9FEF089531
:1042B000CF93DF93EC018C859D85BEDF8F3F980700
:1042C00019F0DF91CF9108958091AD02811529F009
:1042D0008C859D8571DFF2DEEECF8EEF9FEFF1CF03
:1042E000A8E0B0E0E5E7F1E201C18C018091AD0208
:1042F000843051F5F80184899589A689B789892B7D
:104300008A2B8B2B09F183858F708093E90088E0DD
:10431000E0E5F1E09E012F5F3F4FD90101900D9242
:104320008A95E1F740E050E068E070E0C90184DA86
:1043300040E050E062E070E0C80142967DDA809192
:10434000E8008E778093E8002896E4E0EBC00895BB
:104350000895CF93DF93EC018091E80083FF13C0B1
:1043600028818091B2029091B3022817190659F45E
:104370008091AF02823209F474C040F4803209F4B3
:104380003FC08132A1F0DF91CF9108958332D9F7F8
:104390008091AE028132B9F78091E800877F8093E7
:1043A000E80088DB6091B002CE01D2DFECCF8091D3
:1043B000AE02813A41F78091E800877F8093E80060
:1043C0008091E80080FFFCCF8C899D89AE89BF89F0
:1043D0008093F1009093F100A093F100B093F1006D
:1043E000888D8093F100898D8093F1008A8D809370
:1043F000F1008091E8008E778093E8005BDBC3CF0B
:104400008091AE02813209F0BECF8091E800877FB3
:104410008093E8008091E80082FF1EC03091F10097
:104420002091F1009091F1008091F1003C8B2D8B57
:104430009E8B8F8B8091F100888F8091F100898F06
:104440008091F1008A8F8091E8008B778093E8005B
:1044500031DBCE017CDF97CF8091AD028111DACFC5
:1044600092CF8091AE02813209F08DCF8091E80029
:10447000877F8093E8001EDB8091B0029091B102AB
:10448000888B998BCE0163DF7ECF64DB1092AD0207
:104490000895E8EDF0E08081806180838AE18A956B
:1044A000F1F700C08091D90081700895992778E0D4
:1044B000880F991F961708F0961B881F7A95C9F7E1
:1044C00080950895EE0FFF1F0590F491E02D09945B
:1044D0002F923F924F925F926F927F928F929F9214
:1044E000AF92BF92CF92DF92EF92FF920F931F9302
:1044F000CF93DF93CDB7DEB7CA1BDB0B0FB6F894B3
:10450000DEBF0FBECDBF09942A88398848885F84F2
:104510006E847D848C849B84AA84B984C884DF8063
:10452000EE80FD800C811B81AA81B981CE0FD11D47
:104530000FB6F894DEBF0FBECDBFED010895FB01AD
:10454000DC0104C08D910190801921F4415050404C
:10455000C8F7881B990B0895FB01DC0102C001908C
:104560000D9241505040D8F70895F999FECF92BD71
:1045700081BDF89A992780B50895A8E1B0E042E09E
:1045800050E020C0262FF999FECF92BD81BDF89A48
:10459000019700B4021639F01FBA20BD0FB6F89487
:1045A000FA9AF99A0FBE08950396272FECDFEADFF7
:1045B000252FE9DF242FE7CF0196272FE4DFE2CF75
:1045C000DC01CB01FC01F999FECF06C0F2BDE1BDD3
:1045D000F89A319600B40D9241505040B8F70895C2
:1045E000F894FFCF6614D5146E1438143C1472146A
:1045F0004014761482144C14CE145014861454149F
:104600008A14AF1458148E14B6145E1494149C14A7
:1046100044147A1448147E1462149814A614BF1417
:10462000CC1432146A14DC1467156D155815611515
:10463000731579157F15451F6B1F711F6B1F711F38
:0A464000BE1FE01F711F32203F2053
:10464A000E022E02F5F6F731333297C634350100E1
:10465A000000010000000000000004010000000446
:10466A0005000000000000000001000284100000A4
:10467A00010510000001830800000100000000008D
:10468A000000000000000A170E1A091AE619E519B7
:10469A00A12000000000020000000003000000004A
:1046AA009E204E21000000000003000000009E2012
:0E46BA0058210000F5F6F7313332004C0200B3
:00000001FF
